:020000040000FA
:0300000002007388
:1000130002024500000080FB1200A3B900030200A6
:100023005DE4900200786779018002F0A3D8FCD9DF
:10003300FA900266AA82AB839000A6783F7901808A
:1000430015E493A3AC82AD838A828B83F0A3AA8247
:10005300AB838C828D83D8E9D9E7758219758304C4
:100063007400120085758216758300740012008572
:1000730075D0007581BF751000751102759F000260
:10008300001BC09FF59FE473D09F22D083D082C012
:100093009FE493C0E0740193C0E0740293F59F2240
:1000A30079012241542B54585057300D0A004F4BBD
:1000B3000041542B524F4C45300D0A0041542B4DF7
:1000C3004F4445300D0A00D0070000E803000064E8
:1000D300000000436F6E6E65637465640032000058
:1000E3000012008E9D030012008E92020012008EF9
:1000F300AF020012008EBA020012008EE302001259
:10010300008E76040012008EBF040012008E2305B9
:100113000012008ECE0400C3E7960809E79608098B
:10012300E7960809E79622E0FAA3E0FBA3E0FCA325
:10013300E0FD22CAC0E0E6F0A308DAFAD0E0FA2232
:10014300C0D0251010AF08F510500205118008F536
:100153001050020511D2AFD0D0222510F58210AF76
:1001630008F510400215118008F51040021511D250
:10017300AF851183222510F582E43511F5832225FD
:1001830010C582C0E0E51134FFC583C0E0E510C3AC
:10019300958224F810AF0885831185821080088525
:1001A3008311858210D2AFCEF0A3E520F0A37808A7
:1001B300E608F0A3DEFAEFF0A3E58124FAF8E608F7
:1001C300F0A3E608F0A3E608F0A30808E608F0A306
:1001D300E608F0A315811581D0E0FED0E0F8158183
:1001E30015811581E8C0E0EEC0E0228511838510FA
:1001F30082E0A3FEE0A3F5207808E0A3F608DFFA87
:10020300E0A3FFE0A3C0E0E0A3C0E0E0A3C0E0E020
:10021300A3C0E0E0A3C0E010AF088582108583117E
:100223008008858210858311D2AFD083D0820200EB
:100233008B74028000C0E0F40412015DD0E012016F
:100243003622C0E0C0D0E8C0E0E9C0E0C082C0838D
:10025300C28BE5C1C0E0900201E0F8790074022886
:10026300F582740239F583D0E0F0900201E02401B5
:10027300F0900201E0C3946440069002017400F020
:10028300D083D082D0E0F9D0E0F8D0D0D0E032757E
:10029300F10075F30C75C23B75C50843C4804386F2
:1002A300C0C2E9C28BD2AAD2AF02008B89C1A2E934
:1002B30050FCC2E902008B74F7120182EAFEEBFFE5
:1002C30080128E828F83E0F91200F08E828F83A3D7
:1002D300AE82AF838E828F83E070E77F010201EEEF
:1002E30074F01201828C0E8D0F7410120178E0F5F8
:1002F3000AA3E0F50B7E007F0075080075090078FE
:100303000079008015740228F582740239F583742C
:1003130000F0E82401F8E93400F9C3E89464E994AF
:100323000040E29002017400F01200F67E007F00AC
:100333008008EE2401FEEF3400FFC3EE950AEF952B
:100343000B502490029212012A120102AC0EAD0F3F
:100353007A027B021201148A0C8B0D850C08850D21
:1003630009E508450960CB9002017400F078007933
:10037300008015740228F582740239F5837400F045
:10038300E82401F8E93400F9C3E89464E9940040EF
:10039300E2AA08AB097F080201EE74F6120182900B
:1003A300028A12012A1201027508D075090778081A
:1003B3001202347C717D027A667B021200FC7402A5
:1003C30012014390028E12012A120102750814755C
:1003D300090078081202347C717D027A747B021260
:1003E30000FC740212014390028E12012A120102D0
:1003F30075081475090078081202347C717D027A3D
:100403007F7B021200FC740212014390020074010C
:10041300F07F020201EE1201081200EA1200E47CEE
:10042300967D027A027B021201148A088B09E50881
:10043300450960EB9002017400F0900201E060FA5C
:100443009002A012012A1201027A027B021200F624
:100453009002017400F075086475090078081202AF
:10046300347C007D007A027B0212010E74021201B9
:100473004380C774F01201828A0C8B0D8C0E8D0F92
:100483007A007B008019E82401F8E93400F9C3E815
:100493009417E9940240EFEA2401FAEB3400FB8A53
:1004A300088B09E4F50AF50B780C790812011A5048
:1004B300067800790080D77F080201EE53C6BFE5B6
:1004C3009EA2E640FA53C6B802008B74F61201826C
:1004D3008C828D83E0700B80428A828B83A3AA82F5
:1004E300AB838A828B83E0602E7E007F008008EEE0
:1004F30024010EEF3400FFEC2EF8ED3FF9EA2EF560
:1005030082EB3FF583E0F50888828983E065087014
:10051300C8A3E070DA80047A007B007F020201EE58
:1005230074F71201827409120178E0F8A3E0F98AE2
:10053300828B838003ECF0A3E8FEE9FFEE24FF182F
:0D054300EF34FFF9EE4F70ED7F010201EE85
:040000050000007384
:00000001FF
