:020000040800F2
:10000000700A0020CD0100083B1500080515000806
:10001000391500080D030008B11C0008000000009D
:10002000000000000000000000000000B9170008F8
:100030000F030008000000005D150008BB17000852
:10004000E7010008E7010008E7010008E7010008F0
:10005000E7010008E7010008E7010008E7010008E0
:10006000E7010008E7010008E7010008E7010008D0
:10007000E7010008E7010008E7010008E7010008C0
:10008000E7010008E7010008E7010008E7010008B0
:10009000E7010008E7010008E7010008E7010008A0
:1000A000E7010008E7010008E7010008E701000890
:1000B00081180008E7010008E7010008E7010008CF
:1000C000E7010008E7010008E7010008E701000870
:1000D000E7010008791C0008E7010008E7010008B3
:1000E000E7010008E7010008E7010008E701000850
:1000F000E7010008E7010008E7010008E701000840
:10010000E7010008E7010008E7010008E70100082F
:10011000E7010008E7010008E7010008E70100081F
:10012000E7010008E7010008E7010008E70100080F
:1001300000F002F800F03AF80AA090E8000C8244BF
:100140008344AAF10107DA4501D100F02FF8AFF29C
:10015000090EBAE80F0013F0010F18BFFB1A43F0A5
:10016000010318471023000030230000103A24BF79
:1001700078C878C1FAD8520724BF30C830C144BF0C
:1001800004680C607047000000230024002500264E
:10019000103A28BF78C1FBD8520728BF30C148BFEA
:1001A0000B6070471FB51FBD10B510BD00F07CF887
:1001B0001146FFF7F7FF01F093FD00F09AF803B442
:1001C000FFF7F2FF03BC01F074FD0000094880470F
:1001D00009480047FEE7FEE7FEE7FEE7FEE7FEE729
:1001E000FEE7FEE7FEE7FEE704480549054A064B41
:1001F0007047000031180008310100087004002029
:10020000700A0020700600207006002070474FF032
:1002100000020429C0F0128010F0030C00F01B80D3
:10022000CCF1040CBCF1020F18BF00F8012BA8BFE1
:1002300020F8022BA1EB0C0100F00DB85FEAC17CA5
:1002400024BF00F8012B00F8012B48BF00F8012B58
:1002500070474FF0000200B5134694469646203989
:1002600022BFA0E80C50A0E80C50B1F12001BFF46F
:10027000F7AF090728BFA0E80C5048BF0CC05DF8D5
:1002800004EB890028BF40F8042B08BF704748BF23
:1002900020F8022B11F0804F18BF00F8012B704797
:1002A0007047704770477047754600F02BF8AE46B0
:1002B00005006946534620F00700854618B020B572
:1002C000FFF792FFBDE820404FF000064FF0000717
:1002D0004FF000084FF0000B21F00701AC46ACE8EE
:1002E000C009ACE8C009ACE8C009ACE8C0098D465B
:1002F000704710B50446AFF300802046BDE81040BB
:10030000FFF75DBF0048704710040020FEE770470C
:1003100031B500F009F9044600F006F90099001B18
:100320008842F9D338BD00002DE9F84FDFF8BC91C1
:10033000002309F1040A0AF1040B1C464FF00F08D0
:100340000BF1040E01270A68A7403A40BA4272D165
:10035000DFF89CC14D68A5EB0C0665452BD00DDC84
:10036000032D34D005DC35B3012D19D0022D2FD14A
:100370001BE0112D16D0122D2AD119E0B6F5881FD9
:1003800019D006DCB6F5803F15D0B6F5801F1FD119
:1003900011E0B6F5001F0ED0B6F5041F18D10AE023
:1003A000CB6815E0CB681B1D12E0CB6808330FE06B
:1003B000CB680C330CE08B682BB1012B4FF008039A
:1003C00003D0476104E0042302E0076100E000235A
:1003D000FF2A01D8064601E000F104064FEA840531
:1003E00001D9A5F12005376808FA05FC27EA0C07B2
:1003F00003FA05F547EA050737604D68ED006ED54D
:100400003C4DAE6946F00106AE61AD6924F00306CD
:1004100005F001050095384D7719BE68A5072D0F29
:1004200008FA05FC26EA0C06DFF8D0C0604503D1C7
:100430004FF0000C25E052E0DFF8C4C0604502D167
:100440004FF0010C1DE0DFF8BCC0604502D14FF059
:10045000020C16E0DFF8B0C0604502D14FF0030C8B
:100460000FE0DFF8A8C0604502D14FF0040C08E0AF
:10047000DFF89CC0604502D14FF0050C01E04FF061
:10048000060C0CFA05FC4CEA060CC7F808C04D68CF
:10049000D9F80060ED034D4601D5164300E09643C0
:1004A0002E604D68DAF80060AD03554601D516435D
:1004B00000E096432E604D68DBF80060ED025D467B
:1004C00001D5164300E096432E604D68DEF80060CB
:1004D000AD02754601D5164300E096432E60641CBC
:1004E000102CFFF42FAFBDE8F88F0000000401408E
:1004F00000001110001002400000014000080140FF
:10050000000C01400010014000140140001801409F
:10051000001C01408068084000D0012070470AB1EB
:10052000016170470904FBE701480068704700005B
:100530000800002010B5040008D02068C168C94335
:10054000C90705D1C068C043800701D4012010BD90
:10055000607B20B900202073204600F018F80220AC
:100560006073216845F255500860206841686268F0
:1005700021F007011143416020688168A2686FF390
:100580000B011143816001206073002010BD704792
:100590002DE9F0410446007B01280AD0012626738C
:1005A00002206073FFF7C0FF054600274FF47A78FA
:1005B0000BE00220BDE8F081FFF7B6FF401B40458D
:1005C00003D9032060732773F4E72068C068C04331
:1005D0008007F1D521684AF6AA2008606673277360
:1005E0000020E7E7017B01290FD00121022242739D
:1005F00003684CF6CC421A6003684AF6AA221A60D5
:1006000041730021017308467047022070470000C3
:1006100002480168491C0160704700000800002082
:10062000074810B5016841F010010160032000F097
:1006300051F80F2000F006F800F015F8002010BD6A
:100640000020024010B5044600F016F94FF47A710C
:10065000B0FBF1F000F053FC00222146501E00F0E8
:1006600019F8002010BD704700F01F0201219140D1
:100670004009800000F1E020C0F88011704700F0D0
:100680001F02012191404009800000F1E020C0F8E4
:1006900000117047F0B40E4B1B68C3F30223C3F183
:1006A0000704042C00D904241D1D072D01D20023AA
:1006B00000E0DB1E012606FA04F56D1E0D409D408C
:1006C0009E40761E164045EA0601F0BC00F036BF9B
:1006D0000CED00E0064A00F0070110684FF6FF033A
:1006E000184040EA012003490843106070470000A9
:1006F0000CED00E00000FA052DE9F047DFF8688115
:1007000004460E46D8F8000000F00700B0420CD2B4
:10071000D8F8001021F007013143C8F80010D8F8CC
:10072000000000F00700B04273D120784F4F8007DF
:1007300005D57868A16820F0F0000843786020783B
:10074000C00755D06068012201280CD0022828D0AB
:10075000022393FAA3F1B1FA81F141F02001490992
:1007600004D0396803E04FF40033F2E7796A93FA72
:10077000A3F3B3FA83F303F01F039A40114248D066
:10078000796821F0030101437960FFF7CDFE05464A
:10079000606841F2883101280CD00228894615D0C2
:1007A00022E04FF00073D4E7FFF7BEFE411B49453E
:1007B00001D916E089467868C0F381000128F3D199
:1007C00016E0FFF7B1FE411B49450AD87868C0F32F
:1007D00081000228F5D10BE0FFF7A6FE411B494539
:1007E00002D90320BDE8F087786810F00C0FF3D130
:1007F000D8F80010404601F00701B1420BD901685A
:1008000021F0070131430160006800F00700B042A9
:1008100001D00120E6E72078400705D57868E16837
:1008200020F4E060084378602078000706D57868F7
:10083000216920F4605040EAC100786000F052F86D
:100840007968F02292FAA2F201F0F001B2FA82F293
:10085000D140074A515CC840064908600F20FFF7A5
:10086000F1FE0020BEE70000002002400010024020
:100870005C24000804000020014800687047000064
:100880000400002008480949006849684FF4E06204
:1008900092FAA2F201F4E061B2FA82F2D140044A83
:1008A000515CC84070470000040000200010024066
:1008B0006C24000808480949006849684FF46052F0
:1008C00092FAA2F201F46051B2FA82F2D140044AE3
:1008D000515CC84070470000040000200010024036
:1008E0006C24000810B519A085B00FC88DE80F0062
:1008F0001AA01B4B0068049059681A4801F00C02BA
:10090000042A1DD0082A1BD14FF4701494FAA4F4C1
:1009100001F47012B4FA84F4E240C9031DF8022015
:1009200010D559684FF4003393FAA3F301F4003162
:10093000B3FA83F3D94004AB595CB0FBF1F05043F8
:1009400005B010BD08485043FAE700000203040553
:10095000060708090A0B0C0D0E0F1010010200000B
:100960000010024000127A0000093D002DE9F84F06
:1009700004460078FE4EC0074FF001057FD0706836
:100980004FF40038C0F38100012807D07068C0F32D
:10099000810002281BD17068C00318D598FAA8F00E
:1009A000B0FA80F040F02000400901D0306800E04B
:1009B000706A98FAA8F1B1FA81F101F01F0105FA05
:1009C00001F108425BD06068002879D057E0606888
:1009D000B0F5803F0BD010B1B0F5A02F11D030682A
:1009E00020F480303060306820F4802002E03068ED
:1009F00040F480303060606818B3FFF795FD07461B
:100A000009E0306840F480203060F0E7FFF78CFDAB
:100A1000C01B642870D898FAA8F0B0FA80F040F0B3
:100A20002000400901D0306800E0706A98FAA8F10F
:100A3000B1FA81F101F01F0105FA01F10842E5D098
:100A40001DE0FFF771FD074604E0FFF76DFDC01BD9
:100A50006428DFD898FAA8F0B0FA80F040F02000BF
:100A6000400901D0306800E0706A98FAA8F1B1FA44
:100A700081F101F01F0105FA01F10842E5D120786A
:100A8000DFF8F08280074FF0000A4FF002075AD5D6
:100A900070684FF0F80B10F00C0F07D07068C0F3BF
:100AA000810002281CD17068C00319D497FAA7F0FE
:100AB000B0FA80F040F02000400902D0306801E038
:100AC0008AE0706A97FAA7F1B1FA81F101F01F018B
:100AD00005FA01F108422BD0206901287CD127E0DA
:100AE000206988B395FAA5F0B0FA80F048F8205054
:100AF000FFF71AFD814606E04DE1FFF715FDA0EB7B
:100B00000900022886D897FAA7F0B0FA80F040F0E2
:100B10002000400901D0306800E0706A97FAA7F120
:100B2000B1FA81F101F01F0105FA01F10842E4D0A8
:100B300030689BFAABF220F0F8016069B2FA82F2F9
:100B400090400143316025E0FFE795FAA5F1B1FA45
:100B500081F148F821A0FFF7E7FC814605E0FFF7A7
:100B6000E3FCA0EB09000228CCD897FAA7F0B0FA72
:100B700080F040F02000400901D0306800E0706A49
:100B800097FAA7F1B1FA81F101F01F0105FA01F11D
:100B90000842E4D1207800076DD5A069B8B395FA72
:100BA000A5F0B0FA80F008EB8000C0F88054FFF7A1
:100BB000BBFC814605E0FFF7B7FCA0EB090002286B
:100BC000A0D897FAA7F0B0FA80F040F06000B5EB3B
:100BD000501F02D130680CE063E197FAA7F0B0FA39
:100BE00080F040F06000B7EB501F01D1306A00E0A8
:100BF000706A97FAA7F1B1FA81F101F01F0105FAC5
:100C000001F21042D7D00120FFF782FB33E0FFE76B
:100C100095FAA5F1B1FA81F108EB8101C1F880A440
:100C2000FFF782FC814605E0FFF77EFCA0EB0900A0
:100C3000022899D897FAA7F0B0FA80F040F0600047
:100C4000B5EB501F01D130680BE097FAA7F0B0FA6E
:100C500080F040F06000B7EB501F01D1306A00E037
:100C6000706A97FAA7F1B1FA81F101F01F0105FA54
:100C700001F21042D8D12078400763D5F06940F0E6
:100C80008050F061F069DFF8F0B000F08050009023
:100C9000DBF8001041F48071CBF80010FFF744FC42
:100CA000814605E0FFF740FCA0EB0900642872D8FC
:100CB000DBF80000C005F5D5E06801280AD008B1CE
:100CC000052813D0306A20F001003062306A20F02D
:100CD000040002E0306A40F001003062E06841F256
:100CE000883B80B3FFF720FC81460AE0306A40F081
:100CF00004003062EEE7FFF717FCA0EB090159454D
:100D000049D897FAA7F0B0FA80F040F04000B5EB70
:100D1000501F01D130680BE097FAA7F0B0FA80F0CD
:100D200040F04000B7EB501F01D1306A00E0706A1C
:100D300097FAA7F1B1FA81F101F01F0205FA02F169
:100D40000842D8D033E0FFE7FFF7EEFB814605E02D
:100D5000FFF7EAFBA0EB090159451CD897FAA7F069
:100D6000B0FA80F040F04000B5EB501F08D105E02C
:100D700000100240000042420070004030680CE069
:100D800097FAA7F0B0FA80F040F04000B7EB501FA0
:100D900002D1306A01E08AE0706A97FAA7F1B1FAED
:100DA00081F101F01F0205FA02F10842D0D1E06999
:100DB00098B37168C1F38101022972D002284FF003
:100DC00080714FF0007B50460AD091FAA1F1B1FA40
:100DD00081F148F82100FFF7A7FB04465F4669E070
:100DE0008A4691FAA1F1B1FA81F1C14648F8210091
:100DF000FFF79AFBA84607465D4604E0FFF794FB21
:100E0000C01B022853D895FAA5F0B0FA80F040F044
:100E10002000400902D0306801E060E0706A95FA75
:100E2000A5F1B1FA81F101F01F0208FA02F10842BE
:100E3000E4D1206AB0F5803F05D17068A16820F444
:100E4000003008437060D4E908010843716821F458
:100E50007411084370609AFAAAF0B0FA80F047461D
:100E600049F82080FFF760FB044604E0FFF75CFBD5
:100E7000001B02281BD895FAA5F0B0FA80F040F0CC
:100E80002000400901D0306800E0706A95FAA5F1B1
:100E9000B1FA81F101F01F0107FA01F10842E5D032
:100EA0001DE01EE0FFF740FB001B022802D90320D3
:100EB000BDE8F88F97FAA7F0B0FA80F040F0200074
:100EC000400901D0306800E0706A97FAA7F1B1FAE2
:100ED00081F101F01F0105FA01F10842E2D1002081
:100EE000E6E70120E4E74FF0E0210428086903D099
:100EF00020F004000861704740F00400FAE710B5E4
:100F0000401EB0F1807F01D3012010BD4FF0E024DE
:100F100060610F21601700F011FB0020A061072025
:100F20002061002010BD7047704710B5040003D049
:100F300094F8390010B107E0012010BD002084F8BA
:100F40003800204600F00CF8022084F83900211DFA
:100F5000206800F0B5FC012084F83900002010BDA5
:100F600008B50068B0F1804F12D10A48C16941F05C
:100F70000101C161C069032200F00100009001215C
:100F80001C20FFF787FBBDE808401C20FFF76CBB67
:100F900008BD0000001002400168CA6842F001026A
:100FA000CA600068016841F00101016000207047DB
:100FB000704770B50446006801694FF00005C943E9
:100FC000890715D4C168C943890711D4E91E016195
:100FD00001202076206880698007204602D0FFF734
:100FE000E7FF04E000F098F8204600F096F8257638
:100FF00020680169C943490717D4C168C943490733
:1010000013D46FF00401016102202076206880690A
:1010100010F4407F204602D0FFF7CAFF04E000F042
:101020007BF8204600F079F8257620680169C943ED
:10103000090716D4C168C943090712D46FF0080123
:101040000161042020762068C0698007204602D014
:10105000FFF7AEFF04E000F05FF8204600F05DF817
:10106000257620680169C943C90617D4C168C943F8
:10107000C90613D46FF010010161082020762068A2
:10108000C06910F4407F204602D0FFF791FF04E0D2
:1010900000F042F8204600F040F82576206801690B
:1010A000C943C90708D1C168C943C90704D1891E0A
:1010B0000161204600F032F820680169C943090641
:1010C00009D4C168C943090605D46FF080010161E4
:1010D0002046FFF728FF20680169C943490609D463
:1010E000C168C943490605D46FF04001016120463B
:1010F00000F015F820680169C94389060BD4C1685E
:10110000C943890607D46FF0200101612046BDE87C
:101110007040FFF709BF70BD704770477047704758
:10112000704738B5044600680168C268C1F3000121
:1011300002F4807221B11AB1E16B41F00101E16367
:101140000168C1F34002416901F0010122B119B106
:10115000E26B42F00402E2630268C2F3800222B151
:1011600019B1E26B42F00202E2630268C2F3C0020C
:1011700022B119B1E16B41F00801E1630168C06877
:10118000C1F3401100F0200019B110B1204600F069
:1011900033FC20680168C068C1F3C01100F0800012
:1011A00019B110B1204600F033FD21680868CA6803
:1011B000C0F3801002F04002012568B162B1CA6834
:1011C000204622F04002CA6094F83910322910D02B
:1011D00080F8395000F0DBF8E06B002808D0206878
:1011E00001684068009084F839502046FFF798FF66
:1011F00038BD222180F83910ECE770B5040004D026
:1012000094F83900002510B106E0012070BD84F883
:101210003850204600F020F8022084F83900206879
:10122000C16821F40051C160204600F039FC2068FB
:10123000016921F4904101612068416921F02A018E
:1012400041612068C16841F40051C160E56301203B
:1012500084F83900002070BDF0B500682D4F0025DE
:101260002D490222012303262C4C85B0B8422FD1F0
:10127000886940F004008861886900F004000490E7
:10128000886940F480408861886900F48040049057
:10129000886940F001008861886900F001000490CD
:1012A00048158DE84D0069462046FFF73DF82115A9
:1012B000CDE9001569462046FFF736F82520FFF7EF
:1012C000DEF9012211462520FFF7E4F905B0F0BD53
:1012D000134FB842FAD1886940F0040088618869E8
:1012E00000F004000490C86940F40030C861C86987
:1012F000694600F40030049004208DE84D0020463B
:10130000FFF712F80821CDE9001569462046FFF7DE
:101310000BF8DBE7003801400010024000080140F4
:101320000044004090F83930012B01D0122B2BD112
:1013300031B32AB390F83830012B25D0012380F83F
:10134000383081628285C2850021C16390F83920DE
:10135000122A17D0222280F8392080F8381001682C
:10136000CA6842F48072CA6001684A6942F00102A8
:101370004A610068C16841F02001C16000207047E7
:10138000012070473222E6E702207047704770471D
:1013900030B5234885B0816941F0040181618169DC
:1013A00001F004010491816941F0080181618069C3
:1013B0001C4C00F008000490522000900020019086
:1013C000029069462046FEF7AFFF174D6946284652
:1013D000FEF7AAFFA1200121CDE900010320CDE9FC
:1013E000021069462046FEF79FFF69462846FEF731
:1013F0009BFF002280212046FFF791F80022202148
:101400002046FFF78CF8002280212846FFF787F856
:10141000002201212046FFF782F805B030BD000010
:101420000010024000080140000C01402DE9F05F6F
:101430002F4C002581466580DFF8B8A0DFF8B8B0F2
:1014400029E00122802157465046FFF768F8142012
:1014500000F03CFC002280213846FFF760F84FF096
:1014600001085E4605E01C203560FFF708F984F8A6
:10147000008040213846FFF74DF80028F3D004E003
:1014800040213846FFF746F8B8B120780028F7D158
:101490006088401C608061884945D2D3A1680122E0
:1014A000B1FBF9F081B2A180C02000F035FCA5604D
:1014B000BDE8F05F322000F0FDBB1C20FFF7D4F840
:1014C000B046306800F0CFFD0C4A0D4B00F0DEFD59
:1014D00006460F46A06800F0C6FD32463B4600F0C7
:1014E000EDFC00F093FDA060C8F800502570CFE738
:1014F00020000020000C01401C000020C3F5285CE7
:101500008FC2C53FFEE700000148FFF741B8000069
:1015100000040020074A10B5054B1360C2E9010121
:101520001046FFF707F8BDE810400248FFF75AB829
:101530000030004000040020FEE770470907090E54
:10154000002806DA00F00F0000F1E02080F8141DFA
:10155000704700F1E02080F80014704770470000E9
:101560002DE9F041404C414DDFF80481207886B0F0
:101570004FF40046E0B16088401C80B26080B0F556
:10158000FA7F12D3002767806078E8B3012857D02C
:1015900002280AD1002231464046FEF7C0FF012250
:1015A00018212846FEF7BBFF677006B0BDE8F08142
:1015B000304A01202070916941F0010191619169E7
:1015C00001F0010104912C494B6823F0E06343F0E2
:1015D00000734B60916941F008019161916901F0DC
:1015E00008010491916941F00401916191690190B0
:1015F000029048F2180401F0040103200094CDE9A0
:1016000003016946284600E012E0FEF78DFE6946B8
:10161000474640460096FEF787FE012221462846AF
:10162000FEF77DFF012231463846FEF778FFBCE722
:10163000002210212846FEF772FF0122082107E050
:10164000002208212846FEF76AFF012248F2100115
:101650002846FEF764FF012231464046FEF75FFF51
:101660006078401C6070A0E700000020000C014082
:1016700000080140001002400000014030B5104851
:1016800085B0816941F00401816180694FF4807403
:1016900000F0040004900120CDE900400220094D33
:1016A000039069462846FEF73FFE00222146284661
:1016B000FEF735FF00F064F800F066F905B030BDC4
:1016C0000010024000080140F0B52A490125032618
:1016D0004A78294F0023294C4FF0020CE12803D10E
:1016E000042A01D24D7012E0012A04D0022A07D048
:1016F000032A09D00AE0E22808D181F801C006E0F7
:10170000E32803D14E7002E0E42817D04B708A78AA
:10171000002A1DD02268C72A02D90B708B70236063
:101720002268B854521C2260EA2810D00A78012A94
:101730000FD0022A12D0032A14D019E0E1223A7005
:10174000E2227A70E322BA7026608D70E8E70D70AD
:10175000F0BDEB280CD181F800C0F0BDEC2807D11A
:101760000E70F0BDED2803D14FF4004020608B7067
:101770000B70F0BD2C000020F80200203800002083
:1017800070B50B4C0948002520602571E580258146
:1017900065812573C82104F10D00FEF738FDA4F81A
:1017A000D6500448C4F8D80070BD0000E4E3E2E17C
:1017B00054010020EDECEBEA704710B5FFF7D0FEC6
:1017C000BDE81040FEF724BF30B58FB002240120E1
:1017D000049000941020059000254FF46010CDE98E
:1017E000085007946846FFF7C1F800B1FEE70AA960
:1017F0000F2081E831004FF48060CDE90D05022112
:101800000AA8FEF779FF00B1FEE7FFF735F84FF4BD
:101810007A71B0FBF1F0FFF772FB0420FFF763FB76
:1018200000221146501EFEF735FF0FB030BD0000FC
:101830000F4810B5016841F00101016041680D4A8F
:101840001140416001680C4A11400160016821F4B7
:1018500080210160416821F4FE0141604FF41F01C5
:101860008160FFF7B1FF05494FF00060086010BDCF
:10187000001002400000FFF8FFFFF6FE08ED00E058
:1018800003480168491C01600248FFF792BB000051
:101890001C0000203C000020084A10B54FF0804397
:1018A000C2E900310021C2E9021010461161FFF7C0
:1018B0003CFBBDE810400148FFF76EBB3C00002038
:1018C000F0B502681A4D1B4E1B4FDFF870C01C4B61
:1018D0004FF0804EA84209D0984207D0704505D0FD
:1018E000B04203D0B84201D0604503D122F0700469
:1018F0004A682243A84209D0984207D0704505D0D3
:10190000B04203D0B84201D0604503D122F4407404
:10191000CA68224302608A68C2620A688262A84278
:1019200001D0984201D10969016301214161F0BDF3
:10193000002C01400004004000080040000C004062
:10194000003401400E4810B5816986B041F00401B1
:10195000816180690B4C00F0040004900C20009021
:10196000012001900220039069462046FEF7DCFC2E
:1019700000220C212046FEF7D2FD06B010BD00006B
:10198000001002400008014070B50B4C09480025CA
:1019900020602571E580258165812573C82104F1CA
:1019A0000D00FEF734FCA4F8D6500448C4F8D80063
:1019B00070BD0000E4E3E2E178000020EDECEBEA2A
:1019C0000B4910B5094AC1E9002000208860C860B1
:1019D000086188610C2048610846FFF70EFCBDE8ED
:1019E0001040012203490248FFF79CBC0038014027
:1019F000C00300203400002010B590F839102229CF
:101A000003D0322901D0022010BD8168B1F5805F7A
:101A100011D00169002901681FD0496801F07F03D6
:101A2000816A4A1C82620B70C18D491E0904090C2F
:101A3000C18518D02FE00269816A002A02685268C5
:101A400005D0D2B20A80816A491C8162ECE7C2F3F8
:101A500008020A80816A891CF7E74A68816A4B1C80
:101A600083620A70E0E70168CA6822F02002CA6057
:101A700090F83910322910D00168CA6822F48072B7
:101A8000CA6001684A6922F001024A61012180F8B6
:101A90003910FFF77BFC002010BD1221F7E7000092
:101AA0002DE9F041044600680169E26821F44051E3
:101AB00011430161A1682069014360690143206805
:101AC000C26841F20C639A430A43C26020684169CC
:101AD000A26921F44071114341614C492068642698
:101AE000322788423CD1FEF7E5FE00EBC00101EB56
:101AF000001061688900B0FBF1F5FEF7DBFE00EB3A
:101B0000C00101EB00106168B8468900B0FBF1F03C
:101B1000B0FBF6F06FF01801484305EB800107EBCE
:101B20000110B0FBF6F000F0F005FEF7C3FE00EB8D
:101B3000C00101EB001061688900B0FBF1F0B0FB5F
:101B4000F6F005EB0015FEF7B5FE00EBC00101EB6A
:101B5000001061688900B0FBF1F7FEF7ABFE3BE0D7
:101B6000FEF790FE00EBC00101EB001061688900F8
:101B7000B0FBF1F5FEF786FE00EBC00101EB0010B3
:101B80006168B8468900B0FBF1F0B0FBF6F06FF089
:101B90001801484305EB800107EB0110B0FBF6F09C
:101BA00000F0F005FEF76EFE00EBC00101EB001047
:101BB00061688900B0FBF1F0B0FBF6F005EB0015B1
:101BC000FEF760FE00EBC00101EB001061688900C8
:101BD000B0FBF1F7FEF756FE00EBC00101EB001081
:101BE00061688900B0FBF1F0B0FBF6F06FF018010E
:101BF000484307EB800108EB0110B0FBF6F02168C9
:101C000000F00F0028448860BDE8F08100380140F2
:101C100090F83910122903D0322901D002207047E0
:101C20008168B1F5805F016A0BD04A1C02620268CC
:101C300009785160C18C491E0904090CC1840ED079
:101C400017E009880268C1F30801516001690029A1
:101C5000016A02D0491C0162ECE7891CFBE70168BC
:101C6000CA6822F08002CA600068C16841F0400181
:101C7000C1600020704700000A4810B50068006885
:101C8000C043800609D4084800680849C0B24968C2
:101C9000B1F5004F01D0FFF717FDBDE81040014836
:101CA000FFF73FBAC0030020043801403400002091
:101CB000FEE77047002242F2B84304E00021491CCD
:101CC0009942FCD3521C8242F8D37047002204E0B0
:101CD0000021491C0A29FCD3521C8242F8D37047C8
:101CE000FEF79EFCFFF7CAFCFFF72CFEFFF750FB48
:101CF0004FF4E130FFF764FE4FF4FA710420FFF770
:101D000009FC3F210920FFF7C7FDFFF7FDFB0A2073
:101D1000FFF78CFBF9E700002DE9F0478146012A27
:101D200017D14FF47A70B1FBF0F000F0FF08642097
:101D3000B1FBF0F20A20B2FBF0F300FB1325B1FB7C
:101D4000F0F2B2FBF0F300FB1324B1FBF0F200FB66
:101D50001217184E012208213046FEF7E0FB01223F
:101D600004213046FEF7DBFB00F028F8402000F0AD
:101D70006DF800F047F800F021F8484600F066F8EA
:101D80000D4E16F8080000F061F8705D00F05EF886
:101D9000305D00F05BF8F05D00F058F800F032F8CC
:101DA00000F00CF88C2000F051F8BDE8F04700F08E
:101DB00029B80000000801400C00002010B5104CAC
:101DC000012208212046FEF7AAFB01220421204619
:101DD000FEF7A5FB0220FFF779FF0022082120462D
:101DE000FEF79DFB0220FFF771FF00220421204631
:101DF000FEF795FBBDE810400220FFF767BF00002B
:101E00000008014010B5104C002208212046FEF7C2
:101E100086FB012204212046FEF781FB0220FFF70A
:101E200055FF012208212046FEF779FB0220FFF72B
:101E30004DFF002204212046FEF771FBBDE8104053
:101E40000220FFF743BF00000008014070B51A4EA2
:101E50000446002208213046FEF761FB00220421DF
:101E60003046FEF75CFB0025002204213046FEF7D9
:101E700056FBE00701D0012200E000220821304695
:101E8000FEF74DFB0220FFF721FF0122042130461F
:101E9000FEF745FB6D1C6408EDB2082DE4D300226B
:101EA00004213046FEF73BFB3046BDE8704000227F
:101EB0000821FEF734BB00000008014010B591EA8C
:101EC000030F48BF83F0004300F1E681841A71EBF1
:101ED000030C05D2121943EB0C03001B61EB0C0140
:101EE000DFF824E14FEA1154A4EB135C1EEA430F20
:101EF00018BF9EEA445F73D023EA0E03DCF1200E84
:101F000021EA045143F4801332D322FA0CFE10EB81
:101F10000E0023FA0CFE41EB0E01CCF1200E03FA69
:101F20000EFE10EB0E0051F10001B1F5801FCCF157
:101F3000200E32D201EB045112FA0EF2BDE810402D
:101F400058BF7047401C38BF5FEA420218BF704755
:101F5000002814BF20F0010041F100014FEA4103C5
:101F600013F5001F38BF7047A1F1C04100F086B9DA
:101F7000012A43EB0302ACF1200CDCF11F0E32BF4F
:101F80004FF0000E23FA0CF310EB030041EB045169
:101F9000B4EB115FD0D0A1EB045101F580114908D9
:101FA0005FEA300001EB04510ED350F1000038BF5E
:101FB00012FA0EFE08D1BDE81040C9E7401C38BF38
:101FC0005FEA4202CAD1C3E7BDE810404FEA4103CD
:101FD00013F5001F38BF7047A1F1C04100F04EB9A2
:101FE0009EEA445F08D011EA5E0FBDE8104004BFCE
:101FF00001F0004100207047BDE8104070B500F0CE
:10200000EFF800BF64FBBE3E0000E0FF4FEA115353
:10201000A3F58063D3F11E03A8BFD3F1200C08DB26
:102020004FF0004242EAC12252EA505232FA03F023
:10203000704709420BD4102BC4BF0020704703F532
:10204000787CBCF1FF3F05D04FF0FF3070474FF078
:102050000000704770B500F0C3F800BF49922480BB
:1020600000207047F0E7B0FA80F310FA03F10AD0CD
:10207000C3F11D0303F580634FEA41504FEA035259
:1020800002EBD12170474FF000007047DFF848C1E4
:1020900070B51CEA111E1EBF1CEA13159EEA0C0F38
:1020A00095EA0C0F00F06F8081EA030423EA4C13D9
:1020B0004EEAD47E21EA4C1141F4801143F480139E
:1020C000AE44A1FB024CA0FB0365AEF17F7E361946
:1020D00055EB0C05A1FB034C4CF10003A0FB021CCB
:1020E00016EB0C06654153F10003094218BF46F098
:1020F000010613F4007F0BD14FEA03314FEA05309C
:10210000340341EA155140EA16506FF003020AE029
:102110004FEAC3214FEAC520F40241EA555140EA93
:1021200056506FF0020202EB2E4201EB025585EA97
:10213000CE710AD05FEA440C18BF24F0004450F17D
:10214000000041F1000120EAD47040F2FE7C6245BB
:1021500000D270BDA84214BF4FF080444FF04044FD
:10216000002E08BF0024BEF1806FA8BFA1F1C041BE
:10217000BDE8704080F282804FF0000001F1C04164
:1021800001F0004170479EEA0C0F0CEA131518BFCE
:1021900095EA0C0F06D04FF0000081EA030E0EF016
:1021A000004170BD00F01CF88900013E00F007B846
:1021B00000F009B84FEA430C5FEA5C5C08D081EAA2
:1021C000030100F05BB84FEA410C5FEA5C5CF6D1BA
:1021D0004FF00000014970470000FF070000F87F42
:1021E0000EF1020E2EF0030E5EF8046B364205D49B
:1021F000012A43EB030515F5001F12D8012841EB16
:10220000010C1CF5001F0CD80ED14FEAD17C15F53E
:10221000001F0CEB4C0C0CF1020C08BF4CEBD37CF8
:1022200004E04FF0080C01E04FEAD37C0CEB4C05C6
:1022300026FA05F606F00706B6F1040C06D20EEBF8
:10224000860CBDE870404CF0010C6047DFE80CF0F4
:10225000090B02024FF000414FF00000A1F50021F0
:1022600070BD19461046012851EB010418BFD4F582
:10227000001484BF002001F0004170BD0808A0F5E3
:1022800000114FEA3101704710B591EA030F48BFC2
:1022900083F000433FF51AAE841A71EB030C07D2AA
:1022A00012198CF0004C43EB0C03001B61EB0C018A
:1022B000DFF8A4E14FEA1154A4EB135C1EEA430FCC
:1022C00018BF9EEA445F00F0B08023EA6E035242DA
:1022D00021EA0451C3EB6E0338BF5B1EDCF1200E14
:1022E00025D322FA0CFE10EB0E0043FA0CFE41EB54
:1022F0000E01CCF1200E03FA0EFE10EB0E0051F190
:102300000001CCF1200E29D412FA0EF201EB045197
:10231000BDE8104058BF7047401C1CBFB2F1004FD1
:10232000704700280CBF491C20F00100704712EBD9
:10233000020E43EB030218BF4FF0010E4EEA4202B9
:10234000ACF1200CDCF11E0E54D943FA0CFE10EB5C
:102350000E0051F1FF31CCF11E0ED5D50EF1010E5C
:1023600012FA0EFE404141EB010101EB445C5FEAD1
:102370005C5C10D910EBDE7001EB045138BFBEF18C
:10238000004FBDE8104018BF704700280CBF491C23
:1023900020F00100704730D24FEAD42C11F5001123
:1023A00024F400641BD0B1FA81F20B3AA41AA41EE3
:1023B000D2F12003914030FA03F31943904001EB2E
:1023C000CC71002C01EB0451BDE81040A8BF704750
:1023D00001F1C0414FF0000001F000417047B0FA38
:1023E00080F310FA03F100D110BDE41A173C480540
:1023F000C90AE4E701EB045110BD491001EB045197
:10240000BDE810404FEA300002E04FF00001704795
:102410004A0008BF0042F8D0B2F5001F28BF70473D
:1024200001F000414FF0000070479EEA445F07D082
:1024300011EA5E0FBDE8104004BF00210020704784
:10244000BDE8104070B5FFF7CBFE00BF40DFF63EA1
:1024500083F00041104670470000E0FF00000000DC
:102460000000000001020304060708090000000044
:102470000102030494240008000000203C00000036
:102480006C010008D02400083C000020340A000041
:10249000880100080000F4010090D0030000000053
:1024A0003F065B4F666D7D077F6F003976800000C9
:1024B000000000000100000000000000000000001B
:1024C000000000000000000000000000000000000C
:0400000508000131BD
:00000001FF
