:020000040800F2
:10000000C01500200D020008C30E0008770D00087F
:10001000C10E0008C70200083513000800000000E8
:100020000000000000000000000000006D12000849
:10003000C9020008000000004F1100086F120008FC
:1000400027020008270200082702000827020008EC
:1000500027020008270200082702000827020008DC
:1000600027020008270200082702000827020008CC
:1000700027020008270200082702000827020008BC
:1000800027020008270200082702000827020008AC
:10009000270200082702000827020008270200089C
:1000A000270200082702000827020008270200088C
:1000B000270200082702000827020008270200087C
:1000C000270200082702000827020008270200086C
:1000D000270200082702000827020008270200085C
:1000E000270200082702000827020008270200084C
:1000F000270200082702000827020008270200083C
:10010000270200082702000827020008270200082B
:10011000270200082702000827020008270200081B
:10012000270200082702000827020008270200080B
:1001300000F002F800F05AF80AA090E8000C82449F
:100140008344AAF10107DA4501D100F04FF8AFF27C
:10015000090EBAE80F0013F0010F18BFFB1A43F0A5
:1001600001031847D8120000F81200000A444FF0AB
:10017000000C10F8013B13F0070408BF10F8014B06
:100180001D1108BF10F8015B641E05D010F8016B4B
:10019000641E01F8016BF9D113F0080F1EBF10F8AF
:1001A000014BAD1C0C1B09D16D1E58BF01F801CBD2
:1001B000FAD505E014F8016B01F8016B6D1EF9D555
:1001C0009142D6D37047000000230024002500266A
:1001D000103A28BF78C1FBD8520728BF30C148BFAA
:1001E0000B6070471FB51FBD10B510BD00F031F892
:1001F0001146FFF7F7FF01F0E7F800F04FF803B4FE
:10020000FFF7F2FF03BC00F057F8000009488047F1
:1002100009480047FEE7FEE7FEE7FEE7FEE7FEE7E8
:10022000FEE7FEE7FEE7FEE704480549054A064B00
:1002300070470000E512000831010008C00F0020DF
:10024000C0150020C0110020C01100207047704769
:100250007047754600F02CF8AE46050069465346D7
:1002600020F00700854618B020B5FFF7DDFFBDE898
:1002700020404FF000064FF000074FF000084FF00D
:10028000000B21F00701AC46ACE8C009ACE8C0099E
:10029000ACE8C009ACE8C0098D46704710B504460B
:1002A000AFF300802046BDE81040FFF7A8BF000074
:1002B000004870475C0F002001491820ABBEFEE7E4
:1002C000260002007047FEE7704731B500F008F9DC
:1002D000044600F005F90099001B8842F9D338BDA7
:1002E0002DE9F84FDFF8BC91002309F1040A0AF167
:1002F000040B1C464FF00F080BF1040E01270A688F
:10030000A7403A40BA4272D1DFF89CC14D68A5EBD4
:100310000C0665452BD00DDC032D34D005DC35B340
:10032000012D19D0022D2FD11BE0112D16D0122D29
:100330002AD119E0B6F5881F19D006DCB6F5803F42
:1003400015D0B6F5801F1FD111E0B6F5001F0ED0F5
:10035000B6F5041F18D10AE0CB6815E0CB681B1D69
:1003600012E0CB6808330FE0CB680C330CE08B68ED
:100370002BB1012B4FF0080303D0476104E00423A5
:1003800002E0076100E00023FF2A01D8064601E0F1
:1003900000F104064FEA840501D9A5F1200537686C
:1003A00008FA05FC27EA0C0703FA05F547EA0507F2
:1003B00037604D68ED006ED53C4DAE6946F00106E4
:1003C000AE61AD6924F0030605F001050095384DD6
:1003D0007719BE68A5072D0F08FA05FC26EA0C065A
:1003E000DFF8D0C0604503D14FF0000C25E052E0AB
:1003F000DFF8C4C0604502D14FF0010C1DE0DFF80A
:10040000BCC0604502D14FF0020C16E0DFF8B0C06E
:10041000604502D14FF0030C0FE0DFF8A8C0604543
:1004200002D14FF0040C08E0DFF89CC0604502D117
:100430004FF0050C01E04FF0060C0CFA05FC4CEAFD
:10044000060CC7F808C04D68D9F80060ED034D46AA
:1004500001D5164300E096432E604D68DAF800603F
:10046000AD03554601D5164300E096432E604D6816
:10047000DBF80060ED025D4601D5164300E09643CF
:100480002E604D68DEF80060AD02754601D516435A
:1004900000E096432E60641C102CFFF42FAFBDE8E3
:1004A000F88F00000004014000001110001002400D
:1004B0000000014000080140000C01400010014014
:1004C0000014014000180140001C014080680840F1
:1004D00000D0012070470AB1016170470904FBE7B1
:1004E00001480068704700000800002002480168C9
:1004F000491C01607047000008000020074810B543
:10050000016841F010010160032000F03BF80F206A
:1005100000F006F800F015F8002010BD00200240A1
:1005200010B5044600F000F94FF47A71B0FBF1F019
:1005300000F00DFC00222146501E00F003F80020C0
:1005400010BD7047F0B40E4B1B68C3F30223C3F118
:100550000704042C00D904241D1D072D01D20023FB
:1005600000E0DB1E012606FA04F56D1E0D409D40DD
:100570009E40761E164045EA0601F0BC00F0A2BC83
:100580000CED00E0064A00F0070110684FF6FF038B
:10059000184040EA012003490843106070470000FA
:1005A0000CED00E00000FA052DE9F047DFF8688166
:1005B00004460E46D8F8000000F00700B0420CD206
:1005C000D8F8001021F007013143C8F80010D8F81E
:1005D000000000F00700B04273D120784F4F800731
:1005E00005D57868A16820F0F0000843786020788D
:1005F000C00755D06068012201280CD0022828D0FD
:10060000022393FAA3F1B1FA81F141F020014909E3
:1006100004D0396803E04FF40033F2E7796A93FAC3
:10062000A3F3B3FA83F303F01F039A40114248D0B7
:10063000796821F0030101437960FFF751FF054616
:10064000606841F2883101280CD00228894615D013
:1006500022E04FF00073D4E7FFF742FF411B49450A
:1006600001D916E089467868C0F381000128F3D1EA
:1006700016E0FFF735FF411B49450AD87868C0F3FB
:1006800081000228F5D10BE0FFF72AFF411B494505
:1006900002D90320BDE8F087786810F00C0FF3D181
:1006A000D8F80010404601F00701B1420BD90168AB
:1006B00021F0070131430160006800F00700B042FB
:1006C00001D00120E6E72078400705D57868E16889
:1006D00020F4E060084378602078000706D5786849
:1006E000216920F4605040EAC100786000F022F8EF
:1006F0007968F02292FAA2F201F0F001B2FA82F2E5
:10070000D140074A515CC840064908600F20FFF7F6
:1007100007FF0020BEE7000000200240001002405A
:100720002C140008040000200148006870470000F5
:100730000400002010B519A085B00FC88DE80F0087
:100740001AA01B4B0068049059681A4801F00C026B
:10075000042A1DD0082A1BD14FF4701494FAA4F473
:1007600001F47012B4FA84F4E240C9031DF80220C7
:1007700010D559684FF4003393FAA3F301F4003114
:10078000B3FA83F3D94004AB595CB0FBF1F05043AA
:1007900005B010BD08485043FAE700000203040505
:1007A000060708090A0B0C0D0E0F101001020000BD
:1007B0000010024000127A0000093D002DE9F84FB8
:1007C00004460078FE4EC0074FF001057FD07068E8
:1007D0004FF40038C0F38100012807D07068C0F3DF
:1007E000810002281BD17068C00318D598FAA8F0C0
:1007F000B0FA80F040F02000400901D0306800E0FD
:10080000706A98FAA8F1B1FA81F101F01F0105FAB6
:1008100001F108425BD06068002879D057E0606839
:10082000B0F5803F0BD010B1B0F5A02F11D03068DB
:1008300020F480303060306820F4802002E030689E
:1008400040F480303060606818B3FFF749FE074617
:1008500009E0306840F480203060F0E7FFF740FEA8
:10086000C01B642870D898FAA8F0B0FA80F040F065
:100870002000400901D0306800E0706A98FAA8F1C1
:10088000B1FA81F101F01F0105FA01F10842E5D04A
:100890001DE0FFF725FE074604E0FFF721FEC01B21
:1008A0006428DFD898FAA8F0B0FA80F040F0200071
:1008B000400901D0306800E0706A98FAA8F1B1FAF6
:1008C00081F101F01F0105FA01F10842E5D120781C
:1008D000DFF8F08280074FF0000A4FF002075AD588
:1008E00070684FF0F80B10F00C0F07D07068C0F371
:1008F000810002281CD17068C00319D497FAA7F0B0
:10090000B0FA80F040F02000400902D0306801E0E9
:100910008AE0706A97FAA7F1B1FA81F101F01F013C
:1009200005FA01F108422BD0206901287CD127E08B
:10093000206988B395FAA5F0B0FA80F048F8205005
:10094000FFF7CEFD814606E04DE1FFF7C9FDA0EBC4
:100950000900022886D897FAA7F0B0FA80F040F094
:100960002000400901D0306800E0706A97FAA7F1D2
:10097000B1FA81F101F01F0105FA01F10842E4D05A
:1009800030689BFAABF220F0F8016069B2FA82F2AB
:1009900090400143316025E0FFE795FAA5F1B1FAF7
:1009A00081F148F821A0FFF79BFD814605E0FFF7A4
:1009B00097FDA0EB09000228CCD897FAA7F0B0FA6F
:1009C00080F040F02000400901D0306800E0706AFB
:1009D00097FAA7F1B1FA81F101F01F0105FA01F1CF
:1009E0000842E4D1207800076DD5A069B8B395FA24
:1009F000A5F0B0FA80F008EB8000C0F88054FFF753
:100A00006FFD814605E0FFF76BFDA0EB09000228B2
:100A1000A0D897FAA7F0B0FA80F040F06000B5EBEC
:100A2000501F02D130680CE063E197FAA7F0B0FAEA
:100A300080F040F06000B7EB501F01D1306A00E059
:100A4000706A97FAA7F1B1FA81F101F01F0105FA76
:100A500001F21042D7D00120FFF737FC33E0FFE767
:100A600095FAA5F1B1FA81F108EB8101C1F880A4F2
:100A7000FFF736FD814605E0FFF732FDA0EB0900E8
:100A8000022899D897FAA7F0B0FA80F040F06000F9
:100A9000B5EB501F01D130680BE097FAA7F0B0FA20
:100AA00080F040F06000B7EB501F01D1306A00E0E9
:100AB000706A97FAA7F1B1FA81F101F01F0105FA06
:100AC00001F21042D8D12078400763D5F06940F098
:100AD0008050F061F069DFF8F0B000F080500090D5
:100AE000DBF8001041F48071CBF80010FFF7F8FC40
:100AF000814605E0FFF7F4FCA0EB0900642872D8FA
:100B0000DBF80000C005F5D5E06801280AD008B17F
:100B1000052813D0306A20F001003062306A20F0DE
:100B2000040002E0306A40F001003062E06841F207
:100B3000883B80B3FFF7D4FC81460AE0306A40F07E
:100B400004003062EEE7FFF7CBFCA0EB090159454A
:100B500049D897FAA7F0B0FA80F040F04000B5EB22
:100B6000501F01D130680BE097FAA7F0B0FA80F07F
:100B700040F04000B7EB501F01D1306A00E0706ACE
:100B800097FAA7F1B1FA81F101F01F0205FA02F11B
:100B90000842D8D033E0FFE7FFF7A2FC814605E02A
:100BA000FFF79EFCA0EB090159451CD897FAA7F066
:100BB000B0FA80F040F04000B5EB501F08D105E0DE
:100BC00000100240000042420070004030680CE01B
:100BD00097FAA7F0B0FA80F040F04000B7EB501F52
:100BE00002D1306A01E08AE0706A97FAA7F1B1FA9F
:100BF00081F101F01F0205FA02F10842D0D1E0694B
:100C000098B37168C1F38101022972D002284FF0B4
:100C100080714FF0007B50460AD091FAA1F1B1FAF1
:100C200081F148F82100FFF75BFC04465F4669E06C
:100C30008A4691FAA1F1B1FA81F1C14648F8210042
:100C4000FFF74EFCA84607465D4604E0FFF748FC68
:100C5000C01B022853D895FAA5F0B0FA80F040F0F6
:100C60002000400902D0306801E060E0706A95FA27
:100C7000A5F1B1FA81F101F01F0208FA02F1084270
:100C8000E4D1206AB0F5803F05D17068A16820F4F6
:100C9000003008437060D4E908010843716821F40A
:100CA0007411084370609AFAAAF0B0FA80F04746CF
:100CB00049F82080FFF714FC044604E0FFF710FC1D
:100CC000001B02281BD895FAA5F0B0FA80F040F07E
:100CD0002000400901D0306800E0706A95FAA5F163
:100CE000B1FA81F101F01F0107FA01F10842E5D0E4
:100CF0001DE01EE0FFF7F4FB001B022802D90320D1
:100D0000BDE8F88F97FAA7F0B0FA80F040F0200025
:100D1000400901D0306800E0706A97FAA7F1B1FA93
:100D200081F101F01F0105FA01F10842E2D1002032
:100D3000E6E70120E4E74FF0E0210428086903D04A
:100D400020F004000861704740F00400FAE710B595
:100D5000401EB0F1807F01D3012010BD4FF0E02490
:100D600060610F21601700F0ADF80020A06107203E
:100D70002061002010BDFEE705E0002100BF491CF6
:100D8000C9B20229FAD3401EF7D27047124810B5F3
:100D9000816986B041F00401816180690F4C00F0E7
:100DA000040004900C200090012001900220039088
:100DB00069462046FFF794FA012208212046FFF7F2
:100DC0008AFB012204212046FFF785FB5020FFF714
:100DD0007CFA06B010BD000000100240000801407F
:100DE0001FB5082000901120019002200390694651
:100DF0000148FFF775FA1FBD000801401FB5042028
:100E000000900020019069460148FFF769FA1FBD74
:100E1000000801401FB5042000901120019002201D
:100E2000039069460148FFF75BFA1FBD00080140C7
:100E300010B5FFF7EFFFFFF7D3FF0E4C012204219F
:100E40002046FFF748FB012208212046FFF743FB1D
:100E50000220FFF791FF002204212046FFF73BFB11
:100E60000220FFF789FF20460022BDE8104008213C
:100E7000FFF731BB0008014010B5FFF7CBFFFFF7CC
:100E8000AFFF0E4C002208212046FFF724FB002272
:100E900004212046FFF71FFB0220FFF76DFF012210
:100EA00008212046FFF717FB012204212046FFF707
:100EB00012FBBDE810400220FFF75EBF00080140B2
:100EC000FEE770470907090E002806DA00F00F0058
:100ED00000F1E02080F8141D704700F1E02080F858
:100EE0000014704770B5002505F1B000C0B200F0E5
:100EF0000CF9012000F009F9102000F006F9002497
:100F0000002000F013F9641CE4B2802CF8D36D1CAF
:100F1000EDB2082DE8D370BD70B50646002505F189
:100F2000B000C0B200F0F1F8012000F0EEF810209F
:100F300000F0EBF80024304600F0F8F8641CE4B24E
:100F4000802CF8D36D1CEDB2082DE8D370BD10B520
:100F50004FF47A70FFF7B9F9AE2000F0D6F8002010
:100F600000F0D3F8102000F0D0F8402000F0CDF8C9
:100F7000812000F0CAF8CF2000F0C7F8A12000F0CF
:100F8000C4F8C82000F0C1F8A62000F0BEF8A820E0
:100F900000F0BBF83F2000F0B8F8D32000F0B5F81F
:100FA000002000F0B2F8D52000F0AFF8802000F06B
:100FB000ACF8D92000F0A9F8F12000F0A6F8DA206A
:100FC00000F0A3F8122000F0A0F8DB2000F09DF85C
:100FD000402000F09AF8202000F097F8022000F05E
:100FE00094F88D2000F091F8142000F08EF8A420E1
:100FF00000F08BF8A62000F088F8AF2000F085F80C
:101000000020FFF789FF0021084600F06BF8FF2061
:10101000FFF782FFBDE81040FFF764BF2DE9F04104
:101020000F4680460025540100F05CF80C4E305D00
:1010300000F07CF86D1CEDB2641C102DF7D37F1C02
:10104000F9B2404600F04EF80025305D00F06EF831
:101050006D1CEDB2641C102DF7D3BDE8F0810000CB
:10106000A40400202DE9F047924688460546002753
:10107000DFF86C902DE02038C6B2782D04D908F145
:101080000100002500F0FF084146284600F02AF83C
:10109000002404EB061119F8010000F047F8641C65
:1010A000E4B2082CF5D308F10100C1B2284600F0E3
:1010B00019F8002404EB061101EB0900007A00F096
:1010C00035F8641CE4B2082CF4D308357F1CEDB26B
:1010D000FFB21AF807000028CDD1BDE8F087000064
:1010E0006C09002010B50446B031C8B200F00DF80C
:1010F000102040EA141000F008F804F00F00BDE8DA
:10110000104040F00100AFF3008010B50446FFF737
:101110008FFE782000F010F9002000F00DF9204635
:1011200000F00AF9BDE81040FFF7A6BE10B504466E
:10113000FFF77EFE782000F0FFF8402000F0FCF87A
:10114000204600F0F9F8BDE81040FFF795BE704763
:101150002DE9F041404C414DDFF80481207886B004
:101160004FF40046E0B16088401C80B26080B0F56A
:10117000FA7F12D3002767806078E8B3012857D040
:1011800002280AD1002231464046FFF7A4F9012285
:1011900018212846FFF79FF9677006B0BDE8F08177
:1011A000304A01202070916941F0010191619169FB
:1011B00001F0010104912C494B6823F0E06343F0F6
:1011C00000734B60916941F008019161916901F0F0
:1011D00008010491916941F00401916191690190C4
:1011E000029048F2180401F0040103200094CDE9B4
:1011F00003016946284600E012E0FFF771F86946EE
:10120000474640460096FFF76BF8012221462846E4
:10121000FFF761F9012231463846FFF75CF9BCE778
:10122000002210212846FFF756F90122082107E085
:10123000002208212846FFF74EF9012248F210014A
:101240002846FFF748F9012231464046FFF743F9A7
:101250006078401C6070A0E700000020000C014096
:10126000000801400010024000000140704710B526
:10127000FFF76EFFBDE81040FFF738B930B58FB00B
:1012800002240120049000941020059000254FF4C2
:101290006010CDE9085007946846FFF78FFA00B157
:1012A000FEE70AA90F2081E831004FF48060CDE904
:1012B0000D0502210AA8FFF777F900B1FEE7FFF755
:1012C00033FA4FF47A71B0FBF1F0FFF740FD0420E0
:1012D000FFF731FD00221146501EFFF733F90FB022
:1012E00030BD00000F4810B5016841F001010160F8
:1012F00041680D4A1140416001680C4A114001608B
:10130000016821F480210160416821F4FE014160FF
:101310004FF41F018160FFF7B1FF05494FF00060F6
:10132000086010BD001002400000FFF8FFFFF6FE4D
:1013300008ED00E0FEE7000070B50546FFF750FD40
:10134000FFF768FD1F4E0024280601D5012200E0AA
:10135000002204213046FFF7BEF801220821304662
:10136000FFF7B9F80120FFF707FD002208213046FA
:10137000FFF7B1F80120FFF7FFFC6806641C050EBB
:10138000E4B2082CE0D3FFF739FD012208213046F2
:10139000FFF7A1F804213046FFF798F801280ED096
:1013A0000024002208213046FFF795F8FFF732FDB0
:1013B000012204213046FFF78EF8204670BD01243B
:1013C000EFE7000000080140FFF798F8FFF7DEFCA8
:1013D000FFF7BDFD0FA200210320FFF743FE072208
:1013E00000212320FFF71AFE082200213320FFF7F7
:1013F00015FE052200214320FFF710FE06220021E2
:101400005320FFF70BFE05A202210320FFF72AFE5F
:10141000FEE700004F4C45440000000048656C6C3E
:101420006F20776F726C64210000000000000000E4
:101430000000000001020304060708095C1400080C
:10144000000000205C0F00006C010008941B0008E5
:101450005C0F002064060000C80100082113F4019D
:10146000C490D003100EFFFFFF7FFF1F0F07070779
:101470000301013F8181838387FF101F0383C77F9F
:101480003F3F1F095D0143E1803C80C0E0082B0124
:101490000389391119010B60E0F08019011BFE1E50
:1014A000F01978498969880D630F1F3F7F7F680AAB
:1014B000FFFCF8F8FC86808080F01808FEFCF8F04D
:1014C000E0C0C00F0A64F88109FD0109FA01212C6E
:1014D000081808014CC8F8F809550C0C0C08180A33
:1014E000040C040404E4FFFF07076504FCFEFC3A57
:1014F00020013D383F3F23092908443030201AF8A5
:101500004211271030F0E0C08075FCFCFC0C29660D
:1015100010088080C0E06323018580FFFF7F1F07E4
:101520004F4F4763613E000C22181C0E0703030750
:101530001E3E3C10180FFE0222DA064020900C03DB
:101540000C9020405E28080810080780601F693151
:101550001A02013DC2B28E82011302024F08040238
:1015600001FF40012920180F403C10FF10102010EF
:101570008F7808F808F830180E0602FF01010442BF
:1015800021184681403F1016FE9292FE021F101154
:1015900016F014138F1010101F0808FF048141313A
:1015A0000D030D314181180B100C048414640506E1
:1015B000F4040113140C1010048484444724140C04
:1015C000070C1424448404180E02FA8282FE804020
:1015D00020504C434C50A0180F08184884443F40FA
:1015E0004458414E605847B019C24A920142FE1F0A
:1015F00040424458407F9D177F40504846402C4011
:101600004042013AC20613404015201008062C4003
:10161000807FDB140408304E3CFF818199012D81CD
:10162000998181D3D1292079010B1AFFFF20191E3E
:10163000091A20391F091820491F091720591F09A5
:101640001620691F091520791F091420891F091305
:1016500020991F091120C9010912401E858D99B1D9
:10166000BD041AA14B0119422F1A0702111B147F46
:10167000021116242A7F2A121662640813232636C2
:1016800049552250430503341C22411C41221C2A87
:1016900015083E08141A0806320823A0602A08011B
:1016A000211A600B11162010080402263E514945EC
:1016B0003E1C427F40051561514946162141454B6C
:1016C00031161814127F10162745454539163C4A25
:1016D0004949301C017109621636494949362606C6
:1016E0004949291E4336362A56062B0814782A14EF
:1016F00001297E13140816020151090616324959B0
:10170000513E167C1211127C3A7F3C163E414141FB
:10171000221A7F053A1C1212411E7F09090901187D
:101720001449497A1A7FA11A7F421A7F4E1E20401F
:10173000413F0112295B1B7F400111167F020C0201
:101740007F3E7F0408107F483A3E3C1A060C1C512D
:10175000215E0C141929461A465412311601017FD4
:1017600001011A3F35123F1E1F2040201F0C1A385E
:101770000C16631408146316070870080719EF2382
:101780004543198B211B552A0219781A417D1604ED
:101790000201020429712240290B111620545454CD
:1017A00078167F484444382E384444442006134871
:1017B0007F1A3818121816087E0901021D18A4A4F1
:1017C000A4E425080404781B447D3B1D4080847DEF
:1017D0005F341028441B417F121C7C04181E3A7C85
:1017E000242948123816FC242424181A18053AFC17
:1017F0001812081A4854122016043F444020163C80
:101800004040207C1A1CC01A1C0C1430403C2B4455
:10181000284F161CA0A0A07C3F4464544C441401E3
:10182000011372F84333301C100C0603912C40C096
:10183000780319672A0403212D7088FC08292618CB
:1018400020FF211E14F008F033E0184D211C031E68
:1018500011338870000C101E212324192721101029
:10186000160E45E01804021C071820EA3D02041871
:10187000E0692C20180707174080F08040403F02A5
:1018800002010F01022842F01D0101011F04912BEA
:1018900080B066B1191D2901913A30CE492C1460EF
:1018A00018043C6018061D1EE010080810721F0F77
:1018B000102020100FF05310F83620203F20203C3D
:1018C000700808C21E3028242221441E300888884F
:1018D00048082E1820202011CC3BC02032270704B6
:1018E00024243F241AF8202308084B19212036E02D
:1018F000108888184B0F11101E380808C83820218E
:10190000523F1A702E29608F1C222121221C901117
:101910001D31222211901961CAC0C26A80C65908BD
:101920001C40201050170102040810204A400111E9
:101930004A04012119152A403219251B0402F21B01
:101940007048D13AF0501A360F1EC030C828E870DF
:1019500028080718272423140B6F2A387E280D2007
:101960003C23020227382008F888889F4B203FF04C
:101970001BC0303F1B083830191019781B08F80FAE
:10198000194039201B100F103E8888E8081010AC51
:1019900023201810112A035E2940223829402C22C6
:1019A0001E024019A41809F808203F210101212531
:1019B0002A0852298129424149112EC08080807F06
:1019C0000E2FF888C0281808501C0126382F2940EF
:1019D000292F29801B20301012F81AF81413203FE9
:1019E000190229204B30C0601A2074123F4BE010BE
:1019F000B06B0F10B029D01AF03019802201792075
:101A00003F18242438504FC04C888870C0140C30C4
:101A1000204B7088C11738202121221C3A189F4A78
:101A2000188239A049D0112A1F90121F24087888E3
:101A30001BC838151C07380E60191A1AF820111423
:101A4000033C0714073C0348140818688080681892
:101A50000820302C03032C30200838C82F59502977
:101A60008F29102F203826212020681145FE0202E0
:101A700002257F4040401A0CE0611C0106380B191A
:101A80001D42FE191D527F1A04120211045A8001D0
:101A90001930D91D391621180819242222223F2075
:101AA000AB390F115F3F112020110E21311A0E109A
:101AB0004B2011104B88F8102A10B359401A1F3FC1
:101AC0002B22130F16F0888888181A20D029D149A4
:101AD0007A21176B94949493603960190F4C203FCE
:101AE00021F354809898793059121AC02719D119C6
:101AF0003039311F203F24022D30212A081289302D
:101B000069D7294B2903190BC96079A019BF2B206C
:101B10001FDD390F9C80FFA1E0191229D03BA0FFE7
:101B20000C3950194112208A01C01B3324012A1993
:101B30000F3AE0413952290F392349603C103F20C8
:101B40002C29053F010E3008060170291038080FB6
:101B5000300C030C300F2C49A14E312E0E31200CCD
:101B600029621D818E70183059D1215721302C22C5
:101B7000213055807C0202443F404072FF39083CCE
:101B800002027C8F5440403F80080601010202049B
:041B9000040000004D
:0400000508000131BD
:00000001FF
