:020000040000FA
:030000000200D328
:03003300020D0EAD
:03006B00020C4440
:03007B00020CA9CB
:10008300020BF500000080FB1200E2B9000302003E
:10009300CDE490010178DC79018002F0A3D8FCD98A
:1000A300FA9001DCAA82AB839000E578957907800A
:1000B30015E493A3AC82AD838A828B83F0A3AA82D7
:1000C300AB838C828D83D8E9D9E712127B12008629
:1000D30075D0007581BF75100175110102008B7910
:1000E300012254656D703A202020430048756D69E4
:1000F3003A2020202500FF0000000000000000003F
:1001030000000000000000000000000000000000EC
:1001130000000000000000000000000000000000DC
:1001230000001010FF1010009010FF1010F080005E
:1001330000000000FF00048241300F40807F000177
:1001430006004042CC0000FE829292FE929282FE12
:10015300000000003F10887F001E1212125E807F95
:10016300000080809E9292929EE0809EB2D2929EE8
:1001730080000808F4949292F10001F2929494F8AA
:100183000800000000000000000000000000000064
:100193000000000000F80000000000000033300001
:1001A300000000100C06100C060000000000000008
:1001B300000040C07840C0784000043F04043F047E
:1001C3000400007088FC08300000001820FF211E86
:1001D3000000F008F000E018000000211C031E21BD
:1001E3001E0000F00888700000001E212324192738
:1001F300211010160E000000000000000000000097
:100203000000000000E018040200000000071820AE
:10021300400000020418E00000000040201807001E
:100223000000404080F0804040000202010F0102C4
:100233000200000000F0000000000101011F0101A5
:100243000100000000000000000080B0700000000A
:100253000000000000000000000000010101010196
:100263000101000000000000000000303000000029
:100273000000000000008060180400601806010000
:10028300000000E010080810E000000F102020100C
:100293000F00001010F8000000000020203F202075
:1002A300000000700808088870000030282422210C
:1002B30030000030088888483000001820202011C2
:1002C3000E000000C02010F8000000070424243FA3
:1002D300240000F80888880808000019212020114C
:1002E3000E0000E0108888180000000F1120201174
:1002F3000E0000380808C83808000000003F00005E
:1003030000000070880808887000001C2221212248
:100313001C0000E010080810E00000003122221148
:100323000F00000000C0C0000000000000303000DB
:10033300000000000080000000000000806000005A
:100343000000000080402010080000010204081093
:1003530020004040404040404000040404040404A2
:100363000400000810204080000000201008040250
:100373000100007048080808F00000000030360152
:100383000000C030C828E810E00007182724231411
:100393000B000000C038E0000000203C23020227CD
:1003A300382008F8888888700000203F202020111A
:1003B3000E00C03008080808380007182020201055
:1003C300080008F808080810E000203F202020104B
:1003D3000F0008F88888E8081000203F2020232019
:1003E300180008F88888E8081000203F2000030060
:1003F3000000C03008080838000007182020221E1B
:10040300020008F808000008F808203F2101012134
:100413003F20000808F8080800000020203F2020A3
:10042300000000000808F8080800C08080807F00F2
:10043300000008F888C028180800203F200126384B
:10044300200008F8080000000000203F20202020A2
:10045300300008F8F800F8F80800203F003F003F9C
:10046300200008F830C00008F808203F20000718D3
:100473003F00E01008080810E0000F1020202010B3
:100483000F0008F808080808F000203F21010101C7
:100493000000E01008080810E0000F18242438506A
:1004A3004F0008F8888888887000203F2000030CDC
:1004B30030200070880808083800003820212122E5
:1004C3001C00180808F8080818000000203F200046
:1004D300000008F808000008F808001F202020206A
:1004E3001F000878880000C83808000007380E018C
:1004F3000000F80800F80008F800033C0700073C78
:100503000300081868808068180820302C03032C27
:1005130030200838C800C83808000000203F2000F9
:10052300000010080808C8380800203826212020B9
:100533001800000000FE020202000000007F40409D
:100543004000000C30C0000000000000000106382D
:10055300C00000020202FE000000004040407F0095
:10056300000000000402020204000000000000007A
:100573000000000000000000000080808080808078
:100583008080000202040000000000000000000060
:1005930000000000808080800000001924222222B5
:1005A3003F2008F8008080000000003F1120201148
:1005B3000E000000008080800000000E112020202B
:1005C3001100000000808088F800000E1120201028
:1005D3003F200000808080800000001F2222222212
:1005E3001300008080F0888888180020203F202096
:1005F30000000000808080808000006B94949493BE
:10060300600008F8008080800000203F2100002067
:100613003F2000809898000000000020203F202009
:100623000000000000809898000000C08080807F58
:10063300000008F8000080808000203F24022D3055
:100643002000000808F8000000000020203F2020C0
:1006530000008080808080808000203F20003F2039
:10066300003F8080008080800000203F2100002028
:100673003F200000808080800000001F2020202079
:100683001F00808000808000000080FFA1202011D7
:100693000E000000008080808000000E112020A04A
:1006A300FF80808080008080800020203F21200008
:1006B30001000000808080808000003324242424F3
:1006C3001900008080E0808000000000001F2020CF
:1006D30000008080000000808000001F2020201088
:1006E3003F20808080000080808000010E3008065B
:1006F300010080800080008080800F300C030C306C
:100703000F0000808000808080000020312E0E3199
:100713002000808080000080808080818E70180699
:10072300010000808080808080000021302C222105
:10073300300000000000807C020200000000003F47
:10074300404000000000FF00000000000000FF0028
:1007530000000002027C800000000040403F0000D7
:100763000000000601010202040400000000000072
:10077300000000000000E0FAA3E0FBA3E0FCA3E01C
:10078300FD22EAF0A3EBF0A3ECF0A3EDF022CAC044
:10079300E0E6F0A308DAFAD0E0FA22700422600D52
:1007A30018C6C333C608C633C6D5E0F418222510CD
:1007B30010AF08F510400215118008F5104002151E
:1007C30011D2AF22C0D0251010AF08F5105002058A
:1007D300118008F51050020511D2AFD0D022251098
:1007E300F58210AF08F510400215118008F510408E
:1007F300021511D2AF851183222510F582E435113C
:10080300F58322E4732510C582C0E0E51134FFC5EA
:1008130083C0E0E510C3958224F910AF08858311E6
:100823008582108008858311858210D2AFCEF0A314
:10083300E520F0A37808E608F0A3DEFAEFF0A3E5DD
:100843008124FBF8E608F0A3E608F0A30808E6080D
:10085300F0A3E608F0A315811581D0E0FED0E0F8FF
:1008630015811581E8C0E0EEC0E022851183851073
:1008730082E0A3FEE0A3F5207808E0A3F608DFFA00
:10088300E0A3FFE0A3C0E0E0A3C0E0E0A3C0E0E09A
:10089300A3C0E010AF08858210858311800885828C
:1008A30010858311D2AFD083D08222C0D02510C54A
:1008B30082C0E0E51134FFC583C0E0E510C3958233
:1008C30024F310AF08858311858210800885831176
:1008D300858210D2AFC8F0A3E9F0A3EAF0A3EBF04E
:1008E300A37908E709F0A3D8FAECF0A3EDF0A3EE9F
:1008F300F0A3EFF0A3D0E0F0A3D0E0F0A3D0E0F0BA
:10090300A3E520F0A3E5F0F0A322851183851082EF
:10091300E0C0E0A3E0F9A3E0FAA3E0FBA37808E0DA
:10092300F608A3DFFAE0FCA3E0FDA3E0FEA3E0FFEB
:10093300A3E0C0E0A3E0C0E0A3E0F5D0A3E0F5208E
:10094300A3E0A3F5F010AF0885831185821080081A
:10095300858311858210D2AFD082D083D0E0F8D0C6
:10096300E03274028000C0E0F4041207E1D0E01228
:10097300079122C082C083120BD5D2AF79017A0AC4
:100983007B01120BBA90010AE0C2E7F06405703DE7
:1009930079057A0B7B01120BBAA3E0A2E55004D2CE
:1009A300F08002C2F0A2F0E4339001F8F090010F5E
:1009B300E0A2E74003020A5990010DE0F89001011B
:1009C300E0686003020A59A37401020A58E024F59F
:1009D3009001F5F090010AE0F97A0B7B01120BBA52
:1009E300A3E0A2E55004D2F08002C2F0A2F0E43307
:1009F3009001F8F0900112E0F8A3E0F99001F1E81A
:100A0300F0A3E9F09001F67414F0A37401F09001DF
:100A1300F5E0F83395E0F9741428F8740139F9888E
:100A2300828983E09001F9F088828983A3E0A2E7B9
:100A3300501C9001F0E0F890010DE0686010900107
:100A43000BE054DF644170069001FA7401F09001E9
:100A53000DE09001F0F0C2AF120BE5020BD0C082A3
:100A6300C0838A828B83120B97E964017004790136
:100A73008075C2AFA882A983900108E8F0A3E9F0CA
:100A83009001F6E4F0A3F090010304F090086C12D7
:100A9300077990010412078575F005900108120C7F
:100AA300A0A3A3A3A3E0A424D490618FF090010991
:100AB300120CA3120D07906174F0E9A3F0900108E2
:100AC300120CA0A3A3120D07906172F0E9A3F0E545
:100AD300A8F8C2AF90018B7476F0A37409F0E8A272
:100AE300E792AFD2AF7900020BD0E5C65480F8533A
:100AF300BEFBE59DA2E550FAE59DA2E240F4007439
:100B030001697007744948F5C68005E9700288C613
:100B1300E5C6F8E59E6870FB43BE0422E9F8E59E4E
:100B2300A2E64003790122E8700553C67F8008746A
:100B33000168700343C680E5C6F9E59E6970FB79D9
:100B43000022EBC313FBEA13FAEAF8EBF9E824FFFC
:100B5300FAE934FFFBE849601300000000000000DD
:100B63000000000000000000000080DD2274F81285
:100B73000808EAFEEBFFEEF8EFF9E824FFFEE9349C
:100B8300FFFFE84960097AE87B03120B4580E77FA2
:100B93000102086EC082C083906189E04460F090D6
:100BA30061FA7409F09061B27415F09061AEE4F0EB
:100BB300120BE579008016C082C083800DE5D98AC7
:100BC300828B83F0A3AA82AB8319E970F0D083D020
:100BD3008222C082C0839061A3E0C2E6F0539AFEF2
:100BE30080EBC082C0839061A3E0D2E6F0439A0118
:100BF30080DBC0E074F21208AEA2AFE433FEC2AFF2
:100C0300E5E9A2E6501490018B120D026006120C66
:100C1300A3120806759B0053E9BFEEA2E092AF7FD3
:100C23000102090D7901120D657902120D6579032F
:100C3300120D657904120D657A327B00120B7080F8
:100C4300E3C0E074F11208AEC2C5E58960477E00D7
:100C5300750801750900EE780812079EAF08E5894B
:100C63005F602BEEC333F8E433F9748D28F5827497
:100C730001120CFF6014EEC333F8E433F9748D28CA
:100C8300F5827401120C9D120806EFF452890EEEE0
:100C9300C3940840BB7F0202090D39F583E0F8A332
:100CA300E0F583888222C0E074F11208AEC2EBE55E
:100CB3008A60477E00750801750900EE78081207FF
:100CC3009EAF08E58A5F602BEEC333F8E433F97413
:100CD3009D28F5827401120CFF6014EEC333F8E40F
:100CE30033F9749D28F5827401120C9D120806EFE6
:100CF300F4528A0EEEC3940840BB809939F58312EF
:100D03000D074922E0F8A3E0F9E822C0E074F112EC
:100D130008AEC2E8E58B60477E00750801750900DF
:100D2300EE780812079EAF08E58B5F602BEEC333A6
:100D3300F8E433F974AD28F5827401120CFF6014E2
:100D4300EEC333F8E433F974AD28F5827401120C61
:100D53009D120806EFF4528B0EEEC3940540BB02BE
:100D63000C98C082C083E914600B14600D14600FEB
:100D730014601180196380048014638008800F63FA
:100D83009010800A6380029001B7E06401F0020BC7
:100D9300D053F3BF43FD402253F37F43FD802253DF
:100DA300F37F53FD7F538F7F22120D9B120D94D23D
:100DB30087D287D286D286C287C287C286C286225C
:100DC300120D9B120D94C286C286C287C287D28639
:100DD300D286D287D2872274F8120808E9FE120D50
:100DE30094120D9B7808EEA2E75006D287D2878033
:100DF30004C287C287D286D286C286C286C333FE26
:100E030018E870E2120DA2D286D286E580FFC28670
:100E1300C286120D9BD287D287EFA2E7E433F98013
:100E230076EEC0E0120E457940120DDAEEF9120D9E
:100E3300DA120DC3D0E0FE22EEC0E0120E457900B7
:100E430080E7E9FE120DAC7978120DDA2274F812FC
:100E53000808E9FEEAFF74B02FF9120E3BEEC45402
:100E63000F4410F9120E3B740F5E4401F9120E3B4E
:100E7300802574F8120808E9FE75080074B0250887
:100E8300120FB17F80EEF9120E241FEF70F70508E1
:100E9300E508C3940840E57F0102086E74F8120860
:100EA3000874FC1207B174021207FCE4F0A3802259
:100EB300851082851183120FC0F0851082851183FE
:100EC300C3E09417A3E0940240E674021207FC12F5
:100ED3000FC0F074021207FCC3E094F4A3E0940182
:100EE300500B851082851183E4F0A380CC79AE1278
:100EF3000FA87910120F9F7981120E3B79CF120E32
:100F03003B79A1120E3B79C8120F9679A8120E3BBA
:100F1300793F120E3B79D3120FA879D5120E3B7984
:100F230080120E3B79D9120E3B79F1120E3B79DA1E
:100F3300120E3B7912120E3B79DB120F9F792012AE
:100F43000E3B7902120E3B798D120E3B7914120E71
:100F53003B79A4120F9679AF120E3B7900120E75EE
:100F63007A007900120E5079FF120E757900120E75
:100F7300757F0074B02F120FB17E807900120E249A
:100F83001EEE70F70FEFC3940840E874041207C70E
:100F9300020E9A120E3B79A6120E3B22120E3B79D9
:100FA30040120E3B22120E3B7900120E3B22F91225
:100FB3000E3B7901120E3B7910120E3B22E0240105
:100FC300F0A3E034002274F212080874FE1207B191
:100FD300851082851183ECF0A3EDF0E9FE8A0D758F
:100FE3000C00806C851082851183E02812107A240E
:100FF300E0F50EEEC3947940047E00050DAA0DEED4
:10100300F9120E507F00850E0A750B007404780ADE
:1010130012079E12106D747C28F5827402121084DC
:1010230040E47401250DFAEEF9120E507F00850E8F
:101033000A750B007404780A12079E12106D7484EB
:1010430028F582740212108440E474082EFE050C05
:10105300A80C851082851183E028FA12107A708417
:1010630074021207C77F0702086E8F08E50A250876
:10107300F8E50B3400F922A3E034008A82F583E01B
:101083002239F583E0F9120E240FEFC3940822747A
:10109300F412080889088A098B0A750B007405780D
:1010A3000A12079EAE0AAF0B120E50750A101210E9
:1010B300CD70FB74012509FAA908120E50750A10A8
:1010C3001210CD70FB7F0502086E74FC2EF582743E
:1010D300013FF583E0F9120E24EE24010EEF3400F4
:1010E300FF150AE50A2274F512080874C41207B141
:1010F3009001D87407F0A37420F0A37419F0A374BB
:1011030001F09001D67420F0A37425F07AD67B0108
:10111300120A61E964017003120C27900103740140
:10112300F075E1EC75E1E302120C750A1E750B0014
:10113300780A1209659001F6E0FCA3E0FD7AB87B1A
:10114300011212E274021207C79001F5E090018ABE
:10115300F09001F5E4F09001FAF0D2AF90018AE04B
:10116300700302120C7C007B0079007A0078001275
:10117300126B642C6003021220790274016A7012EC
:10118300E0C0E08B08851082851183121258D0E0ED
:10119300F00B12126570027A0108E8C3941E40CF67
:1011A30074201207FCE4F074021207FCE4F0741ECE
:1011B3001207FCAC82AD837A03792D120FC9851017
:1011C30082851183AC82AD837A06792D120FC9759E
:1011D300081E75090078081209657C007D007420DB
:1011E3001207FCAA82AB8312132874021207C77872
:1011F300081209657C007D0074021207FCAA82AB09
:101203008312132874021207C7C2AF9001F5E0F8E6
:10121300C3941E400302112D880A02113074016920
:101223007011E0C0E08C08741E1207FC121258D033
:10123300E0F00C1212657008E97005790102119C47
:10124300740269600302119CE0642E600302117E44
:101253007A0202119CE5822508F582E5833400F5C4
:10126300832212126B643A22880874B82508F58227
:1012730074013400F583E0227900120B1FE960103A
:101283007901120AED7900120B1FE96003120C2792
:101293007900120AEDD2AF53F33F43FDC0120E9F04
:1012A3007B017A01791E1210927B027A0179321244
:1012B30010927B037A0179461210927CDC7D017ACD
:1012C300037901120FC97CE67D017A067901120FB9
:1012D300C9120B97E964017003120C270210E97419
:1012E300F712080874091207FCE0FEA3E0FFEAF80E
:1012F300EBF980188C828D83E088828983F0A3A820
:1013030082A9838C828D83A3AC82AD838E088F09DF
:10131300E50824FF1EE50934FFFFE508450970D4FD
:101323007F0202086E74F812080874081207FCE0C2
:10133300F8A3E0F98A828B838003ECF0A3E8FEE94B
:10134300FFEE24FF18EF34FFF9EE4F70ED7F01023B
:02135300086E22
:04000005000000D324
:00000001FF
