:020000040000FA
:1000000002002700000080FB120051B9000302002B
:100010001175826075830074001200337582037558
:100020008300740012003375D0007581BF759F0086
:10003000020008C09FF59FE473D09F22D083D08236
:10004000C09FE493C0E0740193C0E0740293F59FF5
:100050002279012212003C81000012003C72000053
:1000600012005A1200548002C283A29140FAD28335
:1000700080F853C6BFE59EA2E640FA53C6B8020018
:100080003943FD0853F4FD53FEFD53F6FD020039DC
:0400000500000027D0
:00000001FF
