:020000040800F2
:10000000800B0020D101000801160008FD15000832
:10001000FF15000821050008651E0008000000000B
:10002000000000000000000000000000A11900080E
:10003000110600080000000023160008A31900089C
:10004000EB010008EB010008EB010008EB010008E0
:10005000EB010008EB010008EB010008EB010008D0
:10006000EB010008EB010008EB010008EB010008C0
:10007000EB010008EB010008EB010008EB010008B0
:10008000EB010008EB010008EB010008EB010008A0
:10009000EB010008EB010008EB010008EB01000890
:1000A000EB010008EB010008EB010008EB01000880
:1000B000EB010008691A0008EB010008EB010008D9
:1000C000EB010008EB010008EB010008EB01000860
:1000D000EB010008E51D0008151E0008EB010008F3
:1000E000EB010008EB010008EB010008EB01000840
:1000F000EB010008EB010008EB010008EB01000830
:10010000EB010008EB010008EB010008EB0100081F
:10011000EB010008EB010008EB010008EB0100080F
:10012000EB010008EB010008EB010008EB010008FF
:1001300000F002F800F03CF80AA090E8000C8244BD
:100140008344AAF10107DA4501D100F031F8AFF29A
:10015000090EBAE80F0013F0010F18BFFB1A43F0A5
:10016000010318473C2000005C200000103A24BF27
:1001700078C878C1FAD8520724BF30C830C144BF0C
:1001800004680C607047000000230024002500264E
:10019000103A28BF78C1FBD8520728BF30C148BFEA
:1001A0000B607047002070471FB51FBD10B510BD14
:1001B00000F084F91146FFF7F7FF01F0A3FF00F00C
:1001C000A2F903B4FFF7F2FF03BC01F072FF0000D5
:1001D0000948804709480047FEE7FEE7FEE7FEE7DB
:1001E000FEE7FEE7FEE7FEE7FEE7FEE70448054917
:1001F000054A064B70470000191A00083101000833
:1002000080050020800B0020800700208007002050
:10021000704700000FB4044910B503AA029800F01B
:100220001FF910BC5DF814FB240000202DE9F05FDD
:10023000894604464FF0000ADFF824B1FB44C0F8B9
:1002400020A02046E168884700287DD0252806D0D8
:10025000D4E901219047206A401C2062F1E7002583
:100260005F462046E16888472028064607DB312E96
:1002700005D2B81910F8200C08B10543F1E7A8071A
:1002800001D525F00405C4F81CA00027C4F818A067
:100290002A2E09D0304601F005FF38B304EB870859
:1002A000303EC8F8186019E059F8041B204604EBEA
:1002B00087029161E1688847012F064618D1E069FD
:1002C000002820DA25F020051DE0D8F8180000EB02
:1002D000800006EB40003038C8F818002046E1687E
:1002E0008847064601F0DEFE0028EED1012F0AD035
:1002F0002E2E08D12046E16888477F1C0646022F33
:1003000045F02005C4DBA069002803DA404245F02F
:100310000105A061E80701D025F01005A6B1A6F1FE
:100320004100192802D8203645F400654A46314676
:10033000204625604D46FFF735FF60B1012807D004
:10034000ED1D25F0070000E007E000F1080978E75F
:1003500005F1040975E730467AE7206ABDE8F09FA9
:100360004C1F000030B505460B462A4613F8014BDA
:1003700012F8010B08B1A042F8D01CB1002802D03D
:100380006D1CF1E7284630BD10B5431C02E010F8A3
:10039000011B71B18107FAD14FF0013202C88C1AEA
:1003A0008C4314EAC211F9D0C01A0A0603D0C01E49
:1003B00010BDC01A10BD0A0401D0801E10BD090274
:1003C000FCD0401E10BD4FF000020429C0F0128086
:1003D00010F0030C00F01B80CCF1040CBCF1020FF8
:1003E00018BF00F8012BA8BF20F8022BA1EB0C01CD
:1003F00000F00DB85FEAC17C24BF00F8012B00F8C3
:10040000012B48BF00F8012B70474FF0000200B5E8
:10041000134694469646203922BFA0E80C50A0E827
:100420000C50B1F12001BFF4F7AF090728BFA0E8D5
:100430000C5048BF0CC05DF804EB890028BF40F8A1
:10044000042B08BF704748BF20F8022B11F0804FE3
:1004500018BF00F8012B704770477047704770470E
:10046000074B70B50D467B4400F011F80446284652
:1004700000F020F810B14FF0FF3070BD204670BD85
:10048000831C000001694A1C02610878704700B5AE
:100490008FB0CDE901310021059105497944CDE9BD
:1004A000031011466846FFF7C1FE0FB000BD000003
:1004B000E5FFFFFF007B00F080007047754600F00D
:1004C0002BF8AE4605006946534620F007008546E6
:1004D00018B020B5FFF78AFEBDE820404FF00006B7
:1004E0004FF000074FF000084FF0000B21F007011C
:1004F000AC46ACE8C009ACE8C009ACE8C009ACE85F
:10050000C0098D46704710B50446AFF30080204601
:10051000BDE81040FFF755BE004870472005002099
:10052000FEE770B500220E46144610B10EB1054626
:1005300009E04FF6FF7070BD295D90B201F0BAFD81
:10054000641C02B2A4B2B442F6DB90B270BD0000EB
:100550002DE9F047DFF8AC900126DFF8AC80D9F840
:100560000010B1F5004F05D088F8036098F803003B
:10057000BDE8F0872549002788F803700A7ACB790F
:1005800002EB0322824233D1A1F5D275087928719A
:1005900088794B79444600EB0320E8802A81887AE9
:1005A0004A7A00EB02206881C87A28730C2003E0A5
:1005B0000A5C2B18401C5A70A0802A7B80B20C3237
:1005C0008242F5D8297B1148104A0C300D32085C64
:1005D0008A5C0C3102EB0020A5F8D6000B48FFF72F
:1005E000A0FFE080B5F8D610814203D0E67001E0AC
:1005F00088F80360C8210548FFF707FFC9F80070B5
:10060000B4E700002000002014000020D8020020E1
:10061000704731B500F004F9044600F001F9009983
:10062000001B8842F9D338BD2DE9F84FDFF8BC91A3
:10063000002309F1040A0AF1040B1C464FF00F08CD
:100640000BF1040E01270A68A7403A40BA4272D162
:10065000DFF89CC14D68A5EB0C0665452BD00DDC81
:10066000032D34D005DC35B3012D19D0022D2FD147
:100670001BE0112D16D0122D2AD119E0B6F5881FD6
:1006800019D006DCB6F5803F15D0B6F5801F1FD116
:1006900011E0B6F5001F0ED0B6F5041F18D10AE020
:1006A000CB6815E0CB681B1D12E0CB6808330FE068
:1006B000CB680C330CE08B682BB1012B4FF0080397
:1006C00003D0476104E0042302E0076100E0002357
:1006D000FF2A01D8064601E000F104064FEA84052E
:1006E00001D9A5F12005376808FA05FC27EA0C07AF
:1006F00003FA05F547EA050737604D68ED006ED54A
:100700003C4DAE6946F00106AE61AD6924F00306CA
:1007100005F001050095384D7719BE68A5072D0F26
:1007200008FA05FC26EA0C06DFF8D0C0604503D1C4
:100730004FF0000C25E052E0DFF8C4C0604502D164
:100740004FF0010C1DE0DFF8BCC0604502D14FF056
:10075000020C16E0DFF8B0C0604502D14FF0030C88
:100760000FE0DFF8A8C0604502D14FF0040C08E0AC
:10077000DFF89CC0604502D14FF0050C01E04FF05E
:10078000060C0CFA05FC4CEA060CC7F808C04D68CC
:10079000D9F80060ED034D4601D5164300E09643BD
:1007A0002E604D68DAF80060AD03554601D516435A
:1007B00000E096432E604D68DBF80060ED025D4678
:1007C00001D5164300E096432E604D68DEF80060C8
:1007D000AD02754601D5164300E096432E60641CB9
:1007E000102CFFF42FAFBDE8F88F0000000401408B
:1007F00000001110001002400000014000080140FC
:10080000000C01400010014000140140001801409C
:10081000001C01400AB1016170470904FBE70000B8
:10082000014800687047000010000020024801687D
:10083000491C01607047000010000020074810B5F7
:10084000016841F010010160032000F047F80F201B
:1008500000F006F800F015F8002010BD002002405E
:1008600010B5044600F00CF94FF47A71B0FBF1F0CA
:1008700000F049FC00222146501E00F00FF8002035
:1008800010BD704700F01F02012191404009800017
:1008900000F1E020C0F8001170470000F0B40E4BEA
:1008A0001B68C3F30223C3F10704042C00D90424FA
:1008B0001D1D072D01D2002300E0DB1E012606FAD4
:1008C00004F56D1E0D409D409E40761E164045EA83
:1008D0000601F0BC00F095BE0CED00E0064A00F009
:1008E000070110684FF6FF03184040EA0120034952
:1008F00008431060704700000CED00E00000FA05AE
:100900002DE9F047DFF8688104460E46D8F800006C
:1009100000F00700B0420CD2D8F8001021F0070117
:100920003143C8F80010D8F8000000F00700B042CA
:1009300073D120784F4F800705D57868A16820F0E3
:10094000F000084378602078C00755D06068012225
:1009500001280CD0022828D0022393FAA3F1B1FA7F
:1009600081F141F02001490904D0396803E04FF4D6
:100970000033F2E7796A93FAA3F3B3FA83F303F04F
:100980001F039A40114248D0796821F003010143C6
:100990007960FFF745FF0546606841F2883101281C
:1009A0000CD00228894615D022E04FF00073D4E71E
:1009B000FFF736FF411B494501D916E089467868A3
:1009C000C0F381000128F3D116E0FFF729FF411B96
:1009D00049450AD87868C0F381000228F5D10BE0B8
:1009E000FFF71EFF411B494502D90320BDE8F087F0
:1009F000786810F00C0FF3D1D8F80010404601F0E1
:100A00000701B1420BD9016821F0070131430160B0
:100A1000006800F00700B04201D00120E6E720782E
:100A2000400705D57868E16820F4E0600843786005
:100A30002078000706D57868216920F4605040EAE4
:100A4000C100786000F052F87968F02292FAA2F2C0
:100A500001F0F001B2FA82F2D140074A515CC8407D
:100A6000064908600F20FFF7FBFE0020BEE70000EC
:100A700000200240001002407421000808000020FD
:100A80000148006870470000080000200848094934
:100A9000006849684FF4E06292FAA2F201F4E06162
:100AA000B2FA82F2D140044A515CC840704700005B
:100AB000080000200010024084210008084809496D
:100AC000006849684FF4605292FAA2F201F4605152
:100AD000B2FA82F2D140044A515CC840704700002B
:100AE00008000020001002408421000810B519A061
:100AF00085B00FC88DE80F001AA01B4B006804904A
:100B000059681A4801F00C02042A1DD0082A1BD18A
:100B10004FF4701494FAA4F401F47012B4FA84F44B
:100B2000E240C9031DF8022010D559684FF4003384
:100B300093FAA3F301F40031B3FA83F3D94004AB81
:100B4000595CB0FBF1F0504305B010BD084850436C
:100B5000FAE7000002030405060708090A0B0C0D5A
:100B60000E0F1010010200000010024000127A0067
:100B700000093D002DE9F84F04460078FE4EC007FD
:100B80004FF001057FD070684FF40038C0F381004A
:100B9000012807D07068C0F3810002281BD170685B
:100BA000C00318D598FAA8F0B0FA80F040F0200001
:100BB000400901D0306800E0706A98FAA8F1B1FAF3
:100BC00081F101F01F0105FA01F108425BD0606874
:100BD000002879D057E06068B0F5803F0BD010B1A5
:100BE000B0F5A02F11D0306820F48030306030682C
:100BF00020F4802002E0306840F48030306060688B
:100C000018B3FFF70DFE074609E0306840F4802076
:100C10003060F0E7FFF704FEC01B642870D898FA34
:100C2000A8F0B0FA80F040F02000400901D0306810
:100C300000E0706A98FAA8F1B1FA81F101F01F01A1
:100C400005FA01F10842E5D01DE0FFF7E9FD07468E
:100C500004E0FFF7E5FDC01B6428DFD898FAA8F090
:100C6000B0FA80F040F02000400901D0306800E088
:100C7000706A98FAA8F1B1FA81F101F01F0105FA42
:100C800001F10842E5D12078DFF8F08280074FF0CB
:100C9000000A4FF002075AD570684FF0F80B10F0B9
:100CA0000C0F07D07068C0F3810002281CD1706857
:100CB000C00319D497FAA7F0B0FA80F040F02000F2
:100CC000400902D0306801E08AE0706A97FAA7F123
:100CD000B1FA81F101F01F0105FA01F108422BD0B0
:100CE000206901287CD127E0206988B395FAA5F016
:100CF000B0FA80F048F82050FFF792FD814606E0F8
:100D00004DE1FFF78DFDA0EB0900022886D897FA88
:100D1000A7F0B0FA80F040F02000400901D0306820
:100D200000E0706A97FAA7F1B1FA81F101F01F01B2
:100D300005FA01F10842E4D030689BFAABF220F0EA
:100D4000F8016069B2FA82F290400143316025E017
:100D5000FFE795FAA5F1B1FA81F148F821A0FFF774
:100D60005FFD814605E0FFF75BFDA0EB090002286F
:100D7000CCD897FAA7F0B0FA80F040F020004009F4
:100D800001D0306800E0706A97FAA7F1B1FA81F1FA
:100D900001F01F0105FA01F10842E4D120780007B3
:100DA0006DD5A069B8B395FAA5F0B0FA80F008EB5C
:100DB0008000C0F88054FFF733FD814605E0FFF75F
:100DC0002FFDA0EB09000228A0D897FAA7F0B0FAEF
:100DD00080F040F06000B5EB501F02D130680CE0AD
:100DE00063E197FAA7F0B0FA80F040F06000B7EB4B
:100DF000501F01D1306A00E0706A97FAA7F1B1FA8A
:100E000081F101F01F0105FA01F21042D7D0012053
:100E1000FFF7FFFB33E0FFE795FAA5F1B1FA81F1A7
:100E200008EB8101C1F880A4FFF7FAFC814605E0D8
:100E3000FFF7F6FCA0EB0900022899D897FAA7F073
:100E4000B0FA80F040F06000B5EB501F01D130687F
:100E50000BE097FAA7F0B0FA80F040F06000B7EB33
:100E6000501F01D1306A00E0706A97FAA7F1B1FA19
:100E700081F101F01F0105FA01F21042D8D120786A
:100E8000400763D5F06940F08050F061F069DFF809
:100E9000F0B000F080500090DBF8001041F4807159
:100EA000CBF80010FFF7BCFC814605E0FFF7B8FC6B
:100EB000A0EB0900642872D8DBF80000C005F5D566
:100EC000E06801280AD008B1052813D0306A20F064
:100ED00001003062306A20F0040002E0306A40F025
:100EE00001003062E06841F2883B80B3FFF798FC74
:100EF00081460AE0306A40F004003062EEE7FFF716
:100F00008FFCA0EB0901594549D897FAA7F0B0FA30
:100F100080F040F04000B5EB501F01D130680BE08D
:100F200097FAA7F0B0FA80F040F04000B7EB501FFE
:100F300001D1306A00E0706A97FAA7F1B1FA81F145
:100F400001F01F0205FA02F10842D8D033E0FFE7B2
:100F5000FFF766FC814605E0FFF762FCA0EB0901A4
:100F600059451CD897FAA7F0B0FA80F040F040003D
:100F7000B5EB501F08D105E00010024000004242CE
:100F80000070004030680CE097FAA7F0B0FA80F0EB
:100F900040F04000B7EB501F02D1306A01E08AE018
:100FA000706A97FAA7F1B1FA81F101F01F0205FA10
:100FB00002F10842D0D1E06998B37168C1F38101B0
:100FC000022972D002284FF080714FF0007B50460A
:100FD0000AD091FAA1F1B1FA81F148F82100FFF7A6
:100FE0001FFC04465F4669E08A4691FAA1F1B1FA16
:100FF00081F1C14648F82100FFF712FCA8460746D8
:101000005D4604E0FFF70CFCC01B022853D895FA9C
:10101000A5F0B0FA80F040F02000400902D030681E
:1010200001E060E0706A95FAA5F1B1FA81F101F092
:101030001F0208FA02F10842E4D1206AB0F5803FAD
:1010400005D17068A16820F4003008437060D4E9CD
:1010500008010843716821F47411084370609AFA1A
:10106000AAF0B0FA80F0474649F82080FFF7D8FB95
:10107000044604E0FFF7D4FB001B02281BD895FAB6
:10108000A5F0B0FA80F040F02000400901D03068AF
:1010900000E0706A95FAA5F1B1FA81F101F01F0143
:1010A00007FA01F10842E5D01DE01EE0FFF7B8FBAA
:1010B000001B022802D90320BDE8F88F97FAA7F099
:1010C000B0FA80F040F02000400901D0306800E024
:1010D000706A97FAA7F1B1FA81F101F01F0105FAE0
:1010E00001F10842E2D10020E6E70120E4E74FF0F9
:1010F000E0210428086903D020F00400086170474B
:1011000040F00400FAE710B5401EB0F1807F01D333
:10111000012010BD4FF0E02460610F21601700F046
:1011200070FA0020A06107202061002010BD7047E8
:10113000704710B5040003D094F8390010B107E0EF
:10114000012010BD002084F83800204600F00CF883
:10115000022084F83900211D206800F0ADFC012038
:1011600084F83900002010BD08B500680B4988429A
:1011700012D10B48C16941F00201C161C06903226B
:1011800000F00200009001211D20FFF787FBBDE861
:1011900008401D20FFF776BB08BD0000000400409A
:1011A000001002400168CA6842F00102CA6000688B
:1011B000016841F00101016000207047704770B57F
:1011C0000446006801694FF00005C943890715D43A
:1011D000C168C943890711D4E91E01610120207645
:1011E000206880698007204602D0FFF7E7FF04E00F
:1011F00000F098F8204600F096F8257620680169FE
:10120000C943490717D4C168C943490713D46FF0CC
:1012100004010161022020762068806910F4407F7B
:10122000204602D0FFF7CAFF04E000F07BF820461A
:1012300000F079F8257620680169C943090716D4BA
:10124000C168C943090712D46FF008010161042085
:1012500020762068C0698007204602D0FFF7AEFFE5
:1012600004E000F05FF8204600F05DF82576206885
:101270000169C943C90617D4C168C943C90613D453
:101280006FF010010161082020762068C06910F419
:10129000407F204602D0FFF791FF04E000F042F8C3
:1012A000204600F040F8257620680169C943C90747
:1012B00008D1C168C943C90704D1891E016120460C
:1012C00000F032F820680169C943090609D4C168F1
:1012D000C943090605D46FF0800101612046FFF77C
:1012E00026FF20680169C943490609D4C168C9437A
:1012F000490605D46FF040010161204600F015F861
:1013000020680169C94389060BD4C168C9438906AD
:1013100007D46FF0200101612046BDE87040FFF75F
:1013200007BF70BD704770477047704770B50400C5
:1013300004D094F83900002510B106E0012070BDFA
:1013400084F83850204600F021F8022084F8390053
:101350002068C16821F40051C160204600F040FCC3
:101360002068016921F4904101612068416921F000
:101370002A0141612068C16841F40051C160E56300
:10138000012084F83900002070BD00002DE9F047ED
:1013900080460068474B0121474A0025474C0226FA
:1013A000032786B04FF4806998422ED1A06940F09F
:1013B0000400A061A06900F004000490A06940F45A
:1013C0008040A061A06900F480400490A06940F0D2
:1013D0000100A061A069039700F001000490480299
:1013E0000090CDE90161694692461046FFF71CF96D
:1013F000CDE9009569465046FFF716F92520FFF71D
:1014000041FA01221146252029E02D4B984228D18E
:10141000A06940F00400A061A06900F004000490FD
:10142000E06940F40030E061E069039700F40030C7
:10143000049004200090CDE901616946924610466F
:10144000FFF7F2F80820CDE9000569465046FFF79E
:10145000EBF82620FFF716FA022201212620FFF7DB
:101460001DFA1849D8F8000088421FD1E06940F4FD
:101470008020E061E06900F480200490A06940F0E1
:101480000800A061A069104C00F00800CDE90370CD
:10149000CDE9009669462046FFF7C6F8E014CDE98D
:1014A0000005694620460295FFF7BEF806B0BDE884
:1014B000F0870000003801400008014000100240A1
:1014C0000044004000480040000C014090F83930D2
:1014D000012B01D0122B2BD131B32AB390F8383025
:1014E000012B25D0012380F8383081628285C285A6
:1014F0000021C16390F83920122A17D0222280F8E7
:10150000392080F838100168CA6842F48072CA60D5
:1015100001684A6942F001024A610068C16841F00D
:101520002001C16000207047012070473222E6E7A9
:10153000022070472DE9F047044690F8390099469B
:101540000D46012801D0222856D125B31AB394F8AC
:101550003800012850D0012684F838600027E7635E
:1015600094F83900222819D0122084F83900A28476
:10157000E2844FF48058E08C4B46401EE084A06823
:101580004FF0000240454FF08001204613D100F09B
:10159000DFFB08BB04E00120BDE8F0873220E4E770
:1015A00028882168C0F308004860206908B16D1CD4
:1015B00008E0AD1C06E000F0CBFB68B9216815F827
:1015C000010B4860E08C0028D5D14B460022402119
:1015D000204600F0BDFB08B10320DDE794F8390098
:1015E000322805D084F8396084F838700020D3E7B9
:1015F000222084F83900F7E70220CDE7FEE7FEE776
:1016000070470907090E002806DA00F00F0000F104
:10161000E02080F8141D704700F1E02080F80014ED
:10162000704770472DE9F041404C414DDFF804818F
:10163000207886B04FF40046E0B16088401C80B24C
:101640006080B0F5FA7F12D3002767806078E8B336
:10165000012857D002280AD1002231464046FFF720
:10166000D9F8012218212846FFF7D4F8677006B090
:10167000BDE8F081304A01202070916941F00101FC
:101680009161916901F0010104912C494B6823F0AB
:10169000E06343F000734B60916941F00801916190
:1016A000916901F008010491916941F0040191618F
:1016B00091690190029048F2180401F0040103209E
:1016C0000094CDE903016946284600E012E0FEF7E8
:1016D000ABFF6946474640460096FEF7A5FF01224C
:1016E00021462846FFF796F8012231463846FFF793
:1016F00091F8BCE7002210212846FFF78BF8012261
:10170000082107E0002208212846FFF783F801227C
:1017100048F210012846FFF77DF801223146404685
:10172000FFF778F86078401C6070A0E70C0000209C
:10173000000C014000080140001002400000014080
:10174000F8B5124C002541F601706178012629B1E7
:10175000012912D1FEF7FCFE80B115E06168491C39
:101760006160142909D36560002341F2306241F2BF
:101770000161009500F092F86670F8BD05490448D3
:10178000D1F80D10016026706570F8BD00000020D2
:10179000380000203401002030B5104885B0816940
:1017A00041F00401816180694FF4807400F004000D
:1017B00004900120CDE900400220094D03906946C4
:1017C0002846FEF731FF002221462846FFF722F87F
:1017D00000F0CAF800F0B2F905B030BD00100240C8
:1017E00000080140F0B52A49012503264A78294F0F
:1017F0000023294C4FF0020CE12803D1042A01D226
:101800004D7012E0012A04D0022A07D0032A09D021
:101810000AE0E22808D181F801C006E0E32803D1FC
:101820004E7002E0E42817D04B708A78002A1DD051
:101830002268C72A02D90B708B7023602268B854C3
:10184000521C2260EA2810D00A78012A0FD0022AFE
:1018500012D0032A14D019E0E1223A70E2227A7001
:10186000E322BA7026608D70E8E70D70F0BDEB28BA
:101870000CD181F800C0F0BDEC2807D10E70F0BD8E
:10188000ED2803D14FF4004020608B700B70F0BD49
:1018900014000020D8020020200000202DE9F04193
:1018A0001E4613462C4F069A0D46002404F1E10112
:1018B0003955641CA4B2042CF8D3284C2179FF2993
:1018C00001D300212171C9B23971491C2171010A6A
:1018D0007971B871280AF8713D72180A7872BB7272
:1018E000FE720C2006F10C0105E0131813F80C3CF5
:1018F0003B54401C80B28842F7D31748FEF711FED4
:10190000A4F8D600020AB91906F10E050A73487345
:101910002C1D04E0A81BDC3078556D1CADB2A5422F
:10192000F8D301220E4E150229463046FEF772FF0B
:10193000052000F0D4FB4FF47A732246064909488B
:10194000FFF7F8FD052000F0CAFB29463046BDE848
:10195000F0410022FEF75EBF100200205800002078
:1019600000080140A003002070B50B4C0948002579
:1019700020602571E580258165812573C82104F1EA
:101980000D00FEF720FDA4F8D6500448C4F8D80096
:1019900070BD0000E4E3E2E134010020EDECEBEA8D
:1019A000704710B5FFF73EFEBDE81040FEF73EBFA2
:1019B00030B58FB0022401200490009410200590CF
:1019C00000254FF46010CDE9085007946846FFF7F2
:1019D000D1F800B1FEE70AA90F2081E831004FF4E9
:1019E0008060CDE90D0502210AA8FEF789FF00B14C
:1019F000FEE7FFF745F84FF47A71B0FBF1F0FFF71F
:101A000082FB0420FFF773FB00221146501EFEF7F5
:101A100045FF0FB030BD00000F4810B5016841F020
:101A20000101016041680D4A1140416001680C4AA2
:101A300011400160016821F480210160416821F4B6
:101A4000FE0141604FF41F018160FFF7B1FF0549BE
:101A50004FF00060086010BD001002400000FFF869
:101A6000FFFFF6FE08ED00E010B50448FFF7A7FB06
:101A700003480068BDE810400047000060040020F3
:101A80002800002010B50A4B1446084AC3E900217B
:101A90000021C3E9021018461961FFF74AFB054807
:101AA0000460BDE810400248FFF77CBB0004004022
:101AB0006004002028000020F0B502681A4D1B4E7B
:101AC0001B4FDFF870C01C4B4FF0804EA84209D06E
:101AD000984207D0704505D0B04203D0B84201D03B
:101AE000604503D122F070044A682243A84209D01D
:101AF000984207D0704505D0B04203D0B84201D01B
:101B0000604503D122F44074CA68224302608A68A7
:101B1000C2620A688262A84201D0984201D1096972
:101B2000016301214161F0BD002C0140000400402F
:101B300000080040000C00400034014070B50B4C20
:101B40000948002520602571E58025816581257380
:101B5000C82104F10D00FEF736FCA4F8D650044865
:101B6000C4F8D80070BD0000E4E3E2E158000020B2
:101B7000EDECEBEA0B4910B5094AC1E90020002061
:101B80008860C860086188610C2048610846FFF7DA
:101B9000CDFBBDE81040012203490248FFF796BC87
:101BA00000380140A00300201C00002010B50B4CA1
:101BB0000949C4E900100020A060E0600C21206108
:101BC000C4E90510E0612046FFF7B0FB2068C1685A
:101BD00041F02001C16010BD0044004020040020FD
:101BE0002DE9F041044600680169E26821F44051A2
:101BF00011430161A16820690143606901432068C4
:101C0000C26841F20C639A430A43C260206841698A
:101C1000A26921F44071114341614C492068642656
:101C2000322788423CD1FEF749FF00EBC00101EBAF
:101C3000001061688900B0FBF1F5FEF73FFF00EB93
:101C4000C00101EB00106168B8468900B0FBF1F0FB
:101C5000B0FBF6F06FF01801484305EB800107EB8D
:101C60000110B0FBF6F000F0F005FEF727FF00EBE7
:101C7000C00101EB001061688900B0FBF1F0B0FB1E
:101C8000F6F005EB0015FEF719FF00EBC00101EBC4
:101C9000001061688900B0FBF1F7FEF70FFF3BE031
:101CA000FEF7F4FE00EBC00101EB00106168890053
:101CB000B0FBF1F5FEF7EAFE00EBC00101EB00100E
:101CC0006168B8468900B0FBF1F0B0FBF6F06FF048
:101CD0001801484305EB800107EB0110B0FBF6F05B
:101CE00000F0F005FEF7D2FE00EBC00101EB0010A2
:101CF00061688900B0FBF1F0B0FBF6F005EB001570
:101D0000FEF7C4FE00EBC00101EB00106168890022
:101D1000B0FBF1F7FEF7BAFE00EBC00101EB0010DB
:101D200061688900B0FBF1F0B0FBF6F06FF01801CC
:101D3000484307EB800108EB0110B0FBF6F0216887
:101D400000F00F0028448860BDE8F08100380140B1
:101D50002DE9F0471D4690460F460446FEF760FD0C
:101D600006465FEA08004FF000094FF0010808D06E
:101D700030E0681C05D095B1FEF752FD801BA842EB
:101D80000DD82068006837EA0000F2D127E0681C0F
:101D900020D025B1FEF744FD801BA8421AD9206847
:101DA000C16821F08001C1602068C16821F0200174
:101DB000C1602068C16821F48071C16020684169F8
:101DC00021F00101416184F8398084F838900320C2
:101DD000BDE8F0872068006837EA0000D7D000200F
:101DE000F6E70000084800680068C043800609D490
:101DF000064800680649C0B24968B1F5004F01D0F5
:101E0000FFF7F0BC70470000A00300200438014039
:101E10001C000020054800680068C043800604D408
:101E200003480068C0B200F041B8704720040020A9
:101E3000044400400A4910B5084AC1E900200020C6
:101E400088600C22C860C1E904028861C861084644
:101E5000FFF76CFA002800D0FEE710BD00480040F4
:101E6000E0030020FEE700000E4810B5816986B04F
:101E700041F00401816180690B4C00F00400049082
:101E800080200090012001900220039069462046A6
:101E9000FEF7CAFB002280212046FEF7BBFC06B0FD
:101EA00010BD00000010024000080140064A054B2A
:101EB00011785854491CC8B21070802801D30020F2
:101EC000107070479C0400202C00002070B52F4833
:101ED00086B0816941F0040181618069012400F0CC
:101EE000040004902020CDE900040220284D039036
:101EF00069462846FEF798FB002220212846FEF777
:101F000089FC002220212846FEF784FC0A20FEF7E7
:101F100080FB012220212846FEF77CFC4FF4FA606A
:101F2000FEF777FB4FF4FA7514221AA11AA000F0FD
:101F30007FF80028F8D01E2216A119A000F078F82A
:101F40000028F8D04FF47A76324612A118A000F09B
:101F50006FF80028F8D040F6B83632460DA11CA024
:101F600000F066F80028F8D02A460AA122A000F066
:101F70005FF80028F8D02A4606A123A000F058F800
:101F80000028F8D02448447006B070BD001002400C
:101F9000000801404F4B000041540D0A00000000B2
:101FA00041542B43574D4F44453D310D0A0000002D
:101FB00041542B43574A41503D2242424343222C35
:101FC000223132333435363738220D0A0000000012
:101FD00041542B43495053544152543D2254435091
:101FE000222C223139322E3136382E342E33222C07
:101FF000383038300D0A000041542B4349504D4FC2
:1020000044453D310D0A000041542B43495053458E
:102010004E440D0A000000002C0000200A46014634
:102020004FF47A730148FFF785BA000020040020BE
:102030002DE9F0471546894680460026FEF7A4F9AB
:10204000154CC7B28021A7701448FEF7BCF94FF4B5
:102050007A733A4641461248FFF76CFA0020207026
:1020600099F8001091B1A08080B2A84208D2012056
:10207000FEF7CFFA49460948FEF774F9060002D088
:102080003046BDE8F087A088401CECE72846FEF704
:10209000C0FA0120F5E700002C0000209C0400207D
:1020A0002004002030380A2801D201207047002087
:1020B0007047704710B580EA0120002241F22103E9
:1020C0004FF6FF71040403D583EA400080B201E0BB
:1020D00001EA4000521C92B2082AF3D310BD02E07C
:1020E0000221491EFDD2401EFAD2704704490A68F7
:1020F0005206FCD5024AC1B2121D116070470000A1
:1021000000480040FEF79AFB4FF4E1342046FFF709
:1021100091FE10A0FEF77EF8FFF7A6FE2046FFF71F
:1021200045FDFFF7D3FEFFF737FB0F4A40F27F2153
:1021300042F20F70FFF7A6FC2046FFF71BFD0B4C89
:10214000002520780028FCD0257004210848FFF7DE
:1021500065FFF6E7574946493A7573617274332053
:102160007072696E740D0A004117000800000020AB
:1021700038000020000000000000000001020304FD
:10218000060708090000000001020304040000081B
:10219000000000000000000200010000100000002C
:1021A000C021000800000020380000006C01000879
:1021B000F821000838000020480B000088010008C2
:1021C00000000000000000000090D0030000F401B7
:1021D00000000000000000000000000000000000FF
:1021E00000000000000000000000000000000000EF
:0821F0000000000000000000E7
:0400000508000131BD
:00000001FF
