:020000040000FA
:030000000200B249
:10007B000200F100000080FB1200DCB9000302005B
:10008B009CE4900001780279018002F0A3D8FCD99E
:10009B00FA75826075830174001200BE75827E75DD
:1000AB00830074001200BE75D0007581BF759F0070
:1000BB00020083C09FF59FE473D09F22D083D08230
:1000CB00C09FE493C0E0740193C0E0740293F59F6A
:1000DB00227901221200C75201001200C73201001F
:1000EB001200C7430100C0E0C0D0E8C0E0C082C02E
:1000FB0083538ADFC2EB900001E0F87401C3989040
:10010B000001F0900001E0600AC282C283C296C275
:10011B00978008D282D283D296D297D083D082D0C6
:10012B00E0F8D0D0D0E03243FD0C43FEC0D282D2F7
:10013B0083D296D2970200C453C6BFE59EA2E64077
:10014B00FA53C6B80200C4439A10438D20438C2047
:10015B00D2AF0200C41200EB1200E51200DF80FEEA
:04000005000000B245
:00000001FF
