:020000040000FA
:030000000200AB50
:03001300020F5C7D
:03001B00020FC70A
:10004B00020F1200000080FB1200DBB9000302005C
:10005B0095E4900200785B79058002F0A3D8FCD977
:10006B00FA90065AAA82AB839000DE78127902804E
:10007B0015E493A3AC82AD838A828B83F0A3AA820F
:10008B00AB838C828D83D8E9D9E77582B2758330C7
:10009B0074001200BD75824E75830074001200BD92
:1000AB0075D0007581BF751000751102759F000228
:1000BB000053C09FF59FE473D09F22D083D082C0A2
:1000CB009FE493C0E0740193C0E0740293F59F2208
:1000DB0079012201000000E4E3E2E1EDECEBEA053B
:1000EB000000002564256425640032000000C80070
:1000FB0000002C010000000000000E0600002B2B5E
:10010B002B0041540D0A004F4B0041542B43574DCC
:10011B004F44453D330D0A0041542B43574A415040
:10012B003D2262616368656E67222C226630663001
:10013B00663066306630220D0A0041542B4349501D
:10014B0053544152543D22544350222C22313833C4
:10015B002E3233302E34302E3430222C3138313194
:10016B000D0A0041542B4349504D4F44453D310D31
:10017B000A0041542B43495053454E440D0A002A63
:10018B0031333436373923303030312373616D706E
:10019B006C652A00B80B00003031323334353637FA
:1001AB00383941424344454600286E756C6C2070CB
:1001BB006F696E74657229003F3F3F000000807FBE
:1001CB000000803FF9021550B743BA51000020419F
:1001DB0000E7DB2E0000A04010000000080000002C
:1001EB000A0000001200C6942B001200C6A82B00B8
:1001FB001200C6EB2D001200C63920001200C652A9
:10020B0020001200C6BB20001200C62421001200E1
:10021B00C60E23001200C63D24001200C6FD2500A9
:10022B001200C65E26001200C6F030001200C6C6D1
:10023B0026001200C6E326001200C6B527001200E6
:10024B00C6C027001200C6F827001200C6A228005D
:10025B001200C6CF29001200C6F229001200C6FDFB
:10026B0029001200C6352A001200C6912A0012007E
:10027B00C6012E001200C6D82F001200C621300076
:10028B001200C68530001200C6382F001200C6625D
:10029B002F001200C6D230001200C6303000120000
:1002AB00C6EA0F001200C6081500C008C3E096F599
:1002BB000808A3E096420808A3E096420808A3E0CA
:1002CB00964208A2D265D033E5087001D3D008223C
:1002DB00C3E7960809E7960809E7960809E7962207
:1002EB00C3E09608A3E09608A3E09608A3E0962245
:1002FB00080808E630E711120B3712031308080839
:10030B00C64480C618181822181818E9799EC60812
:10031B00CAC608CBC608CCC6C370207996CACBCC4C
:10032B007019798ECBCC70137986CC700EF9802A2C
:10033B00CA33CACB33CBCC33CC331930E7F2CCCB6B
:10034B00CA3350147004EA30E00DE4CA3ACACB3B0E
:10035B00CBCC3CCC500209C3E913C6CC182313C633
:10036B00CB18C6CA18C6F9221203B320F01430E713
:10037B002B74FFFCFBFA747F8022E4FCFBFA748085
:10038B00801AB48008BC00F2BB00EF800F50EBF971
:10039B00E4C39AFAE49BFBE49CFCE499C6CC18C634
:1003AB00CB18C6CA18C6F922E4C9C608CAC608CBF8
:1003BB00C6D3330308CCC63392F0C3947F402E943C
:1003CB00184019C9B90704CACBCC225025C309CA96
:1003DB0033CACB33CBCC33CC33D9F422F4600DC935
:1003EB00CCC313CB13CBCA13CAD9F6CC22E4FCFB78
:1003FB00FA2214FCFBFA22E6C333184618461846B9
:10040B0022E7C33319471947194722181818E6086A
:10041B004608700AE608C3337005E633F422082257
:10042B00191919E7094709700AE709C3337005E77A
:10043B0033F4220922E6084608C313460833600248
:10044B00E633F422E7094709C3134709336002E790
:10045B0033F422120440602512044F602012040270
:10046B00700302040C080808E76670101819E76699
:10047B00700A1819E76670041819E76622F422123D
:10048B000440601C12044F60171204027007120420
:10049B000C7001D322C0D012040C7006D0D0B32242
:1004AB00C32233D0D0501430E0F6C3E7960809E7E7
:1004BB00960809E7960809E796B32220E0D5E69758
:1004CB000809E6970809E6970809E697B32212048C
:1004DB0040601B12044F6016120402700712040CCA
:1004EB00600CB322C0D012040C7005D0D022C322F2
:1004FB0033D0D0501330E0EBC3E7960809E79608EA
:10050B0009E7960809E7962220E0E4E6970809E652
:10051B00970809E6970809E6972200120440604FF6
:10052B0012044F6012E7548066F612041670111213
:10053B00040C703B090909F4F618F618F618F622A4
:10054B0012042B701512040208080860EAE6447FB7
:10055B00F618768018E4F618F622120402601612CA
:10056B00040C7012E4F608F608F608E65480F60957
:10057B00090918181822EAC0E0EBC0E0ECC0E0ED66
:10058B00C0E0E687F0A4FBACF008E687F0A42CFCF7
:10059B00E435F0FA1809E687F0A42C4B60027401DD
:1005AB00CA35F0FCE433FB09E687F0D2F7A42CCB79
:1005BB0035F0FC1908E687F0A42BCC35F0FBE433BF
:1005CB00FD0819E687F0D2E7A42C4ACB35F0CD34E1
:1005DB0000FC09E687F0D2E7A42DCC35F0FDE4331F
:1005EB00FA0918E687F0D2F7A42CCD35F0CA3400FF
:1005FB00FC08E687F0D2E7D2F7A42ACC35F07A7E56
:10060B0020E70B0ACB33CBCD33CDCC33CC33CB3331
:10061B0050147004ED30E00ED2F1E4CD3DCDCC3C66
:10062B00CC3B5005DA05C2F1EB547FC63308E633F9
:10063B0092F0FBE73309E733C39A502D2B70190C5B
:10064B000D4C4D70151806E608C333700D20F10ADA
:10065B00A2F013F6E418800B4024E4F630F0027697
:10066B008018F618F618F68024D33B14501074FF3C
:10067B00A2F013F6187680E418F618F6800FA2F0A5
:10068B0013F618E63303F618ECF618EDF6D0E0FD8A
:10069B00D0E0FCD0E0FBD0E0FA2212044F6046120F
:1006AB000440603DE9687008F618F618F618F62253
:1006BB00748067F71206D9090909748067F722124B
:1006CB000440601D12044F7005191919801A120489
:1006DB0016701F12042BC37003E6673319191940E8
:1006EB00071818182208080874FFF618F618F618D9
:1006FB00F62212042B601712040C702192F01204D4
:10070B00027019501720F014080808090909E7F6B8
:10071B001819E7F61819E7F61819E7F6221204026A
:10072B0060E6E869701F0808E62480F608E436F6F0
:10073B0018547FB47F0CE654806007F6E418F61863
:10074B00F622181822E9C6CC08C6CD08C6CE08C6B4
:10075B00CFC0E0E8C0E0EAC0E0EBC0E009E9F8098F
:10076B00E7FA09E7FBE6F918E6F8C3EC98ED99EE22
:10077B009AEBC2E7F5F0EFC2E795F0500E600CEB89
:10078B00CFFBEACEFAE9CDF9E8CCF8EAA2E7D2E75B
:10079B00FAEB33FB13F5F0EEA2E7D2E7FEEF33FFF4
:1007AB00C5F013A2E730E601B313C5F0C3C0E0C038
:1007BB00F07F00C39BFB605B9418600C401AD0E089
:1007CB0023F9D0E0F80208A88AF0E9486003D2F0D8
:1007DB00E4AFF0FAF9F8803BEB30E40D89F0EA6016
:1007EB0003D2F0E4AFF0F9CAF8EB30E30D88F0EF89
:1007FB006002D2F0AFF0E4CAC9F8EB54076014FB07
:10080B00C3EA13FAE913F9E813F8EF135002D2E035
:10081B00FFDBEDD0E0C0E030E739C3E49FFFF5F03C
:10082B00EC98FC42F0ED99FD42F0EE9AFE42F0D0CE
:10083B00E0F9D0E0F8E5F0607AE923F9EE20E74241
:10084B00D8028067C3EF33FFEC33FCED33FDEE339F
:10085B00FE80EAEC28FCED39FDEE3AFED0E023F900
:10086B00D0E0F84002801BC3EE13FEED13FDEC133A
:10087B00FCEF135002D2E0FF08B800067F7F74FF35
:10088B00802EEF3350178CF020F00260100CBC0060
:10089B000C0DBD00080EBE000408E860DFE933E86C
:1008AB0013FFEE2313FE4F4D4C8008E95480FFE4F9
:1008BB00FEFDFCEE33EF33F47004FCFD7E80D0E0E4
:1008CB00FBD0E0FAD0E0F8D0E0CFC618CEC618CDFA
:1008DB00C618CCC6F922120440700418181822123C
:1008EB00044F700D74FFF61819F61819F61819F64F
:1008FB0022E7548066F6120402700F12040C70F09B
:10090B0014F608F608F608F680D112040C700CF6F3
:10091B0008F608768008E6447F80EC12042E700CF3
:10092B0012041960BFE65480F6E480BB1204197000
:10093B000519191980A5E869700C763F187680188F
:10094B00F618F6E8F922E6CDC0E018ECC0E0E63385
:10095B00CD33CDD313F6E719FCE7191933CC33C3D9
:10096B00947F400ECD9D502408E65480F6E418F693
:10097B00800FF4043D14501408E6447FF61876807B
:10098B00E418F618F6D0E0FCD0E0FD22CCD313CC63
:10099B00FD18E4C6CBC0E018E4C6CAC0E00808EDF9
:1009AB0008C633E613F618E433C675F003C3CA97CB
:1009BB00CA09CB97CB199C40047D08802EBD000340
:1009CB00020A8A16B6FF050606081618C3CA33CAEA
:1009DB00CB33CB33CA27CA09CB37CB193CC37D08E2
:1009EB00803E187D0820E75CC633C6CA33CACB33BA
:1009FB00CB33DDF1D5F0EB30E77BCA97CA09CB9748
:100A0B004ACB199C406F4B7025E620E0218066187D
:100A1B007D08C3CA97CA09CB97CB199CD3C633C6DB
:100A2B00CA33CACB33CB3350C9DDE7D5F0E1D3E4BE
:100A3B00C636C608C636C608C636C608C636C61873
:100A4B0018188031C3CA97CA09CB97CB199CB340EE
:100A5B0097C633C6CA33CACB33CB33DD34D5F02E6E
:100A6B00C6A2E0C640C8CA27CA09CB37194A70BE0E
:100A7B00CB3CB480B90808E63308E633601F18187E
:100A8B0018D0E0FAD0E0FBD0E0FCD0E0FD22187DDE
:100A9B0008CA27CA09CB37CB193CD3808013F61869
:100AAB00E4B67F11F618B6FF0EF618C60470D2081E
:100ABB0008768080CAF618F618F680C5E4CFC0E039
:100ACB00E4CEC0E0E4CDC0E0E4CCC0E075F020C3E0
:100ADB00E633F608E633F608E633F608E633F6189F
:100AEB001818EC33FCED33FDEE33FEEF33FFC3ECA4
:100AFB009709ED9709EE9709EF97191919400FFF11
:100B0B00EC97FC09ED97FD09EE97FE191906D5F048
:100B1B00BEECF709EDF709EEF709EFF7191919D044
:100B2B00E0FCD0E0FDD0E0FED0E0FF22181818E486
:100B3B00C396F608E496F608E496F608E496F622D1
:100B4B00E026F008A3E036F008A3E036F008A3E0B7
:100B5B0036F022E0F608A3E0F608A3E0F608A3E0DF
:100B6B00F622E6F008A3E6F008A3E6F008A3E6F009
:100B7B0022E0FAA3E0FBA3E0FCA3E0FD22EAF0A352
:100B8B00EBF0A3ECF0A3EDF022CAC0E0E6F0A30873
:100B9B00DAFAD0E0FA22CAC0E0E0A3C582CCC58263
:100BAB00C583CDC583F0A3C582CCC582C583CDC516
:100BBB0083DAE6D0E0CA22C3E498F8E499F9120C80
:100BCB00038026C3E49AFAE49BFBE920E7E9120CC5
:100BDB0003E498F8E499F922C3E498F8E499F9123C
:100BEB000C03E498F8E499F9C3E49AFAE49BFB222A
:100BFB00EB20E7CFE920E7E0B90010BB0008E88A5B
:100C0B00F084F8AAF022E4FBC8FA22EB70227B10E6
:100C1B00C833C8C933C9335007C39AC3DBF2800644
:100C2B009A50012ADBEAC833F4C8C933F4C9FA2253
:100C3B0075F008E4C833C8C933C933C99AC99B5086
:100C4B0004C92AC93BD5F0ECFBC833F4C8E4C9FA94
:100C5B0022251010AF08F510400215118008F51071
:100C6B0040021511D2AF22C0D0251010AF08F510DD
:100C7B00500205118008F51050020511D2AFD0D0EB
:100C8B00222510F58210AF08F510400215118008CF
:100C9B00F51040021511D2AF851183222510F58274
:100CAB00E43511F58322E4732510C582C0E0E5110C
:100CBB0034FFC583C0E0E510C3958224F810AF085C
:100CCB008583118582108008858311858210D2AFB0
:100CDB00CEF0A3E520F0A37808E608F0A3DEFAEF48
:100CEB00F0A3E58124FAF8E608F0A3E608F0A3E602
:100CFB0008F0A30808E608F0A3E608F0A315811591
:100D0B0081D0E0FED0E0F8158115811581E8C0E0B7
:100D1B00EEC0E022851183851082E0A3FEE0A3F5EF
:100D2B00207808E0A3F608DFFAE0A3FFE0A3C0E019
:100D3B00E0A3C0E0E0A3C0E0E0A3C0E0E0A3C0E01C
:100D4B0010AF0885821085831180088582108583FA
:100D5B0011D2AFD083D0820200C3C0D02510C58280
:100D6B00C0E0E51134FFC583C0E0E510C3958224D4
:100D7B00F310AF0885831185821080088583118558
:100D8B008210D2AFC8F0A3E9F0A3EAF0A3EBF0A373
:100D9B007908E709F0A3D8FAECF0A3EDF0A3EEF095
:100DAB00A3EFF0A3D0E0F0A3D0E0F0A3D0E0F0A34A
:100DBB00E520F0A3E5F0F0A322851183851082E0F6
:100DCB00C0E0A3E0F9A3E0FAA3E0FBA37808E0F608
:100DDB0008A3DFFAE0FCA3E0FDA3E0FEA3E0FFA382
:100DEB00E0C0E0A3E0C0E0A3E0F5D0A3E0F520A3D2
:100DFB00E0A3F5F010AF088583118582108008857C
:100E0B008311858210D2AFD082D083D0E0F8D0E0AE
:100E1B0032740280027401C0E0F404120C8CD0E036
:100E2B00120B942274028000CCC0E0EDC0E0E51000
:100E3B00C39CCCAD1150011D10AF068C108D1180D1
:100E4B00068C108D11D2AF120BA1D0E0FDD0E0FCBF
:100E5B0022D083D082ECC0E0EDC0E0E493A3FCE4AD
:100E6B0093A3FDED4C600D120EA8EC24FFFCED34AA
:100E7B00FFFD80EFE493A3FCE493A3FDED4C600D29
:100E8B00120EE7EC24FFFCED34FFFD80EFD0E0FD0C
:100E9B00D0E0FCE493A3C0E0E493C0E022C0E0C345
:100EAB00E49396087401939618400FE493667008C8
:100EBB0008740193661870007019A3A3C3E493968A
:100ECB00087401939618A3A3400DD0E0D0E0D0E0B6
:100EDB00020E98A3A3A3A3A3A3D0E022C0E0C0F06B
:100EEB0088F0E4936670080874019366187000A884
:100EFB00F0A3A3700BD0F0D0E0D0E0D0E0020E98BE
:100F0B00A3A3D0F0D0E022C0E0C0D0E8C0E0C0087E
:100F1B00C009C00AC00BC082C08390065A78081261
:100F2B000B5E90054E7808120B4B90065A78081200
:100F3B000B5E9005527808120B4B53AFFED083D04B
:100F4B0082D00BD00AD009D008D0E0F8D0D0D0E0B6
:100F5B0032C0E074F2120D65C28B900620E0540093
:100F6B00F8A3E05480F9E849704D900557E060070D
:100F7B00A9C112023D8040E5C1C0E0900620E054BB
:100F8B00FFF8A3E0543FF9745828F582740539F53E
:100F9B0083D0E0F0900620E02401F0A3E03400F0D1
:100FAB00900620C3E094C8A3E09400400A9006206A
:100FBB007400F0A37400F07F01020DC4C0E074F262
:100FCB00120D65C28F900638E05400F8A3E05480F0
:100FDB00F9E8497005A9F91202197F01020DC474D1
:100FEB00F0120CB374FD120C5C7402120CA7E9F036
:100FFB008A088B098C0A8D0B7415120CA7E0FEA3C3
:10100B00E0FF851082851183E4F0A3F08E828F833D
:10101B00A3AA82AB83900743780C120B5E780879F6
:10102B000C12045E70188E828F8374691214C9744B
:10103B006EF0A37466F0A30A0AAB830214647808FB
:10104B00790812045E60118E828F83746E1214C93C
:10105B007461F0A3746E80DD900747780C120B5E01
:10106B007808790C12048A500302111490067D78CB
:10107B000C120B5E7808790C12045E600302116887
:10108B007417120CA7E070030211AA851082851148
:10109B0083C082C0837413120CA7121F07D083D096
:1010AB00821214A2502C851082851183C3E094FC0C
:1010BB00A3E094FFA2D265D03340177402120CA7A1
:1010CB00E4121FDBF97413120CA7C3E098F0A3E032
:1010DB0099F07413120CA71214BF7418120CA7E01A
:1010EB0070030211A77417120CA7E40211A9900741
:1010FB004B780C120B5E7808790C1208E185108284
:10110B00851183E0240A12201890074F780C120BDC
:10111B005E7808790C12048A40D4900753780C122D
:10112B000B5E7808790C12048A400302108B90072F
:10113B0053780C120B5E7808790C1208E112200F11
:10114B0080D890074B780C120B5E7808790C12053F
:10115B0025851082851183E024F61214C29007575F
:10116B00780C120B5E7808790C1204D940D49007D6
:10117B0047780C120B5E7808790C1204D9400302E5
:10118B00108B900753780C120B5E7808790C1205B4
:10119B00258510828511831214BF80D27401F074DF
:1011AB0002120CA7E060077A007B000212B6121441
:1011BB00AE507D8E828F837430F0EAFEEBFF74139A
:1011CB00120CA7E0FCA3E0FDEC4D70087418120C98
:1011DB00A7E0600B8E828F83742EF0A30EAF837A01
:1011EB00007B0080118E828F8374301214EA74138B
:1011FB00120CA71214BFEA24FF1AEB34FFFB851065
:10120B0082851183121496500B7413120CA7121FA4
:10121B000B4970D185108285118374FFC39CF874C0
:10122B00FF9DF91214A250030213847A010211B428
:10123B00851082851183121F07C3E498FAE499FB8A
:10124B00806985080C85090D850A0E850B0F780CB6
:10125B00120373AC0CE50D3395E0F50EF50F780C1E
:10126B001202FB7808790C1206A5900753780C1222
:10127B000B5E7808790C120525EC1214E4EAF8EBF6
:10128B00F9E824010AE93400FBE849701E741312D3
:10129B000CA7121F0B4970087418120CA7E0600BF7
:1012AB008E828F83742EF0A30EAF837413120CA750
:1012BB00121496508D90075B780C120B5E780879A0
:1012CB000C12048A40030213847C01EE24FFF8EF16
:1012DB0034FFF97415120CA7E0F508A3E0F50988A3
:1012EB00828983E0642E6010E02CF0643A700774FE
:1012FB0030F07C0180027C00E8FAE9FBEA24FF185D
:10130B00EB34FFF9C3E5089AE5099B40D2ECA2E068
:10131B0050677402120CA7E06036EEF8EF800A12E9
:10132B001481E824FF18E934FFF9C3E50898E509AF
:10133B0099501812146EE0642E70E4E824FEF582C6
:10134B00E934FFF58312147BF980D712200F801E2E
:10135B008E828F83A3AE82AF83EEF8EF80061214DA
:10136B006E12147BF9C3E50898E5099940F07415E2
:10137B00120CA7121F267431F07417120CA7E07011
:10138B0005801A1EAF83EE24FFF582EF34FFF58341
:10139B00E0643060EEE0642E70031EAF83740212C3
:1013AB000CA7E070030214601214E6A3A9831214B5
:1013BB00AE8E828F835014742DF00EE9FF85108250
:1013CB00851183121F4F1214D78006742BF00EE970
:1013DB00FF7C007D00EE240AFEEF3400FFEC2401BD
:1013EB000CED3400FD121488120BFBEA1214E412FC
:1013FB001488120BFB1214F14970E2C3EC9402ED4A
:10140B00121EB840D8ECFAEDFBC3E49CF8E49DF94E
:10141B00EE28F582EF39F583E0C0E0C3E49AF8E4F7
:10142B009BF9EE28F8EF39F9E82CF8E93DF9E824B7
:10143B00F5F582E934FFF583D0E0F0EC24FF1CEDE9
:10144B0034FFFDC3EC9401ED121EB850BCEE24F634
:10145B00FEEF34FFFFEEFAEFFB7403120C727F0802
:10146B00020D1FE824FFFAE934FFFB8A828B8322EB
:10147B0012148118EB22E088828983F02285108276
:10148B00851183121F5C7A0A7B0022C3E09AA3E0CA
:10149B009BA2D265D03322C3E098A3E099A2D26578
:1014AB00D03322851082851183C3A3E09400A2D28E
:1014BB0065D03322E024FFF0A3E034FFF022F0EA02
:1014CB00FEEBFF8E828F8322A3E03400F98510821E
:1014DB00851183E8F0A3E9F02224308E828F83F00C
:1014EB00A3AE82AF83228510828511831214FB2257
:1014FB00E8F0A3E9F0851082851183E02274F012E5
:10150B000CB374B0120C5C851082851183121FC151
:10151B007418120CA7ECF0A3EDF0740F120CA7E4E7
:10152B00F0A380227460120CA7121EF77404120C25
:10153B00A7E0F97418120CA7121F26120CB1740F26
:10154B00120CA7121EC0F0121F3AFA121FFA120C3D
:10155B00A7EAF074256A6010E070C9740F120CA72B
:10156B00121EF77450021466121F3A642570198507
:10157B001082851183E02401081214D37460120CBD
:10158B00A7121EF7792580AB740E120CA7E4F0742A
:10159B000D120CA7E4F0740C120CA7E4F0740512F6
:1015AB000CA7E4F0741E120CA7A882A98374021274
:1015BB000CA780157405120CA7E070077405120CAC
:1015CB00A7EAF08510828511831214F7121EEE1212
:1015DB001F81FA24E060DD24FD601724F860DD2410
:1015EB00FE600624FD600F8011740C120CA7E00442
:1015FB0080D0740D80F5740E80F1121F81642A70F7
:10160B005B7462120CA7121F8CFB8A828B83E0FC2B
:10161B00A3E0FD740A120CA7ECF0A3EDF0EA240290
:10162B000A0AEB3400FB7462120CA7121FB9740A7E
:10163B00120CA71214B4501F740A120CA7121EF727
:10164B00C3E49AFAE49BFB740A120CA7121FC17431
:10165B000C120CA7E004F01214D8804A740A120C76
:10166B00A7E4F0A3802D740A120CA7121F0B75F0C0
:10167B000AA4F8AAF075F00AE9A42AF9E50828F8F3
:10168B00E439F9E824D0F8E934FFF9740A120CA70D
:10169B0012201F121FDBF5838882E0F50874D0251A
:1016AB0008C3940A40C0740C120CA7E06007740EB8
:1016BB00120CA7E4F0121F3A642E60030217538535
:1016CB001082851183E0240108A3E03400F9121481
:1016DB00F1121F2BE0642A702C7462120CA7121FDC
:1016EB0040F8A3E0F988828983E0FEA3E0FFE824B9
:1016FB00020808E93400F97462120CA7121F741265
:10170B00201FF080477E007F008510828511831299
:10171B001F4974D02508C3940A5031EE75F00AA402
:10172B00FEA8F075F00AEFA428FFE5082EF8E43FB9
:10173B00F9E824D0FEE934FFFF851082851183E0A0
:10174B002401F81214D380C17EFF7FFF7A0085102D
:10175B0082851183121EE9851082851183E0FBA31C
:10176B00E0F5838B82E024B4600824E4600524FC5C
:10177B0070040A1214D8121F3AFB121FFA120CA78C
:10178B00EBF07003021D5E24BB7003021C2424FECD
:10179B007003021C0624EF700302195024F570032A
:1017AB000218551470030219F5147003021C24144B
:1017BB007003021C22147003021C0624FE70030229
:1017CB0019F524FB602414700302194014700302F2
:1017DB00195024FD700302188E24FE700302195059
:1017EB0024FD7003021950021D6A7462120CA712B9
:1017FB001FB3120CA71214DEEAA2E0740F503312BF
:10180B000CA7E0FCA3E0FD3395E0FE7406120CA7D9
:10181B00121F94ECF0A3EDF0A3EEF0A3F0746212A0
:10182B000CA7121F9B120CA7121F74E8F0A3E9025E
:10183B001551120CA7121F077406120CA7121F8C3E
:10184B00F5838A82E8F0A3E980D27462120CA712A6
:10185B001F94E0C0E0741E120CA7D0E0F07462126B
:10186B000CA7121F9B120CA7121F741214DE741FED
:10187B00120CA7A882A9837412120CA7E8F0A3E993
:10188B00021D817462120CA7121FB3120CA7121443
:10189B00DE7406120CA7121FB3120CA7E02402FA77
:1018AB00A3E03400FB7462120CA7121FB97402126E
:1018BB000CA71214DEE849700C7402120CA77430DA
:1018CB00F0A37407F0121EB650047E107F27740825
:1018DB00120CA7E4F0A380087408120CA7121EC008
:1018EB00F07402120CA7121F0788828983A3AA82A5
:1018FB00AB837402120CA7121FC188828983E0602C
:10190B000A7408120CA7121F1040CD7402120CA7F8
:10191B00121ED77412120CA71214DE7408120CA725
:10192B00121F4FF97412120CA7E028F8A3E039F933
:10193B007402021884740D120CA7E06008EE4F704D
:10194B00047E017F007462120CA7121FB3120CA746
:10195B00122007120CA7E0647070387406120CA7E3
:10196B00121FA9120CA7121FE2120CA7E0240212DD
:10197B001F6B120CA7121F741214DE90075F120B51
:10198B007C741A120CA7120B887405120CA7E4F0C6
:10199B00021A85EAA2E07406501B120CA7121F262E
:1019AB00120B7C7414120CA7120B887406120CA762
:1019BB00E024048012120CA7121FA9120CA7121FED
:1019CB00E2120CA7E02402121F6B120CA7121F7459
:1019DB00122007120CA7E0646F7005900763809EBE
:1019EB00E06475709690076780947462120CA7126E
:1019FB001FB3120CA71214DEEAA2E07406501612E3
:101A0B000CA7121F267808120B5E7406120CA7E0A7
:101A1B002404F8801B120CA7121F49A3E0F509330D
:101A2B0095E0F50AF50B7406120CA7E024020808E2
:101A3B00121F6C120CA7121FEF120CA77808120BB7
:101A4B006D90067D78081202B540217405120CA723
:101A5B00742DF07414120CA77808120B5E78081210
:101A6B000B3A7414120CA77808120B6D90076712BF
:101A7B000B7C741A120CA7120B88744F120CA7A8AC
:101A8B0082A9837402120CA71214DE7412120CA713
:101A9B00121FF2120CA77808120B5EE508450945D8
:101AAB000A450B60097411120CA77401800674119E
:101ABB00120CA7E4F0EE4F7008E0A2E04003021B0B
:101ACB00797402120CA7121F20120CA7121FF2120C
:101ADB000CA7780C120B5E741A120CA77808120B59
:101AEB005E780C7908120AC7741F2508F5827407F3
:101AFB003509F583E0C0E07402120CA7121F26D043
:101B0B00E0F07414120CA7780C120B5E741A120C02
:101B1B00A77808120B5E780C7908120AC774141296
:101B2B000CA7780C120B6D7414120CA77808120BFF
:101B3B005EE5084509450A450B7086121EB6502E08
:101B4B00740E120CA7E060267405120CA7E060045B
:101B5B00D2F08002C2F0740A120CA7121EC9800EBA
:101B6B007402120CA7121FD3120CA7121F3374028C
:101B7B00120CA7121ED7744F120CA7C082C083740D
:101B8B0002120CA7121EF7D083D082E582C39AFAF9
:101B9B00E5839BFBC3EA9EEB121F1940C3740D1226
:101BAB000CA7E07003021D827411120CA7E0A2E0D7
:101BBB004003021D827404120CA7E064786005E0F8
:101BCB006458701E121481E824FF18E934FFF9746D
:101BDB0002120CA7121FD3120CA7121F267430026D
:101BEB001D81E0646F6003021D827402120CA71248
:101BFB001F8764307003021D8280D47408120CA7F7
:101C0B007401F0A3E4F07404120CA7E024FEF0EED0
:101C1B004F700F7E018012E4F07408120CA7E4F0F1
:101C2B00A3F0121EB650047E067F007462120CA73E
:101C3B00121FB3120CA71214DE7406120CA7121F7C
:101C4B0026780C120B5E7406120CA7E02404121FEC
:101C5B006B120CA7121FEF120CA7780C120B6D90C6
:101C6B00067D7808120B5E780C79081204D9502285
:101C7B007405120CA7742DF07414120CA7780812AB
:101C8B000B5EE50BB2E7F50B7414120CA778081278
:101C9B000B6D740A120CA7121F07741E120CA7E50A
:101CAB008228F8E58339F97402120CA71214DE743A
:101CBB000D120CA7E0F5087808120E207409120C0F
:101CCB00A7E0F5087808120E207404120CA7120E68
:101CDB002F8E088F097808120E1C740A120CA7E0BD
:101CEB00F9741A120CA7120B7C1202A97406120CAF
:101CFB00727412120CA7121FC1740E120CA7E060A3
:101D0B00767405120CA7E06004D2F08002C2F07466
:101D1B000A120CA7121EC97412120CA7C082C08320
:101D2B007402120CA7121F07D083D082E0C398F85D
:101D3B00A3E099F9C3E89EE9121F19503A740212F5
:101D4B000CA7121F20120CA7121FD3120CA7121FC5
:101D5B003380C4851082851183121EE01214D77450
:101D6B0002120CA7743FF0A37407F07412120CA7A5
:101D7B007442F0A37407F07412120CA7C082C083D4
:101D8B007402120CA7121F07D083D082E0C398FEF7
:101D9B00A3E099FF740A120CA7121F10500A7408C3
:101DAB00120CA7E4F0A380307405120CA7E06004BA
:101DBB00D2F08002C2F0740A120CA7E0C39EF8A303
:101DCB00E09FF9A2F0E433FAE89AF8E99400F97489
:101DDB0008120CA7E8F0A3E9F0740C120CA7E07042
:101DEB002B80197460120CA7121EFD120CA7121F68
:101DFB0026120CB1740F120CA71220157408120CBA
:101E0B00A7121FC7120CA71214B450D77405120CCB
:101E1B00A7E060507460120CA7121EF77405120C29
:101E2B00A7E0F97418120CA7121F26120CB1802C04
:101E3B007460120CA7121EF77402120CA7121F402B
:101E4B00F97418120CA7121F26120CB17402120C83
:101E5B00A7121EE97402120CA71214DE740F120CD7
:101E6B00A7122015EE24FF1EEF34FFFFC3121EB87E
:101E7B0050BE740C120CA7E07003021552740812BA
:101E8B000CA7121FC7120CA71214B4500302155241
:101E9B007460120CA7121EFD120CA7121F26120C37
:101EAB00B1740F120CA712201580D2C3EF9400A2AD
:101EBB00D265D03322E02401F0A3E0340022A2F05B
:101ECB00E433F8E098FEA3E09400FF22121EDB221D
:101EDB00121EE0F922E024FFF8A3E034FF22E01207
:101EEB001EEE222401F8A3E03400F922E0FAA3E06D
:101EFB00FB22E0FAA3E0FB7920741822121F5C226C
:101F0B00121F5CE822C3E09EA3E0121F19229FA2BE
:101F1B00D265D03322121EDB740222121F2A22E05A
:101F2B00F8A3E0F583888222121F2A7430F02285F1
:101F3B001082851183121F4422121F62E022121F8E
:101F4B0044F50822121F5CC3E498F8E49922121F8F
:101F5B0062E0F8A3E0F922E0F8A3E0F5838882229F
:101F6B00F8A3E03400F9746222121F7822E0FAA37E
:101F7B00E0F5838A8222851082851183121F78E017
:101F8B0022121F78E0FAA3E022121F44121F2B2209
:101F9B00121F442402F8A3E03400F9746222121FCA
:101FAB0059E8FAE9FB741422121F59740622E0FC5B
:101FBB00A3E0F5838C82EAF0A3EBF022E024FFF0A0
:101FCB00A3E034FFF0740822E8F0A3E9F0740222D6
:101FDB001214FFF8A3E022EAF0A3EBF0A3E4F0A3C2
:101FEB00F0740622121F78E8F0A3E9F0741422852E
:101FFB001082851183E024010812202DE8F0A3E95B
:10200B00F0740422851082851183E02401F0A3E093
:10201B003400F0221214FB2401F812202DE8F0A357
:10202B00E922A3E03400F985108285118322C08256
:10203B00C08353F47F43FE08C29312020D120207B2
:10204B00D083D0820200C374F6120CB390065E12DA
:10205B000B7C900390120B889003947400F0900308
:10206B00957400F09003967400F09003977400F051
:10207B00A37400F09003997400F07508C8750900FB
:10208B007808120E1C7C007D007A9A7B0312028B5F
:10209B007402120C729004627400F0A37400F0903E
:1020AB000662120B7C900464120B887F02020D1FD8
:1020BB0074F6120CB390065E120B7C900468120B34
:1020CB008890046C7400F090046D7400F090046EB2
:1020DB007400F090046F7400F0A37400F09004711E
:1020EB007400F07508C87509007808120E1C7C0086
:1020FB007D007A727B0412028B7402120C729005B3
:10210B003A7400F0A37400F0900662120B7C9005F9
:10211B003C120B887F02020D1F74F4120CB389085A
:10212B00EAFFEBFE740C120CA7E0F8A3E0F99005A4
:10213B00407400F0A37400F0802C900540E0FAA3EB
:10214B00E0FBEA24E1C0E0900540E02400FAA3E0C4
:10215B003402FB8A828B83D0E0F0900540E02401AF
:10216B00F0A3E03400F0900540C3E09404A3E094A6
:10217B000040C7900394E0C394FF4006900394740F
:10218B0000F0900394E0900204F0900394E024019B
:10219B00F0E508900205F0EF900206F0ECFAEDFB8B
:1021AB00E4EBFA900207F0EC900208F0EE900209D3
:1021BB00F0900540740AF0A37400F0803A9005404B
:1021CB00E0FAA3E0FBE82AFAE93BFBEA24F6F58206
:1021DB00EB34FFF583E0C0E0900540E02400FAA368
:1021EB00E03402FB8A828B83D0E0F0900540E02440
:1021FB0001F0A3E03400F09005408E0A750B00E56A
:10220B000A240AFAE50B3400FBC3E09AA3E09B40D7
:10221B00AC8E0A750B00E50A240AFCE50B3400FDB5
:10222B007A007B0212022B900462EAF0A3EBF0908F
:10223B000462E0F8A3E0F9E4E9F8C0E08E0A750B5C
:10224B0000740A250AF5827402350BF583D0E0F091
:10225B00900462E0F8A3E0F9E8C0E08E0A750B0089
:10226B00740B250AF5827402350BF583D0E0F08EE2
:10227B000A750B00E50A240CF8E50B3400F9900500
:10228B0040E8F0A3E9F08030900540E0F8A3E0F9D6
:10229B00E824F4C39E24EAC0E0900540E02400F853
:1022AB00A3E03402F988828983D0E0F0900540E006
:1022BB002401F0A3E03400F09005408E0A750B006A
:1022CB00E50A2410F8E50B3400F9C3E098A3E09974
:1022DB0040B6D293900666120B7C12027F8E0A7563
:1022EB000B00E50A2410FCE50B3400FD7A007B02A1
:1022FB00120267900666120B7C12027FC2937F0458
:10230B00020D1FC082C08374E1697016900543E013
:10231B00C39404500DE99002C8F09005437401F08A
:10232B008059900543E06401701274E269700DE905
:10233B009002C9F09005437402F0803F900543E092
:10234B006402701274E369700DE99002CAF0900593
:10235B00437403F08025900543E06403701774E425
:10236B006970129006387403F0A37400F090054462
:10237B007401F080069005437400F0900544E07002
:10238B0003022436900638C3E094F3A3E094014093
:10239B00169005427400F09005447400F0900638D6
:1023AB007400F0A37400F0E9C0E0900638E024C894
:1023BB00FAA3E03402FB8A828B83D0E0F0900638DC
:1023CB00E02401F0A3E03400F074EA697008900592
:1023DB00427405F08055900542E06405700D74EB76
:1023EB006970089005427406F08040900542E064E5
:1023FB0006700D74EC6970089005427407F0802B21
:10240B00900542E06407701D74ED697018900638F2
:10241B007400F0A37480F09005447400F0900542B2
:10242B007400F080069005427400F0D083D08202D5
:10243B0000C374F7120CB3E9FE900638E064007029
:10244B0004A3E0648060030225ED9005477400F05F
:10245B009002CEE06E60030225A39002CCE09004C4
:10246B006CF09002CDE090046DF09002CEE0900401
:10247B006EF09002CFE0F87900E875F000A4C8AADE
:10248B00F075F001A42AFA75F000E9A42AF990047A
:10249B006FE8F0A3E9F09002D0E0F8790090046FB8
:1024AB00E028F0A3E039F09002D1E0900471F090B5
:1024BB000545740AF0A37400F08032900545E024C2
:1024CB00C8F8A3E03402F988828983E0C0E0900564
:1024DB0045E02468F8A3E03404F988828983D0E0CE
:1024EB00F0900545E02401F0A3E03400F0900545A1
:1024FB00C082C083900471E0F87900240AF8E934B3
:10250B0000F9D083D082C3E098A3E09940AD90044A
:10251B0071E0F8790074D228F582740239F583E002
:10252B00F87900E875F000A4C8AAF075F001A42AA8
:10253B00FA75F000E9A42AF990053AE8F0A3E9F05E
:10254B00900471E0F8790074D328F582740239F5A0
:10255B0083E0F8790090053AE028F0A3E039F09099
:10256B000471E0F87900240AFCE93400FD7AC87B99
:10257B000212022B900548EAF0A3EBF0900548E01D
:10258B00F8A3E0F990053AE0687003A3E069600EE8
:10259B009005477401F080069005477401F0900593
:1025AB00457400F0A37400F0801F900545E024C82B
:1025BB00F8A3E03402F9888289837400F090054512
:1025CB00E02401F0A3E03400F0900545C3E094C88B
:1025DB00A3E0940040D49006387400F0A37400F08C
:1025EB0080069005477401F0900547E0F97F0102E2
:1025FB000D1FC082C083E9FC7D00E4CCFDEC6AFAC0
:10260B00ED6BFB90054A7400F0A37400F08013EAA5
:10261B00C333FAEB33FB90054AE02401F0A3E0341B
:10262B0000F090054AC3E09408A3E09400501DEA23
:10263B005400FCEB5480FDEC4D60D4EAC333FAEB51
:10264B0033FBEA6421FAEB6410FB80CAD083D0829F
:10265B000200C374F4120CB38A088B09ECFEEDFF75
:10266B007A007B00E50845096004EE4F70067AFF9F
:10267B007BFF804290054C7400F0A37400F0802B1C
:10268B0090054CE0F8A3E0F9E50828F582E5093957
:10269B00F583E0F91202258A0A8B0BAA0AAB0B9081
:1026AB00054CE02401F0A3E03400F090054CC3E0AE
:1026BB009EA3E09F40CA7F04020D1F75F10075F3C6
:1026CB000C75C2D875C50B43C4804386C0C2E9C222
:1026DB008BD2AAD2AF0200C3C082C083900631E076
:1026EB007012744569700DE9900558F090063174BD
:1026FB0001F08025900631E0640170177441697018
:10270B00129006207401F0A37400F090063274014D
:10271B00F080069006317400F0900632E0700302F0
:10272B0027AE900620C3E094C7A3E0940040169018
:10273B0006307400F09006327400F090062074009E
:10274B00F0A37400F0E9C0E0900620E02458FAA34F
:10275B00E03405FB8A828B83D0E0F0900620E024E6
:10276B0001F0A3E03400F0900630E0700D74416985
:10277B0070089006307401F08029900630E0601DDF
:10278B0074456970189006207400F0A37480F09063
:10279B0006327400F09006307400F080069006301C
:1027AB007400F0D083D0820200C389C1A2E950FC2F
:1027BB00C2E90200C374F6120CB3EAFEEBFF8C08FD
:1027CB008D0980128E828F83E0F91202438E828FE5
:1027DB0083A3AE82AF83A808A909E824FFF508E913
:1027EB0034FFF509E84970DC7F02020D1F74F0120B
:1027FB000CB38A088B098C0E8D0F7410120CA7E08A
:10280B00F50AA3E0F50B7E007F00AA08AB091202C4
:10281B009DEA900633F0750CC8750D00780C120EFE
:10282B001C7C007D007A587B0512028B7402120C03
:10283B0072900633E0FC7D00AA08AB0912024990A6
:10284B0006347400F0A37400F0800C900634E0247E
:10285B0001F0A3E03400F0900634C3E0950AA3E046
:10286B00950B5020900671120B7C12027FAC0EADB3
:10287B000F7A587B051202A38A088B09AE08AF09A1
:10288B00EE4F60C79006207400F0A37400F0EEFAD0
:10289B00EFFB7F08020D1F74F6120CB3900620E0BD
:1028AB0064007004A3E06480707D90055AE0F879B1
:1028BB0000E875F0E8A4C8AAF075F003A42AFA752D
:1028CB00F0E8E9A42AF990055BE0FA7B00EA75F0E1
:1028DB0064A4CAACF075F000A42CFC75F064EBA4F6
:1028EB002CFBE82AF8E93BF990055CE0FA7B00EA5F
:1028FB0075F00AA4CAACF075F000A42CFC75F00AB4
:10290B00EBA42CFBE82AF8E93BF990055DE0FA7B98
:10291B0000E82AF8E93BF9E824B0F8E9342FF990FC
:10292B000636E8F0A3E9F0900636E0F508A3E0F5EB
:10293B00097808120E5C0000080010116F291111A4
:10294B00672920117F292111772930118F29311106
:10295B00872940119F2941119729A5299006247495
:10296B0001F080369006247400F0802E90062574BA
:10297B0001F080269006257400F0801E90062674C8
:10298B0001F080169006267400F0800E90062774D6
:10299B0001F080069006277400F075080A7509008F
:1029AB007808120E1C7C007D007A587B0512028B76
:1029BB007402120C729006207400F0A37400F07F66
:1029CB0002020D1F75F10075F33075FAD875FC0B0B
:1029DB0043C4804386C043FB8043F8C0C2EAC28F26
:1029EB00D2ABD2AF0200C389F9A2EA50FCC2EA0211
:1029FB0000C374F6120CB3EAFEEBFF8C088D098052
:102A0B00128E828F83E0F91202618E828F83A3AEC6
:102A1B0082AF83A808A909E824FFF508E934FFF57C
:102A2B0009E84970DC7F02020D1FC082C083791F49
:102A3B0012021FE9704990046DE064167041900416
:102A4B0072E0900622F0900473E0900623F090045D
:102A5B0074E0F87900E875F000A4C8AAF075F001ED
:102A6B00A42AFA75F000E9A42AF9900475E0FA7B20
:102A7B0000E82AF8E93BF990062EE8F0A3E9F0D03C
:102A8B0083D0820200C374F4120CB390054EC08243
:102A9B00C0839006757808120B5ED083D0827808BD
:102AAB001202EB402B900658E0702575082475092F
:102ABB00067808120E1C7B047C007D117A11791F9D
:102ACB001202137402120C729006587401F08051AA
:102ADB0090054EC082C0839006797808120B5ED0A9
:102AEB0083D08278081202EB4037900658E06401DD
:102AFB00702F7508567509057808120E1C7B007C23
:102B0B00307D167A16791F1202137402120C729012
:102B1B0006587400F090067D120B7C90054E120B3C
:102B2B0088900552C082C0839006817808120B5E94
:102B3B00D083D08278081202EB404990062E120EF9
:102B4B002F900623E0F5087509007808120E1C90EB
:102B5B000622E0F5087509007808120E1C7C6A7DC8
:102B6B00067A3A7B061202977406120C727C087D69
:102B7B00007A3A7B0612026790067D120B7C900559
:102B8B0052120B887F04020D1FC082C08343FF01CA
:102B9B001201FB1201F5D083D0820200C3D2A0D266
:102BAB00A0D2A0D2A0C2A0C2A0C2A0C2A0C2A0C2EA
:102BBB00A0C2A0C2A0D2A0D2A0D2A0D2A0C2A0C2BA
:102BCB00A0C2A0C2A0C2A0C2A0C2A0C2A0D2A0D2CA
:102BDB00A0D2A0D2A0C2A0C2A0C2A0C2A0C2A0C2BA
:102BEB00A0C2A0C2A0D2A0D2A0D2A0D2A0C2A0C28A
:102BFB00A0C2A0C2A0C2A0C2A0C2A0C2A0D2A0D29A
:102C0B00A0D2A0D2A0C2A0C2A0C2A0C2A0C2A0C289
:102C1B00A0C2A0C2A0D2A0D2A0D2A0D2A0C2A0C259
:102C2B00A0C2A0C2A0C2A0C2A0C2A0C2A0D2A0D269
:102C3B00A0D2A0D2A0C2A0C2A0C2A0C2A0C2A0C259
:102C4B00A0C2A0C2A0D2A0D2A0D2A0D2A0C2A0C229
:102C5B00A0C2A0C2A0C2A0C2A0C2A0C2A0D2A0D239
:102C6B00A0D2A0D2A0C2A0C2A0C2A0C2A0C2A0C229
:102C7B00A0C2A0C2A0D2A0D2A0D2A0D2A0C2A0C2F9
:102C8B00A0C2A0C2A0C2A0C2A0C2A0C2A0D2A0D209
:102C9B00A0D2A0D2A0C2A0C2A0C2A0C2A0C2A0C2F9
:102CAB00A0C2A0C2A0D2A0D2A0D2A0D2A0C2A0C2C9
:102CBB00A0C2A0C2A0C2A0C2A0C2A0C2A0D2A0D2D9
:102CCB00A0D2A0D2A0C2A0C2A0C2A0C2A0C2A0C2C9
:102CDB00A0C2A0C2A0D2A0D2A0D2A0D2A0C2A0C299
:102CEB00A0C2A0C2A0C2A0C2A0C2A0C2A0D2A0D2A9
:102CFB00A0D2A0D2A0C2A0C2A0C2A0C2A0C2A0C299
:102D0B00A0C2A0C2A0D2A0D2A0D2A0D2A0C2A0C268
:102D1B00A0C2A0C2A0C2A0C2A0C2A0C2A0D2A0D278
:102D2B00A0D2A0D2A0D2A0D2A0D2A0D2A0C2A0C228
:102D3B00A0C2A0C2A0D2A0D2A0D2A0D2A0D2A0D218
:102D4B00A0D2A0D2A0C2A0C2A0C2A0C2A0D2A0D228
:102D5B00A0D2A0D2A0D2A0D2A0D2A0D2A0C2A0C2F8
:102D6B00A0C2A0C2A0D2A0D2A0D2A0D2A0D2A0D2E8
:102D7B00A0D2A0D2A0C2A0C2A0C2A0C2A0D2A0D2F8
:102D8B00A0D2A0D2A0D2A0D2A0D2A0D2A0C2A0C2C8
:102D9B00A0C2A0C2A0D2A0D2A0D2A0D2A0D2A0D2B8
:102DAB00A0D2A0D2A0C2A0C2A0C2A0C2A0D2A0D2C8
:102DBB00A0D2A0D2A0D2A0D2A0D2A0D2A0C2A0C298
:102DCB00A0C2A0C2A0D2A0D2A0D2A0D2A0D2A0D288
:102DDB00A0D2A0D2A0C2A0C2A0C2A0C2A00200C317
:102DEB00C082C083C2A090065A120B7C12027FD005
:102DFB0083D0820200C374F6120CB37508057509F3
:102E0B00007808120E1C7C597D067A857B0612020F
:102E1B004F7402120C7290071B120B7C12027F75FF
:102E2B0008147509007808120E1C7C8E7D067A89B1
:102E3B007B0612024F7402120C728A088B09E5088A
:102E4B00450960DB75081E7509007808120E1C7C9D
:102E5B008E7D067A917B0612024F7402120C728AD7
:102E6B00088B09E508450960DB75082C75090178A5
:102E7B0008120E1C7C8E7D067A9F7B0612024F7405
:102E8B0002120C728A088B09E508450960DB75088C
:102E9B003C7509007808120E1C7C8E7D067AC17B6E
:102EAB000612024F7402120C728A088B09E5084550
:102EBB000960DB75083C7509007808120E1C7C8EC6
:102ECB007D067AEA7B0612024F7402120C728A0894
:102EDB008B09E508450960DB75081E750900780844
:102EEB00120E1C7C8E7D067AF97B0612024F740241
:102EFB00120C728A088B09E508450960DB75081E00
:102F0B007509007808120E1C7C597D067A067B0722
:102F1B0012024F7402120C728A088B09E5084509DC
:102F2B0060DB9005577401F07F02020D1FC082C059
:102F3B00838A828B83122FCFE9F08A828B83E024E2
:102F4B0001FCA3E03400FD8A828B83ECF0A3EDF04F
:102F5B00D083D0820200C374F6120CB374FC120C33
:102F6B005C7402120CA7EAF0A3EBF0ECFAEDFB7425
:102F7B000E120CA7A882A983851082851183E8F015
:102F8B00A3E9F085108285118385820885830978F2
:102F9B0008120E1C7404120CA7858208858309780D
:102FAB0008120E1C7C917D021202AF7404120C727B
:102FBB007402120CA7122FCFE4F07404120C727F60
:102FCB0002020D1FE0F8A3E0F58388822274F01251
:102FDB000CB38A0C8B0D8C0E8D0F7A007B00801935
:102FEB00E82401F8E93400F9C3E89417E9940240A6
:102FFB00EFEA2401FAEB3400FB8A088B09E4F50AAB
:10300B00F50B780C79081202DB50067800790080FA
:10301B00D77F08020D1F53C6BFE59EA2E640FA53A9
:10302B00C6B80200C374F6120CB38C828D83E070A9
:10303B000B80428A828B83A3AA82AB838A828B8387
:10304B00E0602E7E007F008008EE24010EEF34003E
:10305B00FFEC2EF8ED3FF9EA2EF582EB3FF583E01E
:10306B00F50888828983E0650870C8A3E070DA8070
:10307B00047A007B007F02020D1F74F7120CB374ED
:10308B0009120CA7E0F8A3E0F98A828B838003EC8A
:10309B00F0A3E8FEE9FFEE24FF18EF34FFF9EE4F43
:1030AB0070ED7F01020D1F1202851201EF1202015A
:1030BB0012023712025B12027912023112027312E0
:1030CB00025512026D80F5C082C0838A828B838089
:1030DB0001A3E070FCE582C39AFAE5839BFBD083E6
:1030EB00D0820200C375DA7D75DB0043E504D2B9EB
:0A30FB00D2DED2AF75E40E0200C36E
:04000005000000AB4C
:00000001FF
