:020000040000FA
:030000000200AB50
:03001300020E8258
:03001B00020EEDE5
:10004B00020E3800000080FB1200DBB90003020037
:10005B0095E4900200780279028002F0A3D8FCD9D3
:10006B00FA900301AA82AB839000DE7811790280AB
:10007B0015E493A3AC82AD838A828B83F0A3AA820F
:10008B00AB838C828D83D8E9D9E775821D75832369
:10009B0074001200BD75824E75830074001200BD92
:1000AB0075D0007581BF751000751102759F000228
:1000BB000053C09FF59FE473D09F22D083D082C0A2
:1000CB009FE493C0E0740193C0E0740293F59F2208
:1000DB007901220000000001000000320000004105
:1000EB00540D0A004F4B0041542B43574D4F444581
:1000FB003D330D0A0041542B43574A41503D226278
:10010B00616368656E67222C2253746570696F7426
:10011B00313233220D0A0041542B43495053544181
:10012B0052543D22544350222C223138332E323339
:10013B00302E34302E3430222C313831310D0A0030
:10014B0041542B4349504D4F44453D310D0A00411D
:10015B00542B43495053454E440D0A002A3337382C
:10016B0034373023313233343536373839237361F2
:10017B006D706C652A00170000000017000000006E
:10018B001700253032642530326425303464000A80
:10019B0014E803D0070000303132333435363738AA
:1001AB003941424344454600286E756C6C20706F94
:1001BB00696E74657229003F3F3F000000807F002D
:1001CB0000803FF9021550B743BA5100002041009F
:1001DB00E7DB2E0000A04010000000080000000A22
:1001EB000000001200C65825001200C66925001237
:1001FB0000C64021001200C65D21001200C630224D
:10020B00001200C63B22001200C67322001200C669
:10021B003F1F001200C68F20001200C6A52000123F
:10022B0000C6AB24001200C6F424001200C69225AF
:10023B00001200C60B24001200C63524001200C6A3
:10024B00BF25001200C60325001200C6F00E0012D7
:10025B0000C60E1400C3E09608A3E09608A3E09630
:10026B0008A3E096A2D265D03322C008C3E096F56E
:10027B000808A3E096420808A3E096420808A3E00A
:10028B00964208A2D265D033E5087001D3D008227C
:10029B00C3E7960809E7960809E7960809E7962247
:1002AB00080808E630E711120AE71202C30808082B
:1002BB00C64480C618181822181818E9799EC60863
:1002CB00CAC608CBC608CCC6C370207996CACBCC9D
:1002DB007019798ECBCC70137986CC700EF9802A7D
:1002EB00CA33CACB33CBCC33CC331930E7F2CCCBBC
:1002FB00CA3350147004EA30E00DE4CA3ACACB3B5F
:10030B00CBCC3CCC500209C3E913C6CC182313C683
:10031B00CB18C6CA18C6F92212036320F01430E7B3
:10032B002B74FFFCFBFA747F8022E4FCFBFA7480D5
:10033B00801AB48008BC00F2BB00EF800F50EBF9C1
:10034B00E4C39AFAE49BFBE49CFCE499C6CC18C684
:10035B00CB18C6CA18C6F922E4C9C608CAC608CB48
:10036B00C6D3330308CCC63392F0C3947F402E948C
:10037B00184019C9B90704CACBCC225025C309CAE6
:10038B0033CACB33CBCC33CC33D9F422F4600DC985
:10039B00CCC313CB13CBCA13CAD9F6CC22E4FCFBC8
:1003AB00FA2214FCFBFA22E6C33318461846184609
:1003BB0022E7C33319471947194722181818E608BB
:1003CB004608700AE608C3337005E633F4220822A8
:1003DB00191919E7094709700AE709C3337005E7CB
:1003EB0033F4220922E6084608C313460833600299
:1003FB00E633F422E7094709C3134709336002E7E1
:10040B0033F4221203F060251203FF60201203B2B3
:10041B0070030203BC080808E76670101819E7663A
:10042B00700A1819E76670041819E76622F422128D
:10043B0003F0601C1203FF60171203B27007120364
:10044B00BC7001D322C0D01203BC7006D0D0B32233
:10045B00C32233D0D0501430E0F6C3E7960809E737
:10046B00960809E7960809E796B32220E0D5E697A8
:10047B000809E6970809E6970809E697B3221203DD
:10048B00F0601B1203FF60161203B270071203BC5D
:10049B00600CB322C0D01203BC7005D0D022C32293
:1004AB0033D0D0501330E0EBC3E7960809E796083A
:1004BB0009E7960809E7962220E0E4E6970809E6A3
:1004CB00970809E6970809E69722001203F0604F98
:1004DB001203FF6012E7548066F61203C670111206
:1004EB0003BC703B090909F4F618F618F618F62246
:1004FB001203DB70151203B208080860EAE6447FAA
:10050B00F618768018E4F618F6221203B26016126B
:10051B0003BC7012E4F608F608F608E65480F609F8
:10052B00090918181822EAC0E0EBC0E0ECC0E0EDB6
:10053B00C0E0E687F0A4FBACF008E687F0A42CFC47
:10054B00E435F0FA1809E687F0A42C4B600274012D
:10055B00CA35F0FCE433FB09E687F0D2F7A42CCBC9
:10056B0035F0FC1908E687F0A42BCC35F0FBE4330F
:10057B00FD0819E687F0D2E7A42C4ACB35F0CD3431
:10058B0000FC09E687F0D2E7A42DCC35F0FDE4336F
:10059B00FA0918E687F0D2F7A42CCD35F0CA34004F
:1005AB00FC08E687F0D2E7D2F7A42ACC35F07A7EA6
:1005BB0020E70B0ACB33CBCD33CDCC33CC33CB3382
:1005CB0050147004ED30E00ED2F1E4CD3DCDCC3CB7
:1005DB00CC3B5005DA05C2F1EB547FC63308E6334A
:1005EB0092F0FBE73309E733C39A502D2B70190CAC
:1005FB000D4C4D70151806E608C333700D20F10A2B
:10060B00A2F013F6E418800B4024E4F630F00276E7
:10061B008018F618F618F68024D33B14501074FF8C
:10062B00A2F013F6187680E418F618F6800FA2F0F5
:10063B0013F618E63303F618ECF618EDF6D0E0FDDA
:10064B00D0E0FCD0E0FBD0E0FA221203FF604612B0
:10065B0003F0603DE9687008F618F618F618F622F4
:10066B00748067F7120689090909748067F72212EB
:10067B0003F0601D1203FF7005191919801A12037C
:10068B00C6701F1203DBC37003E6673319191940D9
:10069B00071818182208080874FFF618F618F61829
:1006AB00F6221203DB60171203BC702192F01203C7
:1006BB00B27019501720F014080808090909E7F659
:1006CB001819E7F61819E7F61819E7F6221203B20C
:1006DB0060E6E869701F0808E62480F608E436F641
:1006EB0018547FB47F0CE654806007F6E418F618B4
:1006FB00F622181822E9C6CC08C6CD08C6CE08C605
:10070B00CFC0E0E8C0E0EAC0E0EBC0E009E9F809DF
:10071B00E7FA09E7FBE6F918E6F8C3EC98ED99EE72
:10072B009AEBC2E7F5F0EFC2E795F0500E600CEBD9
:10073B00CFFBEACEFAE9CDF9E8CCF8EAA2E7D2E7AB
:10074B00FAEB33FB13F5F0EEA2E7D2E7FEEF33FF44
:10075B00C5F013A2E730E601B313C5F0C3C0E0C088
:10076B00F07F00C39BFB605B9418600C401AD0E0D9
:10077B0023F9D0E0F80208588AF0E9486003D2F078
:10078B00E4AFF0FAF9F8803BEB30E40D89F0EA6066
:10079B0003D2F0E4AFF0F9CAF8EB30E30D88F0EFD9
:1007AB006002D2F0AFF0E4CAC9F8EB54076014FB57
:1007BB00C3EA13FAE913F9E813F8EF135002D2E086
:1007CB00FFDBEDD0E0C0E030E739C3E49FFFF5F08D
:1007DB00EC98FC42F0ED99FD42F0EE9AFE42F0D01F
:1007EB00E0F9D0E0F8E5F0607AE923F9EE20E74292
:1007FB00D8028067C3EF33FFEC33FCED33FDEE33F0
:10080B00FE80EAEC28FCED39FDEE3AFED0E023F950
:10081B00D0E0F84002801BC3EE13FEED13FDEC138A
:10082B00FCEF135002D2E0FF08B800067F7F74FF85
:10083B00802EEF3350178CF020F00260100CBC00B0
:10084B000C0DBD00080EBE000408E860DFE933E8BC
:10085B0013FFEE2313FE4F4D4C8008E95480FFE449
:10086B00FEFDFCEE33EF33F47004FCFD7E80D0E034
:10087B00FBD0E0FAD0E0F8D0E0CFC618CEC618CD4A
:10088B00C618CCC6F9221203F070041818182212DD
:10089B0003FF700D74FFF61819F61819F61819F6F0
:1008AB0022E7548066F61203B2700F1203BC70F08D
:1008BB0014F608F608F608F680D11203BC700CF695
:1008CB0008F608768008E6447F80EC1203DE700C95
:1008DB001203C960BFE65480F6E480BB1203C970F3
:1008EB000519191980A5E869700C763F18768018E0
:1008FB00F618F6E8F922E6CDC0E018ECC0E0E633D6
:10090B00CD33CDD313F6E719FCE7191933CC33C329
:10091B00947F400ECD9D502408E65480F6E418F6E3
:10092B00800FF4043D14501408E6447FF6187680CB
:10093B00E418F618F6D0E0FCD0E0FD22CCD313CCB3
:10094B00FD18E4C6CBC0E018E4C6CAC0E00808ED49
:10095B0008C633E613F618E433C675F003C3CA971B
:10096B00CA09CB97CB199C40047D08802EBD000390
:10097B00020A3A16B6FF050606081618C3CA33CA8A
:10098B00CB33CB33CA27CA09CB37CB193CC37D0832
:10099B00803E187D0820E75CC633C6CA33CACB330A
:1009AB00CB33DDF1D5F0EB30E77BCA97CA09CB9798
:1009BB004ACB199C406F4B7025E620E021806618CE
:1009CB007D08C3CA97CA09CB97CB199CD3C633C62C
:1009DB00CA33CACB33CB3350C9DDE7D5F0E1D3E40F
:1009EB00C636C608C636C608C636C608C636C618C4
:1009FB0018188031C3CA97CA09CB97CB199CB3403F
:100A0B0097C633C6CA33CACB33CB33DD34D5F02EBE
:100A1B00C6A2E0C640C8CA27CA09CB37194A70BE5E
:100A2B00CB3CB480B90808E63308E633601F1818CE
:100A3B0018D0E0FAD0E0FBD0E0FCD0E0FD22187D2E
:100A4B0008CA27CA09CB37CB193CD3808013F618B9
:100A5B00E4B67F11F618B6FF0EF618C60470D2086E
:100A6B0008768080CAF618F618F680C5E4CFC0E089
:100A7B00E4CEC0E0E4CDC0E0E4CCC0E075F020C330
:100A8B00E633F608E633F608E633F608E633F618EF
:100A9B001818EC33FCED33FDEE33FEEF33FFC3ECF4
:100AAB009709ED9709EE9709EF97191919400FFF61
:100ABB00EC97FC09ED97FD09EE97FE191906D5F099
:100ACB00BEECF709EDF709EEF709EFF7191919D095
:100ADB00E0FCD0E0FDD0E0FED0E0FF22181818E4D7
:100AEB00C396F608E496F608E496F608E496F62222
:100AFB006016080808C6C313C618C613C618C61353
:100B0B00C618C613C6D5E0EA22E026F608A3E036DF
:100B1B00F608A3E036F608A3E036F622E026F00846
:100B2B00A3E036F008A3E036F008A3E036F022E0AD
:100B3B00F608A3E0F608A3E0F608A3E0F622E6F039
:100B4B0008A3E6F008A3E6F008A3E6F022E0FAA378
:100B5B00E0FBA3E0FCA3E0FD22EAF0A3EBF0A3ECA7
:100B6B00F0A3EDF022CAC0E0E6F0A308DAFAD0E079
:100B7B00FA22CAC0E0E0A3C582CCC582C583CDC52D
:100B8B0083F0A3C582CCC582C583CDC583DAE6D0FD
:100B9B00E0CA22C3E498F8E499F9120BDF8026C36C
:100BAB00E49AFAE49BFBE920E7E9120BDFE498F8FF
:100BBB00E499F922C3E498F8E499F9120BDFE4986D
:100BCB00F8E499F9C3E49AFAE49BFB22EB20E7CF14
:100BDB00E920E7E0B90010BB0008E88AF084F8AA26
:100BEB00F022E4FBC8FA22EB70227B10C833C8C991
:100BFB0033C9335007C39AC3DBF280069A50012ADC
:100C0B00DBEAC833F4C8C933F4C9FA2275F008E437
:100C1B00C833C8C933C933C99AC99B5004C92AC937
:100C2B003BD5F0ECFBC833F4C8E4C9FA222510100D
:100C3B00AF08F510400215118008F5104002151190
:100C4B00D2AF22C0D0251010AF08F51050020511FD
:100C5B008008F51050020511D2AFD0D0222510F527
:100C6B008210AF08F510400215118008F5104002F4
:100C7B001511D2AF851183222510F582E43511F5BC
:100C8B008322E4732510C582C0E0E51134FFC583D0
:100C9B00C0E0E510C3958224F810AF088583118559
:100CAB0082108008858311858210D2AFCEF0A3E528
:100CBB0020F0A37808E608F0A3DEFAEFF0A3E581B5
:100CCB0024FAF8E608F0A3E608F0A3E608F0A30878
:100CDB0008E608F0A3E608F0A315811581D0E0FE25
:100CEB00D0E0F8158115811581E8C0E0EEC0E02257
:100CFB00851183851082E0A3FEE0A3F5207808E040
:100D0B00A3F608DFFAE0A3FFE0A3C0E0E0A3C0E096
:100D1B00E0A3C0E0E0A3C0E0E0A3C0E010AF088513
:100D2B0082108583118008858210858311D2AFD004
:100D3B0083D0820200C3C0D02510C582C0E0E5116C
:100D4B0034FFC583C0E0E510C3958224F310AF08D0
:100D5B008583118582108008858311858210D2AF1F
:100D6B00C8F0A3E9F0A3EAF0A3EBF0A37908E70935
:100D7B00F0A3D8FAECF0A3EDF0A3EEF0A3EFF0A301
:100D8B00D0E0F0A3D0E0F0A3D0E0F0A3E520F0A3F7
:100D9B00E5F0F0A322851183851082E0C0E0A3E08B
:100DAB00F9A3E0FAA3E0FBA37808E0F608A3DFFAC7
:100DBB00E0FCA3E0FDA3E0FEA3E0FFA3E0C0E0A303
:100DCB00E0C0E0A3E0F5D0A3E0F520A3E0A3F5F0AD
:100DDB0010AF088583118582108008858311858269
:100DEB0010D2AFD082D083D0E0F8D0E03274028042
:100DFB00027401C0E0F404120C68D0E0120B7022F4
:100E0B0074028000CCC0E0EDC0E0E510C39CCCAD1B
:100E1B001150011D10AF068C108D1180068C108D9A
:100E2B0011D2AF120B7DD0E0FDD0E0FC22C0E0C0B0
:100E3B00D0E8C0E0C008C009C00AC00BC082C083A4
:100E4B009003057808120B3A9002047808120B27CE
:100E5B009003057808120B3A9002007808120B27C2
:100E6B0053AFFED083D082D00BD00AD009D008D09C
:100E7B00E0F8D0D0D0E032C0E074F2120D41C28B5A
:100E8B009002D1E05400F8A3E05480F9E849704D8A
:100E9B00900208E06007A9C11202008040E5C1C0C2
:100EAB00E09002D1E054FFF8A3E0543FF974092815
:100EBB00F582740239F583D0E0F09002D1E0240181
:100ECB00F0A3E03400F09002D1C3E094C8A3E09407
:100EDB0000400A9002D17400F0A37400F07F01026D
:100EEB000DA0C28F3274F0120C8F74FD120C38747B
:100EFB0002120C83E9F08A088B098C0A8D0B74158E
:100F0B00120C83E0FEA3E0FF851082851183E4F0D1
:100F1B00A3F08E828F83A3AA82AB839003E9780C14
:100F2B00120B3A7808790C12040E70188E828F838C
:100F3B0074691213CF746EF0A37466F0A30A0AAB34
:100F4B008302136A7808790812040E60118E828F5F
:100F5B0083746E1213CF7461F0A3746E80DD9003F3
:100F6B00ED780C120B3A7808790C12043A50030204
:100F7B00101A900301780C120B3A7808790C1204B2
:100F8B000E600302106E7417120C83E070030210D4
:100F9B00B0851082851183C082C0837413120C83B9
:100FAB00121E0DD083D0821213A8502C851082856F
:100FBB001183C3E094FCA3E094FFA2D265D033402D
:100FCB00177402120C83E4121EE1F97413120C83D2
:100FDB00C3E098F0A3E099F07413120C831213C5BD
:100FEB007418120C83E070030210AD7417120C838B
:100FFB00E40210AF9003F1780C120B3A7808790CDD
:10100B00120891851082851183E0240A121F1E900D
:10101B0003F5780C120B3A7808790C12043A40D489
:10102B009003F9780C120B3A7808790C12043A40B9
:10103B0003020F919003F9780C120B3A7808790C94
:10104B00120891121F1580D89003F1780C120B3AED
:10105B007808790C1204D5851082851183E024F66B
:10106B001213C89003FD780C120B3A7808790C1206
:10107B00048940D49003ED780C120B3A7808790C64
:10108B001204894003020F919003F9780C120B3A6A
:10109B007808790C1204D58510828511831213C53B
:1010AB0080D27401F07402120C83E060077A007B2B
:1010BB00000211BC1213B4507D8E828F837430F0FA
:1010CB00EAFEEBFF7413120C83E0FCA3E0FDEC4D86
:1010DB0070087418120C83E0600B8E828F83742E51
:1010EB00F0A30EAF837A007B0080118E828F837406
:1010FB00301213F07413120C831213C5EA24FF1A67
:10110B00EB34FFFB85108285118312139C500B74FB
:10111B0013120C83121E114970D185108285118315
:10112B0074FFC39CF874FF9DF91213A850030212AD
:10113B008A7A010210BA851082851183121E0DC3A3
:10114B00E498FAE499FB806985080C85090D850AFA
:10115B000E850B0F780C120323AC0CE50D3395E0C9
:10116B00F50EF50F780C1202AB7808790C120655B8
:10117B009003F9780C120B3A7808790C1204D5EC21
:10118B001213EAEAF8EBF9E824010AE93400FBE868
:10119B0049701E7413120C83121E114970087418B7
:1011AB00120C83E0600B8E828F83742EF0A30EAF34
:1011BB00837413120C8312139C508D900401780CC2
:1011CB00120B3A7808790C12043A400302128A7C0B
:1011DB0001EE24FFF8EF34FFF97415120C83E0F5E0
:1011EB0008A3E0F50988828983E0642E6010E02C67
:1011FB00F0643A70077430F07C0180027C00E8FAEE
:10120B00E9FBEA24FF18EB34FFF9C3E5089AE5097B
:10121B009B40D2ECA2E050677402120C83E0603664
:10122B00EEF8EF800A121387E824FF18E934FFF970
:10123B00C3E50898E509995018121374E0642E70F1
:10124B00E4E824FEF582E934FFF583121381F9807B
:10125B00D7121F15801E8E828F83A3AE82AF83EEB3
:10126B00F8EF8006121374121381F9C3E50898E5A1
:10127B00099940F07415120C83121E2C7431F07402
:10128B0017120C83E07005801A1EAF83EE24FFF556
:10129B0082EF34FFF583E0643060EEE0642E700380
:1012AB001EAF837402120C83E070030213661213D9
:1012BB00ECA3A9831213B48E828F835014742DF078
:1012CB000EE9FF851082851183121E551213DD80E6
:1012DB0006742BF00EE9FF7C007D00EE240AFEEF76
:1012EB003400FFEC24010CED3400FD12138E120BB5
:1012FB00D7EA1213EA12138E120BD71213F7497097
:10130B00E2C3EC9402ED121DBE40D8ECFAEDFBC328
:10131B00E49CF8E49DF9EE28F582EF39F583E0C003
:10132B00E0C3E49AF8E49BF9EE28F8EF39F9E82CDE
:10133B00F8E93DF9E824F5F582E934FFF583D0E0CF
:10134B00F0EC24FF1CED34FFFDC3EC9401ED121DFA
:10135B00BE50BCEE24F6FEEF34FFFFEEFAEFFB744B
:10136B0003120C4E7F08020CFBE824FFFAE934FF52
:10137B00FB8A828B832212138718EB22E0888289E7
:10138B0083F022851082851183121E627A0A7B00FC
:10139B0022C3E09AA3E09BA2D265D03322C3E0988C
:1013AB00A3E099A2D265D03322851082851183C325
:1013BB00A3E09400A2D265D03322E024FFF0A3E097
:1013CB0034FFF022F0EAFEEBFF8E828F8322A3E044
:1013DB003400F9851082851183E8F0A3E9F022240B
:1013EB00308E828F83F0A3AE82AF832285108285ED
:1013FB00118312140122E8F0A3E9F0851082851104
:10140B0083E02274F0120C8F74B0120C38851082AA
:10141B00851183121EC77418120C83ECF0A3EDF028
:10142B00740F120C83E4F0A380227460120C8312ED
:10143B001DFD7404120C83E0F97418120C83121E38
:10144B002C120C8D740F120C83121DC6F0121E4041
:10145B00FA121F00120C83EAF074256A6010E07018
:10146B00C9740F120C83121DFD745002136C121EE3
:10147B004064257019851082851183E024010812C0
:10148B0013D97460120C83121DFD792580AB740E79
:10149B00120C83E4F0740D120C83E4F0740C120C38
:1014AB0083E4F07405120C83E4F0741E120C83A811
:1014BB0082A9837402120C8380157405120C83E0CD
:1014CB0070077405120C83EAF08510828511831264
:1014DB0013FD121DF4121E87FA24E060DD24FD605B
:1014EB001724F860DD24FE600624FD600F80117464
:1014FB000C120C83E00480D0740D80F5740E80F117
:10150B00121E87642A705B7462120C83121E92FB8C
:10151B008A828B83E0FCA3E0FD740A120C83ECF04F
:10152B00A3EDF0EA24020A0AEB3400FB7462120CFE
:10153B0083121EBF740A120C831213BA501F740A43
:10154B00120C83121DFDC3E49AFAE49BFB740A127E
:10155B000C83121EC7740C120C83E004F01213DE02
:10156B00804A740A120C83E4F0A3802D740A120CC7
:10157B0083121E1175F00AA4F8AAF075F00AE9A4FB
:10158B002AF9E50828F8E439F9E824D0F8E934FF1A
:10159B00F9740A120C83121F25121EE1F58388823F
:1015AB00E0F50874D02508C3940A40C0740C120CE3
:1015BB0083E06007740E120C83E4F0121E40642E5D
:1015CB006003021659851082851183E0240108A35C
:1015DB00E03400F91213F7121E31E0642A702C74F8
:1015EB0062120C83121E46F8A3E0F988828983E00D
:1015FB00FEA3E0FFE824020808E93400F974621244
:10160B000C83121E7A121F25F080477E007F008507
:10161B001082851183121E4F74D02508C3940A5073
:10162B0031EE75F00AA4FEA8F075F00AEFA428FFBE
:10163B00E5082EF8E43FF9E824D0FEE934FFFF85F6
:10164B001082851183E02401F81213D980C17EFF2B
:10165B007FFF7A00851082851183121DEF85108222
:10166B00851183E0FBA3E0F5838B82E024B4600853
:10167B0024E4600524FC70040A1213DE121E40FBE6
:10168B00121F00120C83EBF07003021C6424BB705E
:10169B0003021B2A24FE7003021B0C24EF700302AF
:1016AB00185624F5700302175B1470030218FB1411
:1016BB007003021B2A147003021B28147003021BF5
:1016CB000C24FE70030218FB24FB6024147003022D
:1016DB00184614700302185624FD70030217942445
:1016EB00FE700302185624FD7003021856021C707C
:1016FB007462120C83121EB9120C831213E4EAA249
:10170B00E0740F5033120C83E0FCA3E0FD3395E043
:10171B00FE7406120C83121E9AECF0A3EDF0A3EEEE
:10172B00F0A3F07462120C83121EA1120C83121E12
:10173B007AE8F0A3E9021457120C83121E0D7406FB
:10174B00120C83121E92F5838A82E8F0A3E980D2F1
:10175B007462120C83121E9AE0C0E0741E120C838A
:10176B00D0E0F07462120C83121EA1120C83121EB5
:10177B007A1213E4741F120C83A882A983741212B9
:10178B000C83E8F0A3E9021C877462120C83121E0F
:10179B00B9120C831213E47406120C83121EB912C5
:1017AB000C83E02402FAA3E03400FB7462120C8376
:1017BB00121EBF7402120C831213E4E849700C74EE
:1017CB0002120C8374D6F0A37403F0121DBC5004E8
:1017DB007E107F277408120C83E4F0A38008740832
:1017EB00120C83121DC6F07402120C83121E0D888C
:1017FB00828983A3AA82AB837402120C83121EC745
:10180B0088828983E0600A7408120C83121E1640CA
:10181B00CD7402120C83121DDD7412120C83121381
:10182B00E47408120C83121E55F97412120C83E027
:10183B0028F8A3E039F9740202178A740D120C838D
:10184B00E06008EE4F70047E017F007462120C831F
:10185B00121EB9120C83121F0D120C83E0647070F0
:10186B00387406120C83121EAF120C83121EE81270
:10187B000C83E02402121E71120C83121E7A1213B7
:10188B00E4900405120B58741A120C83120B647437
:10189B0005120C83E4F002198BEAA2E07406501BCC
:1018AB00120C83121E2C120B587414120C83120B75
:1018BB00647406120C83E024048012120C83121E33
:1018CB00AF120C83121EE8120C83E02402121E715D
:1018DB00120C83121E7A121F0D120C83E0646F70B0
:1018EB0005900409809EE06475709690040D8094B9
:1018FB007462120C83121EB9120C831213E4EAA247
:10190B00E074065016120C83121E2C7808120B3A38
:10191B007406120C83E02404F8801B120C83121E35
:10192B004FA3E0F5093395E0F50AF50B7406120C9D
:10193B0083E024020808121E72120C83121EF51289
:10194B000C837808120B499003017808120275403A
:10195B00217405120C83742DF07414120C83780807
:10196B00120B3A7808120AEA7414120C83780812D4
:10197B000B4990040D120B58741A120C83120B6442
:10198B00744F120C83A882A9837402120C83121356
:10199B00E47412120C83121EF8120C837808120BCB
:1019AB003AE5084509450A450B60097411120C8389
:1019BB00740180067411120C83E4F0EE4F7008E092
:1019CB00A2E04003021A7F7402120C83121E26122D
:1019DB000C83121EF8120C83780C120B3A741A1229
:1019EB000C837808120B3A780C7908120A7774C5B5
:1019FB002508F58274033509F583E0C0E074021203
:101A0B000C83121E2CD0E0F07414120C83780C1281
:101A1B000B3A741A120C837808120B3A780C79086B
:101A2B00120A777414120C83780C120B497414126B
:101A3B000C837808120B3AE5084509450A450B70EB
:101A4B0086121DBC502E740E120C83E0602674059A
:101A5B00120C83E06004D2F08002C2F0740A120C04
:101A6B0083121DCF800E7402120C83121ED9120C1E
:101A7B0083121E397402120C83121DDD744F120C6B
:101A8B0083C082C0837402120C83121DFDD083D0DD
:101A9B0082E582C39AFAE5839BFBC3EA9EEB121E97
:101AAB001F40C3740D120C83E07003021C88741169
:101ABB00120C83E0A2E04003021C887404120C8316
:101ACB00E064786005E06458701E121387E824FF09
:101ADB0018E934FFF97402120C83121ED9120C830D
:101AEB00121E2C7430021C87E0646F6003021C888A
:101AFB007402120C83121E8D64307003021C8880DA
:101B0B00D47408120C837401F0A3E4F07404120C67
:101B1B0083E024FEF0EE4F700F7E018012E4F07430
:101B2B0008120C83E4F0A3F0121DBC50047E067F58
:101B3B00007462120C83121EB9120C831213E4741C
:101B4B0006120C83121E2C780C120B3A7406120C14
:101B5B0083E02404121E71120C83121EF5120C83E7
:101B6B00780C120B499003017808120B3A780C7918
:101B7B000812048950227405120C83742DF074140E
:101B8B00120C837808120B3AE50BB2E7F50B7414C1
:101B9B00120C837808120B49740A120C83121E0D57
:101BAB00741E120C83E58228F8E58339F97402124E
:101BBB000C831213E4740D120C83E0F508780812F1
:101BCB000DFC7409120C83E0F5087808120DFC74F7
:101BDB0004120C83120E0B8E088F097808120DF865
:101BEB00740A120C83E0F9741A120C83120B58123C
:101BFB0002547406120C4E7412120C83121EC7740C
:101C0B000E120C83E060767405120C83E06004D234
:101C1B00F08002C2F0740A120C83121DCF741212E0
:101C2B000C83C082C0837402120C83121E0DD083EE
:101C3B00D082E0C398F8A3E099F9C3E89EE9121E9D
:101C4B001F503A7402120C83121E26120C83121EA2
:101C5B00D9120C83121E3980C48510828511831210
:101C6B001DE61213DD7402120C8374E5F0A37403EA
:101C7B00F07412120C8374E8F0A37403F074121254
:101C8B000C83C082C0837402120C83121E0DD0838E
:101C9B00D082E0C398FEA3E099FF740A120C831262
:101CAB001E16500A7408120C83E4F0A380307405DE
:101CBB00120C83E06004D2F08002C2F0740A120CA2
:101CCB0083E0C39EF8A3E09FF9A2F0E433FAE89A0D
:101CDB00F8E99400F97408120C83E8F0A3E9F074A6
:101CEB000C120C83E0702B80197460120C83121E83
:101CFB0003120C83121E2C120C8D740F120C8312F8
:101D0B001F1B7408120C83121ECD120C831213BAF4
:101D1B0050D77405120C83E060507460120C831260
:101D2B001DFD7405120C83E0F97418120C83121E3E
:101D3B002C120C8D802C7460120C83121DFD7402FE
:101D4B00120C83121E46F97418120C83121E2C12DD
:101D5B000C8D7402120C83121DEF7402120C831281
:101D6B0013E4740F120C83121F1BEE24FF1EEF34AF
:101D7B00FFFFC3121DBE50BE740C120C83E0700328
:101D8B000214587408120C83121ECD120C831213FA
:101D9B00BA50030214587460120C83121E03120CF7
:101DAB0083121E2C120C8D740F120C83121F1B80AE
:101DBB00D2C3EF9400A2D265D03322E02401F0A36A
:101DCB00E0340022A2F0E433F8E098FEA3E09400A4
:101DDB00FF22121DE122121DE6F922E024FFF8A3D7
:101DEB00E034FF22E0121DF4222401F8A3E03400BA
:101DFB00F922E0FAA3E0FB22E0FAA3E0FB792074DE
:101E0B001822121E6222121E62E822C3E09EA3E079
:101E1B00121E1F229FA2D265D03322121DE1740223
:101E2B0022121E3022E0F8A3E0F583888222121ED4
:101E3B00307430F022851082851183121E4A2212D3
:101E4B001E68E022121E4AF50822121E62C3E49895
:101E5B00F8E49922121E68E0F8A3E0F922E0F8A357
:101E6B00E0F583888222F8A3E03400F97462221231
:101E7B001E7E22E0FAA3E0F5838A822285108285FA
:101E8B001183121E7EE022121E7EE0FAA3E02212C4
:101E9B001E4A121E3122121E4A2402F8A3E03400FD
:101EAB00F9746222121E5FE8FAE9FB741422121E07
:101EBB005F740622E0FCA3E0F5838C82EAF0A3EBCF
:101ECB00F022E024FFF0A3E034FFF0740822E8F0E6
:101EDB00A3E9F0740222121405F8A3E022EAF0A39E
:101EEB00EBF0A3E4F0A3F0740622121E7EE8F0A33D
:101EFB00E9F0741422851082851183E02401081205
:101F0B001F33E8F0A3E9F074042285108285118356
:101F1B00E02401F0A3E03400F0221214012401F8B4
:101F2B00121F33E8F0A3E922A3E03400F9851082F5
:101F3B008511832274F6120C8F43FE6053F47F538A
:101F4B00FE7F53F67FC295900305120B5812022A9F
:101F5B00D2959003A4120B5812022475081475091C
:101F6B00007808120DF87C127D037A0D7B031202A8
:101F7B00127402120C4E8A088B09E508450960DBC6
:101F8B009003A8120B5812022475081E75090078CD
:101F9B0008120DF87C127D037A157B031202127462
:101FAB0002120C4E8A088B09E508450960DB75089F
:101FBB002C7509017808120DF87C127D037A237BAE
:101FCB00031202127402120C4E8A088B09E50845A3
:101FDB000960DB9003AC120B5812022475083C7598
:101FEB0009007808120DF87C127D037A457B0312E9
:101FFB0002127402120C4E8A088B09E5084509601F
:10200B00DB75083C7509007808120DF87C127D030E
:10201B007A6E7B031202127402120C4E8A088B0921
:10202B00E508450960DB75081E7509007808120D77
:10203B00F87C127D037A7D7B031202127402120C60
:10204B004E8A088B09E508450960DB75081E750982
:10205B00007808120DF87CD97D027A8A7B03120274
:10206B00127402120C4E8A088B09E508450960DBD5
:10207B00900301120B581202249002087401F07F96
:10208B0002020CFBC082C083C296900305120B5850
:10209B0012022AD083D0820200C374F0120C8F8AF2
:1020AB00088B098C0A8D0B9002DA7417F0A374005D
:1020BB00F08024D296D296D296D296C296C296C26F
:1020CB0096C296C296C296C296C2969002DAE02447
:1020DB00FFF0A3E034FFF09002DAC3E09400A3E03A
:1020EB009400A2D265D033404485080C85090D8538
:1020FB000A0E850B0F9002DAE0F8A3E0F9E8780CF2
:10210B00120AFBE50C54019002DCF09002DCE06457
:10211B000170A0D296D296D296D296D296D296D261
:10212B0096D296C296C296C296C296809E12021EF6
:10213B007F08020CFB75F10075F30C75C2D875C5E1
:10214B000B43C4804386C0C2E9C28BD2AAD2AF0272
:10215B0000C3C082C0839002D4E0700D74436970D9
:10216B00089002D47401F0802B9002D4E0640170CB
:10217B001D74476970189002D17401F0A37400F0BC
:10218B009002D57401F09002097441F08006900220
:10219B00D47400F09002D5E070030222299002D192
:1021AB00C3E094C7A3E0940040169002D37400F0F0
:1021BB009002D57400F09002D17400F0A37400F07B
:1021CB00E9C0E09002D1E02409FAA3E03402FB8AD3
:1021DB00828B83D0E0F09002D1E02401F0A3E034B5
:1021EB0000F09002D3E0700D74536970089002D325
:1021FB007401F080299002D3E0601D745769701848
:10220B009002D17400F0A37480F09002D57400F0AA
:10221B009002D37400F080069002D37400F0D08348
:10222B00D0820200C389C1A2E950FCC2E90200C3FB
:10223B0074F6120C8FEAFEEBFF8C088D0980128E60
:10224B00828F83E0F91202068E828F83A3AE82AF58
:10225B0083A808A909E824FFF508E934FFF509E884
:10226B004970DC7F02020CFB74F0120C8F8A088B16
:10227B00098C0E8D0F7410120C83E0F50AA3E0F598
:10228B000B7E007F00AA08AB09120248EA9002D627
:10229B00F0750CC8750D00780C120DF87C007D00E4
:1022AB007A097B021202367402120C4E9002D6E0AF
:1022BB00FC7D00AA08AB0912020C9002D77400F047
:1022CB00A37400F0800C9002D7E02401F0A3E0345B
:1022DB0000F09002D7C3E0950AA3E0950B50209035
:1022EB000309120B5812022AAC0EAD0F7A097B02AE
:1022FB0012024E8A088B09AE08AF09EE4F60C790E9
:10230B0002D17400F0A37400F0EEFAEFFB7F080229
:10231B000CFB1202301201FA1201F4120218120114
:10232B00EE8A088B098C0A8D0B9003C17808120B6F
:10233B00149002FD7808120B491201EE8A088B09E2
:10234B008C0A8D0B9002FD780812026050EB900303
:10235B00BF120E0B9003BEE0F5087509007808124A
:10236B000DF89003BDE0F5087509007808120DF81B
:10237B007CB07D037ADD7B021202427406120C4E96
:10238B007ADD7B02120248EAFCEBFD7ADD7B02125E
:10239B00020C1201EE8A088B098C0A8D0B9003C17B
:1023AB007808120B149002FD7808120B499003BDAC
:1023BB00E02401F09003BEE02401F09003BDE07532
:1023CB00F06484E5F09003BDF09003BEE075F0641B
:1023DB0084E5F09003BEF09003BFE02432F0A3E05D
:1023EB003400F09003BFC3E094D1A3E094075003F3
:1023FB000223449003BF74E8F0A37403F002234458
:10240B00C082C0838A828B831224A2E9F08A828BDA
:10241B0083E02401FCA3E03400FD8A828B83ECF083
:10242B00A3EDF0D083D0820200C374F6120C8F742C
:10243B00FC120C387402120C83EAF0A3EBF0ECFAEA
:10244B00EDFB740E120C83A882A983851082851173
:10245B0083E8F0A3E9F085108285118385820885D6
:10246B0083097808120DF87404120C838582088591
:10247B0083097808120DF87C3C7D0212025A740411
:10248B00120C4E7402120C831224A2E4F074041288
:10249B000C4E7F02020CFBE0F8A3E0F5838882224E
:1024AB0074F0120C8F8A0C8B0D8C0E8D0F7A007BB7
:1024BB00008019E82401F8E93400F9C3E89417E91E
:1024CB00940240EFEA2401FAEB3400FB8A088B09F3
:1024DB00E4F50AF50B780C790812029B500678008C
:1024EB00790080D77F08020CFB53C6BFE59EA2E69E
:1024FB0040FA53C6B80200C374F6120C8F8C828D4F
:10250B0083E0700B80428A828B83A3AA82AB838A7F
:10251B00828B83E0602E7E007F008008EE24010E0C
:10252B00EF3400FFEC2EF8ED3FF9EA2EF582EB3F8E
:10253B00F583E0F50888828983E0650870C8A3E01D
:10254B0070DA80047A007B007F02020CFBC082C031
:10255B0083900200120B58D083D0820200C3C0823A
:10256B00C08375DA7D75DB0043E504D2B9D2DED2C8
:10257B00AF75E40E900301120B58900200120B641E
:10258B00D083D0820200C374F7120C8F7409120C23
:10259B0083E0F8A3E0F98A828B838003ECF0A3E855
:1025AB00FEE9FFEE24FF18EF34FFF9EE4F70ED7FDD
:1025BB0001020CFBC082C0838A828B838001A3E063
:1025CB0070FCE582C39AFAE5839BFBD083D0820231
:0225DB0000C33B
:04000005000000AB4C
:00000001FF
