:020000040000FA
:030000000200D328
:03003300020E9D1D
:03006B00020DD5AE
:03007B00020E3E34
:10008300020D8600000080FB1200E2B900030200AB
:10009300CDE4900101786679028002F0A3D8FCD9FF
:1000A300FA900266AA82AB839000E578AA79018070
:1000B30015E493A3AC82AD838A828B83F0A3AA82D7
:1000C300AB838C828D83D8E9D9E712141D12008685
:1000D30075D0007581BF75100175110102008B7910
:1000E300012254656D703A25642C0948756D693A8F
:1000F30025642E0D0A00FF00000000000000000030
:1001030000003F065B4F666D7D077F6F0039768089
:1001130000000000FFFFFFFF0100000014000000CB
:100123003FB82F3B66663BC20C00FA3A0000C0C0E2
:1001330002000000F4010000303132333435363729
:10014300383941424344454600286E756C6C207033
:100153006F696E7465722900464C4F4154533F20BA
:1001630077726F6E6720666F726D6174746572204B
:10017300696E7374616C6C656421003F3F3F0010CE
:10018300000000080000000A000000C008C3E09659
:10019300F50808A3E096420808A3E096420808A3DE
:1001A300E0964208A2D265D033E5087001D3D008A7
:1001B30022C3E7960809E7960809E7960809E79630
:1001C30022E9799EC608CAC608CBC608CCC6C37046
:1001D300207996CACBCC7019798ECBCC70137986E3
:1001E300CC700EF9802ACA33CACB33CBCC33CC3391
:1001F3001930E7F2CCCBCA3350147004EA30E00D67
:10020300E4CA3ACACB3BCBCC3CCC500209C3E9137A
:10021300C6CC182313C6CB18C6CA18C6F9228A0837
:100223008B098C0A8D0B780812026B20F01430E7CF
:100233002B74FFFCFBFA747F8022E4FCFBFA7480CE
:10024300801AB48008BC00F2BB00EF800F50EBF9BA
:10025300E4C39AFAE49BFBE49CFCE499C6CC18C67D
:10026300CB18C6CA18C6F922E4C9C608CAC608CB41
:10027300C6D3330308CCC63392F0C3947F402E9485
:10028300184019C9B90704CACBCC225025C309CADF
:1002930033CACB33CBCC33CC33D9F422F4600DC97E
:1002A300CCC313CB13CBCA13CAD9F6CC22E4FCFBC1
:1002B300FA2214FCFBFA22E6C33318461846184602
:1002C30022E7C33319471947194722181818E608B4
:1002D3004608700AE608C3337005E633F4220822A1
:1002E300191919E7094709700AE709C3337005E7C4
:1002F30033F4220922E6084608C313460833600292
:10030300E633F422E7094709C3134709336002E7D9
:1003130033F422001202F8604F1203076012E7540D
:100323008066F61202CE70111202C4703B090909ED
:10033300F4F618F618F618F6221202E370151202F4
:10034300BA08080860EAE6447FF618768018E4F6EF
:1003530018F6221202BA60161202C47012E4F608EA
:10036300F608F608E65480F609090918181822EA6F
:10037300C0E0EBC0E0ECC0E0EDC0E0E687F0A4FB3A
:10038300ACF008E687F0A42CFCE435F0FA1809E693
:1003930087F0A42C4B60027401CA35F0FCE433FBF4
:1003A30009E687F0D2F7A42CCB35F0FC1908E687D1
:1003B300F0A42BCC35F0FBE433FD0819E687F0D22B
:1003C300E7A42C4ACB35F0CD3400FC09E687F0D204
:1003D300E7A42DCC35F0FDE433FA0918E687F0D213
:1003E300F7A42CCD35F0CA3400FC08E687F0D2E739
:1003F300D2F7A42ACC35F07A7E20E70B0ACB33CB95
:10040300CD33CDCC33CC33CB3350147004ED30E04B
:100413000ED2F1E4CD3DCDCC3CCC3B5005DA05C248
:10042300F1EB547FC63308E63392F0FBE73309E779
:1004330033C39A502D2B70190C0D4C4D70151806A3
:10044300E608C333700D20F10AA2F013F6E4188016
:100453000B4024E4F630F002768018F618F618F60E
:100463008024D33B14501074FFA2F013F618768047
:10047300E418F618F6800FA2F013F618E63303F625
:1004830018ECF618EDF6D0E0FDD0E0FCD0E0FBD0A0
:10049300E0FA221202F8601D1203077005191919F8
:1004A300801A1202CE701F1202E3C37003E6673391
:1004B30019191940071818182208080874FFF618A4
:1004C300F618F618F6221202E360171202C470211E
:1004D30092F01202BA7019501720F0140808080994
:1004E3000909E7F61819E7F61819E7F61819E7F6F0
:1004F300221202BA60E6E869701F0808E62480F653
:1005030008E436F618547FB47F0CE654806007F68F
:10051300E418F618F622181822E9C6CC08C6CD0846
:10052300C6CE08C6CFC0E0E8C0E0EAC0E0EBC0E05A
:1005330009E9F809E7FA09E7FBE6F918E6F8C3EC75
:1005430098ED99EE9AEBC2E7F5F0EFC2E795F0501C
:100553000E600CEBCFFBEACEFAE9CDF9E8CCF8EA72
:10056300A2E7D2E7FAEB33FB13F5F0EEA2E7D2E70B
:10057300FEEF33FFC5F013A2E730E601B313C5F076
:10058300C3C0E0C0F07F00C39BFB605B9418600CAA
:10059300401AD0E023F9D0E0F80206748AF0E94863
:1005A3006003D2F0E4AFF0FAF9F8803BEB30E40DEE
:1005B30089F0EA6003D2F0E4AFF0F9CAF8EB30E374
:1005C3000D88F0EF6002D2F0AFF0E4CAC9F8EB5443
:1005D300076014FBC3EA13FAE913F9E813F8EF13FE
:1005E3005002D2E0FFDBEDD0E0C0E030E739C3E4F6
:1005F3009FFFF5F0EC98FC42F0ED99FD42F0EE9A86
:10060300FE42F0D0E0F9D0E0F8E5F0607AE923F9B2
:10061300EE20E742D8028067C3EF33FFEC33FCEDF3
:1006230033FDEE33FE80EAEC28FCED39FDEE3AFEB5
:10063300D0E023F9D0E0F84002801BC3EE13FEEDB7
:1006430013FDEC13FCEF135002D2E0FF08B80006D1
:100653007F7F74FF802EEF3350178CF020F0026001
:10066300100CBC000C0DBD00080EBE000408E860B1
:10067300DFE933E813FFEE2313FE4F4D4C8008E907
:100683005480FFE4FEFDFCEE33EF33F47004FCFD15
:100693007E80D0E0FBD0E0FAD0E0F8D0E0CFC618FF
:1006A300CEC618CDC618CCC6F922E4CFC0E0E4CE3E
:1006B300C0E0E4CDC0E0E4CCC0E075F020C3E63395
:1006C300F608E633F608E633F608E633F6181818A4
:1006D300EC33FCED33FDEE33FEEF33FFC3EC970950
:1006E300ED9709EE9709EF97191919400FFFEC974A
:1006F300FC09ED97FD09EE97FE191906D5F0BEEC3E
:10070300F709EDF709EEF709EFF7191919D0E0FC2E
:10071300D0E0FDD0E0FED0E0FF22E4C396F608E48B
:1007230096F608E496F608E496F622E026F608A381
:10073300E036F608A3E036F608A3E036F622E0F644
:1007430008A3E0F608A3E0F608A3E0F622E6F00823
:10075300A3E6F008A3E6F008A3E6F022E0FAA3E09C
:10076300FBA3E0FCA3E0FD22EAF0A3EBF0A3ECF093
:10077300A3EDF022CAC0E0E6F0A308DAFAD0E0FA6B
:1007830022B90010BB0008E88AF084F8AAF022E43A
:10079300FBC8FA22EB70227B10C833C8C933C933B4
:1007A3005007C39AC3DBF280069A50012ADBEAC8DA
:1007B30033F4C8C933F4C9FA2275F008E4C833C85E
:1007C300C933C933C99AC99B5004C92AC93BD5F057
:1007D300ECFBC833F4C8E4C9FA22700422600D1894
:1007E300C6C333C608C633C6D5E0F4182225101095
:1007F300AF08F510400215118008F51040021511DD
:10080300D2AF22C0D0251010AF08F5105002051149
:100813008008F51050020511D2AFD0D0222510F573
:100823008210AF08F510400215118008F510400240
:100833001511D2AF851183222510F582E43511F508
:100843008322E4732510C582C0E0E51134FFC5831C
:10085300C0E0E510C3958224F910AF0885831185A4
:1008630082108008858311858210D2AFCEF0A3E574
:1008730020F0A37808E608F0A3DEFAEFF0A3E58101
:1008830024FBF8E608F0A3E608F0A30808E608F05E
:10089300A3E608F0A315811581D0E0FED0E0F8159A
:1008A300811581E8C0E0EEC0E022851183851082C6
:1008B300E0A3FEE0A3F5207808E0A3F608DFFAE062
:1008C300A3FFE0A3C0E0E0A3C0E0E0A3C0E0E0A397
:1008D300C0E010AF088582108583118008858210DF
:1008E300858311D2AFD083D08222C0D02510C58298
:1008F300C0E0E51134FFC583C0E0E510C395822451
:10090300F310AF08858311858210800885831185D4
:100913008210D2AFC8F0A3E9F0A3EAF0A3EBF0A3EF
:100923007908E709F0A3D8FAECF0A3EDF0A3EEF011
:10093300A3EFF0A3D0E0F0A3D0E0F0A3D0E0F0A3C6
:10094300E520F0A3E5F0F0A322851183851082E072
:10095300C0E0A3E0F9A3E0FAA3E0FBA37808E0F684
:1009630008A3DFFAE0FCA3E0FDA3E0FEA3E0FFA3FE
:10097300E0C0E0A3E0C0E0A3E0F5D0A3E0F520A34E
:10098300E0A3F5F010AF08858311858210800885F8
:100993008311858210D2AFD082D083D0E0F8D0E02B
:1009A3003274028000C0E0F404120820D0E0120781
:1009B3007722C082C083120D66D2AF79017A7D7B24
:1009C30001120D2F90017DE0C2E7F06405703D79BF
:1009D300057A7E7B01120D2FA3E0A2E55004D2F02D
:1009E3008002C2F0A2F0E433900282F0900182E030
:1009F300A2E74003020A96900180E0F8900101E02B
:100A0300686003020A96A37401020A95E024F59034
:100A1300027FF090017DE0F97A7E7B01120D2FA316
:100A2300E0A2E55004D2F08002C2F0A2F0E43390D9
:100A33000282F0900185120C2690027BE8F0A3E974
:100A4300F09002807487F0A37401F090027FE0F8C5
:100A53003395E0F9748728F8740139F9888289831A
:100A6300E0900283F088828983A3E0A2E7501C9080
:100A7300027AE0F8900180E068601090017EE05413
:100A8300DF644170069002847401F0900180E0906D
:100A9300027AF0C2AF120D76020D61C082C0838A62
:100AA300828B83120CE3E96401700479018075C2BF
:100AB300AFA882A983900108E8F0A3E9F09002802F
:100AC300E4F0A3F090010304F090029412075F9006
:100AD300010412076B75F005900108120E31A3A3F0
:100AE300A3A3E0A424D490618FF0900109120E38DF
:100AF300120C26E8906174F0E9A3F0900108E0F885
:100B0300A3120C1DE8906172F0E9A3F0E5A8F8C206
:100B1300AF9001FD74B5F0A37409F0E8A2E792AFBA
:100B2300D2AF7900020D6174F6120847EAFEEBFFBB
:100B33008C088D09890A900103E0700675E1EC7554
:100B4300E1E3E9C394674003750A67906193E05456
:100B53002270F8120D66740B250A90010AF0120C2C
:100B63002C90010B6004746180027441F0A37488BB
:100B7300F0900101E090010DF0900109120C1D901D
:100B8300010EE8F0A3E9F0A3EEF0A3EFF090010863
:100B9300120E31120C26900112E8F0A3E9F07A004C
:100BA30080218A82A882E50828F582E5093400F5C8
:100BB30083E0C0E0741428F58274013400F583D017
:100BC300E0F00AEAC3950A40D9740A250AF97A0AB9
:100BD3007B01120D06120D7675E1E9E591A2E15054
:100BE300FA7591FD120C2C600F900102E4F07A4A21
:100BF3007B02120C91E0600479008002790190017C
:100C030003E0700675E1EF75E1ECE9A2E0400690C0
:100C13000101E004F07F030208AD120E38A3A31212
:100C23000C2622E0F8A3E0F922900108120E35A366
:100C3300A3A3A3A3E022E5C65480F853BEFBE59D1E
:100C4300A2E550FAE59DA2E240F400740169700741
:100C5300744948F5C68005E9700288C6E5C6F8E51B
:100C63009E6870FB43BE0422E9F8E59EA2E64003BA
:100C7300790122E8700553C67F8008740168700308
:100C830043C680E5C6F9E59E6970FB790022EBC394
:100C930013FBEA13FAEAF8EBF9E824FFFAE934FF65
:100CA300FBE84960130000000000000000000000A2
:100CB30000000000000080DD2274F8120847EAFEFD
:100CC300EBFFEEF8EFF9E824FFFEE934FFFFE84914
:100CD30060097AE87B03120C9180E77F010208AD7B
:100CE300C082C083906189E04460F09061FA740926
:100CF300F09061B27415F09061AEE4F0120D767964
:100D030000805B74F712084775E1EE7591FD78007A
:100D130080108808EA2508F582EB3400F583E0F5B6
:100D2300D908E8C39940EB7F020208ADC082C083B3
:100D3300800DE5D98A828B83F0A3AA82AB8319E95C
:100D430070F0801A90029C12075F120F97D281D223
:100D53008190029C12075F120F97C281C281D083D8
:100D6300D08222C082C0839061A3E0C2E6F0539A8E
:100D7300FE80EBC082C0839061A3E0D2E6F0439A89
:100D83000180DBC0E074F21208EDA2AFE433FEC2CF
:100D9300AFE5E9A2E650149001FD120E976006122A
:100DA3000E38120845759B0053E9BFEEA2E092AFDF
:100DB3007F0102094C7901120EF47902120EF479C3
:100DC30003120EF47904120EF47A327B00120CBC77
:100DD30080E3C0E074F11208EDC2C5E58960477E87
:100DE30000750801750900EE78081207DDAF08E504
:100DF300895F602BEEC333F8E433F974FF28F5827F
:100E03007401120E946014EEC333F8E433F974FFE3
:100E130028F5827401120E2E120845EFF452890E42
:100E2300EEC3940840BB7F0202094C39F583120ECE
:100E33003522E0F8A3E0F583888222C0E074F11242
:100E430008EDC2EBE58A60477E007508017509006D
:100E5300EE78081207DDAF08E58A5F602BEEC33337
:100E6300F8E433F9740F28F5827402120E946014B7
:100E7300EEC333F8E433F9740F28F5827402120ECB
:100E83002E120845EFF4528A0EEEC3940840BB803D
:100E93009539F583120C26E84922C0E074F1120853
:100EA300EDC2E8E58B60477E00750801750900EE29
:100EB30078081207DDAF08E58B5F602BEEC333F8CC
:100EC300E433F9741F28F5827402120E946014EE51
:100ED300C333F8E433F9741F28F5827402120E2E1B
:100EE300120845EFF4528B0EEEC3940540BB020E7D
:100EF30029C082C083E914600B14600D14600F14C1
:100F0300601180196380048014638008800F6390EC
:100F130010800A638002900229E06401F0020D61EF
:100F230074F112084774FC1207F08A0C8B0D8C0EB7
:100F33008D0F740212083BE4F0A380228510828592
:100F43001183120F8EF0851082851183C3E09417ED
:100F5300A3E0940240E6740212083B120F8EF07471
:100F63000212083BE0F508A3E0F509E4F50AF50BE6
:100F7300780C79081201B4500B851082851183E433
:100F8300F0A380C17404120806805AE02401F0A380
:100F9300E034002274F11208478A0C8B0D8C0E8DFD
:100FA3000F7A0080010A8A08E4F509F50AF50B783F
:100FB3000C79081201B440ED802B74F11208478AB2
:100FC300088B098C0A8D0B85080C85090D850A0E83
:100FD300850B0F900298780812072EE50C450D45F6
:100FE3000E450F70E27F080208AD53F3FD43FD0287
:100FF3002253F3FD53FDFD538FFD2253F3FE43FDB7
:10100300012253F3FE53FDFE538FFE22C082C083A1
:10101300120FFE120FEDD280D28090029C12075F56
:10102300120F97D281D281C280C280020D54C08236
:10103300C083120FFE120FEDC281C28190029C1277
:10104300075F120F97C280C280D281D28190029C27
:1010530012075F120F97D280D280020D61C082C047
:1010630083120FEDC281C281120FFEC280C28002C1
:101073000D47C082C083120FED121082020D47C2CA
:1010830081C281120FFED280D28022EEC0E07E00A8
:10109300120FED1210861210057808EEC333FED23C
:1010A30081D281A2805003D2E0FEC281C28118E8BE
:1010B30070E9121086EEF9D0E0FE2274F8120847A8
:1010C300E9FE120FED120FFE7808EEA2E75006D2EA
:1010D30080D2808004C280C280D281D281C281C288
:1010E30081C333FE18E870E2121005D281D281E584
:1010F30080FF121082EFA2E0E433F97F010208AD12
:1011030074F112084712119179E312119D8009902D
:1011130002A012075F120FBDA28150F31211B01289
:1011230001C49002A4780C1207417808790C1203C9
:10113300169002A8780C1207417808790C120496CD
:1011430090022A780812075012119179E512119D25
:1011530080099002A012075F120FBDA28150F31203
:1011630011B01201C49002AC780C120741780879CF
:101173000C1203169002B0780C1207417808790C10
:1011830012049690022E7808120750020FE8120FED
:10119300ED12100F79801210BE221210BE12100F22
:1011A30079811210BED281D281120FF42212108ED5
:1011B300E9FE12106012108EE9F508121075121074
:1011C30031120FEDEEF9E50854FCF508E9F509E4F1
:1011D300F50AF50B780822C082C083D295D2949089
:1011E30002B412075F120F23C2959002B412075F75
:1011F300120F23C2949002B412075F120F23020D41
:1012030061C082C083C295D2949002B412075F1268
:101213000F23D29580D474F8120847E9FF8F08C2D0
:1012230095C2947E08C294E508A2E05004D295804A
:1012330002C2959002B412075F120F23D294E508FD
:10124300C313F5081EEE70DDC294C2950210FE743E
:10125300F2120847890EEAFEEBFF8C087401650859
:10126300700575090B802774026508700575090CF4
:10127300801C740365087010EEF8EFF97A0A7B009E
:10128300120784EAF50980067404650860EAC3EE70
:1012930094E9EF94034039EEF8EFF97AE87B03120F
:1012A3000784E8F50BEEF8EFF97A647B0012078404
:1012B3007A0A7B00120784EAF50AEEF8EFF97A0A54
:1012C3007B001207847A0A7B00120784EAFE802DD2
:1012D300C3EE940AEF9400401CEEF8EFF97A0A7B10
:1012E30000120784E8F50BEEF8EFF97A0A7B001297
:1012F3000784EA8004750B00EEF50A7E0AD295D2C4
:10130300941211DA79401212191212041211DAA985
:101313000E121219850B0C7486250C121346121328
:10132300428E0A12134285090A1213421212041240
:1013330011DA798C1212191212047F070208AD74A4
:1013430086250AF58274023400F583E0F912121936
:101353002274F31208479002627407F0A37420F01A
:10136300A37419F0A37401F090026074EFF0A374F6
:10137300BEF07A607B02120A9EE964017003120DCB
:10138300B8900103E4F075E1EF75E1EC12110390FD
:10139300022A12075F12022185080C85090D7C01C0
:1013A300AA0CAB0D79C01212529002B812075F1249
:1013B3000F2390022E12075F12022185080A850966
:1013C3000B7C02AA0AAB0B79C01212529002B8121C
:1013D300075F120F23780A1209A4780C1209A47C60
:1013E300667D027A427B02121E5F7404120806793C
:1013F3001E7C427D027A207B25120B2A75081E75FE
:10140300090078081209A47C007D007A427B02124D
:101413001ED5740212080602138F7900120C6BE9B1
:1014230060107901120C397900120C6BE960031218
:101433000DB87900120C39D2AF53F3FC43FD0353BB
:10144300F4CF43FE30120CE3E964017003120DB8CC
:1014530002135474F112084774B41207F085108212
:10146300851183EAF0A3EBF0741012083BECF0A3B0
:10147300EDF0740B12083BE4F0A38022745B1208B6
:101483003B121D12740412083BE0F9741012083B5E
:10149300121D22120845740B12083B121E00F01293
:1014A3001D2BFA121DE612083BEAF074256A60153B
:1014B300E070C9740B12083B121D12744C1208061B
:1014C3007F080208AD121D2B6425701985108285D3
:1014D3001183E0240108121DCD745B12083B121D19
:1014E30012792580A6740F12083BE4F0740E1208DB
:1014F3003BE4F0740812083BE4F0740712083BE481
:10150300F0741A12083BA882A983740212083B8064
:1015130015740712083BE07007740712083BEAF0E2
:10152300851082851183121DD8121D9DFAA3E0F543
:10153300838A82E0FA24E060D824FD601724F860EF
:10154300D824FE600624FD600F8011740812083B46
:10155300E00480CB740E80F5740F80F185108285D2
:101563001183121D98642A7045745D12083B121D85
:1015730098FAA3E0FB8A828B83E0FEA3E0FFEA24D0
:10158300020A0AEB3400FB745D12083B121D6EC3A2
:10159300EF121D665013C3E49EFAE49FFBEAFEEBD1
:1015A300FF740812083BE004F0121DD2803F7E0056
:1015B3007F00802BEE75F00AA4FEA8F075F00AEF09
:1015C300A428FFE5082EF8E43FF9E824D0FEE93427
:1015D300FFFF851082851183E02401F8121DCD12CF
:1015E3001D2BF50874D02508C3940A40C77408124C
:1015F300083BE06007740F12083BE4F0121D2B64F4
:101603002E6003021696851082851183121D0885AC
:101613001082851183E8F0A3E9121E18642A702E44
:10162300745D12083B121D43F988828983121D12CF
:10163300740512083BEAF0A3EBF0E824020808E97A
:10164300121CE412083B121D4A121E1F804E740521
:1016530012083BE4F0A3121E18F50874D02508C342
:10166300940A5039740512083B121D0175F00AA43F
:10167300F8AAF075F00AE9A42AF9E50828F8E4398C
:10168300F9E824D0F8E934FFF9740512083B121E77
:101693001F80C3740512083B74FFF0A3F07A001295
:1016A3001D9DFBA3E0F5838B82E024B4600824E452
:1016B300600524FC70040A121DD2121D2BFB121D9F
:1016C300E612083BEBF07003021B8E24BB7003028F
:1016D3001B5924FE7003021B5924EF700302189F49
:1016E30024F5700302177E1470030219301470037B
:1016F300021B59147003021B59147003021B592453
:10170300FE700302193024FB602414700302188155
:1017130014700302189F24FD70030217BB24FE708C
:101723000302189F24FD700302189F021B9A745D25
:1017330012083B121DB8740B503012083BE0FCA397
:10174300E0FD3395E0FE850C82850D83121D22ECAE
:10175300F0A3EDF0A3EEF0A3F0745D12083B121DAD
:10176300BF12083B121D570214A112083B121CFBA7
:10177300850C82850D83121D5780DD745D12083B35
:10178300121D43F5838882E0C0E0741A12083BD02F
:10179300E0F0745D12083B121DBF12083B121D4A94
:1017A300121DD8741B12083BA882A983740912085E
:1017B3003BE8F0A3E9021BB1745D12083B121D8ADA
:1017C300850C82F583121CFBE50C2402FAE50D342B
:1017D30000FB745D12083B121D6E740212083B126B
:1017E3001DD8E849700C740212083B74CDF0A37441
:1017F30002F0740512083B121D5F500C74051208A9
:101803003B7410F0A37427F0750800750900800C71
:10181300E5082401F508E5093400F5097402120806
:101823003B121CFB88828983A3AA82AB83740212B6
:10183300083BEAF0A3EBF088828983E06016740525
:1018430012083B121CFBC3E50898E50999A2D2656F
:10185300D03340BC740212083B121D7C7409120879
:101863003B121DD8C3E49508F8E49509F9740912ED
:10187300083BE028F8A3E039F974020217B1740EAB
:1018830012083BE06016740512083B121D014970F3
:101893000B740512083B7401F0A3E4F0745D1208A5
:1018A3003B121D8A740412083BE064707035850C8A
:1018B30082850D83121D12741212083B121E091227
:1018C3001CE112083B121D4A121DD8900303120794
:1018D3005F741612083B12076B740712083BE4F09F
:1018E3000219AAEAA2E0850C82850D835011120722
:1018F3005F741212083B12076BE50C2404800B1271
:101903001D12741212083B121E09121CE112083B2D
:10191300121D4A121DF312083BE0646F7005900319
:101923000780ABE0647570A390030B80A1745D1214
:10193300083B121DB8850C82850D83500B78081265
:101943000741E50C24048012E0F508A3E0F5093310
:1019530095E0F50AF50BE50C2402121CE112083B95
:10196300121D4A121DDE12083B780812075090021E
:1019730094780812018E4021740712083B742DF0ED
:10198300741212083B7808120741780812071D7475
:101993001212083B780812075090030B12075F746A
:1019A3001612083B12076B744B12083BA882A983DB
:1019B300740212083B121DD8740912083B121DDE73
:1019C30012083B7808120741E5084509450A450B0B
:1019D3006009740D12083B74018006740D12083BF4
:1019E300E4F0740512083B121D0149700D740D12C9
:1019F300083BE0A2E04003021AC3740212083B1240
:101A03001D7C740212083B121DDE12083B780C1277
:101A13000741741612083B7808120741780C7908BD
:101A23001206AD74BC2508F58274023509F583E00E
:101A3300C0E0740212083B121D22D0E0F0741212AF
:101A4300083B780C120741741612083B78081207FA
:101A530041780C79081206AD741212083B780C1207
:101A63000750741212083B7808120741E50845092C
:101A7300450A450B7084740512083B121D5F5040E4
:101A8300740F12083BE06038740712083BE06004EF
:101A9300D2F08002C2F0A2F0E433F8EE98F8EF94AB
:101AA30000F9740512083BE8F0A3E98012740212EE
:101AB300083B121DD8740212083B121D227430F029
:101AC300740212083B121D7C744B12083BC082C087
:101AD30083740212083B121D12D083D082E582C3A5
:101AE3009AFCE5839BFD740512083B121D12C3EC9F
:101AF3009AED9BA2D265D03340B3740E12083BE03B
:101B03007003021BB2740D12083BE0A2E040030213
:101B13001BB2740412083BE064786005E0645870FB
:101B230022E088828983F0E824FF18E934FFF974FE
:101B33000212083B121DD8740212083B121D2274B4
:101B430030806BE0646F7067740212083B121D985B
:101B53006430605B80D9740212083B74DCF0A374B8
:101B630002F0740912083B74DCF0A37402F07409E8
:101B730012083B121D316037740912083B121D080D
:101B8300740912083BE8F0A3E980E285108285110D
:101B930083121D81121DD1740212083B74FFF0A33E
:101BA3007402F0740912083B7402F0A37403F07416
:101BB3000912083BC082C083740212083B121CFB4B
:101BC300D083D082E0C398F8A3E099F97405120892
:101BD3003B121DD8740512083BE0F8C3EE98EF9949
:101BE300A2D265D0335008750800750900802374AC
:101BF3000712083BE06004D2F08002C2F0EEC39803
:101C0300F8EF99F9A2F0E433FAE89AF508E99400B9
:101C1300F509740812083BE070208019745B120800
:101C23003B121D1812083B121D22120845740B1299
:101C3300083B121DFB121CEA50E2740712083BE03A
:101C43006056745B12083B121D12740712083BE0C6
:101C5300F9741012083B121D221208458032745B7E
:101C630012083B121D12740212083B121D31F97443
:101C73001012083B121D22120845740212083BE0A1
:101C83002401F8A3E03400F9740212083B121DD8B2
:101C9300740B12083B121DFB740512083BE024FF72
:101CA300F0A3E034FFF0740512083B121D5F50AE41
:101CB300740812083BE070030214A2121CEA5003DA
:101CC3000214A2745B12083B121D1812083B121D6A
:101CD30022120845740B12083B121DFB80DDF8E548
:101CE3000D3400F9745D22E50824FFF508E5093495
:101CF300FFF509C3121D6622E0F8A3E0F922E0F81C
:101D0300A3E0F9E822E0240108A3E03400F922E08B
:101D1300FAA3E0FB22E0FAA3E0FB7920741022E0AF
:101D2300F8A3E0F583888222851082851183121D32
:101D33003522121D3922E0F8A3E0F5838882E022E0
:101D4300121D35F8A3E022121D4E22E0FAA3E0F59E
:101D5300838A8222121D4EE8F0A3E922C3A3E01274
:101D63001D66229400A2D265D03322E0FCA3E0F5E5
:101D7300838C82EAF0A3EBF022121D81F922E02486
:101D8300FFF8A3E034FF22121D8E22121D39F50C39
:101D9300A3E0F50D22121D4EE022851082851183EA
:101DA300E0121DA9E0222401F8A3E03400F9851014
:101DB3008285118322121D8EEAA2E022121D352490
:101DC30002F8A3E03400F9745D22A3E03400F9853E
:101DD3001082851183E8F0A3E9F022E8F0A3E9F08B
:101DE300741222851082851183E0240108121DAC30
:101DF300E8F0A3E9F0740422121E00F022E02401AB
:101E0300F0A3E0340022EAF0A3EBF0A3E4F0A3F0A4
:101E1300E50C240222121E2E121D3A22E8F0A3E939
:101E2300121E2E121DA9E8F0A3E922F08510828567
:101E33001183E022C082C0838A828B83121ECCE985
:101E4300F08A828B83E02401FCA3E03400FD8A82C4
:101E53008B83ECF0A3EDF0D083D0822274F71208C9
:101E63004774FC1207F0740212083BEAF0A3EBF08C
:101E7300ECFAEDFB740D12083BA882A9838510824E
:101E8300851183E8F0A3E9F08510828511838582AB
:101E93000885830978081209A4740412083B858213
:101EA3000885830978081209A47C377D1E1214560D
:101EB3007404120806740212083B121ECCE4F07478
:101EC300041208067F020208ADE0F8A3E0F5838858
:101ED300822274F8120847740812083BE0F8A3E062
:101EE300F98A828B838003ECF0A3E8FEE9FFEE24FA
:0F1EF300FF18EF34FFF9EE4F70ED7F010208ADDD
:04000005000000D324
:00000001FF
