:020000040800F2
:10000000E80A0020CD010008951E0008911E000896
:10001000931E00080D040008E52D000800000000F4
:10002000000000000000000000000000E1270008C0
:10003000FD04000800000000B71E0008E3270008C8
:10004000E7010008E7010008E7010008E7010008F0
:10005000E7010008E7010008E7010008E7010008E0
:10006000E7010008E7010008E7010008E7010008D0
:10007000E7010008E7010008E7010008E7010008C0
:10008000E7010008E7010008E7010008E7010008B0
:10009000E7010008E7010008E7010008E7010008A0
:1000A000E7010008E7010008E7010008E701000890
:1000B000E7010008A9280008E7010008E701000897
:1000C000E7010008E7010008E7010008E701000870
:1000D000E7010008A92D0008E7010008E701000872
:1000E000E7010008E7010008E7010008E701000850
:1000F000E7010008E7010008E7010008E701000840
:10010000E7010008E7010008E7010008E70100082F
:10011000E7010008E7010008E7010008E70100081F
:10012000E7010008E7010008E7010008E70100080F
:1001300000F002F800F03AF80AA090E8000C8244BF
:100140008344AAF10107DA4501D100F02FF8AFF29C
:10015000090EBAE80F0013F0010F18BFFB1A43F0A5
:10016000010318479C380000BC380000103A24BF37
:1001700078C878C1FAD8520724BF30C830C144BF0C
:1001800004680C607047000000230024002500264E
:10019000103A28BF78C1FBD8520728BF30C148BFEA
:1001A0000B6070471FB51FBD10B510BD00F07CF887
:1001B0001146FFF7F7FF02F03FFE00F09AF803B494
:1001C000FFF7F2FF03BC02F00EFE00000948804773
:1001D00009480047FEE7FEE7FEE7FEE7FEE7FEE729
:1001E000FEE7FEE7FEE7FEE704480549054A064B41
:1001F000704700005928000831010008E804002079
:10020000E80A0020E8060020E806002070474FF0CA
:1002100000020429C0F0128010F0030C00F01F80CF
:10022000CCF1040CBCF1020F18BF00F8012BA8BFE1
:1002300020F8022BA1EB0C0100F011B85FEAC17CA1
:1002400024BF00F8012B00F8012B48BF00F8012B58
:10025000704770477047704770474FF0000200B515
:10026000134694469646203922BFA0E80C50A0E8D9
:100270000C50B1F12001BFF4F7AF090728BFA0E887
:100280000C5048BF0CC05DF804EB890028BF40F853
:10029000042B08BF704748BF20F8022B11F0804F95
:1002A00018BF00F8012B7047754600F02BF8AE46DA
:1002B00005006946534620F00700854618B020B572
:1002C000FFF792FFBDE820404FF000064FF0000717
:1002D0004FF000084FF0000B21F00701AC46ACE8EE
:1002E000C009ACE8C009ACE8C009ACE8C0098D465B
:1002F000704710B50446AFF300802046BDE81040BB
:10030000FFF75DBF004870478404002070B50446C5
:1003100000688168C943C9071BD1816821F00101C8
:10032000816000F07DFD05460EE000F079FD401B88
:10033000022809D9A06A40F01000A062E06A40F0EB
:100340000100E062012070BD20688068C043C007E2
:10035000EBD0002070BD0000F8B5002604460096E2
:1003600000688168C943C90727D0816841F001014D
:100370008160134813490068B0FBF1F000E0401EB3
:1003800000900028FBD100F04BFD054610E000F086
:1003900047FD401B02280BD9A06A40F01000A06264
:1003A000E06A40F00100E06284F824600120F8BDBA
:1003B00020688068C043C007E9D10020F8BD000074
:1003C0000400002040420F0000B587B002200090DA
:1003D00080030290684600F013FE0B480949012291
:1003E0000160002141608160C0E9031241618161C7
:1003F0004FF46021C16100F03DFA034800F01EF99E
:1004000007B000BD0024014050000020FEE70000BE
:1004100070B50E46002220B11EB105460020094CE1
:1004200009E04FF6FF7070BD295C90B202F0DCFC71
:1004300002B2A089401CA08180B2B042F4DB90B22D
:1004400070BD0000400000202DE9F043DFF8A090CF
:100450000127284CD9F80010B1F5004F03D0E77000
:10046000E078BDE8F083244E4FF0000884F8038064
:10047000B17981422DD106F5D27530792871707924
:100480006871A971F079317A01EB00202881707AC6
:10049000A8720A2003E0315C2A18401C5170E080E9
:1004A000A97A80B20A318142F5D8A97A1248124A53
:1004B0000A300B32085C8A5C0A3102EB0020A5F896
:1004C000D4000D48FFF7A4FF2081B5F8D420824264
:1004D00000D0E7704146A4F80680E0883154401C03
:1004E00080B2E080C828F8D3C9F80010B8E700004F
:1004F0003800002040000020040200207047000067
:100500002DE9F04101F0E6FE3221002000F068F80C
:10051000204D214F0446A880386803F0FBF90646B9
:100520001E480670786803F0F5F902461C481D491C
:100530001E4F0270200A08704C701B490E704A70E2
:100540008870CC703868502801D3697899B1A02898
:1005500002D36978012913D0F0280AD368780228D9
:1005600007D103222146C02002F07EFC0020386023
:100570006870BDE8F08101206870B1B2024603E006
:10058000022091B268700246BDE8F041C02002F03E
:100590006BBC00003000002080000020D80000204C
:1005A000E2000020EC000020F60000203C000020CB
:1005B0000EB569460090012001900720029007487F
:1005C00000F0A0F8054800F0BFFA0A21034800F047
:1005D00023FA024800F04AF980B20EBD5000002014
:1005E00070B5154C06460020C4E902000D46207087
:1005F000C0B2A84210D23046FFF7DAFF02F08FFFF8
:10060000D4E9022302F05EFDC4E90201052000F0F6
:10061000FBFA2078401CEAE7284602F080FF0246F9
:100620000B46D4E9020102F0F5FDC4E9020102F033
:1006300049FF80B270BD000010000020F8B5002610
:100640000446009690F82400012808D0012084F880
:1006500024002046FFF75AFE070002D04BE002209C
:10066000F8BDA06A20F4885040F00200A062022089
:1006700000F046FC22490968B1FBF0F0400000E0C0
:10068000401E00900028FBD12046FFF765FE206841
:10069000816841F00801816000F0C2FB054604E07A
:1006A00000F0BEFB401B0A2811D8206880680007B4
:1006B000F6D42068816841F00401816000F0B0FB4D
:1006C00005460EE000F0ACFB401B0A2809D9A06AE1
:1006D00020F0020040F01000A06284F824600120A5
:1006E000F8BD206880684007ECD4A06A20F00200C2
:1006F00040F00100A06284F824603846F8BD000094
:1007000004000020F8B50023009390F824209E46B2
:10071000012A1ED0012280F824204A681F254FF4A8
:100720007874072A17D20668776B94FAA4FCBCFA8F
:100730008CFC521E02FB0CFC05FA0CF5AF4394FA3C
:10074000A4F4B4FA84F40D68624395402F437763B0
:100750002DE00220F8BD06680D2A14D2376B94FAFA
:10076000A4FCBCFA8CFCD21F02FB0CFC05FA0CF5B5
:10077000AF4394FAA4F4B4FA84F40D68624395404C
:100780002F43376313E0F76A94FAA4FCBCFA8CFC9D
:100790000D3A02FB0CFC05FA0CF5AF4394FAA4F4F5
:1007A000B4FA84F40D68624395402F43F7620A68F7
:1007B0003825072604680A2A14D3E76895FAA5FCA9
:1007C000BCFA8CFC0A3A02FB0CFC06FA0CF6B743A6
:1007D00095FAA5F5B5FA85F58E686A4396403743D4
:1007E000E76012E0276995FAA5FCBCFA8CFC02FBD5
:1007F0000CFC06FA0CF6B74395FAA5F5B5FA85F5A3
:100800008E686A439640374327610A68102A01D0F0
:10081000112A20D1124C0268A24217D194682402F6
:1008200019D4946844F4000494600968102912D122
:100830000C490D4A0968B1FBF2F101EB8101490055
:1008400000E0491E00910029FBD104E0816A41F0DB
:1008500020018162012380F824E01846F8BD0000E1
:10086000002401400400002040420F000068C06CDA
:10087000704700002DE9F04104004FF0000513D04F
:10088000A06A002628B9E66284F82460204600F0B9
:100890009FF82046FFF73AFDA16AC90600D420B1AF
:1008A000A06A40F01000A06289E0A16A21F488519A
:1008B00041F00201A16243492368E2698B4204D1FD
:1008C000B2F5402F01D14FF40022022191FAA1F19B
:1008D000D4F80CC0B1FA81F10CFA01F10A43616855
:1008E0004FF480770A43A168B94208D0012906D0A5
:1008F0000021D4F814E0BEF1010F02D010E0394617
:10090000F7E7BCF1000F21D0D4F828C04CF0200C40
:10091000C4F828C0D4F82CC04CF0010CC4F82CC08A
:10092000D3F804C02CF4694C4CEA010CC3F804C0A1
:1009300021688B68DFF890C003EA0C0313438B60D7
:10094000A168B94213D0012911D019E04FF4604ECB
:10095000D4F818C09EFAAEFEBEFA8EFEACF1010CC1
:100960000CFA0EFC4CEA010C4CF40061D8E74FF491
:100970007001256991FAA1F1B1FA81F16D1E8D40E6
:100980002168CB6A23F470032B43CB62216889680A
:100990000E4B1940914208D1E662A16A21F0020192
:1009A00041F00101A162BDE8F081A06A20F00200DF
:1009B00040F01000A062E06A40F00100E062012017
:1009C000F1E70000003C0140FDF7E1FFFE0E1FFFD4
:1009D0000F4800B5816985B041F40071816181697A
:1009E00001F400710491816941F004018161806921
:1009F000694600F00400049001200090032001905B
:100A000000200290034800F00BF905B000BD000083
:100A100000100240000801402DE9F8434FF00008A3
:100A20000D460446CDF8008000F0FAF9064620682D
:100A30008168C90508D5A06A40F02000A06284F84A
:100A400024800120BDE8F8834168C90503D4C06A49
:100A500010F4700F25D0022000F052FA37490968CF
:100A6000B1FBF0F720680169354A11424FEA620292
:100A70004FEAA2131AD1C1684FEA621C11EA0C0FA7
:100A800014D10169114220D1C06818421DD114202F
:100A90001EE0681C05D035B300F0C2F9801BA842E7
:100AA00021D8206800688007F3D529E00169114248
:100AB00002D1C168194206D0026922490A4206D110
:100AC000C068084203D1542002E0292000E0FC2045
:100AD0004743009812E0681C0DD025B100F0A0F942
:100AE000801BA84207D9A06A40F00400A06284F8E5
:100AF00024800320A6E70098401C0090B842EAD367
:100B000021686FF012000860A06A40F40070A062D3
:100B100020688068C0F3424007280CD1E06850B9D3
:100B2000A06A20F48070A062A06AC00403D4A06A06
:100B300040F00100A062002084E7000004000020D3
:100B4000244992244992240070B5044690F8240068
:100B500001280DD0012084F824002046FFF7FCFB7B
:100B600001004FF0000205D084F82420084670BD33
:100B7000022070BDA06A40F20123984340F48070C7
:100B8000A0621F4D20681F4BA84218D11E6816F4A2
:100B9000702F14D0A66A46F48016A6621E687605E9
:100BA00005D5A66A26F4005646F48056A662A66AC3
:100BB000F6040AD5E66A26F00606E66206E0A66AAC
:100BC00026F48016A6624668E9E7E26284F82420EB
:100BD0006FF00202026020688268C2F34242072A74
:100BE00005D1A84208D11A6812F4702F04D0826887
:100BF00042F480128260B9E7826842F4A002F9E709
:100C0000002801400424014031B500F009F90446F0
:100C100000F006F90099001B8842F9D338BD0000A6
:100C20002DE9F84FDFF8BC91002309F1040A0AF11D
:100C3000040B1C464FF00F080BF1040E01270A6845
:100C4000A7403A40BA4272D1DFF89CC14D68A5EB8B
:100C50000C0665452BD00DDC032D34D005DC35B3F7
:100C6000012D19D0022D2FD11BE0112D16D0122DE0
:100C70002AD119E0B6F5881F19D006DCB6F5803FF9
:100C800015D0B6F5801F1FD111E0B6F5001F0ED0AC
:100C9000B6F5041F18D10AE0CB6815E0CB681B1D20
:100CA00012E0CB6808330FE0CB680C330CE08B68A4
:100CB0002BB1012B4FF0080303D0476104E004235C
:100CC00002E0076100E00023FF2A01D8064601E0A8
:100CD00000F104064FEA840501D9A5F12005376823
:100CE00008FA05FC27EA0C0703FA05F547EA0507A9
:100CF00037604D68ED006ED53C4DAE6946F001069B
:100D0000AE61AD6924F0030605F001050095384D8C
:100D10007719BE68A5072D0F08FA05FC26EA0C0610
:100D2000DFF8D0C0604503D14FF0000C25E052E061
:100D3000DFF8C4C0604502D14FF0010C1DE0DFF8C0
:100D4000BCC0604502D14FF0020C16E0DFF8B0C025
:100D5000604502D14FF0030C0FE0DFF8A8C06045FA
:100D600002D14FF0040C08E0DFF89CC0604502D1CE
:100D70004FF0050C01E04FF0060C0CFA05FC4CEAB4
:100D8000060CC7F808C04D68D9F80060ED034D4661
:100D900001D5164300E096432E604D68DAF80060F6
:100DA000AD03554601D5164300E096432E604D68CD
:100DB000DBF80060ED025D4601D5164300E0964386
:100DC0002E604D68DEF80060AD02754601D5164311
:100DD00000E096432E60641C102CFFF42FAFBDE89A
:100DE000F88F0000000401400000111000100240C4
:100DF0000000014000080140000C014000100140CB
:100E00000014014000180140001C014080680840A7
:100E100000D0012070470AB1016170470904FBE767
:100E2000014800687047000008000020024801687F
:100E3000491C01607047000008000020074810B5F9
:100E4000016841F010010160032000F047F80F2015
:100E500000F006F800F015F8002010BD0020024058
:100E600010B5044600F022FA4FF47A71B0FBF1F0AD
:100E700000F05FFD00222146501E00F00FF8002018
:100E800010BD704700F01F02012191404009800011
:100E900000F1E020C0F8001170470000F0B40E4BE4
:100EA0001B68C3F30223C3F10704042C00D90424F4
:100EB0001D1D072D01D2002300E0DB1E012606FACE
:100EC00004F56D1E0D409D409E40761E164045EA7D
:100ED0000601F0BC00F0DFBF0CED00E0064A00F0B8
:100EE000070110684FF6FF03184040EA012003494C
:100EF00008431060704700000CED00E00000FA05A8
:100F000010B5014636A086B01DC88DE81D0038A07A
:100F1000384C006804900020042944D012DC0129D8
:100F200044D002293DD100F0DFF961684FF48042DE
:100F300092FAA2F201F44041B2FA82F2D140491C85
:100F400049002CE008292ED010292AD16168226896
:100F5000D20126D54FF4701292FAA2F201F4701069
:100F6000B2FA82F2D040C9031DF8000010D56168C2
:100F70004FF4003292FAA2F201F40031B2FA82F296
:100F8000D14004AA515C1C4AB2FBF1F1484301E094
:100F90001A4948436168490203D440000321B0FB69
:100FA000F1F006B010BD00F0B7F9FAE7216AC1F31D
:100FB0000122012A03D1890701D5D003F1E7022AD2
:100FC00005D1616A890702D549F64040E9E7032A5D
:100FD000E7D121688903E4D54FF22440E1E700001E
:100FE00002030405060708090A0B0C0D0E0F10106A
:100FF000010200000010024000127A0000093D00CA
:101000002DE9F84304460078454EC00773D0F069D7
:1010100040F08050F061F069424F00F08050009045
:10102000386840F480703860FFF7FAFE054604E047
:10103000FFF7F6FE401B642832D83868C005F7D5A4
:10104000306A10F4407050D0A18801F440718142A0
:101050004BD0306A01273B0493FAA3F1B1FA81F136
:101060008A00314920F440700A44C2F8007493FAAF
:10107000A3F3B3FA83F301EB83010022C1F8002448
:101080003062C00731D0FFF7CBFE054641F2883908
:101090004FF0020807E0FFF7C3FE411B494502D9A4
:1010A0000320BDE8F88398FAA8F0B0FA80F040F089
:1010B00040004146B7EB501F01D130680BE091FA78
:1010C000A1F0B0FA80F040F04000B1EB501F01D128
:1010D000306A00E0706A98FAA8F1B1FA81F101F083
:1010E0001F0207FA02F10842D5D0306A616820F485
:1010F0004070084330622078800705D57068A16889
:1011000020F44040084370602078C00605D5706820
:10111000616920F48000084370600020C1E700008E
:101120000010024000700040000042422DE9F047EC
:10113000DFF8688104460E46D8F8000000F007008A
:10114000B0420CD2D8F8001021F007013143C8F8A2
:101150000010D8F8000000F00700B04273D12078EA
:101160004F4F800705D57868A16820F0F00008434C
:1011700078602078C00755D06068012201280CD023
:10118000022828D0022393FAA3F1B1FA81F141F0A9
:101190002001490904D0396803E04FF40033F2E735
:1011A000796A93FAA3F3B3FA83F303F01F039A4027
:1011B000114248D0796821F0030101437960FFF7BB
:1011C0002FFE0546606841F2883101280CD00228C4
:1011D000894615D022E04FF00073D4E7FFF720FED8
:1011E000411B494501D916E089467868C0F3810062
:1011F0000128F3D116E0FFF713FE411B49450AD839
:101200007868C0F381000228F5D10BE0FFF708FEF3
:10121000411B494502D90320BDE8F087786810F0EA
:101220000C0FF3D1D8F80010404601F00701B1428D
:101230000BD9016821F0070131430160006800F01B
:101240000700B04201D00120E6E72078400705D52D
:101250007868E16820F4E06008437860207800074F
:1012600006D57868216920F4605040EAC1007860B2
:1012700000F052F87968F02292FAA2F201F0F0013F
:10128000B2FA82F2D140074A515CC8400649086070
:101290000F20FFF7E5FD0020BEE700000020024020
:1012A00000100240E83900080400002001480068EE
:1012B0007047000004000020084809490068496898
:1012C0004FF4E06292FAA2F201F4E061B2FA82F223
:1012D000D140044A515CC84070470000040000201F
:1012E00000100240F83900080848094900684968B8
:1012F0004FF4605292FAA2F201F46051B2FA82F213
:10130000D140044A515CC8407047000004000020EE
:1013100000100240F839000810B519A085B00FC8B8
:101320008DE80F001AA01B4B0068049059681A48FA
:1013300001F00C02042A1DD0082A1BD14FF47014AE
:1013400094FAA4F401F47012B4FA84F4E240C903EC
:101350001DF8022010D559684FF4003393FAA3F317
:1013600001F40031B3FA83F3D94004AB595CB0FB0C
:10137000F1F0504305B010BD08485043FAE70000B3
:1013800002030405060708090A0B0C0D0E0F1010C6
:10139000010200000010024000127A0000093D0026
:1013A0002DE9F84F04460078FE4EC0074FF00105C6
:1013B0007FD070684FF40038C0F38100012807D057
:1013C0007068C0F3810002281BD17068C00318D573
:1013D00098FAA8F0B0FA80F040F02000400901D05F
:1013E000306800E0706A98FAA8F1B1FA81F101F072
:1013F0001F0105FA01F108425BD06068002879D02E
:1014000057E06068B0F5803F0BD010B1B0F5A02F69
:1014100011D0306820F480303060306820F48020B3
:1014200002E0306840F480303060606818B3FFF745
:10143000F7FC074609E0306840F480203060F0E7B0
:10144000FFF7EEFCC01B642870D898FAA8F0B0FA39
:1014500080F040F02000400901D0306800E0706A60
:1014600098FAA8F1B1FA81F101F01F0105FA01F132
:101470000842E5D01DE0FFF7D3FC074604E0FFF784
:10148000CFFCC01B6428DFD898FAA8F0B0FA80F02F
:1014900040F02000400901D0306800E0706A98FAFE
:1014A000A8F1B1FA81F101F01F0105FA01F108423A
:1014B000E5D12078DFF8F08280074FF0000A4FF086
:1014C00002075AD570684FF0F80B10F00C0F07D0D8
:1014D0007068C0F3810002281CD17068C00319D461
:1014E00097FAA7F0B0FA80F040F02000400902D04F
:1014F000306801E08AE0706A97FAA7F1B1FA81F1E9
:1015000001F01F0105FA01F108422BD020690128E2
:101510007CD127E0206988B395FAA5F0B0FA80F075
:1015200048F82050FFF77CFC814606E04DE1FFF7CC
:1015300077FCA0EB0900022886D897FAA7F0B0FA4A
:1015400080F040F02000400901D0306800E0706A6F
:1015500097FAA7F1B1FA81F101F01F0105FA01F143
:101560000842E4D030689BFAABF220F0F8016069E1
:10157000B2FA82F290400143316025E0FFE795FA2C
:10158000A5F1B1FA81F148F821A0FFF749FC8146A5
:1015900005E0FFF745FCA0EB09000228CCD897FA3C
:1015A000A7F0B0FA80F040F02000400901D0306888
:1015B00000E0706A97FAA7F1B1FA81F101F01F011A
:1015C00005FA01F10842E4D1207800076DD5A06941
:1015D000B8B395FAA5F0B0FA80F008EB8000C0F837
:1015E0008054FFF71DFC814605E0FFF719FCA0EBD6
:1015F00009000228A0D897FAA7F0B0FA80F040F0CE
:101600006000B5EB501F02D130680CE063E197FA3F
:10161000A7F0B0FA80F040F06000B7EB501F01D1A6
:10162000306A00E0706A97FAA7F1B1FA81F101F02F
:101630001F0105FA01F21042D7D00120FFF7E4FAAA
:1016400033E0FFE795FAA5F1B1FA81F108EB8101EA
:10165000C1F880A4FFF7E4FB814605E0FFF7E0FB5B
:10166000A0EB0900022899D897FAA7F0B0FA80F009
:1016700040F06000B5EB501F01D130680BE097FAE5
:10168000A7F0B0FA80F040F06000B7EB501F01D136
:10169000306A00E0706A97FAA7F1B1FA81F101F0BF
:1016A0001F0105FA01F21042D8D12078400763D516
:1016B000F06940F08050F061F069DFF8F0B000F0C0
:1016C00080500090DBF8001041F48071CBF80010DE
:1016D000FFF7A6FB814605E0FFF7A2FBA0EB0900A0
:1016E000642872D8DBF80000C005F5D5E068012851
:1016F0000AD008B1052813D0306A20F0010030620A
:10170000306A20F0040002E0306A40F001003062EC
:10171000E06841F2883B80B3FFF782FB81460AE034
:10172000306A40F004003062EEE7FFF779FBA0EB8F
:101730000901594549D897FAA7F0B0FA80F040F06E
:101740004000B5EB501F01D130680BE097FAA7F0CD
:10175000B0FA80F040F04000B7EB501F01D1306A82
:1017600000E0706A97FAA7F1B1FA81F101F01F0267
:1017700005FA02F10842D8D033E0FFE7FFF750FB4B
:10178000814605E0FFF74CFBA0EB090159451CD849
:1017900097FAA7F0B0FA80F040F04000B5EB501F88
:1017A00008D105E0001002400000424200700040F5
:1017B00030680CE097FAA7F0B0FA80F040F04000F3
:1017C000B7EB501F02D1306A01E08AE0706A97FAE5
:1017D000A7F1B1FA81F101F01F0205FA02F1084206
:1017E000D0D1E06998B37168C1F38101022972D048
:1017F00002284FF080714FF0007B50460AD091FADA
:10180000A1F1B1FA81F148F82100FFF709FB044684
:101810005F4669E08A4691FAA1F1B1FA81F1C146C9
:1018200048F82100FFF7FCFAA84607465D4604E0A9
:10183000FFF7F6FAC01B022853D895FAA5F0B0FAC4
:1018400080F040F02000400902D0306801E060E004
:10185000706A95FAA5F1B1FA81F101F01F0208FA58
:1018600002F10842E4D1206AB0F5803F05D17068EA
:10187000A16820F4003008437060D4E908010843EF
:10188000716821F47411084370609AFAAAF0B0FAF2
:1018900080F0474649F82080FFF7C2FA044604E08A
:1018A000FFF7BEFA001B02281BD895FAA5F0B0FA84
:1018B00080F040F02000400901D0306800E0706AFC
:1018C00095FAA5F1B1FA81F101F01F0107FA01F1D2
:1018D0000842E5D01DE01EE0FFF7A2FA001B022837
:1018E00002D90320BDE8F88F97FAA7F0B0FA80F08C
:1018F00040F02000400901D0306800E0706A97FA9B
:10190000A7F1B1FA81F101F01F0105FA01F10842D6
:10191000E2D10020E6E70120E4E74FF0E0210428CF
:10192000086903D020F004000861704740F004000B
:10193000FAE710B5401EB0F1807F01D3012010BD41
:101940004FF0E02460610F21601700F0A4FA00203E
:10195000A06107202061002010BD7047704710B5BE
:10196000040003D094F8390010B107E0012010BD45
:10197000002084F83800204600F00CF8022084F89B
:101980003900211D206800F0EBFF012084F83900A8
:10199000002010BD08B500680B49884212D10B48E1
:1019A000C16941F00201C161C069032200F0020077
:1019B000009001211D20FFF771FABDE808401D20AD
:1019C000FFF760BA08BD00000004004000100240AC
:1019D0000168CA6842F00102CA600068016841F00B
:1019E0000101016000207047704770B5044600682F
:1019F00001694FF00005C943890715D4C168C9437F
:101A0000890711D4E91E01610120207620688069D0
:101A10008007204602D0FFF7E7FF04E000F098F8C7
:101A2000204600F096F8257620680169C9434907E9
:101A300017D4C168C943490713D46FF00401016189
:101A4000022020762068806910F4407F204602D072
:101A5000FFF7CAFF04E000F07BF8204600F079F8B9
:101A6000257620680169C943090716D4C168C943AE
:101A7000090712D46FF00801016104202076206864
:101A8000C0698007204602D0FFF7AEFF04E000F0F7
:101A90005FF8204600F05DF8257620680169C943AB
:101AA000C90617D4C168C943C90613D46FF0100121
:101AB0000161082020762068C06910F4407F20462C
:101AC00002D0FFF791FF04E000F042F8204600F05A
:101AD00040F8257620680169C943C90708D1C16863
:101AE000C943C90704D1891E0161204600F032F8BC
:101AF00020680169C943090609D4C168C9430906B8
:101B000005D46FF0800101612046FFF726FF2068B1
:101B10000169C943490609D4C168C943490605D4C6
:101B20006FF040010161204600F015F8206801695E
:101B3000C94389060BD4C168C943890607D46FF02D
:101B4000200101612046BDE87040FFF707BF70BD6E
:101B50007047704770477047704738B50446006853
:101B60000168C268C1F3000102F4807221B11AB1A8
:101B7000E16B41F00101E1630168C1F34002416999
:101B800001F0010122B119B1E26B42F00402E263FB
:101B90000268C2F3800222B119B1E26B42F0020284
:101BA000E2630268C2F3C00222B119B1E16B41F0F5
:101BB0000801E1630168C068C1F3401100F0200032
:101BC00019B110B1204600F067FF20680168C068B5
:101BD000C1F3C01100F0800019B110B1204601F02E
:101BE00067F821680868CA68C0F3801002F04002F4
:101BF000012568B162B1CA68204622F04002CA607D
:101C000094F83910322910D080F8395000F03FF99B
:101C1000E06B002808D0206801684068009084F8D4
:101C200039502046FFF798FF38BD222180F839103F
:101C3000ECE770B5040004D094F83900002510B129
:101C400006E0012070BD84F83850204600F020F8EE
:101C5000022084F839002068C16821F40051C16075
:101C6000204600F06DFF2068016921F49041016178
:101C70002068416921F02A0141612068C16841F46E
:101C80000051C160E563012084F83900002070BD77
:101C9000F0B500682D4F00252D49022201230326AF
:101CA0002C4C85B0B8422FD1886940F0040088617F
:101CB000886900F004000490886940F480408861DD
:101CC000886900F480400490886940F001008861D0
:101CD000886900F00100049048158DE84D006946C0
:101CE0002046FEF79DFF2115CDE9001569462046E7
:101CF000FEF796FF2520FFF7C5F8012211462520A3
:101D0000FFF7CCF805B0F0BD134FB842FAD188699F
:101D100040F004008861886900F004000490C869FC
:101D200040F40030C861C869694600F4003004908E
:101D300004208DE84D002046FEF772FF0821CDE912
:101D4000001569462046FEF76BFFDBE700380140CF
:101D500000100240000801400044004090F8393073
:101D6000012B01D0122B2BD131B32AB390F838308C
:101D7000012B25D0012380F8383081628285C2850D
:101D80000021C16390F83920122A17D0222280F84E
:101D9000392080F838100168CA6842F48072CA603D
:101DA00001684A6942F001024A610068C16841F075
:101DB0002001C16000207047012070473222E6E711
:101DC0000220704770472DE9F047044690F839002B
:101DD00099460D46012801D0222856D125B31AB3C1
:101DE00094F83800012850D0012684F83860002784
:101DF000E76394F83900222819D0122084F83900BA
:101E0000A284E2844FF48058E08C4B46401EE0846C
:101E1000A0684FF0000240454FF08001204613D1EA
:101E200000F079FF08BB04E00120BDE8F087322014
:101E3000E4E728882168C0F308004860206908B1F9
:101E40006D1C08E0AD1C06E000F065FF68B9216874
:101E500015F8010B4860E08C0028D5D14B460022D4
:101E60004021204600F057FF08B10320DDE794F839
:101E70003900322805D084F8396084F838700020A1
:101E8000D3E7222084F83900F7E70220CDE7704736
:101E9000FEE7FEE770470907090E002806DA00F0A2
:101EA0000F0000F1E02080F8141D704700F1E020E1
:101EB00080F80014704770472DE9F041404C414DC7
:101EC000DFF80481207886B04FF40046E0B16088E6
:101ED000401C80B26080B0F5FA7F12D30027678083
:101EE0006078E8B3012857D002280AD10022314691
:101EF0004046FEF790FF012218212846FEF78BFF8F
:101F0000677006B0BDE8F081304A01202070916909
:101F100041F001019161916901F0010104912C49A5
:101F20004B6823F0E06343F000734B60916941F02C
:101F300008019161916901F008010491916941F0F2
:101F40000401916191690190029048F2180401F036
:101F5000040103200094CDE903016946284600E00E
:101F600012E0FEF75DFE6946474640460096FEF7E2
:101F700057FE012221462846FEF74DFF0122314639
:101F80003846FEF748FFBCE7002210212846FEF73E
:101F900042FF0122082107E0002208212846FEF71F
:101FA0003AFF012248F210012846FEF734FF0122D1
:101FB00031464046FEF72FFF6078401C6070A0E776
:101FC00000000020000C0140000801400010024009
:101FD0000000014030B5104885B0816941F004012E
:101FE000816180694FF4807400F004000490012046
:101FF000CDE900400220094D039069462846FEF7CE
:102000000FFE002221462846FEF705FF00F0D4F817
:1020100000F00AFD05B030BD00100240000801408C
:10202000F0B52A49012503264A78294F0023294C77
:102030004FF0020CE12803D1042A01D24D7012E0C6
:10204000012A04D0022A07D0032A09D00AE0E22894
:1020500008D181F801C006E0E32803D14E7002E008
:10206000E42817D04B708A78002A1DD02268C72A2E
:1020700002D90B708B7023602268B854521C226006
:10208000EA2810D00A78012A0FD0022A12D0032A97
:1020900014D019E0E1223A70E2227A70E322BA7099
:1020A00026608D70E8E70D70F0BDEB280CD181F84B
:1020B00000C0F0BDEC2807D10E70F0BDED2803D1B3
:1020C0004FF4004020608B700B70F0BD400000208A
:1020D00004020020380000202DE9F0411C46314D5B
:1020E00013464FF0000C069A2F4E8E46A5F804C0FA
:1020F000A98801F1E1077754491C89B2A980042914
:10210000F6D32A4F3979FF2901D387F804C03979EA
:102110003171491C3971707186F806E0180AF07146
:10212000337274720A20A88004F10A0105E01318C2
:1021300013F80A3C3354401CA88080B28842F6D37E
:102140001948FEF765F93119A7F8D400020A8A7216
:10215000C87204F10C00A880071D04E0011BDE31E9
:102160003154401CA88080B2B842F7D30122104DF0
:10217000140221462846FEF74EFE052000F050FED0
:102180004FF47A733A4608490A48FFF71CFE0520C7
:1021900000F046FE21462846BDE8F0410022FEF749
:1021A0003ABE0000400000203C010020CC0200208C
:1021B000000801409800002070B50B4C094800252C
:1021C000206025716571A5712581A572C82104F172
:1021D0000B00FEF71CF8A4F8D4500448C4F8D8004B
:1021E00070BD0000E4E3E2E1A8030020EDECEBEABF
:1021F00005E0002100BF491CC9B26429FAD3401E82
:10220000F7D2704710B5044600F0ECF8802000F0DB
:1022100031F9FA2000F02EF90F2000F02BF900F030
:10222000E1F8812000F026F900F0AAF8607100F0D2
:1022300067F800F0A5F800F063F800F0A1F820714D
:1022400000F05EF800F09CF800F05AF800F098F802
:10225000E07000F055F800F093F800F051F800F04D
:102260008FF8A07000F04CF800F08AF800F068F8E1
:1022700000F0DCF800F0B6F8802000F0FBF8FC205D
:1022800000F0F8F8C92000F0F5F800F0ABF8812074
:1022900000F0F0F800F074F8607000F031F800F031
:1022A0006FF8207000F02CF800F06AF800F028F8C1
:1022B00000F066F8E07100F023F800F061F8A0711A
:1022C00000F01EF800F05CF800F03AF8BDE81040AD
:1022D00000F0ACB810B500F0B7F9084C206000F081
:1022E0002FF9606000F0FEF9A06000F075F9E06081
:1022F00004F11000BDE81040FFF784BF800000200B
:1023000010B500F035FA00F04DFA0C4C0022802197
:102310002046FEF780FD012240212046FEF77BFD8E
:102320005020FFF765FF002240212046FEF773FD95
:10233000BDE810405020FFF75BBF0000000C0140DB
:1023400010B500F015FA00F02DFA0C4C0122802196
:102350002046FEF760FD012240212046FEF75BFD8E
:102360005020FFF745FF002240212046FEF753FD95
:10237000BDE810405020FFF73BBF0000000C0140BB
:1023800070B5002400F0F4F900F00CFA144E0122AC
:1023900080213046FEF73FFD00F0F8F90025600689
:1023A000040E012240213046FEF735FD80213046E3
:1023B000FEF72CFD012801D144F001040022402148
:1023C0003046FEF728FD6D1CEDB2082DE7D300F076
:1023D000E9F9012280213046FEF71DFD204670BD3F
:1023E000000C014010B500F0C3F900F0DBF90E4C11
:1023F000012280212046FEF70EFD012240212046C9
:10240000FEF709FD002280212046FEF704FD1E2074
:10241000FFF7EEFE002240212046FEF7FCFCBDE85F
:1024200010401E20FFF7E4BE000C014010B500F084
:102430009FF900F0B7F90E4C002280212046FEF7EC
:10244000EAFC002240212046FEF7E5FC0122402163
:102450002046FEF7E0FC1E20FFF7CAFE0122802185
:102460002046FEF7D8FCBDE810401E20FFF7C0BE96
:10247000000C014070B5054600F07AF900F092F9C1
:102480001F4E0024280601D5012200E000228021F1
:102490003046FEF7C0FC012240213046FEF7BBFC6F
:1024A0005020FFF7A5FE002240213046FEF7B3FC86
:1024B0005020FFF79DFE6806641C050EE4B2082C50
:1024C000E0D300F063F9012240213046FEF7A3FC7F
:1024D00080213046FEF79AFC01280ED0002400220D
:1024E00040213046FEF797FC00F05CF90122802184
:1024F0003046FEF790FC204670BD0124EFE7000057
:10250000000C01401FB5C020009011200190022056
:102510000A4C039069462046FEF782FB01224021C7
:102520002046FEF778FC012280212046FEF773FC4E
:102530005020FFF75DFE00F043F91FBD000C014085
:1025400070B500F015F9FFF74DFF8020FFF792FFFF
:10255000E520FFF78FFFFFF745FF8120FFF78AFF98
:10256000194C012240212046FEF755FC00F0F4F8FA
:1025700002E01420FFF73CFE40212046FEF746FC17
:102580000028F6D0FFF7FCFE0446FFF7B9FEFFF780
:10259000F7FE0546FFF7D4FEFFF748FF45EA0420A3
:1025A00020F0030000F0BBFF084A094B00F0CAFF0F
:1025B0000022084B01F0C4F800F052FD044600F080
:1025C000D7F8204670BD0000000C01407644CF775C
:1025D00001405F3F0000184070B5FFF703FF802007
:1025E000FFF748FFF520FFF745FF1420FFF700FE37
:1025F000FFF7F8FE8120FFF73DFF0128F5D0FFF738
:10260000BFFE0546FFF77CFEFFF7BAFE0446FFF764
:1026100097FEFFF70BFF44EA052020F0030000F0CF
:102620007EFF064A064B00F08DFF0022054B01F0AD
:1026300087F8BDE8704000F013BD00007644CF7706
:1026400001405F3F0000184070B500F091F8FFF7BF
:10265000C9FE8020FFF70EFFE320FFF70BFFFFF717
:10266000C1FE8120FFF706FF194C012240212046C0
:10267000FEF7D1FB00F070F802E01420FFF7B8FD80
:1026800040212046FEF7C2FB0028F6D0FFF778FE77
:102690000446FFF735FEFFF773FE0546FFF750FED1
:1026A000FFF7C4FE45EA042020F0030000F037FFE6
:1026B000084A094B00F046FF084A094B01F040F870
:1026C00000F0CEFC044600F053F8204670BD000038
:1026D000000C0140619FC6DE07F7653FCDCCCCCC36
:1026E000CC6C474070B5FFF77DFE8020FFF7C2FE3F
:1026F000F320FFF7BFFE1420FFF77AFDFFF772FE0D
:102700008120FFF7B7FE0128F5D0FFF739FE054617
:10271000FFF7F6FDFFF734FE0446FFF711FEFFF763
:1027200085FE44EA052020F0030000F0F8FE064A8A
:10273000064B00F007FF064A064B01F001F8BDE822
:10274000704000F08DBC0000619FC6DE07F7653F5A
:10275000CDCCCCCCCC6C47401FB5402000900020A5
:10276000019069460148FEF75BFA1FBD000C01406D
:102770001FB540200090112001900220039069466F
:102780000148FEF74DFA1FBD000C01401FB5802027
:1027900000900020019069460148FEF741FA1FBDF4
:1027A000000C01401FB580200090112001900220F4
:1027B000039069460148FEF733FA1FBD000C014043
:1027C00010B5FFF70FFE8020FFF754FEFE20FFF745
:1027D00051FEFFF72BFEBDE810405020FFF708BD6B
:1027E000704710B5FFF768FBBDE81040FEF71EBB51
:1027F00030B58FB002240120049000941020059081
:1028000000254FF46010CDE9085007946846FEF7A4
:10281000C7FD00B1FEE70AA90F2081E831004FF49F
:102820008060CDE90D0502210AA8FEF77FFC00B10A
:10283000FEE7FEF73BFD4FF47A71B0FBF1F0FFF7D6
:1028400078F80420FFF769F800221146501EFEF7C1
:1028500025FB0FB030BD00000F4810B5016841F0F6
:102860000101016041680D4A1140416001680C4A54
:1028700011400160016821F480210160416821F468
:10288000FE0141604FF41F018160FFF7B1FF054970
:102890004FF00060086010BD001002400000FFF81B
:1028A000FFFFF6FE08ED00E01F4808B50168491C6F
:1028B00001601620FDF7C8FD78BB1C490889B0F5FA
:1028C000B05F09D000F51F60B0F500500BD01028A4
:1028D00011D0202821D116E0154800904979012314
:1028E00041F2016216E0124841F211620A30009092
:1028F000497901230EE00E4841F221621430009024
:102900004979022306E00A4841F231621E30009004
:10291000497904231620FFF7DFFB0548BDE808408E
:102920002830FFF762B800003C000020A803002018
:10293000D8000020094A10B5074BC2E90031002138
:10294000C2E9021010461161FFF709F8BDE8104016
:102950000248FFF73DB800000004004000010020DD
:10296000F0B502681A4D1B4E1B4FDFF870C01C4BB0
:102970004FF0804EA84209D0984207D0704505D04C
:10298000B04203D0B84201D0604503D122F07004B8
:102990004A682243A84209D0984207D0704505D022
:1029A000B04203D0B84201D0604503D122F4407454
:1029B000CA68224302608A68C2620A688262A842C8
:1029C00001D0984201D10969016301214161F0BD43
:1029D000002C01400004004000080040000C0040B2
:1029E000003401400E4810B5816986B041F0040101
:1029F000816180690B4C00F004000490302000904D
:102A0000012001900220039069462046FEF708F954
:102A1000002230212046FEF7FEF906B010BD00006E
:102A2000001002400008014070B50B4C0948002519
:102A3000206025716571A5712581A572C82104F1F9
:102A40000B00FDF7E4FBA4F8D4500448C4F8D80008
:102A500070BD0000E4E3E2E1CC020020EDECEBEA23
:102A60000B4910B5094AC1E9002000208860C86000
:102A7000086188610C2048610846FFF7DAF8BDE874
:102A80001040012203490248FFF768B900380140AD
:102A9000980000203200002010B590F8391022294B
:102AA00003D0322901D0022010BD8168B1F5805FCA
:102AB00011D00169002901681FD0496801F07F0326
:102AC000816A4A1C82620B70C18D491E0904090C7F
:102AD000C18518D02FE00269816A002A0268526815
:102AE00005D0D2B20A80816A491C8162ECE7C2F348
:102AF00008020A80816A891CF7E74A68816A4B1CD0
:102B000083620A70E0E70168CA6822F02002CA60A6
:102B100090F83910322910D00168CA6822F4807206
:102B2000CA6001684A6922F001024A61012180F805
:102B30003910FFF747F9002010BD1221F7E7000018
:102B40002DE9F041044600680169E26821F4405132
:102B500011430161A1682069014360690143206854
:102B6000C26841F20C639A430A43C260206841691B
:102B7000A26921F44071114341614C4920686426E7
:102B8000322788423CD1FEF7AFFB00EBC00101EBDE
:102B9000001061688900B0FBF1F5FEF7A5FB00EBC2
:102BA000C00101EB00106168B8468900B0FBF1F08C
:102BB000B0FBF6F06FF01801484305EB800107EB1E
:102BC0000110B0FBF6F000F0F005FEF78DFB00EB16
:102BD000C00101EB001061688900B0FBF1F0B0FBAF
:102BE000F6F005EB0015FEF77FFB00EBC00101EBF3
:102BF000001061688900B0FBF1F7FEF775FB3BE060
:102C0000FEF75AFB00EBC00101EB00106168890080
:102C1000B0FBF1F5FEF750FB00EBC00101EB00103B
:102C20006168B8468900B0FBF1F0B0FBF6F06FF0D8
:102C30001801484305EB800107EB0110B0FBF6F0EB
:102C400000F0F005FEF738FB00EBC00101EB0010CF
:102C500061688900B0FBF1F0B0FBF6F005EB001500
:102C6000FEF72AFB00EBC00101EB00106168890050
:102C7000B0FBF1F7FEF720FB00EBC00101EB001009
:102C800061688900B0FBF1F0B0FBF6F06FF018015D
:102C9000484307EB800108EB0110B0FBF6F0216818
:102CA00000F00F0028448860BDE8F0810038014042
:102CB00090F83910122903D0322901D00220704730
:102CC0008168B1F5805F016A0BD04A1C026202681C
:102CD00009785160C18C491E0904090CC1840ED0C9
:102CE00017E009880268C1F30801516001690029F1
:102CF000016A02D0491C0162ECE7891CFBE701680C
:102D0000CA6822F08002CA600068C16841F04001D0
:102D1000C160002070472DE9F0471D4690460F46E0
:102D20000446FEF77DF806465FEA08004FF000090A
:102D30004FF0010808D030E0681C05D095B1FEF7CF
:102D40006FF8801BA8420DD82068006837EA0000A1
:102D5000F2D127E0681C20D025B1FEF761F8801B76
:102D6000A8421AD92068C16821F08001C16020689A
:102D7000C16821F02001C1602068C16821F4807120
:102D8000C1602068416921F00101416184F8398006
:102D900084F838900320BDE8F0872068006837EA9F
:102DA0000000D7D00020F6E70B4810B50068006897
:102DB000C04380060AD4094800680949C0B20870B7
:102DC0008968B1F5004F01D0FFF72AF9BDE810403E
:102DD0000148FEF7C2BE0000980000200438014000
:102DE00030000020FEE7704710B50C4A80EA012051
:102DF0000021518141F221034FF6FF74010403D5F4
:102E000083EA400080B201E004EA40005189491C95
:102E100089B251810829F1D310BD00004000002083
:102E200000224FF4165304E00021491C9942FCD3C0
:102E3000521C8242F8D37047FEF700F8FDF7C4FA3F
:102E4000FFF7C8F8FFF75EFBFFF7CCFD4FF4E1306A
:102E5000FFF706FE40F27F2140F2CF70FFF76AFDD8
:102E6000FDF74EFBFCE700002DE9F04781460A2004
:102E700064234FF47A75012A06D0022A06D0032A69
:102E800006D0042A1AD007E00B2405E00C2403E046
:102E9000B1FBF0F200FB1214A9421AD9B1FBF5F212
:102EA000D6B2B1FBF3F2B2FBF0F3B1FBF0F100FBF1
:102EB0001325B1FBF0F200FB121717E0B1FBF5F29E
:102EC000B1FBF3F2B2FBF0F2B1FBF0F2B2FBF0F2C5
:102ED000DEE7092907D9B1FBF0F2D6B2B1FBF0F277
:102EE00000FB121501E00026CDB20A27DFF868804A
:102EF000012220214046FDF78EFF0122102140468D
:102F0000FDF789FF00F02CF8402000F071F800F088
:102F10004BF800F025F8484600F06AF8DFF83C80EE
:102F200018F8060000F064F818F8050000F060F8E2
:102F300018F8070000F05CF818F8040000F058F8E2
:102F400000F032F800F00CF88C2000F051F8BDE8E9
:102F5000F04700F029B800000008014020000020E0
:102F600010B5104C012220212046FDF754FF01220C
:102F700010212046FDF74FFF0220FDF745FE0022FD
:102F800020212046FDF747FF0220FDF73DFE0022ED
:102F900010212046FDF73FFFBDE810400220FDF75D
:102FA00033BE00000008014010B5104C0022202163
:102FB0002046FDF730FF012210212046FDF72BFFB0
:102FC0000220FDF721FE012220212046FDF723FFEC
:102FD0000220FDF719FE002210212046FDF71BFFFD
:102FE000BDE810400220FDF70FBE000000080140C0
:102FF00070B51A4E0446002220213046FDF70BFF23
:10300000002210213046FDF706FF00250022102186
:103010003046FDF700FFE00701D0012200E000226A
:1030200020213046FDF7F7FE0220FDF7EDFD0122DD
:1030300010213046FDF7EFFE6D1C6408EDB2082D3F
:10304000E4D3002210213046FDF7E5FE3046BDE80E
:10305000704000222021FDF7DEBE00000008014084
:1030600021F00042A2F16052B2F5801F01F000434E
:1030700028BFD2F17F6C0BD95FEA001C43EAC20281
:1030800042EB507018BF704728BF20F00100704716
:10309000B2F5801FBCBF184670474FEA410C1CF5C3
:1030A000001F02D2084600F09ABC70B500F0F4FA96
:1030B00000000089FFF7F6BF4FF00040A0F5800048
:1030C0007047000010B591EA030F48BF83F000433A
:1030D00000F13E83841A71EB030C05D2121943EB05
:1030E0000C03001B61EB0C01DFF824E14FEA1154E3
:1030F000A4EB135C1EEA430F18BF9EEA445F73D033
:1031000023EA0E03DCF1200E21EA045143F480137C
:1031100032D322FA0CFE10EB0E0023FA0CFE41EB28
:103120000E01CCF1200E03FA0EFE10EB0E0051F151
:103130000001B1F5801FCCF1200E32D201EB045119
:1031400012FA0EF2BDE8104058BF7047401C38BF5D
:103150005FEA420218BF7047002814BF20F0010048
:1031600041F100014FEA410313F5001F38BF7047DA
:10317000A1F1C04100F0DEBA012A43EB0302ACF139
:10318000200CDCF11F0E32BF4FF0000E23FA0CF3BF
:1031900010EB030041EB0451B4EB115FD0D0A1EB75
:1031A000045101F5801149085FEA300001EB045138
:1031B0000ED350F1000038BF12FA0EFE08D1BDE860
:1031C0001040C9E7401C38BF5FEA4202CAD1C3E7DA
:1031D000BDE810404FEA410313F5001F38BF7047A8
:1031E000A1F1C04100F0A6BA9EEA445F08D011EAFE
:1031F0005E0FBDE8104004BF01F0004100207047A1
:10320000BDE8104070B500F047FA00BF64FBBE3E59
:103210000000E0FF2DE9C04130B4DFF8A0C23CEA75
:10322000111418BF3CEA131400F0EC8081EA030586
:103230001CEA111444EAD57418BF1CEA131500F0F7
:10324000C780A4EB05044FF0004545EAC12145EADB
:10325000C32341EA505143EA525304F17F74994227
:1032600004F500344FEAC0204FEAC22208BF904262
:1032700000F09C804FEA13650FF24016765D4FEA2E
:10328000134506FB05F7C7F1807706FB07F74FEA02
:10329000D737A7FB03687642C8F58038A7FB06CE70
:1032A00038BFA8F1010807FB08E64FF0000EA6FBA7
:1032B000028CE6FB03CEDCF1000CCEF1004E38BFF1
:1032C000AEF1010EA6FB0C584FF000074FF00005C1
:1032D000E6FB0E87A1FB08C6A0FB07CE16EB0E0689
:1032E00045F10005E1FB076515F1E04E7EBFA4F551
:1032F00080345FEA46066D4116F1800745F100050E
:103300004FEA17274FEA066647EA0567A6F1DE4649
:10331000B6F1805F4FEA15251FD9384624F0010C1D
:1033200005EBC471BCF1FE6F01EB0C1102D8F0BCCF
:10333000BDE8008124425CBF01F5801E9EEAC47F87
:1033400002D4F0BCBDE80081244238D4F0BCA1F125
:10335000C041BDE8004100F0EDB94FEAD22242EA97
:1033600043524FEAD323A7FB02864FEAD02040EA1C
:10337000415007FB03661EEA0E0F4FEAD12105FB01
:10338000026658BFA6EB0056B6EB00564FEA520E47
:103390004EEAC37E18EB0E0E56EB530EBDD518EB5E
:1033A00002085E417F1C55F10005B6E74FF4801519
:1033B0004FF000074FF000064FF00008ADE7F0BCFB
:1033C0004FF0000001F1C04101F00041BDE8008173
:1033D00011EA0C1F0CEA131500D00CE013EA0C1FC5
:1033E00000F025804FF00000F0BC81EA030101F0FD
:1033F0000041BDE80081F0BCBDE8004181EA030165
:1034000000F098B9F0BCBDE8004170B500F044F997
:10341000097EFC3E00F007B881EA03014FF000008E
:1034200001F00041704781EA030100F083B9F0BC6C
:10343000BDE800414FF0000021497047FFFDFBF956
:10344000F7F5F4F2F0EEEDEBE9E8E6E4E3E1E0DED7
:10345000DDDBDAD8D7D5D4D3D1D0CFCDCCCBCAC849
:10346000C7C6C5C4C2C1C0BFBEBDBCBBBAB9B8B770
:10347000B6B5B4B3B2B1B0AFAEADACABAAA9A8A863
:10348000A7A6A5A4A3A3A2A1A09F9F9E9D9C9C9B31
:103490009A999998979796959594939392919190DC
:1034A0008F8F8E8E8D8C8C8B8B8A8989888887876D
:1034B0008685858484838382828181800000FF07E2
:1034C0000000F87F4FEA1153A3F58063D3F11E0388
:1034D000A8BFD3F1200C08DB4FF0004242EAC12222
:1034E00052EA505232FA03F0704709420BD4102BC3
:1034F000C4BF0020704703F5787CBCF1FF3F05D0C6
:103500004FF0FF3070474FF00000704770B500F08B
:10351000C3F800BF4992248000207047F0E7B0FA5A
:1035200080F310FA03F10AD0C3F11D0303F58063A1
:103530004FEA41504FEA035202EBD12170474FF05E
:1035400000007047DFF848C170B51CEA111E1EBFAD
:103550001CEA13159EEA0C0F95EA0C0F00F06F8021
:1035600081EA030423EA4C134EEAD47E21EA4C118B
:1035700041F4801143F48013AE44A1FB024CA0FB44
:103580000365AEF17F7E361955EB0C05A1FB034CAC
:103590004CF10003A0FB021C16EB0C06654153F135
:1035A0000003094218BF46F0010613F4007F0BD157
:1035B0004FEA03314FEA0530340341EA155140EA3E
:1035C00016506FF003020AE04FEAC3214FEAC5200C
:1035D000F40241EA555140EA56506FF0020202EB04
:1035E0002E4201EB025585EACE710AD05FEA440C07
:1035F00018BF24F0004450F1000041F1000120EA1E
:10360000D47040F2FE7C624500D270BDA84214BF67
:103610004FF080444FF04044002E08BF0024BEF11C
:10362000806FA8BFA1F1C041BDE8704080F28280E8
:103630004FF0000001F1C04101F0004170479EEAE7
:103640000C0F0CEA131518BF95EA0C0F06D04FF0BB
:10365000000081EA030E0EF0004170BD00F01CF87E
:103660008900013E00F007B800F009B84FEA430CAA
:103670005FEA5C5C08D081EA030100F05BB84FEAC6
:10368000410C5FEA5C5CF6D14FF0000001497047E5
:103690000000FF070000F87F0EF1020E2EF0030E6F
:1036A0005EF8046B364205D4012A43EB030515F599
:1036B000001F12D8012841EB010C1CF5001F0CD88B
:1036C0000ED14FEAD17C15F5001F0CEB4C0C0CF120
:1036D000020C08BF4CEBD37C04E04FF0080C01E077
:1036E0004FEAD37C0CEB4C0526FA05F606F00706EC
:1036F000B6F1040C06D20EEB860CBDE870404CF01F
:10370000010C6047DFE80CF0090B02024FF00041AA
:103710004FF00000A1F5002170BD194610460128A8
:1037200051EB010418BFD4F5001484BF002001F050
:10373000004170BD0808A0F500114FEA3101704743
:1037400010B591EA030F48BF83F000433FF5C2ACC8
:10375000841A71EB030C07D212198CF0004C43EB66
:103760000C03001B61EB0C01DFF8A4E14FEA1154DC
:10377000A4EB135C1EEA430F18BF9EEA445F00F0FF
:10378000B08023EA6E03524221EA0451C3EB6E0378
:1037900038BF5B1EDCF1200E25D322FA0CFE10EBA5
:1037A0000E0043FA0CFE41EB0E01CCF1200E03FAA1
:1037B0000EFE10EB0E0051F10001CCF1200E29D4C9
:1037C00012FA0EF201EB0451BDE8104058BF7047E9
:1037D000401C1CBFB2F1004F704700280CBF491CB1
:1037E00020F00100704712EB020E43EB030218BFFA
:1037F0004FF0010E4EEA4202ACF1200CDCF11E0E3D
:1038000054D943FA0CFE10EB0E0051F1FF31CCF10C
:103810001E0ED5D50EF1010E12FA0EFE404141EBFF
:10382000010101EB445C5FEA5C5C10D910EBDE70D7
:1038300001EB045138BFBEF1004FBDE8104018BF86
:10384000704700280CBF491C20F00100704730D29F
:103850004FEAD42C11F5001124F400641BD0B1FA06
:1038600081F20B3AA41AA41ED2F12003914030FA3F
:1038700003F31943904001EBCC71002C01EB045190
:10388000BDE81040A8BF704701F1C0414FF00000F3
:1038900001F000417047B0FA80F310FA03F100D153
:1038A00010BDE41A173C4805C90AE4E701EB0451CE
:1038B00010BD491001EB0451BDE810404FEA300043
:1038C00002E04FF0000170474A0008BF0042F8D004
:1038D000B2F5001F28BF704701F000414FF0000013
:1038E00070479EEA445F07D011EA5E0FBDE81040C2
:1038F00004BF002100207047BDE8104070B5FFF7FD
:10390000CBFE00BF40DFF63E83F00041104670471B
:103910000000E0FFC10DD1F19E0206DB4FEA00235B
:1039200043F0004323FA02F07047004207D54FEA04
:103930004001B1F1FE4F02D24FF00000704710B5C8
:1039400000F007F849922480002070476FEA2000B9
:1039500070470EF1020E2EF0030E5EF8044B244267
:1039600004D44FEA4102B2F17F4F11D84FEA40032D
:10397000B3F17F4F0CD80ED14FEAD07CB2F17F4F1C
:103980000CEB4C0C0CF1020C08BF4CEBD17C04E0AE
:103990004FF0080C01E04FEAD17C0CEB4C0324FA09
:1039A00003F404F00704B4F1040C06D20EEB840C0B
:1039B000BDE810404CF0010C6047DFE80CF0070850
:1039C00002024FF00040A0F5800010BD0846420002
:1039D00018BFD2F1807288BF00F0004010BDFF21F7
:1039E00041EAD050C0057047000000000000000010
:1039F0000102030406070809000000000102030495
:103A0000203A000800000020500000006C0100086F
:103A1000703A000850000020980A00008801000851
:103A20000000F4010090D00300000000000000003E
:103A30000000000000000000000000000000000086
:103A40003F065B4F666D7D077F6F00397680000013
:103A50000000000000000000000000000000000066
:103A60000000000000000000000000000000000056
:0400000508000131BD
:00000001FF
