:020000040800F2
:1000000070060020CD010008730E00086F0E000876
:10001000710E0008870200085D1000080000000053
:10002000000000000000000000000000950F000824
:10003000C103000800000000ED0E0008970F000843
:10004000E7010008E7010008E7010008E7010008F0
:10005000E7010008E7010008E7010008E7010008E0
:10006000E7010008E7010008E7010008E7010008D0
:10007000E7010008E7010008E7010008E7010008C0
:10008000E7010008E7010008E7010008E7010008B0
:10009000E7010008E7010008E7010008E7010008A0
:1000A000E7010008E7010008E7010008E701000890
:1000B000E7010008E7010008E7010008E701000880
:1000C000E7010008E7010008E7010008E701000870
:1000D000E7010008E7010008E7010008E701000860
:1000E000E7010008E7010008E7010008E701000850
:1000F000E7010008E7010008E7010008E701000840
:10010000E7010008E7010008E7010008E70100082F
:10011000E7010008E7010008E7010008E70100081F
:10012000E7010008E7010008E7010008E70100080F
:1001300000F002F800F03AF80AA090E8000C8244BF
:100140008344AAF10107DA4501D100F02FF8AFF29C
:10015000090EBAE80F0013F0010F18BFFB1A43F0A5
:1001600001031847300F0000500F0000103A24BF61
:1001700078C878C1FAD8520724BF30C830C144BF0C
:1001800004680C607047000000230024002500264E
:10019000103A28BF78C1FBD8520728BF30C148BFEA
:1001A0000B6070471FB51FBD10B510BD00F031F8D2
:1001B0001146FFF7F7FF00F053FF00F04FF803B4CC
:1001C000FFF7F2FF03BC00F057F800000948804732
:1001D00009480047FEE7FEE7FEE7FEE7FEE7FEE729
:1001E000FEE7FEE7FEE7FEE704480549054A064B41
:1001F000704700000D100008310100087000002059
:1002000070060020700200207002002070477047C6
:100210007047754600F02CF8AE4605006946534617
:1002200020F00700854618B020B5FFF7DDFFBDE8D8
:1002300020404FF000064FF000074FF000084FF04D
:10024000000B21F00701AC46ACE8C009ACE8C009DE
:10025000ACE8C009ACE8C0098D46704710B504464B
:10026000AFF300802046BDE81040FFF7A8BF0000B4
:10027000004870470C00002001491820ABBEFEE783
:10028000260002007047FEE72DE9F041244D0446A8
:1002900001221021284600F09AF90122082128465F
:1002A00000F095F901221F4FD6033146384600F081
:1002B0008EF960070ED500221021284600F087F93C
:1002C00001220821284600F082F9012231463846F1
:1002D00000F07DF9A0070ED501221021284600F07C
:1002E00076F900220821284600F071F901223146F2
:1002F000384600F06CF9E00710D0012210212846A2
:1003000000F065F901220821284600F060F9314625
:100310003846BDE8F041002200F059B9BDE8F0814F
:10032000000C014000080140F0B5214885B081690A
:1003300041F001018161816901F0010104911D49D0
:100340004A6822F0E06242F000724A60816941F03E
:1003500008018161816901F008010491816941F01E
:10036000040181618069144E00F0040004900120B2
:1003700001900290032048F218040390694600940B
:10038000304600F029F80D4F4FF4004569463846D5
:10039000009500F021F801222146304600F017F9BF
:1003A00001222946384600F012F905B0F0BD0000E0
:1003B0000010024000000140000C01400008014014
:1003C000704731B500F008F9044600F005F90099CE
:1003D000001B8842F9D338BD2DE9F84FDFF8BC91F6
:1003E000002309F1040A0AF1040B1C464FF00F0820
:1003F0000BF1040E01270A68A7403A40BA4272D1B5
:10040000DFF89CC14D68A5EB0C0665452BD00DDCD3
:10041000032D34D005DC35B3012D19D0022D2FD199
:100420001BE0112D16D0122D2AD119E0B6F5881F28
:1004300019D006DCB6F5803F15D0B6F5801F1FD168
:1004400011E0B6F5001F0ED0B6F5041F18D10AE072
:10045000CB6815E0CB681B1D12E0CB6808330FE0BA
:10046000CB680C330CE08B682BB1012B4FF00803E9
:1004700003D0476104E0042302E0076100E00023A9
:10048000FF2A01D8064601E000F104064FEA840580
:1004900001D9A5F12005376808FA05FC27EA0C0701
:1004A00003FA05F547EA050737604D68ED006ED59C
:1004B0003C4DAE6946F00106AE61AD6924F003061D
:1004C00005F001050095384D7719BE68A5072D0F79
:1004D00008FA05FC26EA0C06DFF8D0C0604503D117
:1004E0004FF0000C25E052E0DFF8C4C0604502D1B7
:1004F0004FF0010C1DE0DFF8BCC0604502D14FF0A9
:10050000020C16E0DFF8B0C0604502D14FF0030CDA
:100510000FE0DFF8A8C0604502D14FF0040C08E0FE
:10052000DFF89CC0604502D14FF0050C01E04FF0B0
:10053000060C0CFA05FC4CEA060CC7F808C04D681E
:10054000D9F80060ED034D4601D5164300E096430F
:100550002E604D68DAF80060AD03554601D51643AC
:1005600000E096432E604D68DBF80060ED025D46CA
:1005700001D5164300E096432E604D68DEF800601A
:10058000AD02754601D5164300E096432E60641C0B
:10059000102CFFF42FAFBDE8F88F000000040140DD
:1005A000000011100010024000000140000801404E
:1005B000000C0140001001400014014000180140EF
:1005C000001C01408068084000D0012070470AB13B
:1005D000016170470904FBE70148006870470000AB
:1005E0000800002002480168491C016070470000B3
:1005F00008000020074810B5016841F010010160B3
:10060000032000F03BF80F2000F006F800F015F88A
:10061000002010BD0020024010B5044600F000F993
:100620004FF47A71B0FBF1F000F00DFC002221468E
:10063000501E00F003F8002010BD7047F0B40E4BC0
:100640001B68C3F30223C3F10704042C00D904245C
:100650001D1D072D01D2002300E0DB1E012606FA36
:1006600004F56D1E0D409D409E40761E164045EAE5
:100670000601F0BC00F0FEBB0CED00E0064A00F005
:10068000070110684FF6FF03184040EA01200349B4
:1006900008431060704700000CED00E00000FA0510
:1006A0002DE9F047DFF8688104460E46D8F80000CF
:1006B00000F00700B0420CD2D8F8001021F007017A
:1006C0003143C8F80010D8F8000000F00700B0422D
:1006D00073D120784F4F800705D57868A16820F046
:1006E000F000084378602078C00755D06068012288
:1006F00001280CD0022828D0022393FAA3F1B1FAE2
:1007000081F141F02001490904D0396803E04FF438
:100710000033F2E7796A93FAA3F3B3FA83F303F0B1
:100720001F039A40114248D0796821F00301014328
:100730007960FFF751FF0546606841F28831012872
:100740000CD00228894615D022E04FF00073D4E780
:10075000FFF742FF411B494501D916E089467868F9
:10076000C0F381000128F3D116E0FFF735FF411BEC
:1007700049450AD87868C0F381000228F5D10BE01A
:10078000FFF72AFF411B494502D90320BDE8F08746
:10079000786810F00C0FF3D1D8F80010404601F043
:1007A0000701B1420BD9016821F007013143016013
:1007B000006800F00700B04201D00120E6E7207891
:1007C000400705D57868E16820F4E0600843786068
:1007D0002078000706D57868216920F4605040EA47
:1007E000C100786000F022F87968F02292FAA2F253
:1007F00001F0F001B2FA82F2D140074A515CC840E0
:10080000064908600F20FFF707FF0020BEE7000041
:100810000020024000100240841000080400002064
:1008200001480068704700000400002010B519A0BE
:1008300085B00FC88DE80F001AA01B4B006804900C
:1008400059681A4801F00C02042A1DD0082A1BD14D
:100850004FF4701494FAA4F401F47012B4FA84F40E
:10086000E240C9031DF8022010D559684FF4003347
:1008700093FAA3F301F40031B3FA83F3D94004AB44
:10088000595CB0FBF1F0504305B010BD084850432F
:10089000FAE7000002030405060708090A0B0C0D1D
:1008A0000E0F1010010200000010024000127A002A
:1008B00000093D002DE9F84F04460078FE4EC007C0
:1008C0004FF001057FD070684FF40038C0F381000D
:1008D000012807D07068C0F3810002281BD170681E
:1008E000C00318D598FAA8F0B0FA80F040F02000C4
:1008F000400901D0306800E0706A98FAA8F1B1FAB6
:1009000081F101F01F0105FA01F108425BD0606836
:10091000002879D057E06068B0F5803F0BD010B167
:10092000B0F5A02F11D0306820F4803030603068EE
:1009300020F4802002E0306840F48030306060684D
:1009400018B3FFF749FE074609E0306840F48020FD
:100950003060F0E7FFF740FEC01B642870D898FABB
:10096000A8F0B0FA80F040F02000400901D03068D3
:1009700000E0706A98FAA8F1B1FA81F101F01F0164
:1009800005FA01F10842E5D01DE0FFF725FE074614
:1009900004E0FFF721FEC01B6428DFD898FAA8F016
:1009A000B0FA80F040F02000400901D0306800E04B
:1009B000706A98FAA8F1B1FA81F101F01F0105FA05
:1009C00001F10842E5D12078DFF8F08280074FF08E
:1009D000000A4FF002075AD570684FF0F80B10F07C
:1009E0000C0F07D07068C0F3810002281CD170681A
:1009F000C00319D497FAA7F0B0FA80F040F02000B5
:100A0000400902D0306801E08AE0706A97FAA7F1E5
:100A1000B1FA81F101F01F0105FA01F108422BD072
:100A2000206901287CD127E0206988B395FAA5F0D8
:100A3000B0FA80F048F82050FFF7CEFD814606E07E
:100A40004DE1FFF7C9FDA0EB0900022886D897FA0F
:100A5000A7F0B0FA80F040F02000400901D03068E3
:100A600000E0706A97FAA7F1B1FA81F101F01F0175
:100A700005FA01F10842E4D030689BFAABF220F0AD
:100A8000F8016069B2FA82F290400143316025E0DA
:100A9000FFE795FAA5F1B1FA81F148F821A0FFF737
:100AA0009BFD814605E0FFF797FDA0EB09000228BA
:100AB000CCD897FAA7F0B0FA80F040F020004009B7
:100AC00001D0306800E0706A97FAA7F1B1FA81F1BD
:100AD00001F01F0105FA01F10842E4D12078000776
:100AE0006DD5A069B8B395FAA5F0B0FA80F008EB1F
:100AF0008000C0F88054FFF76FFD814605E0FFF7E6
:100B00006BFDA0EB09000228A0D897FAA7F0B0FA75
:100B100080F040F06000B5EB501F02D130680CE06F
:100B200063E197FAA7F0B0FA80F040F06000B7EB0D
:100B3000501F01D1306A00E0706A97FAA7F1B1FA4C
:100B400081F101F01F0105FA01F21042D7D0012016
:100B5000FFF737FC33E0FFE795FAA5F1B1FA81F131
:100B600008EB8101C1F880A4FFF736FD814605E05E
:100B7000FFF732FDA0EB0900022899D897FAA7F0F9
:100B8000B0FA80F040F06000B5EB501F01D1306842
:100B90000BE097FAA7F0B0FA80F040F06000B7EBF6
:100BA000501F01D1306A00E0706A97FAA7F1B1FADC
:100BB00081F101F01F0105FA01F21042D8D120782D
:100BC000400763D5F06940F08050F061F069DFF8CC
:100BD000F0B000F080500090DBF8001041F480711C
:100BE000CBF80010FFF7F8FC814605E0FFF7F4FCB6
:100BF000A0EB0900642872D8DBF80000C005F5D529
:100C0000E06801280AD008B1052813D0306A20F026
:100C100001003062306A20F0040002E0306A40F0E7
:100C200001003062E06841F2883B80B3FFF7D4FCFA
:100C300081460AE0306A40F004003062EEE7FFF7D8
:100C4000CBFCA0EB0901594549D897FAA7F0B0FAB7
:100C500080F040F04000B5EB501F01D130680BE050
:100C600097FAA7F0B0FA80F040F04000B7EB501FC1
:100C700001D1306A00E0706A97FAA7F1B1FA81F108
:100C800001F01F0205FA02F10842D8D033E0FFE775
:100C9000FFF7A2FC814605E0FFF79EFCA0EB0901EF
:100CA00059451CD897FAA7F0B0FA80F040F0400000
:100CB000B5EB501F08D105E0001002400000424291
:100CC0000070004030680CE097FAA7F0B0FA80F0AE
:100CD00040F04000B7EB501F02D1306A01E08AE0DB
:100CE000706A97FAA7F1B1FA81F101F01F0205FAD3
:100CF00002F10842D0D1E06998B37168C1F3810173
:100D0000022972D002284FF080714FF0007B5046CC
:100D10000AD091FAA1F1B1FA81F148F82100FFF768
:100D20005BFC04465F4669E08A4691FAA1F1B1FA9C
:100D300081F1C14648F82100FFF74EFCA84607465E
:100D40005D4604E0FFF748FCC01B022853D895FA23
:100D5000A5F0B0FA80F040F02000400902D03068E1
:100D600001E060E0706A95FAA5F1B1FA81F101F055
:100D70001F0208FA02F10842E4D1206AB0F5803F70
:100D800005D17068A16820F4003008437060D4E990
:100D900008010843716821F47411084370609AFADD
:100DA000AAF0B0FA80F0474649F82080FFF714FC1B
:100DB000044604E0FFF710FC001B02281BD895FA3C
:100DC000A5F0B0FA80F040F02000400901D0306872
:100DD00000E0706A95FAA5F1B1FA81F101F01F0106
:100DE00007FA01F10842E5D01DE01EE0FFF7F4FB31
:100DF000001B022802D90320BDE8F88F97FAA7F05C
:100E0000B0FA80F040F02000400901D0306800E0E6
:100E1000706A97FAA7F1B1FA81F101F01F0105FAA2
:100E200001F10842E2D10020E6E70120E4E74FF0BB
:100E3000E0210428086903D020F00400086170470D
:100E400040F00400FAE710B5401EB0F1807F01D3F6
:100E5000012010BD4FF0E02460610F21601700F009
:100E600009F80020A06107202061002010BDFEE7E6
:100E7000FEE770470907090E002806DA00F00F00A8
:100E800000F1E02080F8141D704700F1E02080F8A8
:100E90000014704730B5134885B0816941F00401F2
:100EA00081618069032400F0040004900220002185
:100EB000CDE90204CDE900010B4D69462846FFF754
:100EC0008BFA0121CDE9021400910191694628466F
:100ED000FFF782FA002201212846FFF778FB05B0D0
:100EE00030BD0000001002400008014070470000C3
:100EF000F0B5234885B0017800293FD10121017068
:100F00002048826942F001028261826902F0010296
:100F100004921D4A536823F0E06343F0007353606A
:100F2000826942F008028261826902F0080204923A
:100F3000826942F0040282618069144E00F004006C
:100F400004900320CDE90210019148F218040094A6
:100F500069463046FFF740FA0D4F4FF400456946A9
:100F600038460095FFF738FA012221463046FFF750
:100F70002EFB012229463846FFF729FB05B0F0BDBC
:100F8000000000200010024000000140000C014061
:100F900000080140704710B5FFF7AAFFBDE81040F8
:100FA000FFF720BB30B58FB00224012004900094DD
:100FB0001020059000254FF46010CDE908500794EB
:100FC0006846FFF777FC00B1FEE70AA90F2081E829
:100FD00031004FF48060CDE90D0502210AA8FFF72A
:100FE0005FFB00B1FEE7FFF71BFC4FF47A71B0FB2B
:100FF000F1F0FFF728FF0420FFF719FF0022114648
:10100000501EFFF71BFB0FB030BD00000F4810B59E
:10101000016841F00101016041680D4A11404160E1
:1010200001680C4A11400160016821F480210160CF
:10103000416821F4FE0141604FF41F018160FFF718
:10104000B1FF05494FF00060086010BD001002407C
:101050000000FFF8FFFFF6FE08ED00E0FEE70000ED
:10106000FFF7C8FAFFF716FFFFF75EF9044C0221FD
:101070002046FFF7A7FA00B10120FFF705F9F6E7D0
:10108000000801400000000000000000010203040D
:1010900006070809B4100008000000200C0000003A
:1010A0006C010008C01000080C000020640600005D
:1010B00088010008000000000090D003000000003C
:0400000508000131BD
:00000001FF
