:020000040800F2
:10000000280B0020CD010008FD160008111600087D
:10001000FB160008AD030008FD23000800000000E7
:10002000000000000000000000000000391E000871
:100030001905000800000000991A0008531E000866
:10004000E7010008E7010008E7010008E7010008F0
:10005000E7010008E7010008E7010008E7010008E0
:10006000E7010008E7010008E7010008E7010008D0
:10007000E7010008E7010008E7010008E7010008C0
:10008000E7010008E7010008E7010008E7010008B0
:10009000E7010008E7010008E7010008E7010008A0
:1000A000E7010008E7010008E7010008E701000890
:1000B0000D1F0008211F0008E7010008E7010008E4
:1000C000E7010008E7010008E7010008E701000870
:1000D000E701000875230008AD230008E7010008C8
:1000E000E7010008E7010008E7010008E701000850
:1000F000E7010008E7010008E7010008E701000840
:10010000E7010008E7010008E7010008E70100082F
:10011000E7010008E7010008E7010008E70100081F
:10012000E7010008E7010008E7010008E70100080F
:1001300000F002F800F03AF80AA090E8000C8244BF
:100140008344AAF10107DA4501D100F02FF8AFF29C
:10015000090EBAE80F0013F0010F18BFFB1A43F0A5
:1001600001031847AC230000CC230000103A24BF41
:1001700078C878C1FAD8520724BF30C830C144BF0C
:1001800004680C607047000000230024002500264E
:10019000103A28BF78C1FBD8520728BF30C148BFEA
:1001A0000B6070471FB51FBD10B510BD00F0B8F84B
:1001B0001146FFF7F7FF02F073F900F0EAF803B415
:1001C000FFF7F2FF03BC02F035F900000948804751
:1001D00009480047FEE7FEE7FEE7FEE7FEE7FEE729
:1001E000FEE7FEE7FEE7FEE704480549054A064B41
:1001F00070470000BD1E00083101000828050020DE
:10020000280B002028070020280700207047000046
:100210000FB4044910B503AA029800F053F810BCBB
:100220005DF814FB200000204FF000020429C0F00C
:10023000128010F0030C00F01B80CCF1040CBCF118
:10024000020F18BF00F8012BA8BF20F8022BA1EB6A
:100250000C0100F00DB85FEAC17C24BF00F8012B4F
:1002600000F8012B48BF00F8012B70474FF0000247
:1002700000B5134694469646203922BFA0E80C509C
:10028000A0E80C50B1F12001BFF4F7AF090728BF77
:10029000A0E80C5048BF0CC05DF804EB890028BFF3
:1002A00040F8042B08BF704748BF20F8022B11F01C
:1002B000804F18BF00F8012B704770477047704798
:1002C00070470000074B70B50D467B4400F011F8F5
:1002D0000446284600F020F810B14FF0FF3070BD02
:1002E000204670BDBB21000001694A1C02610878EC
:1002F000704700B58FB0CDE9013100210591054966
:100300007944CDE903101146684600F02EF80FB08D
:1003100000BD0000E5FFFFFF007B00F0800070479C
:10032000754600F03FF8AE4605006946534620F09A
:100330000700854618B020B5FFF756FFBDE82040FE
:100340004FF000064FF000074FF000084FF0000B91
:1003500021F00701AC46ACE8C009ACE8C009ACE844
:10036000C009ACE8C0098D4670472DE9F04106464A
:100370000024D6E90170F5688046304603E0414626
:10038000B847641C3046A8470028F8D12046BDE88D
:10039000F08110B50446AFF300802046BDE8104060
:1003A000FFF70DBF00487047C8040020FEE770B596
:1003B00000220E46144610B10EB1054609E04FF674
:1003C000FF7070BD295D90B202F035F8641C02B276
:1003D000A4B2B442F6DB90B270BD2DE9F0410E46F6
:1003E000074615460421052000F02AF800210120C7
:1003F00002F006F880210A2001F01FFD002405E02C
:10040000395D092001F0FCFF641CE4B2B442F7D36B
:100410000321012001F0F4FFFF24052001F08EFBF1
:10042000641E14F0FF0401D04007F6D5222001F02D
:1004300085FB2870212001F081FB6870BDE8F08108
:1004400070B50C46054601F079FB20EA0401284608
:10045000BDE8704001F0D4BF2DE9F047DFF8AC9063
:100460000126DFF8AC80D9F80010B1F5004F05D0B7
:1004700088F8036098F80300BDE8F0872549002755
:1004800088F803700A7ACB7902EB0322824233D1D7
:10049000A1F5D2750879287188794B79444600EB2B
:1004A0000320E8802A81887A4A7A00EB022068815A
:1004B000C87A28730C2003E00A5C2B18401C5A7081
:1004C000A0802A7B80B20C328242F5D8297B114869
:1004D000104A0C300D32085C8A5C0C3102EB0020B3
:1004E000A5F8D6000B48FFF762FFE080B5F8D610FC
:1004F000814203D0E67001E088F80360C821054816
:10050000FFF7B4FEC9F80070B4E700001C0000203B
:1005100010000020C8020020704731B500F008F933
:10052000044600F005F90099001B8842F9D338BD54
:100530002DE9F84FDFF8BC91002309F1040A0AF114
:10054000040B1C464FF00F080BF1040E01270A683C
:10055000A7403A40BA4272D1DFF89CC14D68A5EB82
:100560000C0665452BD00DDC032D34D005DC35B3EE
:10057000012D19D0022D2FD11BE0112D16D0122DD7
:100580002AD119E0B6F5881F19D006DCB6F5803FF0
:1005900015D0B6F5801F1FD111E0B6F5001F0ED0A3
:1005A000B6F5041F18D10AE0CB6815E0CB681B1D17
:1005B00012E0CB6808330FE0CB680C330CE08B689B
:1005C0002BB1012B4FF0080303D0476104E0042353
:1005D00002E0076100E00023FF2A01D8064601E09F
:1005E00000F104064FEA840501D9A5F1200537681A
:1005F00008FA05FC27EA0C0703FA05F547EA0507A0
:1006000037604D68ED006ED53C4DAE6946F0010691
:10061000AE61AD6924F0030605F001050095384D83
:100620007719BE68A5072D0F08FA05FC26EA0C0607
:10063000DFF8D0C0604503D14FF0000C25E052E058
:10064000DFF8C4C0604502D14FF0010C1DE0DFF8B7
:10065000BCC0604502D14FF0020C16E0DFF8B0C01C
:10066000604502D14FF0030C0FE0DFF8A8C06045F1
:1006700002D14FF0040C08E0DFF89CC0604502D1C5
:100680004FF0050C01E04FF0060C0CFA05FC4CEAAB
:10069000060CC7F808C04D68D9F80060ED034D4658
:1006A00001D5164300E096432E604D68DAF80060ED
:1006B000AD03554601D5164300E096432E604D68C4
:1006C000DBF80060ED025D4601D5164300E096437D
:1006D0002E604D68DEF80060AD02754601D5164308
:1006E00000E096432E60641C102CFFF42FAFBDE891
:1006F000F88F0000000401400000111000100240BB
:100700000000014000080140000C014000100140C1
:100710000014014000180140001C0140806808409E
:1007200000D0012070470AB1016170470904FBE75E
:10073000014800687047000004000020024801687A
:10074000491C01607047000004000020074810B5F4
:10075000016841F010010160032000F047F80F200C
:1007600000F006F800F015F8002010BD002002404F
:1007700010B5044600F00CF94FF47A71B0FBF1F0BB
:1007800000F049FC00222146501E00F00FF8002026
:1007900010BD704700F01F02012191404009800008
:1007A00000F1E020C0F8001170470000F0B40E4BDB
:1007B0001B68C3F30223C3F10704042C00D90424EB
:1007C0001D1D072D01D2002300E0DB1E012606FAC5
:1007D00004F56D1E0D409D409E40761E164045EA74
:1007E0000601F0BC00F08BBF0CED00E0064A00F003
:1007F000070110684FF6FF03184040EA0120034943
:1008000008431060704700000CED00E00000FA059E
:100810002DE9F047DFF8688104460E46D8F800005D
:1008200000F00700B0420CD2D8F8001021F0070108
:100830003143C8F80010D8F8000000F00700B042BB
:1008400073D120784F4F800705D57868A16820F0D4
:10085000F000084378602078C00755D06068012216
:1008600001280CD0022828D0022393FAA3F1B1FA70
:1008700081F141F02001490904D0396803E04FF4C7
:100880000033F2E7796A93FAA3F3B3FA83F303F040
:100890001F039A40114248D0796821F003010143B7
:1008A0007960FFF745FF0546606841F2883101280D
:1008B0000CD00228894615D022E04FF00073D4E70F
:1008C000FFF736FF411B494501D916E08946786894
:1008D000C0F381000128F3D116E0FFF729FF411B87
:1008E00049450AD87868C0F381000228F5D10BE0A9
:1008F000FFF71EFF411B494502D90320BDE8F087E1
:10090000786810F00C0FF3D1D8F80010404601F0D1
:100910000701B1420BD9016821F0070131430160A1
:10092000006800F00700B04201D00120E6E720781F
:10093000400705D57868E16820F4E06008437860F6
:100940002078000706D57868216920F4605040EAD5
:10095000C100786000F052F87968F02292FAA2F2B1
:1009600001F0F001B2FA82F2D140074A515CC8406E
:10097000064908600F20FFF7FBFE0020BEE70000DD
:100980000020024000100240F8240008000000206F
:10099000014800687047000000000020084809492D
:1009A000006849684FF4E06292FAA2F201F4E06153
:1009B000B2FA82F2D140044A515CC840704700004C
:1009C00000000020001002400825000808480949DE
:1009D000006849684FF4605292FAA2F201F4605143
:1009E000B2FA82F2D140044A515CC840704700001C
:1009F00000000020001002400825000810B519A0D2
:100A000085B00FC88DE80F001AA01B4B006804903A
:100A100059681A4801F00C02042A1DD0082A1BD17B
:100A20004FF4701494FAA4F401F47012B4FA84F43C
:100A3000E240C9031DF8022010D559684FF4003375
:100A400093FAA3F301F40031B3FA83F3D94004AB72
:100A5000595CB0FBF1F0504305B010BD084850435D
:100A6000FAE7000002030405060708090A0B0C0D4B
:100A70000E0F1010010200000010024000127A0058
:100A800000093D002DE9F84F04460078FE4EC007EE
:100A90004FF001057FD070684FF40038C0F381003B
:100AA000012807D07068C0F3810002281BD170684C
:100AB000C00318D598FAA8F0B0FA80F040F02000F2
:100AC000400901D0306800E0706A98FAA8F1B1FAE4
:100AD00081F101F01F0105FA01F108425BD0606865
:100AE000002879D057E06068B0F5803F0BD010B196
:100AF000B0F5A02F11D0306820F48030306030681D
:100B000020F4802002E0306840F48030306060687B
:100B100018B3FFF70DFE074609E0306840F4802067
:100B20003060F0E7FFF704FEC01B642870D898FA25
:100B3000A8F0B0FA80F040F02000400901D0306801
:100B400000E0706A98FAA8F1B1FA81F101F01F0192
:100B500005FA01F10842E5D01DE0FFF7E9FD07467F
:100B600004E0FFF7E5FDC01B6428DFD898FAA8F081
:100B7000B0FA80F040F02000400901D0306800E079
:100B8000706A98FAA8F1B1FA81F101F01F0105FA33
:100B900001F10842E5D12078DFF8F08280074FF0BC
:100BA000000A4FF002075AD570684FF0F80B10F0AA
:100BB0000C0F07D07068C0F3810002281CD1706848
:100BC000C00319D497FAA7F0B0FA80F040F02000E3
:100BD000400902D0306801E08AE0706A97FAA7F114
:100BE000B1FA81F101F01F0105FA01F108422BD0A1
:100BF000206901287CD127E0206988B395FAA5F007
:100C0000B0FA80F048F82050FFF792FD814606E0E8
:100C10004DE1FFF78DFDA0EB0900022886D897FA79
:100C2000A7F0B0FA80F040F02000400901D0306811
:100C300000E0706A97FAA7F1B1FA81F101F01F01A3
:100C400005FA01F10842E4D030689BFAABF220F0DB
:100C5000F8016069B2FA82F290400143316025E008
:100C6000FFE795FAA5F1B1FA81F148F821A0FFF765
:100C70005FFD814605E0FFF75BFDA0EB0900022860
:100C8000CCD897FAA7F0B0FA80F040F020004009E5
:100C900001D0306800E0706A97FAA7F1B1FA81F1EB
:100CA00001F01F0105FA01F10842E4D120780007A4
:100CB0006DD5A069B8B395FAA5F0B0FA80F008EB4D
:100CC0008000C0F88054FFF733FD814605E0FFF750
:100CD0002FFDA0EB09000228A0D897FAA7F0B0FAE0
:100CE00080F040F06000B5EB501F02D130680CE09E
:100CF00063E197FAA7F0B0FA80F040F06000B7EB3C
:100D0000501F01D1306A00E0706A97FAA7F1B1FA7A
:100D100081F101F01F0105FA01F21042D7D0012044
:100D2000FFF7FBFB33E0FFE795FAA5F1B1FA81F19C
:100D300008EB8101C1F880A4FFF7FAFC814605E0C9
:100D4000FFF7F6FCA0EB0900022899D897FAA7F064
:100D5000B0FA80F040F06000B5EB501F01D1306870
:100D60000BE097FAA7F0B0FA80F040F06000B7EB24
:100D7000501F01D1306A00E0706A97FAA7F1B1FA0A
:100D800081F101F01F0105FA01F21042D8D120785B
:100D9000400763D5F06940F08050F061F069DFF8FA
:100DA000F0B000F080500090DBF8001041F480714A
:100DB000CBF80010FFF7BCFC814605E0FFF7B8FC5C
:100DC000A0EB0900642872D8DBF80000C005F5D557
:100DD000E06801280AD008B1052813D0306A20F055
:100DE00001003062306A20F0040002E0306A40F016
:100DF00001003062E06841F2883B80B3FFF798FC65
:100E000081460AE0306A40F004003062EEE7FFF706
:100E10008FFCA0EB0901594549D897FAA7F0B0FA21
:100E200080F040F04000B5EB501F01D130680BE07E
:100E300097FAA7F0B0FA80F040F04000B7EB501FEF
:100E400001D1306A00E0706A97FAA7F1B1FA81F136
:100E500001F01F0205FA02F10842D8D033E0FFE7A3
:100E6000FFF766FC814605E0FFF762FCA0EB090195
:100E700059451CD897FAA7F0B0FA80F040F040002E
:100E8000B5EB501F08D105E00010024000004242BF
:100E90000070004030680CE097FAA7F0B0FA80F0DC
:100EA00040F04000B7EB501F02D1306A01E08AE009
:100EB000706A97FAA7F1B1FA81F101F01F0205FA01
:100EC00002F10842D0D1E06998B37168C1F38101A1
:100ED000022972D002284FF080714FF0007B5046FB
:100EE0000AD091FAA1F1B1FA81F148F82100FFF797
:100EF0001FFC04465F4669E08A4691FAA1F1B1FA07
:100F000081F1C14648F82100FFF712FCA8460746C8
:100F10005D4604E0FFF70CFCC01B022853D895FA8D
:100F2000A5F0B0FA80F040F02000400902D030680F
:100F300001E060E0706A95FAA5F1B1FA81F101F083
:100F40001F0208FA02F10842E4D1206AB0F5803F9E
:100F500005D17068A16820F4003008437060D4E9BE
:100F600008010843716821F47411084370609AFA0B
:100F7000AAF0B0FA80F0474649F82080FFF7D8FB86
:100F8000044604E0FFF7D4FB001B02281BD895FAA7
:100F9000A5F0B0FA80F040F02000400901D03068A0
:100FA00000E0706A95FAA5F1B1FA81F101F01F0134
:100FB00007FA01F10842E5D01DE01EE0FFF7B8FB9B
:100FC000001B022802D90320BDE8F88F97FAA7F08A
:100FD000B0FA80F040F02000400901D0306800E015
:100FE000706A97FAA7F1B1FA81F101F01F0105FAD1
:100FF00001F10842E2D10020E6E70120E4E74FF0EA
:10100000E0210428086903D020F00400086170473B
:1010100040F00400FAE710B5401EB0F1807F01D324
:10102000012010BD4FF0E02460610F21601700F037
:1010300066FB0020A06107202061002010BD7047E2
:10104000704710B5040003D094F8390010B107E0E0
:10105000012010BD002084F83800204600F00CF874
:10106000022084F83900211D206800F081FF012052
:1010700084F83900002010BD38B5054600681549D0
:10108000154C88420FD1E06940F00200E061E06950
:10109000032200F00200009001211D20FFF786FBD3
:1010A0001D20FFF777FB2868B0F1804F11D1E06970
:1010B00040F00100E061E069032200F001000090CF
:1010C00001211C20FFF772FBBDE838401C20FFF710
:1010D00061BB38BD00040040001002400168CA68CE
:1010E00042F00102CA600068016841F0010101603C
:1010F00000207047704770B50446006801694FF0E2
:101100000005C943890715D4C168C943890711D4AB
:10111000E91E016101202076206880698007204651
:1011200002D0FFF7E7FF04E000F098F8204600F057
:1011300096F8257620680169C943490717D4C16824
:10114000C943490713D46FF00401016102202076DE
:101150002068806910F4407F204602D0FFF7CAFF64
:1011600004E000F07BF8204600F079F8257620684E
:101170000169C943090716D4C168C943090712D4D4
:101180006FF008010161042020762068C0698007A3
:10119000204602D0FFF7AEFF04E000F05FF82046E3
:1011A00000F05DF8257620680169C943C90617D4A7
:1011B000C168C943C90613D46FF01001016108204A
:1011C00020762068C06910F4407F204602D0FFF7E7
:1011D00091FF04E000F042F8204600F040F8257648
:1011E00020680169C943C90708D1C168C943C90753
:1011F00004D1891E0161204600F032F8206801699F
:10120000C943090609D4C168C943090605D46FF06A
:10121000800101612046FFF712FF20680169C94380
:10122000490609D4C168C943490605D46FF0400195
:101230000161204600F015F820680169C94389065C
:101240000BD4C168C943890607D46FF0200101613E
:101250002046BDE87040FFF7F3BE70BD7047704791
:1012600070477047704738B5044600680168C26827
:10127000C1F3000102F4807221B11AB1E16B41F0B7
:101280000101E1630168C1F34002416901F001011C
:1012900022B119B1E26B42F00402E2630268C2F3C8
:1012A000800222B119B1E26B42F00202E2630268ED
:1012B000C2F3C00222B119B1E16B41F00801E16350
:1012C0000168C068C1F3401100F0200019B110B1ED
:1012D000204600F0C7FE20680168C068C1F3C01155
:1012E00000F0800019B110B1204600F0C7FF21685E
:1012F0000868CA68C0F3801002F04002012568B196
:1013000062B1CA68204622F04002CA6094F83910DF
:10131000322910D080F8395000F079F9E06B0028BC
:1013200008D0206801684068009084F83950204651
:10133000FFF798FF38BD222180F83910ECE770B52F
:10134000040004D094F83900002510B106E0012013
:1013500070BD84F83850204600F020F8022084F850
:1013600039002068C16821F40051C160204600F0B6
:10137000CDFE2068016921F4904101612068416936
:1013800021F02A0141612068C16841F40051C16027
:10139000E563012084F83900002070BD2DE9F04795
:1013A00080460068474B0121474A0025474C0226EA
:1013B000032786B04FF4806998422ED1A06940F08F
:1013C0000400A061A06900F004000490A06940F44A
:1013D0008040A061A06900F480400490A06940F0C2
:1013E0000100A061A069039700F001000490480289
:1013F0000090CDE90161694692461046FFF798F8E2
:10140000CDE9009569465046FFF792F82520FFF791
:10141000C1F901221146252029E02D4B984228D1FF
:10142000A06940F00400A061A06900F004000490ED
:10143000E06940F40030E061E069039700F40030B7
:10144000049004200090CDE901616946924610465F
:10145000FFF76EF80820CDE9000569465046FFF712
:1014600067F82620FFF796F9022201212620FFF7D0
:101470009DF91849D8F8000088421FD1E06940F46E
:101480008020E061E06900F480200490A06940F0D1
:101490000800A061A069104C00F00800CDE90370BD
:1014A000CDE9009669462046FFF742F8E014CDE901
:1014B0000005694620460295FFF73AF806B0BDE8F8
:1014C000F087000000380140000801400010024091
:1014D0000044004000480040000C014090F83930C2
:1014E000012B01D0122B2BD131B32AB390F8383015
:1014F000012B25D0012380F8383081628285C28596
:101500000021C16390F83920122A17D0222280F8D6
:10151000392080F838100168CA6842F48072CA60C5
:1015200001684A6942F001024A610068C16841F0FD
:101530002001C16000207047012070473222E6E799
:101540000220704770472DE9F047044690F83900B3
:1015500099460D46012801D0222856D125B31AB349
:1015600094F83800012850D0012684F8386000270C
:10157000E76394F83900222819D0122084F8390042
:10158000A284E2844FF48058E08C4B46401EE084F5
:10159000A0684FF0000240454FF08001204613D173
:1015A00000F09FFE08BB04E00120BDE8F087322078
:1015B000E4E728882168C0F308004860206908B182
:1015C0006D1C08E0AD1C06E000F08BFE68B92168D8
:1015D00015F8010B4860E08C0028D5D14B4600225D
:1015E0004021204600F07DFE08B10320DDE794F89D
:1015F0003900322805D084F8396084F8387000202A
:10160000D3E7222084F83900F7E70220CDE77047BE
:10161000FEE700002DE9FF410024804625460094A6
:10162000019402941D495220039400F097F91C4F35
:101630000646262806D01949522000F08FF90646A2
:10164000262826D1387828BB144800F075F82628BB
:1016500020D1124800F0EEF926281BD101200F49B5
:1016600038700F4A0968C8F800100C4B921C05210D
:10167000612000F097F826280CD16946052000F07B
:1016800047F9262806D1641CE4B2102CFBD3262E81
:1016900000D03D70387804B0BDE8F0813C000020F7
:1016A0000800002010B5412826D108210846FEF781
:1016B000C7FE3D21112000F0A3FE8621172000F077
:1016C0009FFE7F21262000F09BFE1E212D2000F092
:1016D00097FE00212C2000F093FE8D212A2000F09F
:1016E0008FFE3E212B2000F08BFE022000F0C4FE76
:1016F000BDE8104000F013B810BDFEE770470907C1
:10170000090E002806DA00F00F0000F1E02080F852
:10171000141D704700F1E02080F80014704710B5E8
:10172000142000F00BFA800705D10321BDE810401A
:10173000142000F082BB10BD70B50646082188B0A9
:1017400000240846FEF77CFE00210D2000F058FE24
:1017500080210E20FEF774FE93208DF804002020D7
:101760008DF8050006A801AB0090022219460C2056
:1017700000F042F8054626280DD1002101A8425C60
:101780007254425C491C5440C9B20429F7D3405CEE
:10179000A04200D0BB2580210E2000F04EFB08B0F7
:1017A000284670BD30B587B08DF804008DF805105F
:1017B000002001A9145C0D18401CC0B2AC700628B2
:1017C000F8D300200C181A5C401CC0B22272062804
:1017D000F8D306A800900B460C220E2000F00CF85F
:1017E0000446262804D1082000F0A8F9000700D4F8
:1017F000BB2407B0204630BD2DE9FF5F0025DDF892
:1018000038B017468A4681464FF0BB082E460C2852
:1018100005D0B9F10E0F04D11225102601E077256D
:10182000302645F08001022000F0EAFD80210420EE
:10183000FEF706FE0021012000F0E2FD80210A20D3
:1018400000F0FBFA002405E01AF80410092000F06B
:10185000D7FD641CBC42F7DB4946012000F0D0FDF7
:10186000B9F10C0F03D180210D2000F0E6FA4FF4FE
:101870007A74042000F062F90746641E03D0F8076A
:1018800001D13742F5D080210D20FEF7D9FD3CB1C2
:10189000062000F053F910F01B0F0DD04FF0BB08DD
:1018A00080210C2000F0C9FA0021012000F0A8FDE1
:1018B00004B04046BDE8F09F2F404FF02608F807DF
:1018C00001D04FF0CC08B9F10C0FE9D10A2000F09B
:1018D00035F905460C2000F031F910F007004FEA09
:1018E000C50101D008390144CBF8001025B1122DF3
:1018F00000D91225002408E00125FBE7092000F0AB
:101900001DF9014603980155641CAC42F6DBC7E79C
:1019100030B587B00C4630218DF8041001AD8DF83C
:10192000050002212846AA1CFEF757FD06A801ABB8
:101930000090042219460C20FFF75EFF262802D1F2
:101940000699902902D0BB2007B030BD0023E95C86
:10195000E1545B1CDBB2102BF9D3F5E730B50C4634
:101960000546082187B00846FEF76AFD07210D20CD
:1019700000F046FD0321142000F05FFA06A801AB39
:1019800000908DF80450012219460C20FFF734FF17
:10199000262802D10699102902D0BB2007B030BDFD
:1019A0009DF8041021709DF805106170F6E70000A5
:1019B00010B51F4C012211462046FEF7B4FE01204F
:1019C00000F05AFD002201212046FEF7ACFE012066
:1019D00000F052FD012211462046FEF7A4FE012030
:1019E00000F04AFD0F21012000F00AFD012000F067
:1019F000A5F8C006FAD4012000F03EFD3D211120DB
:101A000000F0FEFC1E212D2000F0FAFC00212C200D
:101A100000F0F6FC8D212A2000F0F2FC3E212B2064
:101A200000F0EEFC4021BDE81040152000F0E8BCBD
:101A30000008014010B588B093218DF80410702182
:101A40008DF8051000218DF80A1001AA5418435C86
:101A5000A370445C9DF80A30491C6340C9B28DF8FC
:101A60000A300429F2D3072101A8D21DFEF7B5FCE4
:101A700008210846FEF7E4FC06A801AB0090092205
:101A800019460C20FFF7B8FE262802D1069918291E
:101A900000D0BB2008B010BD7047000030B518481A
:101AA00085B0816941F0040181618069154D00F0C4
:101AB00004000490B12000900120032401906946A5
:101AC00003942846FEF734FD40210020CDE90010A4
:101AD000039469462846FEF72BFD0122114628464D
:101AE000FEF721FE012210212846FEF71CFEFFF71B
:101AF0005FFF05B04120BDE83040FFF7D3BD0000D7
:101B0000001002400008014038B541F601042046AB
:101B1000FEF7A2FC00280CD1064841F20151C08812
:101B2000884206D10448009004232046224600F053
:101B3000A3F838BD240100202C00002070B57E21C0
:101B400001EA40000A4D40F080040022102128469E
:101B5000FEF7E9FD204600F045F900F01BF90446C8
:101B6000012210212846FEF7DEFD204670BD000050
:101B70000008014030B5104885B0816941F004018A
:101B8000816180694FF4807400F0040004900120AA
:101B9000CDE900400220094D039069462846FEF732
:101BA000C7FC002221462846FEF7BDFD00F0D6F80E
:101BB00000F020FA05B030BD0010024000080140DE
:101BC000F0B52A49012503264A78294F0023294CDC
:101BD0004FF0020CE12803D1042A01D24D7012E02B
:101BE000012A04D0022A07D0032A09D00AE0E228F9
:101BF00008D181F801C006E0E32803D14E7002E06D
:101C0000E42817D04B708A78002A1DD02268C72A92
:101C100002D90B708B7023602268B854521C22606A
:101C2000EA2810D00A78012A0FD0022A12D0032AFB
:101C300014D019E0E1223A70E2227A70E322BA70FD
:101C400026608D70E8E70D70F0BDEB280CD181F8AF
:101C500000C0F0BDEC2807D10E70F0BDED2803D117
:101C60004FF4004020608B700B70F0BD100000201E
:101C7000C80200201C0000202DE9F0411E4613463A
:101C80002C4F069A0D46002404F1E1013955641CDD
:101C9000A4B2042CF8D3284C2179FF2901D30021C8
:101CA0002171C9B23971491C2171010A7971B87168
:101CB000280AF8713D72180A7872BB72FE720C2005
:101CC00006F10C0105E0131813F80C3C3B54401CC2
:101CD00080B28842F7D31748FEF769FBA4F8D60014
:101CE000020AB91906F10E050A7348732C1D04E0A7
:101CF000A81BDC3078556D1CADB2A542F8D301228B
:101D00000E4E150229463046FEF70DFD052000F067
:101D100019F84FF47A73224606490948FFF713FC75
:101D2000052000F00FF829463046BDE8F0410022BA
:101D3000FEF7F9BC00020020480000200008014026
:101D40009003002000224FF4165304E00021491CA8
:101D50009942FCD3521C8242F8D3704770B50B4CA9
:101D60000948002520602571E5802581658125735E
:101D7000C82104F10D00FEF757FAA4F8D650044824
:101D8000C4F8D80070BD0000E4E3E2E124010020C3
:101D9000EDECEBEA70B5124E00256006040E002251
:101DA00020213046FEF7BFFCC82000F065FB402133
:101DB0003046FEF7B3FC012801D144F00104C820ED
:101DC00000F05AFB012220213046FEF7ACFCC8206F
:101DD00000F052FB6D1CEDB2082DDED3204670BD25
:101DE0000008014070B5134E05460024280601D5B1
:101DF000012200E0002280213046FEF794FCC8203A
:101E000000F03AFB002220213046FEF78CFCC8206F
:101E100000F032FB012220213046FEF784FCC8206E
:101E200000F02AFB6806641C050EE4B2082CDDD322
:101E300070BD000000080140704770B50C460546B3
:101E4000FFF77CFE40EA04012846BDE8704000F040
:101E5000D7BAFEF773BC30B58FB0022401200490CE
:101E600000941020059000254FF46010CDE9085033
:101E700007946846FEF706FE00B1FEE70AA90F20A8
:101E800081E831004FF48060CDE90D0502210AA8F8
:101E9000FEF7BEFC00B1FEE7FEF77AFD4FF47A7163
:101EA000B0FBF1F0FFF7B7F80420FFF7A8F8002225
:101EB0001146501EFEF77AFC0FB030BD0F4810B52A
:101EC000016841F00101016041680D4A1140416023
:101ED00001680C4A11400160016821F48021016011
:101EE000416821F4FE0141604FF41F018160FFF75A
:101EF000B2FF05494FF00060086010BD00100240BD
:101F00000000FFF8FFFFF6FE08ED00E002490120A7
:101F100008700248FFF7EFB8240000208C0400206E
:101F200010B50448FFF7E7F803484068BDE81040E3
:101F300000470000500400202400002010B50A4B88
:101F40001446084AC3E900210021C3E902101846DB
:101F50001961FFF776F805484460BDE81040024873
:101F6000FFF7BCB80004004050040020240000200B
:101F7000F0B502681A4D1B4E1B4FDFF870C01C4BAA
:101F80004FF0804EA84209D0984207D0704505D046
:101F9000B04203D0B84201D0604503D122F07004B2
:101FA0004A682243A84209D0984207D0704505D01C
:101FB000B04203D0B84201D0604503D122F440744E
:101FC000CA68224302608A68C2620A688262A842C2
:101FD00001D0984201D10969016301214161F0BD3D
:101FE000002C01400004004000080040000C0040AC
:101FF0000034014070B50B4C094800252060257164
:10200000E580258165812573C82104F10D00FEF767
:102010000BF9A4F8D6500448C4F8D80070BD0000ED
:10202000E4E3E2E148000020EDECEBEA0B4910B5F7
:10203000094AC1E9002000208860C8600861886101
:102040000C2048610846FFF77AF9BDE810400122EC
:1020500003490248FFF742BA0038014090030020CC
:102060001800002010B590F83910222903D0322929
:1020700001D0022010BD8168B1F5805F11D00169E7
:10208000002901681FD0496801F07F03816A4A1C5A
:1020900082620B70C18D491E0904090CC18518D0DC
:1020A0002FE00269816A002A0268526805D0D2B224
:1020B0000A80816A491C8162ECE7C2F308020A8047
:1020C000816A891CF7E74A68816A4B1C83620A703F
:1020D000E0E70168CA6822F02002CA6090F839106F
:1020E000322910D00168CA6822F48072CA6001687F
:1020F0004A6922F001024A61012180F83910FFF794
:1021000021FA002010BD1221F7E700002DE9F0416F
:10211000044600680169E26821F4405111430161FD
:10212000A16820690143606901432068C26841F2E7
:102130000C639A430A43C26020684169A26921F492
:102140004071114341614C4920686426322788421E
:102150003CD1FEF73BFC00EBC00101EB00106168D5
:102160008900B0FBF1F5FEF731FC00EBC00101EB9B
:1021700000106168B8468900B0FBF1F0B0FBF6F0E2
:102180006FF01801484305EB800107EB0110B0FB2D
:10219000F6F000F0F005FEF719FC00EBC00101EBD2
:1021A000001061688900B0FBF1F0B0FBF6F005EBC0
:1021B0000015FEF70BFC00EBC00101EB001061689D
:1021C0008900B0FBF1F7FEF701FC3BE0FEF7E6FB10
:1021D00000EBC00101EB001061688900B0FBF1F574
:1021E000FEF7DCFB00EBC00101EB00106168B846B4
:1021F0008900B0FBF1F0B0FBF6F06FF01801484336
:1022000005EB800107EB0110B0FBF6F000F0F005E4
:10221000FEF7C4FB00EBC00101EB00106168890010
:10222000B0FBF1F0B0FBF6F005EB0015FEF7B6FBE6
:1022300000EBC00101EB001061688900B0FBF1F711
:10224000FEF7ACFB00EBC00101EB001061688900F8
:10225000B0FBF1F0B0FBF6F06FF01801484307EB6C
:10226000800108EB0110B0FBF6F0216800F00F00D0
:1022700028448860BDE8F0810038014090F83910AA
:10228000122903D0322901D0022070478168B1F5AC
:10229000805F016A0BD04A1C0262026809785160B3
:1022A000C18C491E0904090CC1840ED017E00988AD
:1022B0000268C1F30801516001690029016A02D076
:1022C000491C0162ECE7891CFBE70168CA6822F03F
:1022D0008002CA600068C16841F04001C16000200E
:1022E00070472DE9F0471D4690460F460446FEF71D
:1022F0001FFA06465FEA08004FF000094FF0010898
:1023000008D030E0681C05D095B1FEF711FA801BAB
:10231000A8420DD82068006837EA0000F2D127E013
:10232000681C20D025B1FEF703FA801BA8421AD9F9
:102330002068C16821F08001C1602068C16821F077
:102340002001C1602068C16821F48071C1602068EB
:10235000416921F00101416184F8398084F83890A5
:102360000320BDE8F0872068006837EA0000D7D076
:102370000020F6E70A4810B500680068C0438006F0
:1023800009D4084800680849C0B24968B1F5004F4F
:1023900001D0FFF715FCBDE810400148FEF763BF10
:1023A0009003002004380140180000200548006810
:1023B0000068C043800601D4034800680148FEF766
:1023C00052BF000010040020044400400A4910B528
:1023D000084AC1E90020002088600C22C860C1E9D9
:1023E00004028861C8610846FEF7A9FF002800D0F2
:1023F000FEE710BD00480040D0030020FEE70000CB
:1024000070B50D467E2101EA4004094E00221021DC
:102410003046FEF788F92046FFF7E4FC2846FFF730
:10242000E1FC3046BDE8704001221021FEF77BB987
:1024300000080140704710B580EA0120002241F2F7
:1024400021034FF6FF71040403D583EA400080B2F4
:1024500001E001EA4000521C92B2082AF3D310BDF9
:10246000002242F6681304E00021491C9942FCD383
:10247000521C8242F8D3704702E00221491EFDD26D
:10248000401EFAD27047000004490A685206FCD583
:10249000024AC1B2121D116070470000004800409E
:1024A000FEF754F94FF4E1342046FFF78FFF0CA0FC
:1024B000FDF7AEFEFFF7F2FAC820FFF7D1FFFFF7F6
:1024C00059FB2046FFF7B2FD094A40F27F2142F254
:1024D0000F70FFF733FD0748FFF79CF8FBE700009C
:1024E000757361727433207072696E740D0A000026
:1024F000091B00082C000020000000000000000064
:102500000102030406070809000000000102030499
:1025100030250008000000202C0000006C0100089D
:102520005C2500082C000020FC0A0000880100083F
:102530000090D003000000000000FFFFFFFFFFFF3E
:10254000000000000000000000000000000000008B
:0C2550000000000000000000000000007F
:0400000508000131BD
:00000001FF
