:020000040800F2
:10000000B00A0020CD010008DF100008951000089C
:10001000DD100008D5030008ED1600080000000000
:100020000000000000000000000000005D13000858
:10003000D703000800000000011100085F1300084A
:10004000E7010008E7010008E7010008E7010008F0
:10005000E7010008E7010008E7010008E7010008E0
:10006000E7010008E7010008E7010008E7010008D0
:10007000E7010008E7010008E7010008E7010008C0
:10008000E7010008E7010008E7010008E7010008B0
:10009000E7010008E7010008E7010008E7010008A0
:1000A000E7010008E7010008E7010008E701000890
:1000B000E7010008E7010008E7010008E701000880
:1000C000E7010008E7010008E7010008E701000870
:1000D000E70100085116000881160008E701000832
:1000E000E7010008E7010008E7010008E701000850
:1000F000E7010008E7010008E7010008E701000840
:10010000E7010008E7010008E7010008E70100082F
:10011000E7010008E7010008E7010008E70100081F
:10012000E7010008E7010008E7010008E70100080F
:1001300000F002F800F03AF80AA090E8000C8244BF
:100140008344AAF10107DA4501D100F02FF8AFF29C
:10015000090EBAE80F0013F0010F18BFFB1A43F0A5
:10016000010318472017000040170000103A24BF71
:1001700078C878C1FAD8520724BF30C830C144BF0C
:1001800004680C607047000000230024002500264E
:10019000103A28BF78C1FBD8520728BF30C148BFEA
:1001A0000B6070471FB51FBD10B510BD00F0ADF856
:1001B0001146FFF7F7FF01F0A7FA00F0CBF803B400
:1001C000FFF7F2FF03BC01F092FA000009488047F4
:1001D00009480047FEE7FEE7FEE7FEE7FEE7FEE729
:1001E000FEE7FEE7FEE7FEE704480549054A064B41
:1001F00070470000D513000831010008B00400204A
:10020000B00A0020B0060020B0060020704730B5CC
:1002100005460B462A4613F8014B12F8010B08B1AC
:10022000A042F8D01CB1002802D06D1CF1E728468E
:1002300030BD10B5431C02E010F8011B71B18107FD
:10024000FAD14FF0013202C88C1A8C4314EAC21161
:10025000F9D0C01A0A0603D0C01E10BDC01A10BDC6
:100260000A0401D0801E10BD0902FCD0401E10BD42
:100270004FF000020429C0F0128010F0030C00F0CF
:100280001F80CCF1040CBCF1020F18BF00F8012B49
:10029000A8BF20F8022BA1EB0C0100F011B85FEA17
:1002A000C17C24BF00F8012B00F8012B48BF00F8E7
:1002B000012B704770477047704770474FF000023E
:1002C00000B5134694469646203922BFA0E80C504C
:1002D000A0E80C50B1F12001BFF4F7AF090728BF27
:1002E000A0E80C5048BF0CC05DF804EB890028BFA3
:1002F00040F8042B08BF704748BF20F8022B11F0CC
:10030000804F18BF00F8012B7047754600F02CF89D
:10031000AE4605006946534620F00700854618B0F2
:1003200020B5FFF761FFBDE820404FF000064FF019
:1003300000074FF000084FF0000B21F00701AC461A
:10034000ACE8C009ACE8C009ACE8C009ACE8C00939
:100350008D46704710B50446AFF300802046BDE8D7
:100360001040FFF72CBF00000048704750040020E9
:100370002DE9F05F0026DFF854901F4615468A46A7
:100380008346B046A9F8008064211148FFF770FF4A
:100390005846FFF74EFF81B2584601F095F93C46AA
:1003A0000AE051460A48FFF732FF10B10025012646
:1003B00005E0012001F09CF9641EA4B2F1D26D1E8B
:1003C000EDB2DFD23046BDE8F09F00000E00002005
:1003D00024000020FEE7704731B500F005F904461F
:1003E00000F002F90099001B8842F9D338BD0000E3
:1003F0002DE9F84FDFF8BC91002309F1040A0AF156
:10040000040B1C464FF00F080BF1040E01270A687D
:10041000A7403A40BA4272D1DFF89CC14D68A5EBC3
:100420000C0665452BD00DDC032D34D005DC35B32F
:10043000012D19D0022D2FD11BE0112D16D0122D18
:100440002AD119E0B6F5881F19D006DCB6F5803F31
:1004500015D0B6F5801F1FD111E0B6F5001F0ED0E4
:10046000B6F5041F18D10AE0CB6815E0CB681B1D58
:1004700012E0CB6808330FE0CB680C330CE08B68DC
:100480002BB1012B4FF0080303D0476104E0042394
:1004900002E0076100E00023FF2A01D8064601E0E0
:1004A00000F104064FEA840501D9A5F1200537685B
:1004B00008FA05FC27EA0C0703FA05F547EA0507E1
:1004C00037604D68ED006ED53C4DAE6946F00106D3
:1004D000AE61AD6924F0030605F001050095384DC5
:1004E0007719BE68A5072D0F08FA05FC26EA0C0649
:1004F000DFF8D0C0604503D14FF0000C25E052E09A
:10050000DFF8C4C0604502D14FF0010C1DE0DFF8F8
:10051000BCC0604502D14FF0020C16E0DFF8B0C05D
:10052000604502D14FF0030C0FE0DFF8A8C0604532
:1005300002D14FF0040C08E0DFF89CC0604502D106
:100540004FF0050C01E04FF0060C0CFA05FC4CEAEC
:10055000060CC7F808C04D68D9F80060ED034D4699
:1005600001D5164300E096432E604D68DAF800602E
:10057000AD03554601D5164300E096432E604D6805
:10058000DBF80060ED025D4601D5164300E09643BE
:100590002E604D68DEF80060AD02754601D5164349
:1005A00000E096432E60641C102CFFF42FAFBDE8D2
:1005B000F88F0000000401400000111000100240FC
:1005C0000000014000080140000C01400010014003
:1005D0000014014000180140001C01400AB10161F3
:1005E00070470904FBE700000148006870470000FD
:1005F0000800002002480168491C016070470000A3
:1006000008000020074810B5016841F010010160A2
:10061000032000F047F80F2000F006F800F015F86E
:10062000002010BD0020024010B5044600F00CF977
:100630004FF47A71B0FBF1F000F049FC0022214642
:10064000501E00F00FF8002010BD704700F01F0290
:10065000012191404009800000F1E020C0F8001124
:1006600070470000F0B40E4B1B68C3F30223C3F1C4
:100670000704042C00D904241D1D072D01D20023DA
:1006800000E0DB1E012606FA04F56D1E0D409D40BC
:100690009E40761E164045EA0601F0BC00F020BDE3
:1006A0000CED00E0064A00F0070110684FF6FF036A
:1006B000184040EA012003490843106070470000D9
:1006C0000CED00E00000FA052DE9F047DFF8688145
:1006D00004460E46D8F8000000F00700B0420CD2E5
:1006E000D8F8001021F007013143C8F80010D8F8FD
:1006F000000000F00700B04273D120784F4F800710
:1007000005D57868A16820F0F0000843786020786B
:10071000C00755D06068012201280CD0022828D0DB
:10072000022393FAA3F1B1FA81F141F020014909C2
:1007300004D0396803E04FF40033F2E7796A93FAA2
:10074000A3F3B3FA83F303F01F039A40114248D096
:10075000796821F0030101437960FFF745FF054601
:10076000606841F2883101280CD00228894615D0F2
:1007700022E04FF00073D4E7FFF736FF411B4945F5
:1007800001D916E089467868C0F381000128F3D1C9
:1007900016E0FFF729FF411B49450AD87868C0F3E6
:1007A00081000228F5D10BE0FFF71EFF411B4945F0
:1007B00002D90320BDE8F087786810F00C0FF3D160
:1007C000D8F80010404601F00701B1420BD901688A
:1007D00021F0070131430160006800F00700B042DA
:1007E00001D00120E6E72078400705D57868E16868
:1007F00020F4E060084378602078000706D5786828
:10080000216920F4605040EAC100786000F052F89D
:100810007968F02292FAA2F201F0F001B2FA82F2C3
:10082000D140074A515CC840064908600F20FFF7D5
:10083000FBFE0020BEE70000002002400010024046
:100840006C18000804000020014800687047000090
:100850000400002008480949006849684FF4E06234
:1008600092FAA2F201F4E061B2FA82F2D140044AB3
:10087000515CC84070470000040000200010024096
:100880007C18000808480949006849684FF460521C
:1008900092FAA2F201F46051B2FA82F2D140044A13
:1008A000515CC84070470000040000200010024066
:1008B0007C18000810B519A085B00FC88DE80F008E
:1008C0001AA01B4B0068049059681A4801F00C02EA
:1008D000042A1DD0082A1BD14FF4701494FAA4F4F2
:1008E00001F47012B4FA84F4E240C9031DF8022046
:1008F00010D559684FF4003393FAA3F301F4003193
:10090000B3FA83F3D94004AB595CB0FBF1F0504328
:1009100005B010BD08485043FAE700000203040583
:10092000060708090A0B0C0D0E0F1010010200003B
:100930000010024000127A0000093D002DE9F84F36
:1009400004460078FE4EC0074FF001057FD0706866
:100950004FF40038C0F38100012807D07068C0F35D
:10096000810002281BD17068C00318D598FAA8F03E
:10097000B0FA80F040F02000400901D0306800E07B
:10098000706A98FAA8F1B1FA81F101F01F0105FA35
:1009900001F108425BD06068002879D057E06068B8
:1009A000B0F5803F0BD010B1B0F5A02F11D030685A
:1009B00020F480303060306820F4802002E030681D
:1009C00040F480303060606818B3FFF70DFE0746D2
:1009D00009E0306840F480203060F0E7FFF704FE63
:1009E000C01B642870D898FAA8F0B0FA80F040F0E4
:1009F0002000400901D0306800E0706A98FAA8F140
:100A0000B1FA81F101F01F0105FA01F10842E5D0C8
:100A10001DE0FFF7E9FD074604E0FFF7E5FDC01B19
:100A20006428DFD898FAA8F0B0FA80F040F02000EF
:100A3000400901D0306800E0706A98FAA8F1B1FA74
:100A400081F101F01F0105FA01F10842E5D120789A
:100A5000DFF8F08280074FF0000A4FF002075AD506
:100A600070684FF0F80B10F00C0F07D07068C0F3EF
:100A7000810002281CD17068C00319D497FAA7F02E
:100A8000B0FA80F040F02000400902D0306801E068
:100A90008AE0706A97FAA7F1B1FA81F101F01F01BB
:100AA00005FA01F108422BD0206901287CD127E00A
:100AB000206988B395FAA5F0B0FA80F048F8205084
:100AC000FFF792FD814606E04DE1FFF78DFDA0EBBB
:100AD0000900022886D897FAA7F0B0FA80F040F013
:100AE0002000400901D0306800E0706A97FAA7F151
:100AF000B1FA81F101F01F0105FA01F10842E4D0D9
:100B000030689BFAABF220F0F8016069B2FA82F229
:100B100090400143316025E0FFE795FAA5F1B1FA75
:100B200081F148F821A0FFF75FFD814605E0FFF75E
:100B30005BFDA0EB09000228CCD897FAA7F0B0FA29
:100B400080F040F02000400901D0306800E0706A79
:100B500097FAA7F1B1FA81F101F01F0105FA01F14D
:100B60000842E4D1207800076DD5A069B8B395FAA2
:100B7000A5F0B0FA80F008EB8000C0F88054FFF7D1
:100B800033FD814605E0FFF72FFDA0EB09000228A9
:100B9000A0D897FAA7F0B0FA80F040F06000B5EB6B
:100BA000501F02D130680CE063E197FAA7F0B0FA69
:100BB00080F040F06000B7EB501F01D1306A00E0D8
:100BC000706A97FAA7F1B1FA81F101F01F0105FAF5
:100BD00001F21042D7D00120FFF7FEFB33E0FFE720
:100BE00095FAA5F1B1FA81F108EB8101C1F880A471
:100BF000FFF7FAFC814605E0FFF7F6FCA0EB0900E1
:100C0000022899D897FAA7F0B0FA80F040F0600077
:100C1000B5EB501F01D130680BE097FAA7F0B0FA9E
:100C200080F040F06000B7EB501F01D1306A00E067
:100C3000706A97FAA7F1B1FA81F101F01F0105FA84
:100C400001F21042D8D12078400763D5F06940F016
:100C50008050F061F069DFF8F0B000F08050009053
:100C6000DBF8001041F48071CBF80010FFF7BCFCFA
:100C7000814605E0FFF7B8FCA0EB0900642872D8B4
:100C8000DBF80000C005F5D5E06801280AD008B1FE
:100C9000052813D0306A20F001003062306A20F05D
:100CA000040002E0306A40F001003062E06841F286
:100CB000883B80B3FFF798FC81460AE0306A40F039
:100CC00004003062EEE7FFF78FFCA0EB0901594505
:100CD00049D897FAA7F0B0FA80F040F04000B5EBA1
:100CE000501F01D130680BE097FAA7F0B0FA80F0FE
:100CF00040F04000B7EB501F01D1306A00E0706A4D
:100D000097FAA7F1B1FA81F101F01F0205FA02F199
:100D10000842D8D033E0FFE7FFF766FC814605E0E4
:100D2000FFF762FCA0EB090159451CD897FAA7F020
:100D3000B0FA80F040F04000B5EB501F08D105E05C
:100D400000100240000042420070004030680CE099
:100D500097FAA7F0B0FA80F040F04000B7EB501FD0
:100D600002D1306A01E08AE0706A97FAA7F1B1FA1D
:100D700081F101F01F0205FA02F10842D0D1E069C9
:100D800098B37168C1F38101022972D002284FF033
:100D900080714FF0007B50460AD091FAA1F1B1FA70
:100DA00081F148F82100FFF71FFC04465F4669E027
:100DB0008A4691FAA1F1B1FA81F1C14648F82100C1
:100DC000FFF712FCA84607465D4604E0FFF70CFC5F
:100DD000C01B022853D895FAA5F0B0FA80F040F075
:100DE0002000400902D0306801E060E0706A95FAA6
:100DF000A5F1B1FA81F101F01F0208FA02F10842EF
:100E0000E4D1206AB0F5803F05D17068A16820F474
:100E1000003008437060D4E908010843716821F488
:100E20007411084370609AFAAAF0B0FA80F047464D
:100E300049F82080FFF7D8FB044604E0FFF7D4FB15
:100E4000001B02281BD895FAA5F0B0FA80F040F0FC
:100E50002000400901D0306800E0706A95FAA5F1E1
:100E6000B1FA81F101F01F0107FA01F10842E5D062
:100E70001DE01EE0FFF7B8FB001B022802D903208B
:100E8000BDE8F88F97FAA7F0B0FA80F040F02000A4
:100E9000400901D0306800E0706A97FAA7F1B1FA12
:100EA00081F101F01F0105FA01F10842E2D10020B1
:100EB000E6E70120E4E74FF0E0210428086903D0C9
:100EC00020F004000861704740F00400FAE710B514
:100ED000401EB0F1807F01D3012010BD4FF0E0240F
:100EE00060610F21601700F0FBF80020A06107206F
:100EF0002061002010BD70B5040004D094F83900C2
:100F0000002510B106E0012070BD84F8385020465D
:100F100000F020F8022084F839002068C16821F42C
:100F20000051C160204600F0DBFA2068016921F41D
:100F3000904101612068416921F02A0141612068E6
:100F4000C16841F40051C160E563012084F83900B3
:100F5000002070BDF0B50068304F002530490222F6
:100F6000012303262F4C85B0B8422CD1886940F06C
:100F700004008861886900F004000490886940F4E6
:100F800080408861886900F480400490886940F05E
:100F900001008861886900F00100049048158DE81F
:100FA0004D0069462046FFF723FA2115CDE90015CB
:100FB00069462046FFF71CFA2520FFF747FB012270
:100FC0001146252026E0184FB84225D1886940F007
:100FD00004008861886900F004000490C86940F446
:100FE0000030C861C869694600F4003004900420EC
:100FF0008DE84D002046FFF7FBF90821CDE90015EB
:1010000069462046FFF7F4F92620FFF71FFB02226E
:1010100001212620FFF726FB05B0F0BD0038014076
:1010200000100240000801400044004090F83930B0
:10103000012B01D0122B2BD131B32AB390F83830C9
:10104000012B25D0012380F8383081628285C2854A
:101050000021C16390F83920122A17D0222280F88B
:10106000392080F838100168CA6842F48072CA607A
:1010700001684A6942F001024A610068C16841F0B2
:101080002001C16000207047012070473222E6E74E
:1010900002207047FEE700000E4810B5816986B057
:1010A00041F00401816180690B4C00F00400049060
:1010B0008020009001200190029003200390694657
:1010C0002046FFF795F9002280212046FFF786FA97
:1010D00006B010BD0010024000080140FEE7704756
:1010E0000907090E002806DA00F00F0000F1E020E1
:1010F00080F8141D704700F1E02080F8001470475C
:10110000704700002DE9F041404C414DDFF804816B
:10111000207886B04FF40046E0B16088401C80B271
:101120006080B0F5FA7F12D3002767806078E8B35B
:10113000012857D002280AD1002231464046FFF745
:101140004DFA012218212846FFF748FA677006B0C9
:10115000BDE8F081304A01202070916941F0010121
:101160009161916901F0010104912C494B6823F0D0
:10117000E06343F000734B60916941F008019161B5
:10118000916901F008010491916941F004019161B4
:1011900091690190029048F2180401F004010320C3
:1011A0000094CDE903016946284600E012E0FFF70C
:1011B0001FF96946474640460096FFF719F9012294
:1011C00021462846FFF70AFA012231463846FFF742
:1011D00005FABCE7002210212846FFF7FFF901229B
:1011E000082107E0002208212846FFF7F7F901222D
:1011F00048F210012846FFF7F1F901223146404636
:10120000FFF7ECF96078401C6070A0E70000002058
:10121000000C0140000801400010024000000140A5
:1012200030B5104885B0816941F004018161806961
:101230004FF4807400F0040004900120CDE90040D8
:101240000220094D039069462846FFF7D1F8002295
:1012500021462846FFF7C2F900F064F800F0E2F8F2
:1012600005B030BD0010024000080140F0B52A4929
:10127000012503264A78294F0023294C4FF0020C00
:10128000E12803D1042A01D24D7012E0012A04D0D2
:10129000022A07D0032A09D00AE0E22808D181F8FF
:1012A00001C006E0E32803D14E7002E0E42817D025
:1012B0004B708A78002A1DD02268C72A02D90B7089
:1012C0008B7023602268B854521C2260EA2810D028
:1012D0000A78012A0FD0022A12D0032A14D019E06A
:1012E000E1223A70E2227A70E322BA7026608D70B1
:1012F000E8E70D70F0BDEB280CD181F800C0F0BD1F
:10130000EC2807D10E70F0BDED2803D14FF400405A
:1013100020608B700B70F0BD14000020D001002005
:101320001000002070B50B4C094800252060257185
:101330006571A5712581A572C82104F10B00FEF726
:1013400097FFA4F8D4500448C4F8D80070BD00003A
:10135000E4E3E2E174030020EDECEBEA704710B542
:10136000FFF7D0FEBDE81040FFF744B930B58FB0AD
:1013700002240120049000941020059000254FF4D1
:101380006010CDE9085007946846FFF7D7FA00B11E
:10139000FEE70AA90F2081E831004FF48060CDE913
:1013A0000D0502210AA8FFF78FF900B1FEE7FFF74C
:1013B0004BFA4FF47A71B0FBF1F0FFF788FD04208F
:1013C000FFF779FD00221146501EFFF74BF90FB0D1
:1013D00030BD00000F4810B5016841F00101016007
:1013E00041680D4A1140416001680C4A114001609A
:1013F000016821F480210160416821F4FE0141600F
:101400004FF41F018160FFF7B1FF05494FF0006005
:10141000086010BD001002400000FFF8FFFFF6FE5C
:1014200008ED00E070B50B4C0948002520602571DF
:101430006571A5712581A572C82104F10B00FEF725
:1014400017FFA4F8D4500448C4F8D80070BD0000B9
:10145000E4E3E2E198020020EDECEBEA0B4910B581
:10146000094AC1E9002000208860C86008618861DD
:101470000C2048610846FFF73EFDBDE81040012200
:1014800003490248FFF7D2BD003801408800002020
:101490000D00002070B5114C0F4900252160C4E9F2
:1014A0000105E5600C202561C4E905052046E561DC
:1014B000FFF721FD84F838502068C16841F480713D
:1014C000C1602068416941F0010141612068C16843
:1014D00041F02001C16070BD00440040C800002000
:1014E0002DE9F041044600680169E26821F44051A9
:1014F00011430161A16820690143606901432068CB
:10150000C26841F20C639A430A43C2602068416991
:10151000A26921F44071114341614C49206864265D
:10152000322788423CD1FFF7ADF900EBC00101EB57
:10153000001061688900B0FBF1F5FFF7A3F900EB3B
:10154000C00101EB00106168B8468900B0FBF1F002
:10155000B0FBF6F06FF01801484305EB800107EB94
:101560000110B0FBF6F000F0F005FFF78BF900EB8F
:10157000C00101EB001061688900B0FBF1F0B0FB25
:10158000F6F005EB0015FFF77DF900EBC00101EB6C
:10159000001061688900B0FBF1F7FFF773F93BE0D9
:1015A000FFF758F900EBC00101EB001061688900FA
:1015B000B0FBF1F5FFF74EF900EBC00101EB0010B5
:1015C0006168B8468900B0FBF1F0B0FBF6F06FF04F
:1015D0001801484305EB800107EB0110B0FBF6F062
:1015E00000F0F005FFF736F900EBC00101EB001049
:1015F00061688900B0FBF1F0B0FBF6F005EB001577
:10160000FFF728F900EBC00101EB001061688900C9
:10161000B0FBF1F7FFF71EF900EBC00101EB001082
:1016200061688900B0FBF1F0B0FBF6F06FF01801D3
:10163000484307EB800108EB0110B0FBF6F021688E
:1016400000F00F0028448860BDE8F08100380140B8
:10165000084800680068C04380060AD4064800684D
:101660000649C0B208704968B1F5004F01D0FFF7D4
:10167000FDBD704788000020043801400C000020A8
:101680000F4810B500680168C943890617D443683C
:101690000C4A0B495088A4390B54401C80B20023DB
:1016A0005080022808D3014411F8024C0D2C03D1BC
:1016B00011F8011C0A2901D0632800D3538010BD02
:1016C000C80000200C00002010B5074A141D07E0D8
:1016D00013685B06FCD510F8013B2360491E89B2F4
:1016E0000029F5D110BD000000440040FEE770471E
:1016F00000224FF4165304E00021491C9942FCD308
:10170000521C8242F8D37047FEF77CFFFFF788FD3A
:10171000FFF7C2FC4FF4E130FFF7A0FE4FF4165084
:10172000FFF7B8FE00F002F8FEE7000010B542F245
:101730001073002223A124A0FEF71AFE41F2883084
:10174000FFF7D6FF642303221EA122A0FEF710FE9E
:10175000642303221BA122A0FEF70AFE4FF4FA74B1
:101760002346002221A122A0FEF702FE23460022EA
:1017700014A122A0FEF7FCFD2346002211A122A005
:10178000FEF7F6FD234600220EA123A0FEF7F0FD92
:10179000234600220BA124A0FEF7EAFD23460022E7
:1017A00008A125A0FEF7E4FDA3001E2226A129A082
:1017B000FEF7DEFD2346BDE81040002201A128A06F
:1017C000FEF7D6BD4F4B000041542B4E52420D0A3E
:1017D0000000000041542B43494D490D0A00000010
:1017E00041542B4347534E0D0A000000332E000096
:1017F00041542B434D5645520D0A000041542B4392
:101800004D45453D310D0A0041542B4353434F4E46
:101810003D310D0A0000000041542B43455245471D
:101820003D320D0A0000000041542B4345445258FC
:10183000533D302C350D0A0041542B4350534D532A
:101840003D300D0A0000000043455245473A322C16
:101850003100000041542B43455245473F0D0A00DB
:1018600041542B6373710D0A00000000000000005A
:101870000000000001020304060708090000000040
:1018800001020304A4180008000000202400000046
:101890006C010008C8180008240000208C0A000011
:1018A000880100080000F4010090D003000000004F
:1018B0000000000000000000000000000000000028
:0818C000000000000000000020
:0400000508000131BD
:00000001FF
