:020000040000FA
:1000000002005000000080FB120080B900030200D3
:100010003A900200AA82AB8390008378097901802C
:1000200015E493A3AC82AD838A828B83F0A3AA826A
:10003000AB838C828D83D8E9D9E7758242758304BE
:1000400074001200627582037583007400120062EE
:1000500075D0007581BF751000751102759F000283
:100060000008C09FF59FE473D09F22D083D082C048
:100070009FE493C0E0740193C0E0740293F59F2263
:10008000790122010000008813000012006B7D013D
:100090000012006B91010012006BD4030012006B80
:1000A00079040012006BEA030012006B330400C3F2
:1000B000E7960809E7960809E7960809E79622E017
:1000C000FAA3E0FBA3E0FCA3E0FD222510C582C05B
:1000D000E0E51134FFC583C0E0E510C3958224F844
:1000E00010AF088583118582108008858311858271
:1000F00010D2AFCEF0A3E520F0A37808E608F0A375
:10010000DEFAEFF0A3E58124FAF8E608F0A3E608AA
:10011000F0A3E608F0A30808E608F0A3E608F0A3B9
:1001200015811581D0E0FED0E0F81581158115818B
:10013000E8C0E0EEC0E022851183851082E0A3FED6
:10014000E0A3F5207808E0A3F608DFFAE0A3FFE0DB
:10015000A3C0E0E0A3C0E0E0A3C0E0E0A3C0E0E013
:10016000A3C0E010AF0885821085831180088582C6
:1001700010858311D2AFD083D082020068C082C0C4
:100180008343FF01120097120091D083D0820200B6
:1001900068D2A0D2A0D2A0D2A0C2A0C2A0C2A0C247
:1001A000A0C2A0C2A0C2A0C2A0D2A0D2A0D2A0D2FF
:1001B000A0C2A0C2A0C2A0C2A0C2A0C2A0C2A0C22F
:1001C000A0D2A0D2A0D2A0D2A0C2A0C2A0C2A0C2DF
:1001D000A0C2A0C2A0C2A0C2A0D2A0D2A0D2A0D2CF
:1001E000A0C2A0C2A0C2A0C2A0C2A0C2A0C2A0C2FF
:1001F000A0D2A0D2A0D2A0D2A0C2A0C2A0C2A0C2AF
:10020000A0C2A0C2A0C2A0C2A0D2A0D2A0D2A0D29E
:10021000A0C2A0C2A0C2A0C2A0C2A0C2A0C2A0C2CE
:10022000A0D2A0D2A0D2A0D2A0C2A0C2A0C2A0C27E
:10023000A0C2A0C2A0C2A0C2A0D2A0D2A0D2A0D26E
:10024000A0C2A0C2A0C2A0C2A0C2A0C2A0C2A0C29E
:10025000A0D2A0D2A0D2A0D2A0C2A0C2A0C2A0C24E
:10026000A0C2A0C2A0C2A0C2A0D2A0D2A0D2A0D23E
:10027000A0C2A0C2A0C2A0C2A0C2A0C2A0C2A0C26E
:10028000A0D2A0D2A0D2A0D2A0C2A0C2A0C2A0C21E
:10029000A0C2A0C2A0C2A0C2A0D2A0D2A0D2A0D20E
:1002A000A0C2A0C2A0C2A0C2A0C2A0C2A0C2A0C23E
:1002B000A0D2A0D2A0D2A0D2A0C2A0C2A0C2A0C2EE
:1002C000A0C2A0C2A0C2A0C2A0D2A0D2A0D2A0D2DE
:1002D000A0C2A0C2A0C2A0C2A0C2A0C2A0C2A0C20E
:1002E000A0D2A0D2A0D2A0D2A0C2A0C2A0C2A0C2BE
:1002F000A0C2A0C2A0C2A0C2A0D2A0D2A0D2A0D2AE
:10030000A0C2A0C2A0C2A0C2A0C2A0C2A0C2A0C2DD
:10031000A0D2A0D2A0D2A0D2A0D2A0D2A0D2A0D24D
:10032000A0C2A0C2A0C2A0C2A0D2A0D2A0D2A0D27D
:10033000A0D2A0D2A0D2A0D2A0C2A0C2A0C2A0C26D
:10034000A0D2A0D2A0D2A0D2A0D2A0D2A0D2A0D21D
:10035000A0C2A0C2A0C2A0C2A0D2A0D2A0D2A0D24D
:10036000A0D2A0D2A0D2A0D2A0C2A0C2A0C2A0C23D
:10037000A0D2A0D2A0D2A0D2A0D2A0D2A0D2A0D2ED
:10038000A0C2A0C2A0C2A0C2A0D2A0D2A0D2A0D21D
:10039000A0D2A0D2A0D2A0D2A0C2A0C2A0C2A0C20D
:1003A000A0D2A0D2A0D2A0D2A0D2A0D2A0D2A0D2BD
:1003B000A0C2A0C2A0C2A0C2A0D2A0D2A0D2A0D2ED
:1003C000A0D2A0D2A0D2A0D2A0C2A0C2A0C2A0C2DD
:1003D000A0020068C082C083C2A09002001200BFC9
:1003E0001200A3D083D08202006874F01200CB8A7E
:1003F0000C8B0D8C0E8D0F7A007B008019E8240188
:10040000F8E93400F9C3E89417E9940240EFEA24CC
:1004100001FAEB3400FB8A088B09E4F50AF50B7846
:100420000C79081200AF50067800790080D77F0859
:1004300002013753C6BFE59EA2E640FA53C6B80292
:1004400000681200A912008B12009DC28290020463
:100450001200BF1200A3D2829002041200BF120049
:10046000A3C2839002041200BF1200A3D2839002A1
:10047000041200BF1200A380D243FD0CD282D283AB
:030480000200680F
:0400000500000050A7
:00000001FF
