:020000040800F2
:10000000D00A0020CD0100088D15000889150008D0
:100010008B150008AD030008C51E00080000000095
:10002000000000000000000000000000251900088A
:100030009D040008000000000916000827190008A8
:10004000E7010008E7010008E7010008E7010008F0
:10005000E7010008E7010008E7010008E7010008E0
:10006000E7010008E7010008E7010008E7010008D0
:10007000E7010008E7010008E7010008E7010008C0
:10008000E7010008E7010008E7010008E7010008B0
:10009000E7010008E7010008E7010008E7010008A0
:1000A000E7010008E7010008E7010008E701000890
:1000B000ED190008011A0008E7010008E70100082F
:1000C000E7010008E7010008E7010008E701000870
:1000D000E70100085D1E0008E7010008E7010008CD
:1000E000E7010008E7010008E7010008E701000850
:1000F000E7010008E7010008E7010008E701000840
:10010000E7010008E7010008E7010008E70100082F
:10011000E7010008E7010008E7010008E70100081F
:10012000E7010008E7010008E7010008E70100080F
:1001300000F002F800F03AF80AA090E8000C8244BF
:100140008344AAF10107DA4501D100F02FF8AFF29C
:10015000090EBAE80F0013F0010F18BFFB1A43F0A5
:1001600001031847301E0000501E0000103A24BF43
:1001700078C878C1FAD8520724BF30C830C144BF0C
:1001800004680C607047000000230024002500264E
:10019000103A28BF78C1FBD8520728BF30C148BFEA
:1001A0000B6070471FB51FBD10B510BD00F0B8F84B
:1001B0001146FFF7F7FF01F0A9FE00F0EAF803B4DB
:1001C000FFF7F2FF03BC01F07EFE00000948804704
:1001D00009480047FEE7FEE7FEE7FEE7FEE7FEE729
:1001E000FEE7FEE7FEE7FEE704480549054A064B41
:1001F000704700009D19000831010008D00400205C
:10020000D00A0020D0060020D00600207047000051
:100210000FB4044910B503AA029800F053F810BCBB
:100220005DF814FB200000204FF000020429C0F00C
:10023000128010F0030C00F01B80CCF1040CBCF118
:10024000020F18BF00F8012BA8BF20F8022BA1EB6A
:100250000C0100F00DB85FEAC17C24BF00F8012B4F
:1002600000F8012B48BF00F8012B70474FF0000247
:1002700000B5134694469646203922BFA0E80C509C
:10028000A0E80C50B1F12001BFF4F7AF090728BF77
:10029000A0E80C5048BF0CC05DF804EB890028BFF3
:1002A00040F8042B08BF704748BF20F8022B11F01C
:1002B000804F18BF00F8012B704770477047704798
:1002C00070470000074B70B50D467B4400F011F8F5
:1002D0000446284600F020F810B14FF0FF3070BD02
:1002E000204670BD271C000001694A1C0261087885
:1002F000704700B58FB0CDE9013100210591054966
:100300007944CDE903101146684600F02EF80FB08D
:1003100000BD0000E5FFFFFF007B00F0800070479C
:10032000754600F03FF8AE4605006946534620F09A
:100330000700854618B020B5FFF756FFBDE82040FE
:100340004FF000064FF000074FF000084FF0000B91
:1003500021F00701AC46ACE8C009ACE8C009ACE844
:10036000C009ACE8C0098D4670472DE9F04106464A
:100370000024D6E90170F5688046304603E0414626
:10038000B847641C3046A8470028F8D12046BDE88D
:10039000F08110B50446AFF300802046BDE8104060
:1003A000FFF70DBF0048704770040020FEE770B5EE
:1003B00000220E46144610B10EB1054609E04FF674
:1003C000FF7070BD295D90B201F07EFD641C02B229
:1003D000A4B2B442F6DB90B270BD00002DE9F04744
:1003E000DFF8AC900126DFF8AC80D9F80010B1F549
:1003F000004F05D088F8036098F80300BDE8F08747
:100400002549002788F803700A7ACB7902EB03228A
:10041000824233D1A1F5D2750879287188794B7958
:10042000444600EB0320E8802A81887A4A7A00EB70
:1004300002206881C87A28730C2003E00A5C2B181C
:10044000401C5A70A0802A7B80B20C328242F5D8C0
:10045000297B1148104A0C300D32085C8A5C0C3143
:1004600002EB0020A5F8D6000B48FFF7A0FFE080C4
:10047000B5F8D610814203D0E67001E088F8036039
:10048000C8210548FFF7F2FEC9F80070B4E7000084
:100490001C0000200E000020B0020020704731B583
:1004A00000F008F9044600F005F90099001B8842A5
:1004B000F9D338BD2DE9F84FDFF8BC91002309F1DD
:1004C000040A0AF1040B1C464FF00F080BF1040E4E
:1004D00001270A68A7403A40BA4272D1DFF89CC1AE
:1004E0004D68A5EB0C0665452BD00DDC032D34D0F3
:1004F00005DC35B3012D19D0022D2FD11BE0112DB4
:1005000016D0122D2AD119E0B6F5881F19D006DCB5
:10051000B6F5803F15D0B6F5801F1FD111E0B6F5B6
:10052000001F0ED0B6F5041F18D10AE0CB6815E005
:10053000CB681B1D12E0CB6808330FE0CB680C338F
:100540000CE08B682BB1012B4FF0080303D04761FF
:1005500004E0042302E0076100E00023FF2A01D841
:10056000064601E000F104064FEA840501D9A5F131
:100570002005376808FA05FC27EA0C0703FA05F599
:1005800047EA050737604D68ED006ED53C4DAE6912
:1005900046F00106AE61AD6924F0030605F00105E1
:1005A0000095384D7719BE68A5072D0F08FA05FC90
:1005B00026EA0C06DFF8D0C0604503D14FF0000CEE
:1005C00025E052E0DFF8C4C0604502D14FF0010CD5
:1005D0001DE0DFF8BCC0604502D14FF0020C16E010
:1005E000DFF8B0C0604502D14FF0030C0FE0DFF838
:1005F000A8C0604502D14FF0040C08E0DFF89CC0B1
:10060000604502D14FF0050C01E04FF0060C0CFAEA
:1006100005FC4CEA060CC7F808C04D68D9F8006024
:10062000ED034D4601D5164300E096432E604D681C
:10063000DAF80060AD03554601D5164300E0964355
:100640002E604D68DBF80060ED025D4601D5164373
:1006500000E096432E604D68DEF80060AD027546FE
:1006600001D5164300E096432E60641C102CFFF465
:100670002FAFBDE8F88F000000040140000011100A
:10068000001002400000014000080140000C014041
:10069000001001400014014000180140001C0140FE
:1006A0008068084000D0012070470AB1016170479E
:1006B0000904FBE7014800687047000008000020BB
:1006C00002480168491C01607047000008000020D2
:1006D000074810B5016841F010010160032000F0E7
:1006E00047F80F2000F006F800F015F8002010BDC4
:1006F0000020024010B5044600F00CF94FF47A7166
:10070000B0FBF1F000F049FC00222146501E00F041
:100710000FF8002010BD704700F01F02012191402A
:100720004009800000F1E020C0F80011704700008F
:10073000F0B40E4B1B68C3F30223C3F10704042C6F
:1007400000D904241D1D072D01D2002300E0DB1E6B
:10075000012606FA04F56D1E0D409D409E40761E52
:10076000164045EA0601F0BC00F011BF0CED00E0B8
:10077000064A00F0070110684FF6FF03184040EAF0
:100780000120034908431060704700000CED00E0B1
:100790000000FA052DE9F047DFF8688104460E46AF
:1007A000D8F8000000F00700B0420CD2D8F80010D2
:1007B00021F007013143C8F80010D8F8000000F01C
:1007C0000700B04273D120784F4F800705D5786875
:1007D000A16820F0F000084378602078C00755D069
:1007E0006068012201280CD0022828D0022393FA45
:1007F000A3F1B1FA81F141F02001490904D039682F
:1008000003E04FF40033F2E7796A93FAA3F3B3FA03
:1008100083F303F01F039A40114248D0796821F016
:10082000030101437960FFF745FF0546606841F227
:10083000883101280CD00228894615D022E04FF0DB
:100840000073D4E7FFF736FF411B494501D916E095
:1008500089467868C0F381000128F3D116E0FFF7DC
:1008600029FF411B49450AD87868C0F38100022856
:10087000F5D10BE0FFF71EFF411B494502D90320CC
:10088000BDE8F087786810F00C0FF3D1D8F80010AD
:10089000404601F00701B1420BD9016821F0070180
:1008A00031430160006800F00700B04201D0012030
:1008B000E6E72078400705D57868E16820F4E06035
:1008C000084378602078000706D57868216920F40D
:1008D000605040EAC100786000F052F87968F02278
:1008E00092FAA2F201F0F001B2FA82F2D140074A84
:1008F000515CC840064908600F20FFF7FBFE00204E
:10090000BEE7000000200240001002407C1F0008EB
:100910000400002001480068704700000400002027
:1009200008480949006849684FF4E06292FAA2F267
:1009300001F4E061B2FA82F2D140044A515CC8404D
:100940007047000004000020001002408C1F0008C7
:1009500008480949006849684FF4605292FAA2F2C7
:1009600001F46051B2FA82F2D140044A515CC840AD
:100970007047000004000020001002408C1F000897
:1009800010B519A085B00FC88DE80F001AA01B4B39
:100990000068049059681A4801F00C02042A1DD01E
:1009A000082A1BD14FF4701494FAA4F401F47012C5
:1009B000B4FA84F4E240C9031DF8022010D5596846
:1009C0004FF4003393FAA3F301F40031B3FA83F345
:1009D000D94004AB595CB0FBF1F0504305B010BDF9
:1009E00008485043FAE70000020304050607080917
:1009F0000A0B0C0D0E0F1010010200000010024037
:100A000000127A0000093D002DE9F84F04460078F5
:100A1000FE4EC0074FF001057FD070684FF40038DC
:100A2000C0F38100012807D07068C0F3810002285C
:100A30001BD17068C00318D598FAA8F0B0FA80F0FE
:100A400040F02000400901D0306800E0706A98FA58
:100A5000A8F1B1FA81F101F01F0105FA01F1084294
:100A60005BD06068002879D057E06068B0F5803FBF
:100A70000BD010B1B0F5A02F11D0306820F4803029
:100A80003060306820F4802002E0306840F480302C
:100A90003060606818B3FFF70DFE074609E0306864
:100AA00040F480203060F0E7FFF704FEC01B6428AC
:100AB00070D898FAA8F0B0FA80F040F02000400911
:100AC00001D0306800E0706A98FAA8F1B1FA81F1BB
:100AD00001F01F0105FA01F10842E5D01DE0FFF722
:100AE000E9FD074604E0FFF7E5FDC01B6428DFD8F9
:100AF00098FAA8F0B0FA80F040F02000400901D048
:100B0000306800E0706A98FAA8F1B1FA81F101F05A
:100B10001F0105FA01F10842E5D12078DFF8F082E3
:100B200080074FF0000A4FF002075AD570684FF067
:100B3000F80B10F00C0F07D07068C0F3810002288A
:100B40001CD17068C00319D497FAA7F0B0FA80F0EE
:100B500040F02000400902D0306801E08AE0706A6D
:100B600097FAA7F1B1FA81F101F01F0105FA01F13D
:100B700008422BD0206901287CD127E0206988B366
:100B800095FAA5F0B0FA80F048F82050FFF792FDF2
:100B9000814606E04DE1FFF78DFDA0EB090002283C
:100BA00086D897FAA7F0B0FA80F040F0200040090C
:100BB00001D0306800E0706A97FAA7F1B1FA81F1CC
:100BC00001F01F0105FA01F10842E4D030689BFAF8
:100BD000ABF220F0F8016069B2FA82F29040014372
:100BE000316025E0FFE795FAA5F1B1FA81F148F807
:100BF00021A0FFF75FFD814605E0FFF75BFDA0EB5D
:100C000009000228CCD897FAA7F0B0FA80F040F09B
:100C10002000400901D0306800E0706A97FAA7F11F
:100C2000B1FA81F101F01F0105FA01F10842E4D1A6
:100C3000207800076DD5A069B8B395FAA5F0B0FA91
:100C400080F008EB8000C0F88054FFF733FD814648
:100C500005E0FFF72FFDA0EB09000228A0D897FAC6
:100C6000A7F0B0FA80F040F06000B5EB501F02D161
:100C700030680CE063E197FAA7F0B0FA80F040F03A
:100C80006000B7EB501F01D1306A00E0706A97FA3C
:100C9000A7F1B1FA81F101F01F0105FA01F210424A
:100CA000D7D00120FFF7FBFB33E0FFE795FAA5F172
:100CB000B1FA81F108EB8101C1F880A4FFF7FAFCD9
:100CC000814605E0FFF7F6FCA0EB0900022899D861
:100CD00097FAA7F0B0FA80F040F06000B5EB501F33
:100CE00001D130680BE097FAA7F0B0FA80F040F03D
:100CF0006000B7EB501F01D1306A00E0706A97FACC
:100D0000A7F1B1FA81F101F01F0105FA01F21042D9
:100D1000D8D12078400763D5F06940F08050F06169
:100D2000F069DFF8F0B000F080500090DBF80010C0
:100D300041F48071CBF80010FFF7BCFC814605E060
:100D4000FFF7B8FCA0EB0900642872D8DBF80000BC
:100D5000C005F5D5E06801280AD008B1052813D0F0
:100D6000306A20F001003062306A20F0040002E0B6
:100D7000306A40F001003062E06841F2883B80B3A5
:100D8000FFF798FC81460AE0306A40F004003062C8
:100D9000EEE7FFF78FFCA0EB0901594549D897FA18
:100DA000A7F0B0FA80F040F04000B5EB501F01D141
:100DB00030680BE097FAA7F0B0FA80F040F04000FE
:100DC000B7EB501F01D1306A00E0706A97FAA7F1C3
:100DD000B1FA81F101F01F0205FA02F10842D8D000
:100DE00033E0FFE7FFF766FC814605E0FFF762FCB2
:100DF000A0EB090159451CD897FAA7F0B0FA80F08A
:100E000040F04000B5EB501F08D105E00010024053
:100E1000000042420070004030680CE097FAA7F0F2
:100E2000B0FA80F040F04000B7EB501F02D1306ABA
:100E300001E08AE0706A97FAA7F1B1FA81F101F056
:100E40001F0205FA02F10842D0D1E06998B3716837
:100E5000C1F38101022972D002284FF080714FF056
:100E6000007B50460AD091FAA1F1B1FA81F148F81D
:100E70002100FFF71FFC04465F4669E08A4691FAAD
:100E8000A1F1B1FA81F1C14648F82100FFF712FC47
:100E9000A84607465D4604E0FFF70CFCC01B02288D
:100EA00053D895FAA5F0B0FA80F040F02000400940
:100EB00002D0306801E060E0706A95FAA5F1B1FAFD
:100EC00081F101F01F0208FA02F10842E4D1206A20
:100ED000B0F5803F05D17068A16820F40030084368
:100EE0007060D4E908010843716821F47411084363
:100EF00070609AFAAAF0B0FA80F0474649F820806C
:100F0000FFF7D8FB044604E0FFF7D4FB001B0228E0
:100F10001BD895FAA5F0B0FA80F040F02000400907
:100F200001D0306800E0706A95FAA5F1B1FA81F15C
:100F300001F01F0107FA01F10842E5D01DE01EE0B3
:100F4000FFF7B8FB001B022802D90320BDE8F88F89
:100F500097FAA7F0B0FA80F040F02000400901D0E5
:100F6000306800E0706A97FAA7F1B1FA81F101F0F8
:100F70001F0105FA01F10842E2D10020E6E7012055
:100F8000E4E74FF0E0210428086903D020F00400D2
:100F90000861704740F00400FAE710B5401EB0F158
:100FA000807F01D3012010BD4FF0E02460610F214C
:100FB000601700F0ECFA0020A061072020610020FB
:100FC00010BD7047704710B5040003D094F8390085
:100FD00010B107E0012010BD002084F83800204641
:100FE00000F00CF8022084F83900211D206800F080
:100FF00033FD012084F83900002010BD38B50546C6
:1010000000681549154C88420FD1E06940F0020094
:10101000E061E069032200F00200009001211D2040
:10102000FFF786FB1D20FFF777FB2868B0F1804FA4
:1010300011D1E06940F00100E061E069032200F0B5
:101040000100009001211C20FFF772FBBDE8384031
:101050001C20FFF761BB38BD0004004000100240B7
:101060000168CA6842F00102CA600068016841F084
:101070000101016000207047704770B504460068A8
:1010800001694FF00005C943890715D4C168C943F8
:10109000890711D4E91E016101202076206880694A
:1010A0008007204602D0FFF7E7FF04E000F098F841
:1010B000204600F096F8257620680169C943490763
:1010C00017D4C168C943490713D46FF00401016103
:1010D000022020762068806910F4407F204602D0EC
:1010E000FFF7CAFF04E000F07BF8204600F079F833
:1010F000257620680169C943090716D4C168C94328
:10110000090712D46FF008010161042020762068DD
:10111000C0698007204602D0FFF7AEFF04E000F070
:101120005FF8204600F05DF8257620680169C94324
:10113000C90617D4C168C943C90613D46FF010019A
:101140000161082020762068C06910F4407F2046A5
:1011500002D0FFF791FF04E000F042F8204600F0D3
:1011600040F8257620680169C943C90708D1C168DC
:10117000C943C90704D1891E0161204600F032F835
:1011800020680169C943090609D4C168C943090631
:1011900005D46FF0800101612046FFF712FF20683F
:1011A0000169C943490609D4C168C943490605D440
:1011B0006FF040010161204600F015F820680169D8
:1011C000C94389060BD4C168C943890607D46FF0A7
:1011D000200101612046BDE87040FFF7F3BE70BDFD
:1011E0007047704770477047704738B504460068CD
:1011F0000168C268C1F3000102F4807221B11AB122
:10120000E16B41F00101E1630168C1F34002416912
:1012100001F0010122B119B1E26B42F00402E26374
:101220000268C2F3800222B119B1E26B42F00202FD
:10123000E2630268C2F3C00222B119B1E16B41F06E
:101240000801E1630168C068C1F3401100F02000AB
:1012500019B110B1204600F079FC20680168C0681F
:10126000C1F3C01100F0800019B110B1204600F0A8
:1012700079FD21680868CA68C0F3801002F0400256
:10128000012568B162B1CA68204622F04002CA60F6
:1012900094F83910322910D080F8395000F073F9E1
:1012A000E06B002808D0206801684068009084F84E
:1012B00039502046FFF798FF38BD222180F83910B9
:1012C000ECE770B5040004D094F83900002510B1A3
:1012D00006E0012070BD84F83850204600F020F868
:1012E000022084F839002068C16821F40051C160EF
:1012F000204600F07FFC2068016921F490410161E3
:101300002068416921F02A0141612068C16841F4E7
:101310000051C160E563012084F83900002070BDF0
:101320002DE9F04780460068444B0121444A0025DE
:10133000444C0226032786B04FF48069984230D18E
:10134000A06940F00400A061A06900F004000490CE
:10135000A06940F48040A061A06900F4804004903E
:10136000A06940F00100A061A069039700F00100AE
:10137000049048020090CDE901616946924610460A
:10138000FFF798F8CDE9009569465046FFF792F8C7
:101390002520FFF7C1F9012211462520FFF7C8F9E2
:1013A00023E0294B984220D1A06940F00400A061BD
:1013B000A06900F004000490E06940F40030E061AE
:1013C000E069039700F40030049004200090CDE918
:1013D0000161694692461046FFF76CF80820CDE996
:1013E000000569465046FFF765F81849D8F800002F
:1013F00088421FD1E06940F48020E061E06900F498
:1014000080200490A06940F00800A061A069104C01
:1014100000F00800CDE90370CDE90096694620464A
:10142000FFF748F8E014CDE900056946204602952B
:10143000FFF740F806B0BDE8F08700000038014033
:1014400000080140001002400044004000480040F5
:10145000000C014090F83930012B01D0122B2BD118
:1014600031B32AB390F83830012B25D0012380F80E
:10147000383081628285C2850021C16390F83920AD
:10148000122A17D0222280F8392080F838100168FB
:10149000CA6842F48072CA6001684A6942F0010277
:1014A0004A610068C16841F02001C16000207047B6
:1014B000012070473222E6E70220704770472DE98D
:1014C000F047044690F8390099460D46012801D0AE
:1014D000222856D125B31AB394F83800012850D0E9
:1014E000012684F838600027E76394F83900222841
:1014F00019D0122084F83900A284E2844FF4805875
:10150000E08C4B46401EE084A0684FF0000240454E
:101510004FF08001204613D100F057FC08BB04E0D7
:101520000120BDE8F0873220E4E728882168C0F375
:1015300008004860206908B16D1C08E0AD1C06E099
:1015400000F043FC68B9216815F8010B4860E08C95
:101550000028D5D14B4600224021204600F035FC22
:1015600008B10320DDE794F83900322805D084F86B
:10157000396084F838700020D3E7222084F83900DD
:10158000F7E70220CDE77047FEE7FEE7704709075F
:10159000090E002806DA00F00F0000F1E02080F8C4
:1015A000141D704700F1E02080F80014704700001F
:1015B00030B5134885B0816941F0040181618069CB
:1015C000012400F0040004900020CDE90040022036
:1015D000CDE902400B4D69462846FEF76BFF04201B
:1015E000CDE900040320CDE9024069462846FEF714
:1015F00061FF012204212846FFF757F805B030BDEE
:10160000001002400008014070470000F0B5284972
:1016100085B0087850B14888401C80B24880B0F549
:10162000FA7F01D30020488005B0F0BD2148012297
:101630000A70816941F001018161816901F0010154
:1016400004911D494B6823F0E06343F000734B6045
:10165000816941F008018161816901F0080104910B
:10166000816941F0040181618069144E00F0040039
:1016700004900320CDE9022048F218040192694643
:1016800000943046FEF716FF0D4F4FF400456946B3
:1016900038460095FEF70EFF012221463046FFF73F
:1016A00004F8012229463846FEF7FFFFBCE7000098
:1016B000000000200010024000000140000C01402A
:1016C0000008014038B541F601242046FEF786FEA9
:1016D00000280BD106A0FEF79BFD094800900123CE
:1016E0002046224641F6017100F08EF838BD000018
:1016F00067657420726571756572790D0A00000066
:101700000C00002030B5104885B0816941F004011B
:10171000816180694FF4807400F00400049001201E
:10172000CDE900400220094D039069462846FEF7A6
:10173000C1FE002221462846FEF7B7FF00F0D6F88A
:1017400000F0CCF905B030BD0010024000080140A7
:10175000F0B52A49012503264A78294F0023294C50
:101760004FF0020CE12803D1042A01D24D7012E09F
:10177000012A04D0022A07D0032A09D00AE0E2286D
:1017800008D181F801C006E0E32803D14E7002E0E1
:10179000E42817D04B708A78002A1DD02268C72A07
:1017A00002D90B708B7023602268B854521C2260DF
:1017B000EA2810D00A78012A0FD0022A12D0032A70
:1017C00014D019E0E1223A70E2227A70E322BA7072
:1017D00026608D70E8E70D70F0BDEB280CD181F824
:1017E00000C0F0BDEC2807D10E70F0BDED2803D18C
:1017F0004FF4004020608B700B70F0BD0E00002095
:10180000B00200201C0000202DE9F0411E461346C6
:101810002C4F069A0D46002404F1E1013955641C51
:10182000A4B2042CF8D3284C2179FF2901D300213C
:101830002171C9B23971491C2171010A7971B871DC
:10184000280AF8713D72180A7872BB72FE720C2079
:1018500006F10C0105E0131813F80C3C3B54401C36
:1018600080B28842F7D31748FEF7A1FDA4F8D6004E
:10187000020AB91906F10E050A7348732C1D04E01B
:10188000A81BDC3078556D1CADB2A542F8D30122FF
:101890000E4E150229463046FEF707FF052000F0E0
:1018A00019F84FF47A73224606490948FFF707FEF4
:1018B000052000F00FF829463046BDE8F04100222F
:1018C000FEF7F3BEE80100203000002000080140D0
:1018D0007803002000224FF4165304E00021491C35
:1018E0009942FCD3521C8242F8D3704770B50B4C1E
:1018F0000948002520602571E580258165812573D3
:10190000C82104F10D00FEF78FFCA4F8D65004485E
:10191000C4F8D80070BD0000E4E3E2E10C0100204F
:10192000EDECEBEA704710B5FFF770FEBDE8104034
:10193000FEF7C6BE30B58FB002240120049000949B
:101940001020059000254FF46010CDE90850079451
:101950006846FFF759F800B1FEE70AA90F2081E8B1
:1019600031004FF48060CDE90D0502210AA8FEF791
:1019700011FF00B1FEE7FEF7CDFF4FF47A71B0FB27
:10198000F1F0FFF70AFB0420FFF7FBFA00221146F3
:10199000501EFEF7CDFE0FB030BD00000F4810B551
:1019A000016841F00101016041680D4A1140416048
:1019B00001680C4A11400160016821F48021016036
:1019C000416821F4FE0141604FF41F018160FFF77F
:1019D000B1FF05494FF00060086010BD00100240E3
:1019E0000000FFF8FFFFF6FE08ED00E002490120CD
:1019F00008700248FFF741BB240000203404002097
:101A000010B5054C6068401C60600448FFF735FB6A
:101A1000A068BDE81040004724000020F803002023
:101A200010B50B4B1446094AC3E900210021C3E954
:101A3000021018461961FFF7C6FA0CB10548846018
:101A4000BDE810400248FFF70BBB00000004004057
:101A5000F803002024000020F0B502681A4D1B4E48
:101A60001B4FDFF870C01C4B4FF0804EA84209D0CE
:101A7000984207D0704505D0B04203D0B84201D09B
:101A8000604503D122F070044A682243A84209D07D
:101A9000984207D0704505D0B04203D0B84201D07B
:101AA000604503D122F44074CA68224302608A6808
:101AB000C2620A688262A84201D0984201D10969D3
:101AC000016301214161F0BD002C01400004004090
:101AD00000080040000C00400034014070B50B4C81
:101AE0000948002520602571E580258165812573E1
:101AF000C82104F10D00FEF797FBA4F8D650044866
:101B0000C4F8D80070BD0000E4E3E2E1300000203A
:101B1000EDECEBEA0B4910B5094AC1E900200020C1
:101B20008860C860086188610C2048610846FFF73A
:101B3000C8FBBDE81040012203490248FFF78ABCF8
:101B400000380140780300201800002010B590F8FC
:101B50003910222903D0322901D0022010BD81681A
:101B6000B1F5805F11D00169002901681FD0496873
:101B700001F07F03816A4A1C82620B70C18D491E8D
:101B80000904090CC18518D02FE00269816A002A76
:101B90000268526805D0D2B20A80816A491C81620B
:101BA000ECE7C2F308020A80816A891CF7E74A68F9
:101BB000816A4B1C83620A70E0E70168CA6822F000
:101BC0002002CA6090F83910322910D00168CA6822
:101BD00022F48072CA6001684A6922F001024A61F7
:101BE000012180F83910FFF769FC002010BD122197
:101BF000F7E700002DE9F041044600680169E2685A
:101C000021F4405111430161A168206901436069D9
:101C100001432068C26841F20C639A430A43C260E0
:101C200020684169A26921F44071114341614C4926
:101C300020686426322788423CD1FEF789FE00EBFB
:101C4000C00101EB001061688900B0FBF1F5FEF7FF
:101C50007FFE00EBC00101EB00106168B84689000F
:101C6000B0FBF1F0B0FBF6F06FF01801484305EB64
:101C7000800107EB0110B0FBF6F000F0F005FEF775
:101C800067FE00EBC00101EB001061688900B0FB4A
:101C9000F1F0B0FBF6F005EB0015FEF759FE00EB96
:101CA000C00101EB001061688900B0FBF1F7FEF79D
:101CB0004FFE3BE0FEF734FE00EBC00101EB0010ED
:101CC00061688900B0FBF1F5FEF72AFE00EBC00168
:101CD00001EB00106168B8468900B0FBF1F0B0FB81
:101CE000F6F06FF01801484305EB800107EB011097
:101CF000B0FBF6F000F0F005FEF712FE00EBC001BD
:101D000001EB001061688900B0FBF1F0B0FBF6F068
:101D100005EB0015FEF704FE00EBC00101EB00101F
:101D200061688900B0FBF1F7FEF7FAFD00EBC00136
:101D300001EB001061688900B0FBF1F0B0FBF6F038
:101D40006FF01801484307EB800108EB0110B0FB6E
:101D5000F6F0216800F00F0028448860BDE8F081AB
:101D60000038014090F83910122903D0322901D0EF
:101D7000022070478168B1F5805F016A0BD04A1C70
:101D80000262026809785160C18C491E0904090C7D
:101D9000C1840ED017E009880268C1F308015160C0
:101DA00001690029016A02D0491C0162ECE7891C23
:101DB000FBE70168CA6822F08002CA600068C16857
:101DC00041F04001C160002070472DE9F0471D46F9
:101DD00090460F460446FEF76DFC06465FEA080093
:101DE0004FF000094FF0010808D030E0681C05D022
:101DF00095B1FEF75FFC801BA8420DD820680068F3
:101E000037EA0000F2D127E0681C20D025B1FEF7A8
:101E100051FC801BA8421AD92068C16821F08001BA
:101E2000C1602068C16821F02001C1602068C168DC
:101E300021F48071C1602068416921F00101416194
:101E400084F8398084F838900320BDE8F087206852
:101E5000006837EA0000D7D00020F6E70A4810B53E
:101E600000680068C043800609D408480068084933
:101E7000C0B24968B1F5004F01D0FFF769FCBDE879
:101E800010400148FFF7B1B9780300200438014041
:101E9000180000200A4910B5084AC1E900200020B6
:101EA00088600C22C860C1E904028861C8610846E4
:101EB000FFF707FA002800D0FEE710BD00480040F9
:101EC000B8030020FEE7704710B580EA0120002229
:101ED00041F221034FF6FF71040403D583EA400069
:101EE00080B201E001EA4000521C92B2082AF3D30A
:101EF00010BD000004490A685206FCD5024AC1B26E
:101F0000121D11607047000000480040FEF7E0FB22
:101F1000FFF74EFB4FF4E1342046FFF7FBFD204670
:101F2000FFF7B8FFFFF7EEFB0BA0FEF771F9104AC1
:101F300040F27F2142F20F70FFF772FD0D4F012535
:101F40000D4C002601213846FEF7AAFB08B125708A
:101F5000F8E72670F6E7000074686973206973205B
:101F6000757361727433207072696E740D0A0000AB
:101F7000C5160008000801400C0000200000000009
:101F80000000000001020304060708090000000029
:101F900001020304B41F000800000020300000000C
:101FA0006C010008E41F000830000020A00A0000B7
:101FB000880100080000F4010090D0030000000038
:101FC0000000000000000000000000000000000011
:101FD0000000000000000000000000000000000001
:041FE00000000000FD
:0400000508000131BD
:00000001FF
